:020000040000FA
:10000000C0070000D1060000D1000000B1060000CA
:1000100000000000000000000000000000000000E0
:100020000000000000000000000000005107000078
:100030000000000000000000DB000000E500000000
:10004000EF000000F9000000030100000D010000B6
:1000500017010000210100002B0100003501000004
:100060003F01000049010000530100005D01000054
:1000700067010000710100007B01000085010000A4
:100080008F01000099010000A3010000AD010000F4
:10009000B7010000C1010000CB010000D501000044
:1000A000DF010000E9010000F3010000FD01000094
:1000B00007020000110200001B02000025020000E0
:1000C0001FB5C046C04600F0EFFA04B00FB41FBD24
:1000D00008205A49096809580847382057490968CB
:1000E000095808473C2055490968095808474020E5
:1000F0005249096809580847442050490968095875
:10010000084748204D490968095808474C204B4981
:10011000096809580847502048490968095808479C
:100120005420464909680958084758204349096836
:10013000095808475C204149096809580847602068
:100140003E4909680958084764203C49096809582C
:100150000847682039490968095808476C20374919
:100160000968095808477020344909680958084740
:100170007420324909680958084778202F490968CE
:10018000095808477C202D490968095808478020EC
:100190002A490968095808478420284909680958E4
:1001A0000847882025490968095808478C202349B1
:1001B00009680958084790202049096809580847E4
:1001C00094201E4909680958084798201B49096866
:1001D000095808479C201949096809580847A02070
:1001E0001649096809580847A4201449096809589C
:1001F0000847A8201149096809580847AC200F4949
:10020000096809580847B0200C4909680958084787
:10021000B4200A49096809580847B82007490968FD
:1002200009580847BC2005490968095808470000D3
:1002300003480449024A034B7047000000000020B5
:10024000C0070000C00700000122D84B5A6000BF61
:10025000D74A1268002AFBD0016000BFD44A126856
:10026000002AFBD00022D14B5A6000BFD04A12684E
:10027000002AFBD07047F0B505460E46174600240D
:1002800006E0A200B158A2005019FFF7DDFF641C80
:10029000BC42F6D30020F0BD0120C043C549086030
:1002A000401048607047014601229204086890425D
:1002B00001D9102070470020FCE7F0B505460C4638
:1002C0001646002706E028462168FFF7BDFF2D1DD2
:1002D000241D7F1CB742F6D3F0BD70B505460C4611
:1002E0002E460BE0304600F075F9FF2C01D80024B3
:1002F00001E0FF3C013C012080023618002CF1D1C6
:1003000070BD0146012212044868904201D90920BB
:100310007047A9484069401C01D10F20F8E7002030
:10032000F6E7FEB504462068030000F037FA05043E
:100330002B4249598B00201DFFF7E3FF0546002D96
:1003400001D02846FEBDFFF7A7FF0120C00200F044
:1003500041F9042221469948FFF78DFF002801D07A
:100360000320EFE708222146944800F06DF90028A9
:1003700006D1002192480068FFF766FF00F00CF9F3
:100380000320DFE7A768E6686068019031463846D9
:10039000FFF7A3FF324638460199FFF78EFFB20000
:1003A0003846019900F050F9002800D1CAE703202F
:1003B000C8E700F0E3F9834800688349086041E03A
:1003C00060680190E668A0680090B200009901980A
:1003D00000F03AF90746002F00D1B3E70E20B1E74D
:1003E000201DFFF760FF0546002D01D02846A9E734
:1003F0006068002807D1FFF74FFF0320800200F05C
:10040000E9F800F0C9F8FFF747FF0120C00200F04B
:10041000E1F8042221466948FFF72DFF002801D0AA
:1004200003208FE708222146644800F00DF90028D8
:1004300006D1002162480068FFF706FF00F0ACF823
:1004400003207FE700BF00207CE770B505460C461F
:10045000182D04D12068FFF764FF206002E001201E
:10046000206000BF00BF70BDF0B589B05248406940
:1004700003905248806881000398081802900398FE
:10048000000B01900121090302984018401E000B47
:1004900000900124002520462946019A00F0C4F866
:1004A0000022401E91410791069001260027304608
:1004B0003946009A00F0B8F80022401E914105919B
:1004C0000490049BDB43059AD2430698184307998E
:1004D00011430791069037490698086007984860CD
:1004E00009B0F0BD70B53448446934488568466841
:1004F000AA003146204600F0A7F8002801D00020CD
:1005000070BD0120FCE72D484068002801D0012083
:1005100000E000200546FFF7E5FF002807D0FFF7C1
:10052000BBFE0320800200F055F800F035F8FFF71D
:100530009BFF002D0ED020484669204884684768FC
:1005400021463046FFF7C9FE224639463046FFF7BE
:10055000B4FE00BF00F020F810B5184844681A48EF
:100560000460204600F0DCF810BD15480068006803
:10057000401C01D100BFFEE710480068002802D0EF
:10058000042806D101E0FFF7BEFFFFF7E5FF00BF3B
:10059000FEE700BF00BFFEE7BFF34F8F0B480C49DB
:1005A000C860BFF34F8F00BFFEE7000000E50140C9
:1005B00000E40140000600400010001000080000A8
:1005C000B8070000BC070000000000200400FA0586
:1005D00000ED00E010B50146104B1A6808460223F2
:1005E0000F4C636000BF0F4B1B68002BFBD0531CEC
:1005F00004D0904202D20A4B186101E0084B986087
:1006000000BF084B1B68002BFBD00023044C636029
:1006100000BF044B1B68002BFBD010BD0010001066
:1006200000E5014000E4014010B5202A04DB01464A
:10063000203A9140002010BD914020239C1A03468F
:10064000E3401943904010BD034610B50B439B0790
:100650000FD1042A0DD308C810C9121FA342F8D025
:1006600018BA21BA884201D9012010BD0020C04328
:1006700010BD002A03D0D30703D0521C07E000208E
:1006800010BD03780C78401C491C1B1B07D1037854
:100690000C78401C491C1B1B01D1921EF1D118463D
:1006A00010BD70477047704710B500F007F810BDD7
:1006B000014B1B68DB6818470000002019481A49E5
:1006C0007047FFF7FBFFFFF7FBFC00BD20BFFDE716
:1006D0001649174C24688C420BD1164B1B68994263
:1006E0000CD1154B154A1360186810498842EDD09B
:1006F0000AE0134880F30888124B18470F4A13602A
:1007000018680A498842E1D080F308880E49884277
:1007100004DD0E48026802210A4302605B68184744
:100720000346DFE7C0070000C0070000FFFFFFFF30
:10073000000C000014100010001000000000002049
:10074000000400206B05000000200020240500406C
:100750000D48704502D1EFF3098101E0EFF3088104
:10076000886902380078182802D1C046074A104725
:10077000074A12682C3212681047000000B5054B7A
:10078000054A9B58984700BDFDFFFFFF4B04000042
:1007900000000020001000000400000030B4744687
:1007A000641E2578641CAB4204D3635D5B00E318D0
:1007B00030BC18471D46F8E7000C00000010000090
:10100000D010002005A401007192000077A3010018
:1010100000000000000000000000000000000000D0
:1010200000000000000000000000000075A40100A6
:1010300000000000000000007192000071920000AA
:10104000E1A40100E7A40100719200007192000088
:101050007192000071920000719200007192000084
:10106000EDA401007192000071920000F3A4010050
:1010700071920000F9A40100FFA4010005A5010080
:101080007192000071920000719200007192000054
:101090007192000071920000719200007192000044
:1010A0000BA5010011A501007192000071920000D2
:1010B0007192000071920000719200007192000024
:1010C00000F002F819F07FF90CA030C80838241895
:1010D0002D18A246671EAB4654465D46AC4201D170
:1010E00019F071F97E460F3E0FCCB6460126334209
:1010F00000D0FB1AA246AB4633431847A495010023
:10110000C49501000023002400250026103A01D3D5
:1011100078C1FBD8520700D330C100D50B607047AF
:101120001FB5C046C04619F0F6F804B00FB41FBD95
:1011300082690249816102481044704745110000EC
:101140000100000001B41EB400B510F044F901B470
:101150000198864601BC01B01EBD0000F0B44046B7
:10116000494652465B460FB402A0013001B506481D
:10117000004700BF01BC86460FBC804689469246A8
:101180009B46F0BC70470000C110000070B50546DA
:101190000C46164602E00FCC0FC5103E102EFAD2B8
:1011A000082E02D303CC03C5083E042E07D301CC7E
:1011B00001C5361F03E021782970641C6D1C761E62
:1011C000F9D270BD70B50546F74C08202070A01C00
:1011D00000F03BFA5920A0802946204606F070FB1B
:1011E00070BD10B506F075FBEF490020891E087030
:1011F00010BD70B5EC4D0C46AD1E297801260029B6
:101200002ED06038030019F0CBF9532F383D4348F6
:101210004E53575D62F1F1F1F1F1F1676C70777B3C
:101220007E848A8F94989CA0A7ACB2BAC1C8F2F809
:10123000FFEDECEBEAE9F1F1F1F1F1E8E7E6E5E4E5
:10124000E3E2E1E0DFF1F1F1F1F1F1DEDDDCDBDA47
:10125000D9D8D7D6D5D4D3D2F1F1F1D1D0CFF100AE
:10126000602801D0D1489AE103CC083C06F085FC07
:101270002060002800D12E7070BD03CC083C06F021
:10128000F5FC8CE12088616880B206F04FFC86E1B5
:1012900003CC083C06F071FD81E12078A26861680A
:1012A00006F07DFD7BE107CC0C3C06F093FD76E17A
:1012B000206806F0A8FD72E12088616880B206F01F
:1012C000C0FD6CE103CC083C06F0CFFD67E103CC28
:1012D000083C06F0E6FD62E12078616801F070F9F3
:1012E0005DE1206801F0BAF959E1237B2179A26818
:1012F000206801F0C3F952E1206801F05EFA4EE186
:1013000000F083FF4BE12088616880B201F07AFB36
:1013100045E12088217980B201F0F0FB3FE120789F
:1013200040B201F0F9FB3AE1208880B201F046FFBB
:1013300035E1206801F054FF31E1206801F0E1FE61
:101340002DE1206801F00AFF29E1208982B203CC57
:10135000083C01F05DFF22E103CC083C01F0A6FF50
:101360001DE12088616880B202F0A3FF17E12088A8
:10137000217980B2E368A26803F08AF80FE120883F
:10138000217980B2A26803F025FA08E12088A268DA
:1013900080B2616803F09AFA01E1211D0EC920882C
:1013A00080B203F000FBFAE0F3E0EDE0E7E0DFE01D
:1013B000DAE0D2E0C8E0C1E0B7E0B0E0A7E09EE04C
:1013C00096E08EE085E07EE070E069E060E056E067
:1013D0004EE072E046E03FE038E02FE028E024E015
:1013E0001EE01AE015E00FE007E000E0D9E02088F9
:1013F000616880B203F017FBD1E02088227A21795E
:1014000080B201F095FBCAE0208880B201F095FB24
:10141000C5E0206801F098FBC1E000F0DAFEBEE014
:1014200007CC0C3C01F007FCB9E000F0BBFEB6E0D5
:101430002088616880B201F0AEFCB0E0A088A268AC
:1014400081B2208880B203F080FFA8E02088616824
:1014500080B203F0B6FFA2E02088616880B203F09A
:10146000BCFF9CE02088616880B203F0C3FF96E077
:101470002088A26880B2616803F0CFFF8FE02089E6
:1014800082B2A08881B2208880B203F0CFFF86E0CC
:101490002089616882B2208880B203F0E6FF7EE096
:1014A0002088616880B203F0F2FF78E0A08881B202
:1014B000208880B204F047F871E02088616880B22B
:1014C00004F04CF86BE02078A268616805F0C7FB77
:1014D00065E0A088A26881B2208880B205F0CEFBCA
:1014E0005DE0211D0EC9208880B205F0CBFB56E0DF
:1014F0002088A26880B2616805F0E0FB4FE0A08818
:10150000A26881B2208880B205F0EDFB47E0A08898
:10151000A26881B2208880B205F028FC3FE02088D4
:10152000616880B205F069FC39E0208982B2A08848
:1015300081B2208880B205F06AFC30E020886168C2
:1015400080B205F087FC2AE02089E36882B2208817
:10155000616880B205F0F8FC21E0211D0EC92088E9
:1015600080B205F0E5FD1AE0206805F07AFE16E08D
:101570002088A26880B2616805F07EFE0FE02088B6
:1015800080B207F09CF90AE0208880B207F0B6F933
:1015900005E02088A26880B2616807F0C0F9206089
:1015A00070BD266070BD00000A0000200130000000
:1015B0008307FF22DB0E9A408907090E9940002815
:1015C0000BDA0007000F0838830827489B0018181B
:1015D000C36993430B43C3617047830823489B004F
:1015E0001B181868904308431860704710B50446EC
:1015F00000210120FFF7DCFF00211820FFF7D8FFB2
:1016000000210B20FFF7D4FF02211920FFF7D0FFA4
:1016100002210D20FFF7CCFF02210E20FFF7C8FFAB
:1016200002210F20FFF7C4FF0221C81FFFF7C0FFF0
:1016300003211620FFF7BCFF03211520FFF7B8FF99
:101640002046FFF7BFFD002010BD782101807047C4
:1016500010B5FFF7C6FD10BD0548704710B5FFF780
:10166000C8FD10BD7047704700ED00E000E400E0E9
:1016700003F9004330B5FA4D044610280BD0112C65
:1016800007D028468178122C08D0132C0BD018F0E4
:101690006CFEAC7030BD18F068FEFAE71129F8D086
:1016A00018F063FEF5E71129F3D018F05EFEF0E7BD
:1016B00010B5EB4994B0C878002816D017206A46B8
:1016C000107000A806220230091D18F0C4FC09A9F8
:1016D000684609F04CFE0446112803D0002C01D0C6
:1016E00018F043FE204614B010BD3220E7E710B5D5
:1016F00002210CF071F910BDFFB595B01D460E46E4
:101700000746FFF7F4FF04000AD02078222804D30C
:10171000A07F8006C00FA84204D1082019B0F0BDF8
:10172000D048FBE73721684601704780002D05D07F
:101730000121017146711799817102E0002069460B
:10174000087109A9684609F012FEA07FDF21084050
:1017500069010843A0770020E0E730B50446084659
:1017600020380D46030018F01BFF0A06090F202839
:101770002E3C42484E5418F0F8FD4CE020782028CA
:1017800049D118F0F2FD46E0B5480178032942D06E
:10179000807813283FD0207824283CD025283AD0C0
:1017A000232838D018F0E1FD35E02078222832D007
:1017B000232830D818F0D9FD2DE0207822282AD00F
:1017C00018F0D3FD27E02078222824D0242822D026
:1017D000262820D027281ED029281CD018F0C5FD87
:1017E00019E02078252816D018F0BFFD13E02078E6
:1017F000252810D018F0B9FD0DE0207825280AD052
:1018000018F0B3FD07E02078282804D018F0ADFDCB
:1018100001E018F0AAFD257030BD30B5924C0B8860
:10182000924A022801D0934204D09D1FA54225D29E
:10183000022802D04D88954203D04D88AD1FA542A5
:101840001CD24C88A34219D88B88FF25F435AB42B3
:1018500014D8022802D0C888904205D0C888824D8A
:101860000A382D1FA84209D2C888904208D0944255
:1018700006D05B1C63438000834201DB072030BD40
:10188000002030BDF0B57A49884242D37A4A794D7A
:101890001368A84201D398423BD30279002A06D0AC
:1018A000082A02D8067B082E05D90720F0BD047B44
:1018B000002CFAD0F6E7002A06D004688C4228D320
:1018C000AC4201D39C4224D3002E06D084688C42C3
:1018D0001FD3AC4201D39C421BD300240BE005680C
:1018E000A700ED598D4214D3624FBD4201D39D42F2
:1018F0000FD3641CE4B2A242F1D800225D4D0CE08B
:1019000084689700E4598C4203D3AC4203D39C42D1
:1019100001D21020F0BD521CD2B29642F0D8002065
:10192000F0BD10B50289554B111F994213D2418960
:10193000042910D3DB1C99420DD891420BD80178B1
:10194000890706D54068002803D0FFF79BFF0028D1
:1019500000D1002010BD072010BDFFB50022099B5B
:10196000002802D0994205D858E0002902D1002071
:1019700004B0F0BD0920FBE7845C002C12D087186E
:101980007D78112D43D010DC2B0018F009FE0A40A1
:101990001726262C2C2E2E363640835C002B30D179
:1019A000521CD2B28A42F8D3E1E71C2D2FDA123D45
:1019B0002B0018F0F5FD042C2C121A2C022CD9D176
:1019C000BB78039C072B237001D25B0701D40A204C
:1019D000CEE7029B01241B7816E0E343DB0708E017
:1019E000012C08D013E00620C2E70F2523072D079E
:1019F0005B19002BF4D03046BAE7029B1B789C079A
:101A000001D50B20B4E702242343029C2370835C9E
:101A1000521C9A18D2B28A4202D9ABE71926760232
:101A20008A42A9D3A3E710B504780B46002C08D04E
:101A30000121134A012C07D0022C0BD0032C25D1F5
:101A400020E00021197023E01970817989090329A8
:101A50001CD11DE0197081798909012916D117E07F
:101A6000A8010020023000007B0C0000FFFF0000F6
:101A700000B00100000000201C000020FD3F00001D
:101A80000232000019708179890901D0104610BD19
:101A9000411C0622581C18F0DEFA002010BD08B5C3
:101AA0001346002806D0FDA00068009048796A46D9
:101AB0008009105C18700622581C18F0CCFA08BD7A
:101AC00030B50C46097895B0222902D2082015B00D
:101AD00030BD282369460B704880132A03D03B2A67
:101AE00001D00720F3E708460A7109A909F03FFC75
:101AF000050003D121212046FFF72FFE2846E6E707
:101B000000B595B0232369460B7048801088888003
:101B10005088C880D08848819088088100208881BA
:101B2000C88109A9684609F022FC15B000BD70B54E
:101B30000E46050003D0002109200FF040FE0120D1
:101B4000D74C022EE0701DD0032E01D018F00DFCF2
:101B50000621201D0FF07EFB607A8006800E6072E9
:101B6000FFF7A6FD608A00280BD0002D09D0830066
:101B70000122002109200FF092FD092801D018F060
:101B8000F4FB70BD0321E01D0FF064FB607A40217F
:101B90008006800E08436072E01C02F027FBDFE73E
:101BA000F0B585B002216846BD4E0171F18AC18051
:101BB000002756E001A80BF076FE050007D0F08A5A
:101BC000002854D00020F0826946C88047E0039C7A
:101BD0002078212843D0A07F01072AD52046223033
:101BE000009068462346628E00892146343301F016
:101BF00014FD050004D011282AD018F0B6FB27E008
:101C0000A07FF7210840A077E17F480889074000BE
:101C1000C90F084341072020005D490FC000014360
:101C2000E1772078282824D129212046FFF795FD47
:101C30001FE0400713D568462246008921460E3230
:101C4000FFF75EFF050005D0112801D018F08DFBCD
:101C500000250EE0A07FFB210840A07709E07F1C53
:101C6000FFB202200BF061FE401CB842A2D8052D45
:101C700007D06846C088F082052D04D0284605B0FC
:101C8000F0BD0020F0820020F9E7FEB5040001D18C
:101C900018F06BFB72202070606808250178804E78
:101CA000091F0B0018F07CFC11FE0A0C53F90C0DF7
:101CB000F9F9380C0C0C0CFE79FE0C0018F055FBF1
:101CC000FEBD80880090FFF712FD070001D118F0DB
:101CD0004CFB6078042128436070307D08433075E8
:101CE00021213846FFF739FD009806F0CAFB00981D
:101CF00003F0B6F9009804F085F9022000990FF07E
:101D00005EFDB87FEF210840B877FFF749FF002854
:101D1000D6D018F02AFBFEBD86883046FFF7E7FCD8
:101D2000002801D118F021FB60688078012801D0DB
:101D300018F01BFB60688179304606F0D5FC00285E
:101D4000E9D06178294361706168C880FEBD8788E9
:101D50003846FFF7CCFC060001D118F006FB60788E
:101D60003946284360706068C088308160680089A7
:101D7000708160684089B08102200FF020FD002052
:101D8000B075B07F8007800F0228DFD1FFF708FF12
:101D90000028DBD018F0E9FAFEBD80783C2803D09B
:101DA000002702280FD000E0012700210091002821
:101DB00005D03C2803D0022801D018F0D6FA0098AC
:101DC000002802D07EE00121F0E7607828436070AF
:101DD000307D28433075002F67D1606802218788E5
:101DE000009738460BF0F0FD0546032138460BF00E
:101DF000EBFD0290052138460BF0E6FD0190042131
:101E000038460BF0E1FD0746002D01D118F0ADFA80
:101E10000298002801D118F0A8FA0198002801D1F1
:101E200018F0A3FA002F01D118F09FFA22212846BA
:101E3000FFF793FC60688079012834D00227A87FDF
:101E40000622800880003843A8776068C08A28810D
:101E50006068008B68816068408BA8816068C07989
:101E6000E875616828461830083118F0F4F86068A1
:101E70000622807B68706168A81C0F3118F0EBF8AF
:101E8000A87F8107890F009806F0DEFA012F0CD099
:101E9000022F17D018F069FAFEBD20E00302FF01FF
:101EA000A80100201FE00127C9E73078032801D0EE
:101EB00018F05BFA002108460FF081FC012000F0C9
:101EC00096FFE9E7B078132801D018F04EFA002108
:101ED00007200FF074FC1120FFF7CCFBDCE7204655
:101EE00001F015FED8E7607828436070D4E7F7B5B5
:101EF00005460078002700090C463E4601287DD0A3
:101F00000022F94902287AD007280BD00A2877D076
:101F100018F02BFA0298002C068001D027806680EA
:101F20000020B9E7686803780D2B38D006DC042B55
:101F300067D0072B3DD00A2B62D106E0122B3FD091
:101F4000132B47D0142BF7D1C2E011270726002C02
:101F50007ED08088A0806968FB238979A171E349DC
:101F600005460A7D1A400A7504210BF040FD052143
:101F700028460BF03CFD002128460BF038FD0121DE
:101F800028460BF034FD032128460BF030FD0221DA
:101F900028460BF02CFD284609F029FBBAE701275B
:101FA0000926002CD4D08088A080686880792072AF
:101FB000B0E712270E268088214600F03EFFA9E7F1
:101FC0001A270726002CC3D04088A08068680079B3
:101FD000A0719FE781783C293FD010271E26002C56
:101FE000B6D08088A0806868C08A20836868C08A6C
:101FF000E0826868008B6083686803E077E0A1E0B6
:10200000C4E034E0408BA0836968607D497F40086C
:10201000C9074000C90F084360756968C007497F58
:10202000C00F49084900084360756968A21DC87956
:102030000831FFF734FD69682246887B0D320F3185
:10204000FFF72DFD68688079002804D0012000E0AA
:1020500077E0207506E00220F9E719270726002C13
:102060006FD0A271A148F722017D11407CE01B27AF
:102070002E26002C65D0A1806968A21D0879491D13
:10208000FFF70DFD68682030C07A60736868C0781B
:102090000428A07B19D040084000A073F921084013
:1020A00069681F22C9788907490F0843A0736968C6
:1020B0004007C97A400FC9000843A07369682046E9
:1020C0000F300C3117F0C7FF24E701210843E4E784
:1020D0001E270E26002C62D0A1806868E21D407A7F
:1020E000A07169688878C91CFFF7D9FC12E7287EBF
:1020F000012804D0022814D018F037F90AE71D2768
:102100000E26002C4BD06888A080A88BE080E88B3E
:102110002081288C6081688CA0817448DF22017D39
:10212000A3E712270E26688800F087FE002C36D021
:1021300068784007400F0328C6D16C48FD22017D16
:1021400093E72CE0287E030018F02AFA060410100A
:102150002020202619270726002C20D0A1806348A4
:10216000A271017D490849000175D3E619270726A8
:10217000002C14D0A180287E012805D00320A07156
:102180005A48EF22017D70E70220F8E721462846F1
:10219000029A01F03AFE7FE618F0E7F8BAE60298F4
:1021A0000680BDE610B5514894B08078132802D05F
:1021B000082014B010BD22206946087009A968469D
:1021C00009F0D5F80446002107200FF0F8FA204660
:1021D000EFE700B5454895B08078122801D0082077
:1021E000A3E41E216846017000218170C17009A915
:1021F00009F0BDF80028F3D1002107200FF0DFFA25
:102200001120FFF737FA00208FE400B5374895B06A
:102210000078022801D0032818D11B2108A80173D7
:102220000021817369460BA809F0A1F8002804D1A8
:10223000684640781B2801D0032076E40021084638
:102240000FF0BDFA68468078002801D008206CE4C1
:10225000012000F0CCFD002067E4F8B5234C03001A
:1022600018F09EF90A066E176E6E6E6E39325F6E4A
:10227000FFF7CBFF002827D105F05FFA002823D015
:10228000222101700021017605F035FA207D01211F
:1022900043E08EB23046FFF72AFA050001D118F06C
:1022A00064F8287821280FD005F047FA00280CD0D0
:1022B000122101700227077646800020A87505F0DC
:1022C0001AFA207D38432075F8BD1322294630467E
:1022D000FFF7F6FBF8BDA578122D09D0132D0AD013
:1022E00018F043F8F8BD0000FFFF0000A80100202F
:1022F000FFF76FFF01E0FFF755FF0028F2D105F06F
:102300001CFA0028EED022210170122D07D00221E4
:10231000017605F0F0F9207D10210843D3E7012173
:10232000F6E7607A8109012908D0800901D018F008
:102330001CF803210020FFF7FAFBD3E70221F9E79D
:1023400018F013F8CEE7F7B514460D0001D118F0D8
:102350000CF828780827012804D0022819D018F092
:1023600004F899E50098FFF7C2F9060001D117F0CB
:10237000FCFF0220B0751030207060783843607028
:1023800007CD183407C4FE482022017D1143017592
:1023900082E50098FFF7ABF9060001D117F0E5FFE1
:1023A000A988F848814208D1EA88824205D11322DF
:1023B00031460098FFF784FB6EE5814202D1E88840
:1023C000002809D01220207060783843607007CD53
:1023D000183407C4002006E0782300220220009968
:1023E0000FF05DF90120B07556E530B50C46E649B1
:1023F00095B08C4238D3E649E44A0968944201D347
:102400008C4231D3203800220125030018F0C8F88F
:1024100006042741454B545C002108200FF0A9F920
:10242000002802D0112015B030BD24206946087064
:1024300000A80522A11C023017F00DFE09A968466C
:1024400008F095FF05002CD10823002211461846FC
:102450000FF025F9082824D017F087FF21E06068E5
:10246000002803D0884201D21020DCE73C216846D6
:102470000170218841806188818009A908F077FF77
:1024800005000ED1606800280BD06946098D0180D7
:1024900007E0206801F0E8FE02E0204600F0E1FCE1
:1024A00005462846BFE73D2007E0857000E08270C2
:1024B00009A908F05CFFF3E734206946087020782A
:1024C000C0076846F3D0F0E70720ACE730B50C460C
:1024D000AF4995B009688C4201D21020A3E720389B
:1024E000030018F05DF80504212123213200208823
:1024F000FFF7FDF8002804D00078222803D2082036
:1025000091E7A4488FE72521684601702188418022
:1025100009A908F02CFF050015D10AA905220231EE
:10252000A01C17F098FD0EE006250CE0206800289E
:1025300005D0884201D2102505E001F08AFE9048BE
:102540000025408AA08028466DE707206BE78C486D
:102550000A30704710B51821894817F0D9FD0120BD
:1025600000F045FC1120FFF785F8854C00206074D1
:10257000E12080006082211DE01C05F0AEF9E11C25
:102580000722C81D17F067FDFFF792F8002801D059
:1025900017F0EBFE00F03CFD01F07DFA10BD10B528
:1025A00004463C2117F0B4FDA07F80088000A0778E
:1025B000202020700020A0752034607010BD70476E
:1025C000FEB5064670480D46814206D36F488542E7
:1025D00005D36F480068854201D210205CE4684C46
:1025E000002E02D0012E31D125E00722E11C6846E1
:1025F00017F031FDE11C2846FFF715FA0028EDD150
:10260000FFF756F8070006D007226946E01C17F0CE
:1026100022FD384640E42878002801D0012805D161
:1026200057480722E11C0A3017F015FD0021092048
:102630000FF0C5F80FE00978002907D0012905D06F
:10264000022905D0032903D0534825E4072023E4B9
:102650000120FFF76CFA667400201DE410B54C49A8
:102660000968884201D2102010BD45490246CB7846
:10267000091D1846FFF713FA002010BDFFB599B0E9
:102680000546002008A908746946087108A908735E
:1026900008753F4814463C4A3C4900681E46002DD8
:1026A00005D095420BD38D4201D3854207D3002C30
:1026B00008D0944203D38C4204D3844202D2102027
:1026C0001DB0F0BD2846204318D01F270BAB0CAA25
:1026D000009728461A99FFF740F90028F0D10DAB72
:1026E00001AA314620460097FFF737F90028E7D1C5
:1026F00068460079C00703D00A20E1E70720DFE73A
:1027000002AF002D0FD01A20694608721A988872FD
:102710002946F81C1A9A17F09EFC0EA902A808F088
:1027200026FE0028CCD1002C0ED020216846017254
:10273000867232462146F81C17F08DFC0EA902A8BD
:1027400008F015FE0028BBD108A80D49007B487091
:102750000020B5E770B506460A200C4608701546FD
:102760001146204608F003FE002807D138212170C9
:102770002046294608F0FBFD002812D008280DE06D
:10278000A8010020FFFF000000B0010000000020B1
:102790001C000020023000000232000000D1F84886
:1027A00070BD2A462146304600F086FB04460828C4
:1027B00001D117F0DAFD204670BDF0B50446F1A155
:1027C00003C997B0F14A002715911490944210D391
:1027D000F048EF4B00689C4201D3844209D3217832
:1027E000012909D16168914203D3994204D38142FE
:1027F00002D2102017B0F0BDE74D2878012801D093
:102800000820F7E707200BF099F8002804D120787A
:10281000002806D0012804D0287D0107890F06D1A1
:1028200001E00420E6E7C10701D1800701D51120AE
:10283000E0E7208AD94A014620399142217807D31E
:1028400001297DD100287BD1618A002978D110E04F
:10285000022901D0032901D1A02871D3012908D070
:10286000CD494978C90704D0618A002968D0B429C4
:1028700066D82178002906D0012908D0022904D081
:1028800003295DD118E0002519E0022517E0002892
:1028900002D1608A00280DD00425606800780028E5
:1028A0000DD001280AD0022808D0032806D0B44849
:1028B000401E9FE70125F0E7032500E00127207A6D
:1028C000002806D0012806D0022806D0032860D1AF
:1028D00005E0002604E0012602E0022600E00326CF
:1028E000002D01D0022D15D1002E13D0E068002854
:1028F00003D0FEF7C7FF002894D1A748407880078F
:1029000002D09F48801E75E7022D03D1022E40D0D1
:10291000032E3ED0182168460170218A4180218A09
:10292000818085719C48C078002801D0012865D13C
:102930006946C8716846077221780930012900E0AC
:1029400027E020D0062117F0E3FB69460E74207DB6
:102950008207C107D20F4007C90F5200C00F1143B1
:102960008000014314A8405C6946C873002810D059
:1029700009A9684608F0FBFC00289AD1002D0AD06E
:10298000022D08D012E061680622491C17F063FB93
:10299000DBE707202EE7002E08D0E068002805D0EE
:1029A00009AA6946FFF7D6FE0028ACD11B2069466C
:1029B00008700120887009A9684608F0D8FC002832
:1029C000A1D108A840791B2818D12B0017F0E8FDE9
:1029D0000504040606040900032000E0022000F0BC
:1029E00006FA012D0CD0608A002809D0002283004D
:1029F000114610460EF053FE002801D00320F9E6E0
:102A00000020F7E6F3B5032683B00D46002909D070
:102A10005E48854270D35E48854203D35D480068B6
:102A2000854269D30398FEF762FE040005D0207842
:102A3000222804D2082005B0F0BD5948FBE7A07F4A
:102A40008707BF0F002D05D029463846FEF7E5FE63
:102A50000600F0D15048012F05D0022F19D017F0F1
:102A600084FC3046E7E7A27D2946012A02D0007D9A
:102A7000800701D51120DEE7002905D1684600F066
:102A80006DFB0028D7D16946039805F09DFD0646E9
:102A9000E7E7A17D022915D1007D800612D4002D23
:102AA00004D0A07F40070BD4002100E0012103984F
:102AB00005F0DDFD0600D4D1A075002DD1D003E0D6
:102AC0001126CEE7002D17D02A4621460398FFF79E
:102AD00017F806461128C4D1A07F4007C1D420466C
:102AE000082229460E3017F0B6FAA07F04210843C9
:102AF000A0770026B5E7FFE710209CE770B50C46ED
:102B00000546FEF7F4FD010004D022462846FEF7F4
:102B1000D7FF70BD224870BD00B595B0312269461F
:102B20000A70887009A9684608F021FC15B000BD3C
:102B300010B50123FEF7E0FD10BD002310B51A46C5
:102B40001946FEF7D9FD10BD70B504460F4894B084
:102B5000844206D30E48844206D30E48006884425D
:102B600002D2102014B070BD2046FEF7DAFE002815
:102B7000F8D109488178112914D00820F2E7000023
:102B800003320000070605040302010000B0010043
:102B9000000000201C000020A8010020E13F0000F0
:102BA00002300000017DC90601D51120DAE71D229F
:102BB00069460A7021780025CA07D20F69468A70D3
:102BC00022898A806289CA80217801268907CA0FF2
:102BD00069464A72C078002803D0012804D0032037
:102BE000C0E708460D7201E008460E7209A908F018
:102BF000BEFB0028B6D12078800708D56068002881
:102C000005D009AA6946FFF7A5FD0028AAD11E2113
:102C1000684601708670C57009A908F0A8FB0028F5
:102C2000A0D1A08900F0FAF804009BD11220FEF791
:102C300021FD204696E7F0B51646BF4A0C46050032
:102C4000BB48BC49126895B005D085420FD38D4270
:102C500001D395420BD3844209D38C4201D39442D1
:102C600005D3864203D38E4204D3964202D210206B
:102C700015B0F0BDB14F387DC106890F01D14007B5
:102C800001D51120F4E72046FEF74BFE0028EFD1D6
:102C900020788107C90F294303D0800703D5002D71
:102CA00001D00720E4E731460220FEF7B6FD0028F8
:102CB000DED1B878112803D0122801D00820D7E738
:102CC00006200AF03BFE002804D09C488078122899
:102CD00002D005E00420CBE7FFF77BFA0028C7D13C
:102CE0002078800708D56068002805D009AA6946C1
:102CF000FFF730FD0028BBD12121684601702189F2
:102D0000418061898180207800278007C10F684653
:102D1000817120788007002815DB2878002807D0EB
:102D2000012808D0022806D0032804D084489FE751
:102D30006846C77102E001206946C8710622691C15
:102D400002A817F088F97D48C078002803D0012830
:102D500004D003208CE76846877302E001206946AF
:102D6000887331886846018271884182B188818286
:102D7000F188C1820783478309A908F0F8FA00287F
:102D800090D1A08900F04AF804008BD11320FEF7FF
:102D900071FC20466CE730B50546674895B0006881
:102DA0000C46814202D2102015B030BD2846FEF7F5
:102DB0009EFC002807D00178222902D3807F80065C
:102DC00003D40820F0E75F48EEE71321684601705E
:102DD000458009A908F0CBFA0028E5D108AA0A2104
:102DE00051567F2901D02170DEE70520DCE730B5A0
:102DF000524D040009D0012C05D0022C08D0032C20
:102E000006D017F0B2FA2C7030BD17F0AEFAFAE720
:102E100028780128F7D017F0A8FAF4E710B50028B1
:102E200009D083000022114607200EF038FC072845
:102E300001D0032010BD002010BD70B50C00064667
:102E40000ED0FEF754FC050001D117F08EFAA680D3
:102E50002889E0802889208168896081A889A081EB
:102E600070BD10B50446006800280BD03049884278
:102E700006D33049884205D32F490968884201D2D8
:102E8000102010BD01F0D8F9A0882C4C6082607C25
:102E900001280DD1002109200EF06BFC002800D084
:102EA0000120617A8909012904D00321FEF73FFE40
:102EB000002010BD0221F9E7F7B500260C460546B3
:102EC0000B271AE02968B00009580978002903D0B7
:102ED000012901D00720FEBDA170296806220958EA
:102EE000E01C491C17F0B7F827702046029908F03B
:102EF0003EFA0028EFD1761CF6B22879B042E1D82C
:102F0000002639270FE0A868B10041581022A01C04
:102F100017F0A1F827702046029908F028FA002837
:102F2000D9D1761CF6B2287BB042ECD80020FEBD89
:102F300000B00100000000201C000020A8010020BB
:102F4000023200000230000001202249C003086064
:102F500021490020087007202049C005886070477B
:102F600030B51D4D04462878A04205D0002C03D072
:102F7000002801D017F0F9F92878A0420CD00021E0
:102F8000174A16482C70002C19D0164B012C04D06F
:102F9000022C0BD017F0E9F930BD1160022111604D
:102FA0005361032109068160416030BD1160032136
:102FB000116053610121C9058160416030BD11601C
:102FC00011600721C905816030BD00B517F0CDF94A
:102FD00000BD000080E100E01600002000F5014087
:102FE00000F50040D002002070B50C46054606F002
:102FF000DDFC2146284607F040FD70BD7047704754
:1030000010FFFFFFDBE5B15100B001007800FFFFCA
:1030100010B50621D84817F07BF810BDFFB591B068
:10302000D6481499814206D3D548814206D3D54863
:103030000068814202D2102015B0F0BD0120FEF7D9
:10304000ECFB0028F8D10124684603218471C902F1
:103050008180002201A9204603F09CFA0028EBD1D0
:103060006846152184714902818000261C2102A82E
:10307000009617F04FF801200146684610310170A4
:1030800000200146684641708178F9273940891C43
:1030900021438170017A02252943017212998186A8
:1030A000C6861F2101870C9011980F9001A80B90E4
:1030B00009AA0BA902A803F041F80028BCD1684670
:1030C000AD4E808C308068468471AF4981808078B5
:1030D00009AA3840801C41084900684681708586ED
:1030E000058713A80F900BA902A803F027F8002862
:1030F000A2D16846808C7080311D149800F0F9F8D8
:103100009AE73EB504460820694608809B488442F9
:1031100006D39B48844205D39A480068844201D272
:1031200010203EBD21460120FEF777FB0028F8D194
:103130002088694688806088C880A0880881E088E7
:1031400048818D4801AB80886A46002103F078FCF5
:10315000694609880829E4D003203EBD1FB504460E
:103160000020029008206946088184480391844227
:1031700006D38348844206D382480068844202D240
:10318000102004B010BD7C4802AA81887F4803F05B
:10319000EDFD0028F5D169460989082901D00320F1
:1031A000EFE7694609882180694649886180694658
:1031B0008988A1806946C988E180E2E701B582B0CB
:1031C0000220694608806C4802AB40886A460021AC
:1031D00003F036FC69460988022900D003200EBDA1
:1031E0001CB50021009102216A46118065490190B9
:1031F0000968884201D210201CBD5F48418863489D
:1032000003F0B4FD694609880229F5D003201CBDEE
:10321000F0B50E46594985B0174605468E4206D38D
:103220005848574A0068964204D3864202D210207A
:1032300005B0F0BD1F2F01D90C20F9E74E4C8D428F
:1032400026D3954201D3854222D3208803A903F0D7
:10325000A8FB0028ECD1287869464873208803A988
:1032600003F080FB0028E3D1694600900878022132
:10327000084369460870497B090703D008210843C1
:10328000694608702088694603F008FB0028CFD102
:1032900069468F802088334601AA002103F0D0FBC5
:1032A00069468988B942C3D00320C1E71CB50C46E2
:1032B000002100910191228869460A8031490190DC
:1032C0000968002801D0884201D38C4201D2102025
:1032D0001CBD002801D0002A09D027486A46018871
:1032E0002A4803F043FD6946098821801CBD0C2053
:1032F0001CBD30B5044693B000200D460790142144
:103300000BA816F007FF1C21684616F003FF6A465B
:103310001120107700205077107802210843107098
:1033200007A80C90012008AA907217486A46C01C92
:1033300010850AA80B902088108460885084A0888B
:103340009084E088D084907FF9210840801C400858
:103350004000907708209086108708A80F9010AA48
:103360000BA9684602F0EAFE002803D110A80088E5
:103370002880002013B030BD1000002000B00100F4
:10338000000000201C000020012A0000FFFF0000B8
:10339000F849884206D3F849884205D3F7490968B5
:1033A000884201D2102070470178C906490F0429CC
:1033B00007D84178072904D38278102A01D88A4295
:1033C00001D207207047C178490702D4007940072D
:1033D00001D5062070470020704710B5C37F1478D0
:1033E0005B08A4075B00E40F2343C3770878EF234F
:1033F000184013789B06DB0F1B0118430870F1235C
:1034000018401378DB065B0F5B0018430870507898
:10341000087310BD30B500240C70C378DB07DB0FD8
:103420000B70C578AD07ED0F6D002B430B70C578A1
:103430006D07ED0FAD002B430B7014700179C907B8
:10344000C90F117003799B07DB0F5B0019431170E3
:1034500000794007C00F80000143117030BD70B586
:1034600014460D46064604F068F9002809D0A2214A
:103470000170142221461830FDF788FE04F03BF954
:1034800070BD132229463046FEF71AFB70BD70B599
:1034900014460E46054604F050F9002809D02221B2
:1034A00001704580217801766178417604F023F936
:1034B00070BD132231462846FEF702FB70BD10B5E1
:1034C000AF4C207C00280BD12046AE4A2146103854
:1034D0000CF03EF8002801D016F047FF01202074C0
:1034E00010BDFFB581B00A9E05461C461746142143
:1034F000304616F00FFE0B9800210160F8070ED041
:103500009E492068096888423BD3123030602068A9
:10351000143070602068B0600B9821680160B807B3
:1035200028D56068002803D094490968884228D3C8
:103530000299002928D0FFF70AF801462846FF30F3
:1035400007225D3016F087FDFFF7B9FF8C48009029
:10355000F0606268002A0DD0FF2029465D30FF31FF
:10356000405D5E311032FEF79AFA102260680099D1
:1035700016F071FD780710D58049A0680968884267
:103580000AD2102005B0F0BD0028FAD0F060FF3557
:1035900001356068A865EDE730610020F2E730B5DD
:1035A000054611200C460870002161702121495DFB
:1035B000002905D003290BD004290DD016F0D5FE23
:1035C00020780009012802D9E87FC008607030BD6A
:1035D0000007000F203002E00007000F303020709D
:1035E000EEE710B5002803D06424245C002C08D03A
:1035F0006348047D0020002C0BD008601060186028
:1036000010BD044664340C6001469031BC3011603A
:10361000F5E75B4C14340C60F0E770B594B01546D8
:103620000C462C226946189E0A704880002B17D041
:103630000822194601A816F00EFD68468581102261
:1036400031460E3016F007FD09A9684607F08FFED7
:10365000002803D1A17F10221143A17714B070BDBF
:10366000002001900290E8E7F0B50646008A97B086
:1036700080B20D460290FEF73AF804464048317891
:1036800048380746883709900B0016F089FF0EFC72
:10369000FB390840647F9BB2FDF9F8F7F6FCA07F88
:1036A0008007800F012806D0002102980AF094F9C3
:1036B000050004D101E00121F7E716F056FE387845
:1036C000C00904D02E482038406EA8610FE02B209E
:1036D000694608730CA903A807F049FE002801D029
:1036E00016F043FE28490D9816F01EFDA96170687A
:1036F000A862B068E8622078252801D016F035FE6F
:10370000324621460298FFF7AAFE17B0F0BDA07F0F
:103710008007800F012806D0002102980AF05CF98A
:10372000060004D101E00121F7E716F01EFE207823
:10373000252804D03078012108433070E5E70220C5
:103740002870B068A860B068002802D000202871F6
:10375000DBE70120FBE72B20694608700849684633
:103760004C3907F004FE002801D016F0FEFD0320BE
:1037700024E0000000B00100000000201C00002038
:103780007C020020FFFF000040420F002A20694613
:10379000087000A810220230716816F05CFC04A8C2
:1037A00010220230B16816F056FCFD49684607F059
:1037B000DEFD002801D016F0D8FD042028700998FD
:1037C0006860A2E7B068002801D116F0CEFDE07F66
:1037D000400701D516F0C9FDB06800903379062284
:1037E0000421029804F09FFE00288ED016F0BDFD43
:1037F0008BE7002C01D116F0B8FD204622301022B4
:103800000546716816F027FC28212046FDF7A5FF24
:10381000A07F8007800F02280CD100231A46214682
:1038200000950298FFF7F9FE11280BD029212046B8
:10383000FDF793FFE07F317A4007400FC90008434E
:10384000E07762E7A07F000701D516F08EFDA07F2C
:1038500008210843A077002060862046343016F007
:1038600057FCE07FFD220146C9071040890F08433D
:10387000E077307A2034207047E705E17AE070E0A5
:1038800055E001E034E003E1A07F8007800F0128CC
:1038900006D0002102980AF09FF8040004D101E04C
:1038A0000121F7E716F061FD2B2069460873BC493A
:1038B00003A807F05CFD002801D016F056FDB848BB
:1038C0008188204621300176090A4176122129702B
:1038D0002146FF315D316960017E2974407E687444
:1038E000AF482C30A860103030346C61E8600CE7D1
:1038F000002C01D116F039FD20782128A1D930798A
:10390000012802D0022808D103E0E07F0421084307
:10391000E077387801210843387032462146029812
:10392000FFF79DFD23212046FDF717FFEDE601225D
:103930000421029804F043FF00289DD01320287032
:1039400017210020297100900246019003AB0298D4
:1039500004F00CFC002801D016F007FD0398A860C5
:10396000D3E60421029804F075FF002884D11420C6
:103970002870CAE6A07F8007800F012806D00021AA
:1039800002980AF029F8050004D101E00121F7E7C7
:1039900016F0EBFC2E462036307E410641D5A17F45
:1039A0008907890FC00713D0EB1DF9335A6D002A20
:1039B0000ED0107CF77DC007C00F7F003843107415
:1039C0005A6DE37F40084000DB07DB0F184310749B
:1039D000307E000713D5EB1DF9331A6D002A0ED087
:1039E000107CF77DC007C00F7F00384310741A6D3C
:1039F000E37F40084000DB07DB0F18431074307E84
:103A0000820701D5022903D0C0060AD5012908D1B1
:103A1000FF20593042592946307C31311032FEF7AF
:103A20003EF8052368460370357E45705C482221C8
:103A30007038029A01704178C908C900C91C4170E8
:103A400042800376457604F001F82078252806D0D8
:103A5000212808D016F089FC2078222803D92221B9
:103A60002046FDF77AFEA07F8007800F012809D04D
:103A70000021029809F0BBFF002800D145E616F0AE
:103A800074FC42E60121F4E77168002008703CE60E
:103A900016F06BFC39E6424810B58C3001780024F2
:103AA0004906490E0170603844660BF0DFFC3C4962
:103AB0003C310846103803F044FF39484C30047458
:103AC00010BD70B50D46FDF712FE040001D116F0D1
:103AD0004CFCFF216531284616F01CFBA07F8007B7
:103AE000800F012809D002212846E8300BF0BFFCE6
:103AF000002801D016F039FC70BD0121F4E70A4618
:103B0000014610B51046E8300BF0CAFC10BDF0B508
:103B100005464068082601789BB008290DD00B297E
:103B200003D00C293AD10121817168688788384611
:103B3000FDF7DDFD04003BD138E047883846FDF74E
:103B4000D6FD040001D116F010FC2078212825D0E4
:103B5000282827D1686802210C3000F077FF002860
:103B600020D068680821001D00F070FF002819D0DF
:103B70002D2168460170478021461022223101A87C
:103B800016F069FA0FA9684607F0F1FB002801D08A
:103B900016F0EBFB29212046FDF7DFFD1BB0F0BD41
:103BA00030020020687830436870F7E716F0DDFBDC
:103BB000A07F8107890F022902D1EF210840A07759
:103BC000207821280DD068688179002902D080787A
:103BD000002812D0A07F8007800F022858D016F04E
:103BE000C4FBA07F8007800F0228D7D1FDF7D8FF44
:103BF0000028D3D016F0B9FBD0E76878304368705E
:103C0000E07FC00701D0042100E0032121200155FD
:103C10002078292817D02428E3D1394606200DF032
:103C2000CEFD22212046FDF798FDA07F8007800F62
:103C300001282BD00021384609F0D9FE0028D0D029
:103C400016F093FBCDE7A07F8007800F012806D0F8
:103C50000021384609F0C0FE050004D101E0012131
:103C6000F7E716F082FB25212046FDF776FD1120AF
:103C700008A90871284609A9E8300BF004FC0228BD
:103C8000AFD00028ADD016F070FBAAE70121D2E733
:103C9000687830436870A4E7F7B58CB016460746DD
:103CA000FDF725FD040051D0207822284ED323288B
:103CB0004CD0E07F400749D4A07F8007800F0128C7
:103CC00006D00021384609F087FE050002D00BE03F
:103CD0000121F7E7A07F8007800F012804D101218F
:103CE000384609F071FE054601AB02AA03A9284631
:103CF000FFF777FC0398002801D116F036FB002D62
:103D000008D00398E83545612078222806D0242879
:103D100004D007E003990020486103E025212046F4
:103D2000FDF71BFD03980D210170476206710D9987
:103D300081600299C1600199016104A90BF0C6FB81
:103D4000022803D0002801D016F00FFB0FB026E7A1
:103D500030B589B00546FDF7CAFC017822292DD976
:103D6000807F8007800F012806D00021284609F0B7
:103D700033FE040004D101E00121F7E716F0F5FA63
:103D80001321684601731721017400200090024638
:103D9000019002AB284604F0E9F9002801D016F0A2
:103DA000E4FA02980590204603A9E8300BF06BFB7B
:103DB000022803D0002801D016F0D7FA09B030BD90
:103DC00010B586B00446FDF792FC017822291AD975
:103DD000807F8007800F012806D00021204609F04F
:103DE000FBFD040004D101E00121F7E716F0BDFA64
:103DF0001420694608702046E8300BF044FB002888
:103E000001D016F0B2FA06B010BDF7B5054600783D
:103E10000027000982B00C463E4602287AD00728C7
:103E200002D00A280AD143E068680178082906D040
:103E30000B292CD00C292AD016F097FA49E1142727
:103E40001A26002C67D04088A080FDF750FC009017
:103E5000002801D116F089FA00980099C07DA21DB2
:103E60001831FDF71CFE686808228089E0816968C6
:103E700020461030091D16F0EEF8207E012108437F
:103E8000F9210840207600984021807F3EE01827E5
:103E90000826002CD6D08088A080FDF728FC0500DD
:103EA00001D116F062FAA11D2846FFF778FB10E158
:103EB000002C01D0288DA080287E01287ED00228E9
:103EC00004D003282BD016F050FA02E11C27072655
:103ED000002CB7D0A088FDF70AFC0090002801D183
:103EE00016F043FA287F8007800F0128A07913D0AD
:103EF00040084000A071FD210840297F4907C90FF3
:103F000049000843A07100988021807F08430099F0
:103F10008877DEE0D0E076E001210843EAE7132766
:103F20000B26002C6FD0A088FDF7E1FB0090807F6E
:103F30008007800F012806D00021A08809F04CFDE1
:103F4000050004D101E00121F7E716F00EFA009810
:103F5000807F8007800F012850D0E96A8878800729
:103F6000800F0128A0794BD040084000A0718A78CA
:103F7000FD255207D20F284052001043A071E322C2
:103F800010400A785207D20E1043A071DF22104071
:103F90004A78D207920E1043A0710020E071C878D1
:103FA00020724B79607ADA0740084000D20F104344
:103FB0009A072840D20F0979520000E024E010430C
:103FC0005B07FB22DB0F10409B0018436072A07A56
:103FD000CB0740084000DB0F18438B07DB0F28405E
:103FE0005B0049071843C90F104089000843A072BD
:103FF0000098007823286CD92621B4E0A96AADE79F
:1040000001221043B2E752E0297FFE4802290ED078
:1040100017270C26002C4AD001290FD003291CD0C9
:1040200004291DD005291BD016F09FF923E019277C
:104030000726002C4DD00121A17105E00121A171BD
:10404000E17989088900E1710178CA094906D2013C
:10405000890E49000A4302700DE00220A07106E0BB
:10406000687F0007000F8030A07105291AD0E07921
:1040700080088000E071A088FDF739FB05460078D4
:10408000212826D0232801D016F06FF9A87F8007B9
:10409000800F01280ED00021A08809F0A8FC222161
:1040A000284661E0E07980088000401CE2E704983F
:1040B000068014E00121EFE7002C01D06888A08081
:1040C000287E03282BD004280CD005284FD016F0CA
:1040D0004CF90498002C068001D0278066800020CF
:1040E00005B05CE515270C26002CE0D0A088FDF774
:1040F000FEFA807F8007800F012806D00021A0886B
:1041000009F06AFC050004D101E00121F7E716F08F
:104110002CF90622A11DA86907F06CF9D9E716272A
:104120000726002CC3D0A088FDF7E1FA0090807F1D
:104130008007800F012806D00021A08809F04CFCE0
:10414000050004D101E00121F7E716F00EF9287807
:10415000C00601D5022000E00120A071009800787F
:104160002328B6D927210098FDF7F7FAB1E71727DA
:104170000C26002C9BD0A088FDF7B9FA00906D7E2C
:10418000002801D116F0F1F80621A01D15F0C0FF9E
:104190000020A071207A032108432072FB210840EF
:1041A0000099C97FC907490F08432072680690D556
:1041B000E07904210843E071A07A29074208E80762
:1041C0005200C00F0243E07AC90F40084000084384
:1041D000FD210A40AB07DB0F5B000840E9061A43EC
:1041E000C90F4900A2720843E07272E710B5044695
:1041F000807992B08009012801D016F0B6F8FFF757
:104200005EF90120694608707F4809907D480BA936
:1042100040380190201D0290601C0C9068460BF005
:1042200055F9002801D016F0A0F80322601C0C9963
:1042300015F011FF12B010BD10B5724C403C0028B3
:1042400005D001461022204615F005FF01202074FC
:1042500010BD10B50446FFF732F96A491022403903
:10426000204615F0F8FE10BD70B50025654C0028FD
:104270001BD06649884206D36549884205D3654903
:104280000968884201D210250DE0062107F09CF84C
:10429000411C07D05B49603948662078802108437B
:1042A000207000E00725284670BD20784006400EAB
:1042B000F6E7F3B500278BB00C46002909D0534828
:1042C00084421BD35248844203D35248006884423C
:1042D00014D30B98FDF70BFA050003D02878222899
:1042E00015D102E04C480DB059E4002C08D1A87F4C
:1042F000C10903D08007800F022801D01020F2E707
:10430000A87FC10601D4010703D5002C01D00820E5
:10431000E9E73C490978C90701D01120E3E7E97FC3
:10432000490701D50D20DEE78007800F022806D15E
:10433000002C04D02046FFF72BF80700D3D1A87F2C
:104340008007800F012806D000210B9809F044FB5C
:10435000060002D00CE00121F7E7A87F8007800F5C
:1043600001280BD000210B9809F02EFB060007D086
:10437000A87F8007800F022804D00AE00121F2E71D
:104380000420B0E7002C04D0224631462846FFF72F
:1043900024F809AB1A4669463046FFF722F900981F
:1043A000002801D115F0E1FF00980E2101700B9952
:1043B00041623146E8318160A97FFB228907890F7C
:1043C000012937D0002C4BD002210171311DC16071
:1043D00031780907490F01743178C906C90F417452
:1043E000817C23788908DB078900DB0F19438174FE
:1043F0001140EA7FD207520F11438174A178C17432
:1044000002AA0BE0BC020020FFFF000000B0010088
:10441000000000201C0000200230000001A92046FE
:10442000FEF7F8FF69460098097A0175694609792F
:10443000417519E001210171017B23788908DB07AF
:104440008900DB0F19430173114022789207D20FC4
:1044500092001143017324212846FDF77EF90BE0F9
:10446000032101710521017325212846FDF775F906
:10447000A87F4006400EA87703A900980BF026F805
:10448000022803D0002801D015F06FFF38462AE734
:10449000FFB5FF4A97B007CA02AB07C300201390CD
:1044A000009001901798FDF722F9050005D02878B3
:1044B000262804D008201BB0F0BDF648FBE7A87FF3
:1044C0008707BF0F012F02D0022F09D00BE01898E9
:1044D000002808D11998FEF75BFF0028EBD102E015
:1044E0001998002814D1189885281BD008DC0028BA
:1044F00010D0812810D0822810D0832808D10FE056
:10450000862811D0882811D0892811D08A2811D066
:104510000720D0E700260EE001260CE002260AE084
:10452000032608E0052606E0062604E0082602E049
:10453000092600E00A26A87F8007800F012806D000
:104540000021179809F048FA040004D101E0012184
:10455000F7E715F00AFF012F0ED1189800280BD1AC
:1045600021462846199AFEF738FF1998807800905E
:104570001998007838400190002020710120694688
:104580000876201D0790002E01D02671FAE0012F39
:104590000CD0A66AE06A0222012112900020A060DD
:1045A0002846173002291AD0012119E0E66AA06ACC
:1045B0001290032030702078FB23C006C00F70706B
:1045C000B07801221840009BF3708008019B8000A6
:1045D00018430221B070002070713071DEE70021B5
:1045E000890009190861681C022A01D0012100E034
:1045F0000021890009190861B0788007800F01281F
:104600005CD1129880788007800F012856D11298CB
:10461000012F007901901298407900901CD03179D7
:1046200008A801747179017508A8027C01980099A5
:10463000024008A8007D0840149010433ED09649DF
:104640001A98884206D39549884215D39449096837
:10465000884211D210202EE70CAA0DA91998FEF756
:10466000D9FE08A8007C01990840307108A8007D97
:10467000009908407071D7E72146FF31204651313B
:104680003C3001910090022F34D000211A9B20462B
:104690000C33FEF726FF0028DDD12146FF312046EE
:1046A0005531503001910090012F25D00021204636
:1046B0001A9B149AFEF715FF0028CCD11298807827
:1046C000400702D4E87FC0072ED002A8012F15D0E2
:1046D000129909784900405A21780907490F490081
:1046E000C8408007800F13902CD0012815D00228D5
:1046F00010D114E00121C9E70121D8E72178090789
:10470000490F4900405A129909784900C84080076A
:10471000800F1390032805D006E0022000E001205E
:1047200013900FE002201390012F0BD1B078FB21E2
:104730000840E97FC907490F0843B0702078000797
:10474000400F3070207810224008400020701299ED
:10475000D2434978C907C90E114308402070C006EA
:1047600021D4139802281ED001281ED00020A06159
:10477000E0612062606220461830A060E87F400857
:104780004000E877204606A9E8300AF07CFE0028C1
:1047900003D0022801D015F0E8FD25212846FCF7BA
:1047A000DCFF002087E6032008E020460D211B30B7
:1047B00015F0AEFC20461830A0600420694608754C
:1047C000E87F01210843E87705AA29461798FEF7F4
:1047D0005EFED7E7F0B587B015460F0004460CD053
:1047E0002D48854206D32D48854206D32C480068C3
:1047F000854202D2102007B0F0BD2046FCF777FFBB
:10480000060004D03078272803D00820F3E7214899
:10481000F1E7B07F8007800F012806D000212046F5
:1048200009F0DAF8040004D101E00121F7E715F0FE
:104830009CFD0020002F05D0022F08D0012F11D0A1
:104840000720D8E701216A461171A06018E02346CD
:1048500018336946A360087110222946184615F0DE
:10486000FAFB0DE021461831A16069460871A0618C
:10487000E061206260620621284606F0A5FDA06185
:104880002078C1071CD0400840002070022009E0B9
:10489000BCA501000230000000B0010000000020B3
:1048A0001C00002069460870204618300290D03065
:1048B0000AF0E9FD022803D0002801D015F055FDCB
:1048C00025213046FCF749FF002094E7F8B515464E
:1048D0000E460746FCF70BFF040004D02078222880
:1048E00003D00820F8BD6048F8BDA07F8007800F86
:1048F000022802D05C48C01CF8BD5C4886420DD33B
:104900005B495C4A8E4202D313689E4206D38542BD
:1049100004D38D4204D31068854201D21020F8BD23
:1049200000953288B31C21463846FEF776FE1128E2
:1049300016D00028F3D1E17F2A7C4908D20749002C
:10494000D20F1143E1772A7C49079206490FD20E14
:10495000D2001143E177A17F4906490EA177F8BD46
:10496000A17F0907FBD420460822B11C343015F082
:1049700072FB30886086204610222946223015F0CE
:104980006AFBE07FFD210840297CC907890F0843A5
:10499000E077287C410820200155A07F08210843AA
:1049A000A0770020D7E770B594B00D460646002BDF
:1049B00002D0072014B070BDFCF799FE040007D0A8
:1049C0002078222802D3A07F400603D40820F1E7F4
:1049D0002548EFE7002D19D02D216846017046804B
:1049E0001022294601A815F036FBE07F297C4008FB
:1049F000C9074000C90F0843E077297C40078906B2
:104A0000400FC90EC9000843E07703E02E21684635
:104A10000170468009A9684606F0A9FCA17FBF2263
:104A20001140A177C6E710B50C46FCF760FE0028E0
:104A300005D0104909688C4203D2102010BD0A48E5
:104A400010BD2146FEF7ABFD002010BD05E0027849
:104A5000401C002A01D0002070470A46491E89B236
:104A6000002AF4D1012070470230000000B001009C
:104A7000000000201C00002070B50D46007804994D
:104A80001446042804D005282ED015F06EFC70BD05
:104A9000A88B062250430E30188033200880002C4B
:104AA000F5D0A88BA081002611E0A87F012812D0A4
:104AB00012207043411906227243088C1219D081CA
:104AC0001020223110320AF0F2FD761CB6B2A08915
:104AD000B042EAD870BDB000411906227243088C7A
:104AE0001219D0810220ECE7A88B1222504310301B
:104AF000188034200880A87F012809D0022807D018
:104B000015F033FC002CE5D0A88BA081002612E024
:104B1000A073F7E7A87F012811D03046122148433F
:104B200041190A8C0019028210221230223115F02C
:104B300092FA761CB6B2A089B042EBD870BDB00034
:104B400041191222088C724312191082022022315C
:104B500012320AF0ACFDECE7F8B500780C461646C8
:104B600020340E36069F022806D0032833D00628AC
:104B70007ED015F0FAFBF8BDCD8B0A2068430E30CD
:104B8000188031203880002AF5D0087F9581801F59
:104B9000C7B21AE020886168308048780A7800023D
:104BA0001043F080C8788A78000210433081B21C2C
:104BB0003846091D0AF07BFD002F01D0002802D0E5
:104BC00000203071708008340A3628466D1EADB260
:104BD0000028DFD1F8BDCD8B0A2068430E30188045
:104BE00032203880002AF5D0087F9581401FC7B257
:104BF00043E0616822880878F2803279C30752085E
:104C00005200DB0F1A43FD231A408307DB0F5B00C2
:104C10001A43FB231A404307DB0F9B001A43F72379
:104C20001A400307DB0FDB001A43EF231A40C306C9
:104C3000DB0F1B011A43DF231A408306DB0F5B01E6
:104C40001A43BF231A404306DB0F9B011A433271FC
:104C5000C00970718A784B7810021843308132464F
:104C60003846C91C0AF023FD002804D0002000E0CB
:104C700009E0B070308008340A3628466D1EADB2A7
:104C80000028B6D1F8BD087FCD8B801E86B2304695
:104C9000083068431030188035203880002AF1D061
:104CA000174695811037E800D681C01900900DE0B5
:104CB000208838800098786032466168009815F046
:104CC000CAF90098083480190837009028466D1EEC
:104CD000ADB20028ECD1F8BDFFB5099E1D460C46CB
:104CE000002A05D0607EFF300130D080E08B10813B
:104CF00000980078030015F053FC0C9C0716232D38
:104D0000374150667070709C087F1746082803D0A2
:104D1000032801D015F029FB0E20288030200BE05D
:104D20000020B881FFBD087F1746042801D015F088
:104D30001CFB0E20288031203080002FF0D1FFBDD9
:104D4000087F1746042801D015F00FFB0E2028809D
:104D50003220F1E7087F1746022801D015F005FB45
:104D60000E2028803320E7E7087F1746022801D06D
:104D700015F0FBFA102028803420DDE7087F174665
:104D8000042801D015F0F1FA102028803520308059
:104D9000002FD4D00020B88113E0207F17460528CB
:104DA00003D0062801D015F0E0FA12202880362022
:104DB0003080002FC3D0E08BB8810020388200986B
:104DC0004088F881FFBD087F1746072801D015F0FD
:104DD000CCFA0E2028803720AEE714202880382017
:104DE00017463080002AEDD0E08BB8810020788211
:104DF00000980078092806D00A280BD00B2810D07C
:104E000015F0B3FAFFBD087F0C2801D015F0ADFAFC
:104E100001200CE0087F0D2801D015F0A6FA04202F
:104E200005E0087F0E2801D015F09FFA0520B87321
:104E3000FFBD15F09AFAFFBD70B50C460546FCF7AC
:104E400056FC002804D00078222803D2082070BD28
:104E5000FE4870BD0521284608F0BEFD20600028F0
:104E600001D0002070BD032070BDFFB585B00D4698
:104E7000074617206946088108980326144600282B
:104E800005D108A93846FFF7D7FF00283FD1002DEC
:104E90000BD000220321384603F091FC00283FD0BC
:104EA0000898007800283BD106E02078092824D013
:104EB0000F282ED015F059FA0020009002460190DC
:104EC0006846018903AB384603F050F9002801D049
:104ED00015F04BFA0898A760801D606002A9204673
:104EE000039A04F0FAF9002827D0030015F058FBC4
:104EF000071A182323211C1E2300072600223146EF
:104F0000384603F05CFC0028D6D1D048801C09B09C
:104F1000F0BD00220321384603F051FC0028CBD11C
:104F20001120F4E70020F2E70820F0E7C748401C12
:104F3000EDE70720EBE70320E9E7039800906846D8
:104F4000038904223146384603F0EDFA0028DED109
:104F5000002DDCD008990D70D9E730B587B01D461B
:104F60000C46002A11D0042369460B7013888B81EC
:104F70005288CA81A2788A7422880A8200236A46EB
:104F80002946FFF772FF07B030BD1020FBE7F3B5ED
:104F900081B001980C4600780826030015F000FB4C
:104FA00012413B3B17123E0A0A0A0A0A0A0A0A0A77
:104FB0000A0A0A41002C01D115F0D7F96078304374
:104FC000607030E0002CF9D115F0CFF9F6E70198C8
:104FD0000521808887B2384608F0FEFC0546002C83
:104FE00001D015F0C2F9002D01D115F0BEF93946F6
:104FF000A81D04F069F902F0A0FB040006D0607857
:1050000030436070678002F076FB0EE01321384673
:10501000FDF774FD14E015F0A8F904E015F0A5F90A
:1050200001E015F0A2F9002C0AD06078000707D53E
:10503000932020702046582218300199FCF7A6F8DA
:105040000020FEBD10B500210170801D04F039F96B
:1050500010BD0A4610B50146901D04F03DF910BD83
:1050600070B50546052108F0B7FC040001D115F024
:105070007CF92946A01D04F027F970BDF7B586B06C
:105080000C46054600206946088188806F88052106
:10509000384608F0A1FC060001D115F066F9002C95
:1050A00003D0A7800020E0802081297E2046123096
:1050B000C91E142700900B0015F072FA0FFCFDFAC0
:1050C0006009AD696F812CB6CCE89595FA0030780F
:1050D000012801D015F049F9A88B6A46C1000E31AC
:1050E000918030211181002C13D0A08100200DE08F
:1050F000C100327909190A747288CA818200531971
:10510000DA8B4A821A8C401C8A8280B2A189814241
:10511000EED8ECE03078012801D015F026F9E88BC4
:105120006A46C1000E31918030211181297F091F0B
:10513000C9B20491002CECD0A08100271AE0F8003D
:105140000219401900920390416A0E3204980AF045
:10515000AEFA002804D00099002008740099C88194
:1051600003987F1C018C0098BFB241820398418C48
:1051700000988182A089B842E1D8B8E002A80090E6
:1051800001AB224629463046FFF776FCAFE0307887
:10519000072807D015F0E9F804E03078072801D097
:1051A00015F0E3F8E88B69461230888036200881D4
:1051B000002C38D0A98BA1817188E18123E030785F
:1051C000082801D015F0D1F8A88B6A4601460E30A8
:1051D000908037201081002C25D0A1812046AA8BF9
:1051E0000E30296A4FE0E88B6946123080B23922CE
:1051F00088800A81002C75D0A98BA181287E102877
:1052000007D00221A173E98B2182EA8B296A0098D9
:1052100039E00121F6E702A8009001AB22462946B9
:105220003046FFF799FC62E03078092801D015F08C
:105230009CF8694638208F800881002C57D0A98BB4
:10524000A181002060822082012001E00230000064
:10525000A0734CE030780A2801D015F086F8288C2D
:1052600069461430888038200881002C3FD0042102
:10527000A173A98BA181E98B2182298C61822046AF
:105280002A8C1430696A14F0E6FE30E030780B287E
:1052900001D015F06AF8694638208F800881002C0B
:1052A00025D00521A1730020A081208260821EE00C
:1052B0001BE000E008E002A8009001AB224629466E
:1052C0003046FFF709FD12E00D2069463A2288803A
:1052D0000A81002C06D00120E0800020208120736C
:1052E00005E0FFE70899088016E015F03EF86846EB
:1052F000089980880880002C0ED06846008920809C
:10530000684680886080287E032805D0102803D056
:10531000112801D0002030700020F8E5F7B556883C
:105320000F4682B015460521304608F055FB0400B3
:1053300001D115F01AF8A41D33462A4639460094C7
:10534000029804F050F905B0F0BDF7B58CB00D46E9
:10535000144607A90C98FFF76FFD002812D1884E5C
:105360000127002C10D00321684601701021818292
:1053700008A802460690204605A90AF0BEF90028B2
:105380000CD007200FB0F0BD082168460170858160
:10539000C68105218774C90201820BE00798A178B4
:1053A000017121884180684605218774C902018204
:1053B0008581C68102460121079B0C98FFF755FDA8
:1053C000E0E708B501236A4693706E4B13800A46E6
:1053D00002236946FFF7C1FD08BD08B501236A46EF
:1053E0009370684B5B1C13800A4603236946FFF7E2
:1053F000B4FD08BD00B587B000290CD002236A4671
:1054000013700B8893814988D18100230421FFF711
:105410002CFD07B000BD1020FBE710B5002903D01C
:105420000623FFF79AFD10BD072010BD70B588B0A8
:105430000D461446064607A9FFF7FEFC00280DD1CD
:10544000002C0DD00621684601708581C481079B20
:1054500002465C8007213046FFF707FD08B070BDAB
:105460000521684601708581F1E710B588B00029F3
:105470000BD007246B461C709A81049100236A4666
:105480000821FFF7F2FC08B010BD1020FBE770B553
:105490000024172288B0002914D00D782B0015F0B5
:1054A0007FF80623050519041B231522D21E93B28B
:1054B000CA88002A02D08E68002E03D09A4203D9EF
:1054C0000C20CBE71020C9E7042D05D08A88002ADC
:1054D0000AD101E00620C1E7012D11D0022D05D02F
:1054E000042D18D0052D23D00720B7E709236A46DD
:1054F00013704B889381CB88D381896804911DE018
:105500000C236A4613704B889381CB88D3818968BA
:105510000924049112E00D236A4613704B8893818D
:105520008B88D381CB88138289680A24059105E092
:105530000E236A461370497811730B240023214609
:10554000FFF793FC8AE700B587B00F236A46137014
:10555000918100231946FFF788FC5AE700B587B010
:1055600000290BD002236A4613700B889381498867
:10557000D18100230521FFF778FC4AE7102048E796
:10558000FFFF000002280000002803D081780129D5
:1055900039D101E0102070470188FE4A881A9142F3
:1055A00033D01BDCFC4A881A91422ED00BDC002938
:1055B0002BD00320C002081A27D0012825D00121B2
:1055C0000903401A07E001281FD002281DD0FF2838
:1055D0001BD0FF380138002815D116E0FF22013218
:1055E000811A904211D008DC01280ED002280CD07C
:1055F000FE280AD0FF2806D107E0012905D002299C
:1056000003D0032901D0002070470F20704700B558
:105610000B2826D009DC030014F0C2FF0B1D212546
:10562000251B25292325271F1B0011281BD008DC3B
:105630000C2816D00D281CD00F2814D0102808D103
:105640000FE0822809D084280FD085280FD0872822
:1056500011D0032000BD002000BD052000BDCF48B3
:1056600000BD072000BD0F2000BD042000BD0620A6
:1056700000BD0C2000BD0D20800200BD00B5030060
:1056800014F08EFF070507050D0D090B0D00002016
:1056900000BD112000BD072000BD082000BD032073
:1056A00000BD00780207120F04D0012A05D0022A9B
:1056B0000AD10EE0000907D108E00009012805D051
:1056C000022803D0032801D007207047087000206B
:1056D000704706207047002807D0012807D002280D
:1056E00007D0032807D007207047002004E01120CE
:1056F00002E0212000E0312008700020704738B51A
:105700000C4605004FD06946FFF7CBFF002822D199
:105710002088032189028843694609788907090D91
:10572000084320806946681CFFF7BBFF002812D1A0
:105730002188032000038143684600788007800C9D
:1057400001432180A8784007820F2020012A03D03E
:10575000022A03D0072038BD814300E001432180A5
:1057600088B20105890F08D0012189038843A978EF
:105770000907C90F89030843208080B28104890F7B
:105780000AD0A9784004C906C90F400CC9030843D0
:1057900020808004800F02D12088400403D5208817
:1057A000402108432080002038BD70B50446002009
:1057B000088015466068FFF7A2FF002815D12189EF
:1057C000A089814210D861688978C90708D0012171
:1057D0004902884208D8491C14F0A6FC298009E037
:1057E000FF21FF31884201D90C2070BDFF30FF300E
:1057F00003302880002070BD10B5137804785B0852
:10580000E4075B00E40F23431370FD242340047876
:10581000A407E40F640023431370FB24234004789F
:105820006407E40FA40023431370F7242340047893
:105830002407E40FE40023431370EF24234004788B
:10584000E406E40F240123431370DF24234004788B
:10585000A406E40F6401234313700078BF244006BC
:10586000C00F2340800103431370002906D008783D
:10587000C10701D1800701D5012000E00020C0014F
:105880005906490E0843107010BD30B50A8803232D
:105890009B0204889A4323059D0F02D1A3049C0F09
:1058A00001D09B0F00E001239B021A4303230A80CF
:1058B0001B039A4303889804840F02D11805830FB1
:1058C00001D0800F00E00120000302430A8030BDB8
:1058D000F3B593B00D000FD0139800280FD012210C
:1058E000284614F015FC03AAFF21012005F075FBE2
:1058F0000024264637467BE0102015B0F0BD072077
:10590000FBE76846807D01280BD16846818A052027
:10591000C002081A0AD001280AD002280CD0032895
:105920000CD0042C0ED0052C0FD10DE0012400E08A
:1059300002246846468A08E0032406E068460424F8
:10594000478A02E0052400E006246846418A13984D
:1059500081424DD12C74002E48D00DAA0EA90520ED
:1059600002920191009010230022FF21304605F0A1
:10597000D5FB00282AD16846808E2A46C0B20EA9DF
:1059800009F095FE002821D1AE81002F2ED00DA95F
:1059900008AE05E0022900000128000003300000E5
:1059A000052002910090132300220196FF21384622
:1059B00005F0B4FB002809D16846808EF11CC01E9A
:1059C000C0B22A1D09F073FE002801D0032094E71D
:1059D00008A88178427808021043E881062C05D196
:1059E0006846807DA8726846808A2881002084E706
:1059F00003A805F0FBFA002883D0FFF708FE7CE738
:105A0000002805D0FE4A012903D0022903D0032033
:105A10007047518800E09188814201D10020704791
:105A200007207047F0B58BB00E4605461C4617465A
:105A3000142103A814F06EFB012069460873087452
:105A4000119A4A748F82002C0AD0A178C90707D016
:105A500069468875E0884883A0880883A068079015
:105A600001F06BFE040022D0658017216846018496
:105A7000002000900246019009AB284602F076FB18
:105A8000002812D16846083670C008AA099B1099F0
:105A900004F0A5FD06466078000701D501F02BFE55
:105AA000002E0AD03046FFF7E9FD0BB0F0BD132100
:105AB0002846FDF723F80320F7E709980090684689
:105AC000038C04220121284602F02DFDEDE770B57C
:105AD00006468AB000200D4607900590069003A95F
:105AE0000490052402460291019010230094294657
:105AF000304605F013FB00280DD108A804A9009139
:105B0000029001946846838900222946304605F0B8
:105B100021F9002801D0FFF77AFD0AB070BD10B559
:105B200004F0B9FF10BDFEB50026054602960078C8
:105B30000C460827030014F033FD0CD0071036E2A2
:105B40006B6B8CA8CBAEBBD0002C01D014F00DFC3D
:105B5000288980B201F084FFC1E0A888042180B2C6
:105B6000009007F039FF0190002C01D014F0FDFBEC
:105B70000198002801D114F0F8FB01980099083031
:105B800004F04BF901F0D9FD040007D060783843E8
:105B900060700098608001F0AEFDA2E013210098D3
:105BA000FCF7ACFFABE0002C01D114F0DEFB608809
:105BB000042107F011FF0090002801D114F0D5FB5B
:105BC0000099002008802A7994461EE0C3005B19E2
:105BD0009B6800936B461B881A0708D5DA0606D522
:105BE0006046C20050194038C08F088006E05B0450
:105BF00009D50871C2005019C088488060783843C0
:105C0000607002266BE0401CC0B28445DED866E0BE
:105C1000E888694608800090002C01D114F0A5FBAB
:105C20000098C00B04D02878062805D0052830D06D
:105C300060783843607052E06088042107F0CCFE41
:105C4000060001D114F091FB00203071A88870800B
:105C50001FE0002C01D114F088FB6088042107F0BC
:105C6000BBFE0090002801D114F07FFB00980830A3
:105C700004F063FF0121484002D1E888C00B2ED018
:105C8000009861880226C180D2E7002C01D114F06F
:105C90006CFB0226CCE7002C01D114F066FB022637
:105CA00061880122204601F011FF01200290BFE728
:105CB000A889002C87B201D014F057FB68680090C7
:105CC0002889694688800122384601F015FF06E0E0
:105CD000002CADD114F049FBAAE714F046FB002CD0
:105CE0000DD0607800070AD50298002807D18420DB
:105CF00020702046582229461830FBF747FA3046D4
:105D0000FEBDF7B50C460546007E224688B00A3235
:105D10000392921C02920027811E16323E46019287
:105D20000B0014F03DFC08FD05FC34347FBEFBFC89
:105D30006888042107F050FE0190002801D114F07A
:105D400014FB01980088002802D052270726F2E0B1
:105D500051271E26002C7DD06888A0800120A071CC
:105D6000019803990079C0004019C08BFFF7B0FD7E
:105D7000002870D101980079C0004019C08B2081A3
:105D800001980079C0004019408CA083F0E0698C34
:105D90000091062820D1E88BC00B1DD00846223088
:105DA000512786B2002CD6D0A88B0299FFF790FD20
:105DB000002850D16888A0800220A071A88B208183
:105DC0000120A072288CE08300982084696A009AE0
:105DD000019814F040F9CBE008462030502786B2F5
:105DE000002CB8D0A88B0399FFF772FD002832D1A0
:105DF0006888A080A88BE080287E062810D001E06B
:105E0000C402002002202072288CA083E88BC00BE3
:105E100060720098E0832046696A2030009AD8E7D3
:105E20000120F0E76888042107F0D6FD0490688C13
:105E300000900498002801D114F097FA04980830D3
:105E400004F07BFE0121484002D1E88BC00B26D034
:105E5000009801E07DE023E02230512786B2002C3B
:105E600078D06888A080A88B0299FFF731FD0028C0
:105E700016D10220A071A88B20810420A072288C4A
:105E8000E08300982084696A009A019814F0E3F88E
:105E90000499002008710498A98B418068E00320D0
:105EA00003E66888FBF723FC00906888042107F06C
:105EB00093FD03900098002801D114F056FA03983E
:105EC000002801D114F051FA0398FF49C088884294
:105ED00002D05127222601E050272026002C39D05D
:105EE0006888A080502F07D00220A0712146287F0B
:105EF000083101F068FA3BE0287FA11D01F063FA48
:105F000000980021203040780090019103980B46C2
:105F1000428868880399FFF785FD02E004E025E0E8
:105F20001BE00028BCD123E0E849A88BC988814246
:105F300006D154270626002C0CD06888A08017E0D4
:105F400053270826002C05D06888A080A88BE08005
:105F50000EE0FFE70A98068010E055270726002C80
:105F6000F8D0A88BA0800020A07101E014F0FDF90A
:105F70000A98002C068001D027806680002094E5D6
:105F8000D24900200870704730B585B00C4601F04A
:105F90002FFA0546FF2801D114F0E7F900202080F0
:105FA00020716080401EE08020462946083003F0C2
:105FB00027FF6A462946012005F00FF8102412E059
:105FC0006846808800070ED56846C0882946FFF7D6
:105FD0007EFD68468188FF2321438180C088294651
:105FE000019A05F025F9684605F000F80028E7D089
:105FF00005B030BD0A46014610B51046083003F022
:1060000014FF10BD70B50546042107F0E5FC04003F
:1060100001D114F0AAF920462946083003F0FDFE0C
:1060200070BDF3B58BB00D460B98FBF760FB060017
:1060300005D03078222804D208200DB0F0BDA44845
:10604000FBE704210B9807F0C7FC0746002D02D0A0
:10605000A88800280ED0012168460173022100247F
:1060600001744474002D07D0A88869460883286805
:10607000059003E00920E0E70483059401F05DFB4F
:10608000050026D00B98688017216846018401948A
:10609000009409AB00220B9802F068F80028CCD1DC
:1060A000384608300B99029020360095019171789E
:1060B00008AA03A8099B04F092FA0446687800072E
:1060C00001D501F018FB002C09D02046FFF7D6FAC5
:1060D000B3E713210B98FCF711FD0320ADE70998F6
:1060E00000906846038C042201210B9802F01BFAF1
:1060F0000021C943F980A0E7FFB585B00E9E7788DF
:106100003846FBF7F4FA05460421384607F064FCEC
:106110000446002D01D114F028F9002C01D114F00F
:1061200024F90834089869460394C1C105A80DC82C
:106130002035697803F0A8FE09B0F0BDF0B504463B
:10614000002099B00D4601460D9010A88181164699
:10615000018181805D4A68469180018510A8018097
:1061600068460187818581841078012808D002283B
:1061700006D0032804D0042802D0082019B0F0BDAE
:10618000544A94426AD3554F534938688C4201D3DC
:10619000844263D34F4A954260D34F498D4201D325
:1061A00085425BD36168002912D04A4A914255D397
:1061B000494A914201D3814250D360892189884262
:1061C00003D801225202914201D90C20D6E70D904A
:1061D00016AA0EA92846FFF7E8FA0028CED168686B
:1061E00080784007800F02280AD16846008F80041B
:1061F000800F05D02869002802D0396888422DD345
:106200000AA92069FFF77BFA0028B7D12069002886
:106210000BD0607880076846008D03D58004800F1E
:1062200073D002E08004800F6FD16846008D810634
:1062300016D58004800F606805D0002810D039681A
:1062400088420BD301E000280AD02249884205D3B6
:106250002149884204D33968884201D210208DE751
:1062600009A96069FFF74BFA002887D16069002807
:1062700008D06846808C0105890F012945D180042A
:10628000800F42D00BA9A069FFF739FA00289DD1F1
:106290006846808C800638D46846808D810634D468
:1062A000A169002906D00105890F01292DD180049B
:1062B000800F2AD0E068002804D00078002824D07D
:1062C0001C2822D204AA0BE0FFFF0000C402002019
:1062D0000230000000B00100000000201C0000207F
:1062E000611C2046FFF788FA0121890210A801806D
:1062F000012768468773F849818104AA033217A9E8
:10630000286809F0FAF9002801D0072036E710A81C
:10631000007F15A9C01CC2B200200C920190FF3270
