:020000040000FA
:1000000000040020F509000089060000D509000061
:10001000930600009D060000A706000000000000F7
:10002000000000000000000000000000190A0000AD
:10003000B106000000000000BB060000C50600007D
:10004000CF060000D9060000E3060000ED06000020
:10005000F7060000010700000B070000150700006D
:100060001F07000029070000330700003D070000BC
:1000700047070000510700005B070000650700000C
:100080006F07000079070000830700008D0700005C
:1000900097070000A1070000AB070000B5070000AC
:1000A000BF070000C9070000D3070000DD070000FC
:1000B000E7070000F1070000FB070000050800004B
:1000C0000F08000019080000230800002D08000098
:1000D00037080000410800004B08000055080000E8
:1000E0005F08000069080000730800007D08000038
:1000F00087080000910800009B080000A508000088
:10010000AF0800001FB500F003F88DE80F001FBD19
:1001100000F066BC10B54FF010208069401C20B183
:100120004FF01021886900F089FA10BDFC4A01687F
:100130001160121D41681160F94A10328168116026
:10014000121DC168116070471FB56FF0010000906B
:1001500040100390029001904FF010208069040B32
:1001600060095DF8200004F01F02012191408843DE
:1001700061094DF821006846FFF7D8FF1FBD2DE942
:10018000F04105460C461646002706E02846216841
:1001900000F066FA2D1D241D7F1CB742F6D3BDE882
:1001A000F08170B504460B464FF6FF710A4618E021
:1001B000B3F5B47F02D340F2671500E01D46284630
:1001C0001B1A00BF34F8026B751829462A44451ED5
:1001D0002800F7D18DB205EB114195B205EB124223
:1001E00000BF002BE4D188B200EB114190B200EBCC
:1001F000124241EA024070BD92B00446C94903C9A7
:10020000CDE90001FF22402102A800F08FFB0FCCB6
:10021000CDE90423CDE9020102A9202208465508B0
:1002200001EB850304E080C81D461B1F45F8047CD4
:100230009842F8D100BF102102A8FFF7B2FF00904A
:10024000AA208DF80400FFF77FFFFFF763FF4FF050
:100250001021896901F18000102202A9FFF78FFFA8
:100260004FF01021886908226946FFF788FF00F0E7
:10027000C9F901464FF0805000694FF08052526931
:1002800050430A68904201D8102070470020FCE7D4
:100290000146D1E9000200EB82024FF08050006974
:1002A0004FF080535B69584382420DD84FF01020C5
:1002B000406904234A6803FB0202980600699B0612
:1002C0005B695843824201D9092070474FF01020E2
:1002D0004069401C08B90F20F7E70020F5E770B52A
:1002E00005460C462E460BE0304600F0A7F9B4F563
:1002F000806F01D2002401E0A4F5806406F58056E9
:10030000002CF1D170BD2DE9F0410446206806288B
:100310006BD2DFE800F040031A305122A668E5688E
:10032000676829463046FFF7DAFF2A4639463046E5
:10033000FFF725FFAA003946304600F0CBFA10B986
:100340000020BDE8F0810320FBE700F07BFB4FF4C9
:100350008050754908600020F3E7201DFFF789FFF2
:1003600005460DB12846ECE700F06CFB6E4960686D
:1003700008600020E5E76568E668A768B2003946CE
:10038000284600F0A7FA8046B8F1000F01D10020FE
:10039000D7E70E20D5E74FF010208069401C08B940
:1003A0000420CEE7201DFFF773FF05460DB1284658
:1003B000C7E72046FFF720FF4FF010208069401C60
:1003C00008B90420BDE7201DFFF753FF05460DB116
:1003D0002846B6E7606828B9FFF7B6FEFFF79AFE31
:1003E00000F010F92046FFF707FF0720A9E770B5D6
:1003F00005460C46182D04D12068FFF784FF2060C5
:1004000002E00120206000BF00BF70BD2DE9FF4762
:1004100005464FF010204669A86806EB80074FEAB2
:10042000163807F6FF704FEA10390020009001904F
:100430000290039000BF0BE041095DF8211000F02D
:100440001F0301229A40114342094DF82210401C1B
:100450004045F1D348460BE041095DF8211000F01A
:100460001F0301229A40114342094DF82210401CFB
:100470008028F1D34FF010208069040B60095DF8EB
:10048000200004F01F0201219140884361094DF8CA
:1004900021006846FFF74AFEBDE8FF872DE9F041DD
:1004A00004464FF010204569A6686768B2003946D7
:1004B000284600F00FFA10B10020BDE8F0810120BD
:1004C000FBE70446606808B1012000E00020074611
:1004D0002046FFF7E3FF28B1FFF736FEFFF71AFECD
:1004E00000F090F82046FFF791FFBFB14FF01020C9
:1004F000D0F81480A5686668B6F5002F0BD2B5F564
:10050000002F08D229464046FFF7E9FE2A46314629
:100510004046FFF734FEFFF7FDFD00BF00F072F824
:1005200000060040680A00000000002004466568DC
:100530003C480560006800F05FFA4FF010208069C9
:10054000401C002843D04FF01020806900F1800447
:100550004FF0102085692879AA2837D1102120462C
:10056000FFF71FFE07462868B8422BD14FF0102036
:10057000806900F18001202208464FEA520C01EB0D
:100580008C0601230EE053B150F8049BB446361F8D
:100590005CF804CCE14502D14FF0010C01E04FF0D2
:1005A000000C6346B042EED163B1206810B104285C
:1005B00006D102E02046FFF784FF2046FFF7B6FF92
:1005C00000BFFEE7FFF7A6FD00F01CF800BF4FF0EC
:1005D00010204069401C50B14FF010204069006865
:1005E000401C20B14FF01021486900F005FA4FF48B
:1005F00080500068401C08B900BFFEE74FF48050EF
:1006000000F0FAF9BFF34F8F0748006800F4E0608C
:1006100006490843001D04490860BFF34F8F00BF1F
:10062000FEE70000000000200CED00E00000FA05ED
:1006300000BF134800680028FBD0704700B5014692
:100640000220104A1060FFF7F3FF0E48001D016002
:10065000FFF7EEFF00200B4A1060FFF7E9FF00BD37
:1006600000B502460120074B1860FFF7E1FF11605B
:10067000FFF7DEFF0020034B1860FFF7D9FF00BD36
:1006800000E4014004E5014008208F490968095849
:10069000084710208C4909680958084714208A49DE
:1006A0000968095808471820874909680958084700
:1006B0003020854909680958084738208249096867
:1006C000095808473C2080490968095808474020D4
:1006D0007D4909680958084744207B490968095839
:1006E0000847482078490968095808474C20764946
:1006F000096809580847502073490968095808478C
:100700005420714909680958084758206E490968FA
:10071000095808475C206C49096809580847602057
:1007200069490968095808476420674909680958F0
:100730000847682064490968095808476C206249DD
:1007400009680958084770205F490968095808472F
:1007500074205D4909680958084778205A49096892
:10076000095808477C2058490968095808478020DB
:1007700055490968095808478420534909680958A8
:100780000847882050490968095808478C204E4975
:1007900009680958084790204B49096809580847D3
:1007A000942049490968095808479820464909682A
:1007B000095808479C204449096809580847A0205F
:1007C0004149096809580847A4203F490968095860
:1007D0000847A8203C49096809580847AC203A490D
:1007E000096809580847B020374909680958084777
:1007F000B4203549096809580847B82032490968C2
:1008000009580847BC203049096809580847C020E2
:100810002D49096809580847C4202B490968095817
:100820000847C8202849096809580847CC202649A4
:10083000096809580847D02023490968095808471A
:10084000D4202149096809580847D8201E49096859
:1008500009580847DC201C49096809580847E02066
:100860001949096809580847E420174909680958CF
:100870000847E8201449096809580847EC2012493C
:10088000096809580847F0200F49096809580847BE
:10089000F4200D49096809580847F8200A490968F1
:1008A00009580847FC2008490968095808475FF4B7
:1008B0008070054909680958084700000348044941
:1008C000024A034B7047000000000020780A000035
:1008D000780A000040EA010310B59B070FD1042AF3
:1008E0000DD310C808C9121F9C42F8D020BA19BAFB
:1008F000884201D9012010BD4FF0FF3010BD1AB160
:10090000D30703D0521C07E0002010BD10F8013BB4
:1009100011F8014B1B1B07D110F8013B11F8014BDB
:100920001B1B01D1921EF1D1184610BD02F0FF032E
:1009300043EA032242EA024200F005B870477047DA
:1009400070474FF000020429C0F0128010F0030C31
:1009500000F01B80CCF1040CBCF1020F18BF00F8B2
:10096000012BA8BF20F8022BA1EB0C0100F00DB861
:100970005FEAC17C24BF00F8012B00F8012B48BFBF
:1009800000F8012B70474FF0000200B51346944663
:100990009646203922BFA0E80C50A0E80C50B1F1D7
:1009A0002001BFF4F7AF090728BFA0E80C5048BFEB
:1009B0000CC05DF804EB890028BF40F8042B08BF89
:1009C000704748BF20F8022B11F0804F18BF00F885
:1009D000012B7047014B1B68DB68184700000020A3
:1009E00009480A497047FFF7FBFFFFF78BFB00BD83
:1009F00020BFFDE7064B1847064A1060016881F3E7
:100A00000888406800470000780A0000780A000063
:100A10003B050000000000201EF0040F0CBFEFF3A8
:100A20000881EFF30981886902380078182803D11A
:100A300000E00000074A1047074A12682C3212688B
:100A40001047000000B5054B1B68054A9B589847A6
:100A500000BD0000EF03000000000020640A000059
:100A600004000000001000000000000000FFFFFF75
:040A70000090D0031F
:10100000E010002045AB0100452F0000B3AA01000D
:10101000452F0000452F0000452F00000000000074
:10102000000000000000000000000000A9AB01006B
:10103000452F000000000000452F0000452F000054
:1010400011AC010017AC0100452F0000452F000036
:10105000452F0000452F0000452F0000452F0000C0
:101060001DAC0100452F0000452F000023AC0100FE
:10107000452F000029AC01002FAC010035AC010068
:10108000452F0000452F0000452F0000452F000090
:10109000452F0000452F0000452F0000452F000080
:1010A0003BAC010041AC0100452F0000452F000082
:1010B000452F0000452F0000452F0000452F000060
:1010C000452F0000452F0000452F0000452F000050
:1010D000452F0000452F0000452F0000452F000040
:1010E000452F0000452F0000452F0000452F000030
:1010F000452F0000452F0000452F0000452F000020
:10110000452F0000452F000000F002F819F0F7FC11
:101110000AA090E8000C82448344AAF10107DA4552
:1011200001D119F0ECFCAFF2090EBAE80F0013F090
:10113000010F18BFFB1A43F0010318472C9C010054
:101140004C9C01000A4410F8014B14F00F0508BF35
:1011500010F8015B240908BF10F8014B6D1E05D083
:1011600010F8013B6D1E01F8013BF9D1641E03D05C
:10117000641E01F8015BFBD19142E4D3704700008B
:101180000023002400250026103A28BF78C1FBD890
:10119000520728BF30C148BF0B6070471FB500F031
:1011A00031F88DE80F001FBD8269034981614FF05E
:1011B0000100104470470000BD11000001B41EB4CE
:1011C00000B510F002FA01B40198864601BC01B0E6
:1011D0001EBD0000F0B44046494652465B460FB47F
:1011E00002A0013001B50648004700BF01BC864699
:1011F0000FBC8046894692469B46F0BC7047000073
:101200000911000019F078BC70B5F84C05460820AB
:101210002070A01C00F01BFA5920A080294620460F
:10122000BDE8704007F045B810B507F04CF8EF493D
:101230000020891E087010BD70B5EC4D0C46AD1E27
:101240000126297871B36038532871D2DFE800F0A5
:101250002F383D43484E53575D6270707070707008
:10126000676C71787C7F858B9095999DA1A8ADB3B3
:10127000BBC2C9F2F8FFEEEDECEBEA707070707073
:10128000E9E8E7E6E5E4E3E2E1E0707070707070D1
:10129000DFDEDDDCDBDAD9D8D7D6D5D4D3707070F9
:1012A000D2D1D000602802D043F201009AE1D4E903
:1012B000000107F05BF92060002800D12E7070BD9E
:1012C000D4E9000107F0DCF98CE12088616880B284
:1012D00007F01FF986E1D4E9000107F062FA81E125
:1012E000D4E90112207807F075FA7BE194E8070051
:1012F00007F091FA76E1206807F0B0FA72E12088F1
:10130000616880B207F0CEFA6CE1D4E9000107F021
:10131000E6FA67E1D4E9000107F0FAFA62E1207821
:10132000616802F06DFE5DE1206802F0BFFE59E1E8
:101330005AE1237B2179A268206802F0CDFE51E1B9
:10134000206802F059FF4DE102F033FC4AE12088A9
:10135000616880B203F07DF844E12088217980B291
:1013600003F0EFF83EE1207840B203F0FAF839E1FB
:10137000208880B200F07FFA34E1206800F08DFA16
:1013800030E1206800F015FA2CE1206800F041FA05
:1013900028E1208982B2D4E9000100F09EFA21E11F
:1013A000D4E9000100F0E8FA1CE12088616880B20D
:1013B00004F06AFA16E1D4E902232088217980B288
:1013C00004F043FB0EE12088217980B2A26804F08A
:1013D000E8FC07E1D4E90112208880B204F05BFD4B
:1013E00000E1211D20880EC980B204F0B9FDF9E0AA
:1013F000F2E0ECE0E6E0DEE0D9E0D1E0C7E0C0E01A
:10140000B6E0AFE0A6E09DE095E08DE084E07DE011
:101410006FE068E05FE055E04DE071E045E03EE000
:1014200037E02EE027E023E01DE019E014E00EE0B5
:1014300006E0FFE72088616880B204F0CCFDD1E0CF
:101440002088227A217980B203F098F8CAE02088B7
:1014500080B203F096F8C5E0206803F097F8C1E089
:1014600002F088FBBEE094E8070003F0F7F8B9E06B
:1014700002F069FBB6E02088616880B203F0A1F950
:10148000B0E0A088A26881B2208880B200F06BFF33
:10149000A8E02088616880B200F0A8FFA2E0208860
:1014A000616880B200F0B0FF9CE02088616880B283
:1014B00000F0B8FF96E0D4E90112208880B200F075
:1014C000C6FF8FE0208982B2A08881B2208880B2D6
:1014D00000F0C2FF86E02089616882B2208880B275
:1014E00000F0DBFF7EE02088616880B200F0E6FF5C
:1014F00078E0A08881B2208880B201F040F871E0E5
:101500002088616880B201F047F86BE0D4E90112ED
:10151000207806F0ADF865E0A088A26881B2208846
:1015200080B206F0B5F85DE0211D20880EC980B2BA
:1015300006F0AFF856E0D4E90112208880B206F038
:10154000C3F84FE0A088A26881B2208880B206F07C
:10155000D0F847E0A088A26881B2208880B206F067
:1015600017F93FE02088616880B206F06CF939E035
:10157000208982B2A08881B2208880B206F06DF9FD
:1015800030E02088616880B206F08DF92AE0208979
:10159000E36882B22088616880B206F0ECF921E04D
:1015A000211D20880EC980B206F0C2FA1AE0206818
:1015B00006F06CFB16E0D4E90112208880B206F038
:1015C00076FB0FE0208880B201F030FC0AE0208832
:1015D00080B201F04AFC05E0D4E90112208880B213
:1015E00001F054FC206070BD266070BD0A00002030
:1015F00010B504460021012000F034F80021182025
:1016000000F030F800210B2000F02CF80221192006
:1016100000F028F802210D2000F024F802210E200D
:1016200000F020F802210F2000F01CF80221C81F52
:1016300000F018F80321162000F014F803211520FB
:1016400000F010F82046FFF7DFFD002010BD7921E3
:1016500001807047FFF7E8BD0A487047FFF7ECBD0F
:10166000704770474907090E002806DA00F00F009E
:1016700000F1E02080F8141D704700F1E02080F8B0
:101680000014704703F90043FD4800210160818088
:1016900070472DE9FF418046FA480D4692B01C463E
:1016A0001946834206D3F848814207D3F7480068B9
:1016B000814203D2102016B0BDE8F081012001F074
:1016C0007AFD0028F7D101268DF842604FF4C05012
:1016D000ADF84000002210A9304605F088FC002833
:1016E000E9D18DF842604FF42850ADF84000002752
:1016F0001C216846099719F0A2F99DF82400ADF85D
:10170000345020F00F00401C20F0F00010308DF815
:1017100024009DF82500ADF8367020F0FF008DF80C
:1017200025009DF8260007AA20F00600801C40F046
:1017300001008DF826009DF800000BA940F0020082
:101740008DF800001F20ADF8380009A80C9010A8F3
:101750000B90CDF83C80684605F02FFA0028AAD1FE
:10176000C74DBDF81C0007AA28808DF8426042F6DC
:101770000120ADF840009DF826000BA920F00600DE
:10178000801C20F001008DF826000220ADF8340006
:10179000ADF8380014A80F90684605F00EFA00283E
:1017A00089D1BDF81C006880291D204600F010F981
:1017B00081E73EB504460820ADF80000B1488442F8
:1017C00006D3B148844205D3B0480068844201D2B0
:1017D00010203EBD2146012001F0EDFC0028F8D18B
:1017E0002088ADF804006088ADF80600A088ADF848
:1017F0000800E088ADF80A00A14801AB6A4680887D
:10180000002105F02FFEBDF800100829E1D00320CB
:101810003EBD1FB50446002002900820ADF8080028
:101820009848CDF80CD0844206D39748844206D31A
:1018300096480068844202D2102004B010BD90483F
:1018400002AA81884FF6FF7005F0A2FF0028F4D1AC
:10185000BDF80810082901D00320EEE7BDF80010FC
:101860002180BDF802106180BDF80410A180BDF890
:101870000610E180E1E701B582B00220ADF800007A
:101880007F4802AB6A464088002105F0EBFDBDF8B9
:101890000010022900D003200EBD1CB500210091CC
:1018A0000221ADF800100190B0F5000F06D3B0F1A1
:1018B000805F05D375490968884201D210201CBD9C
:1018C0006F486A4641884FF6FF7005F061FFBDF82A
:1018D00000100229F3D003201CBD2DE9FF4117465B
:1018E000684A0E460546914206D368486649006834
:1018F0008E4204D3864202D2102004B0DCE61F2FB1
:1019000001D90C20F9E75E4C954227D38D4201D3D3
:10191000854223D3208803A905F062FD0028ECD17D
:1019200028788DF80D00208803A905F03AFD0028DD
:10193000E3D100909DF800009DF80D1040F00200EA
:101940008DF80000090703D040F008008DF8000072
:101950002088694605F0BFFC0028CED1ADF80470A0
:101960002088334601AA002105F07CFDBDF8041053
:10197000B942C2D00320C0E77CB50C4600210091DB
:10198000019122884149ADF8002001904FF40003F5
:1019900009685D0128B1984209D3A84201D3884261
:1019A00005D39C4203D3AC4203D38C4201D2102016
:1019B0007CBD00B152B132486A4601884FF6FF70D3
:1019C00005F0E6FEBDF8001021807CBD0C207CBD3A
:1019D00030B593B0044600200D460090142101A8B4
:1019E00019F02DF81C2108A819F029F89DF800001D
:1019F000CDF808D020F00F00401C20F0F00010308F
:101A00008DF800009DF8010006AA20F0FF008DF877
:101A100001009DF8200001A940F002008DF820008F
:101A200001208DF8460042F60420ADF8440011A8CC
:101A300001902088ADF83C006088ADF83E00A08899
:101A4000ADF84000E088ADF842009DF8020020F0BB
:101A50000600801C20F001008DF802000820ADF87F
:101A60000C00ADF810000FA8059008A805F0A5F827
:101A7000002803D1BDF818002880002013B030BD25
:101A80001000002000B00100000000201C00002019
:101A900070B50D46007804991446042804D0052832
:101AA00033D019F000F870BDA88B0E2200EB400077
:101AB00002EB4000188033200880002CF3D0A88B64
:101AC000A081002613E0A87F012814D006EBC600F1
:101AD00005EB400106EB460204EB4202088CD08184
:101AE0001020223110320DF0BDFD761CB6B2A08957
:101AF000B042E8D870BD05EB860106EB460204EB68
:101B00004202088CD0810220EBE7A88B102200EB68
:101B1000C00002EB4000188034200880A87F012814
:101B200009D0022807D018F0BEFF002CE2D0A88B05
:101B3000A081002613E0A073F7E7A87F012812D048
:101B400006EBC60005EB400104EB40000A8C028264
:101B500010221230223118F0D9FE761CB6B2A089BC
:101B6000B042EAD870BD05EB860106EBC602088CD0
:101B700004EB420222311082022012320DF072FD7B
:101B8000EBE72DE9F04105780E20DDF818C001F1F2
:101B9000200402F10E074FF00008022D07D0032D9C
:101BA0002ED0062D6BD018F07EFFBDE8F081CD8BD6
:101BB00005EB850600EB460018803120ACF80000EC
:101BC000002AF2D0087F9581801FC6B214E06168B8
:101BD0002088388031F8020BF88031F8020B388108
:101BE000BA1C30460DF03EFD06B118B187F80480EE
:101BF000A7F8028008340A376D1EADB2E7D2D4E7E9
:101C0000CD8B05EB850600EB460018803220ACF842
:101C10000000002AC9D0087F9581401FC6B22AE083
:101C20006168228811F8010BFA803A79430860F361
:101C3000000263F34102830863F38202C30863F383
:101C4000C302030963F30412430963F345128309D2
:101C500063F386123A71C009787131F8020B38814A
:101C60003A4630460DF0FEFC18B187F80280A7F81E
:101C7000008008340A376D1EADB2D1D295E7087FD7
:101C8000CD8B801E86B206F10800684310301880A4
:101C90003520ACF80000002A87D0958102F11007AA
:101CA000D68107EBC5080BE020883880C7F8048090
:101CB00032464046616818F029FE0834B0440837BF
:101CC0006D1EADB2F0D270E72DE9F0471D46089EBB
:101CD0000C4681462AB1607E00F58070D080E08B92
:101CE000108199F800000E274FF000084FF0100AFD
:101CF0000C2874D2DFE800F0A10616232C354454DA
:101D00006A747474207F9146082803D0032801D098
:101D100018F0C9FE2F8030200CE000BFA9F80C801D
:101D2000BDE8F087207F9146042801D018F0BBFE63
:101D30002F8031203080B9F1000FEFD1F0E7207F04
:101D40009146042801D018F0AEFE2F803220F1E732
:101D5000207F9146022801D018F0A5FE2F80332065
:101D6000E8E7207F1746022801D018F09CFE3420B7
:101D7000A5F800A03080002FD2D0A7F80C80CFE7C4
:101D8000207F1746042801D018F08DFE3520A5F8D5
:101D900000A03080002FC3D04046A7F80C8013E08D
:101DA000207F1746052803D0062801D018F07BFEB7
:101DB0001220288036203080002FB1D0E08BB881EF
:101DC000A7F81080B9F80200F881A9E7207F9146B2
:101DD000072801D018F067FE2F803720AAE72CE0F3
:101DE0004FF0140018804FF038001700308097D063
:101DF000E08BB881A7F8128099F80000092806D076
:101E00000A280BD00B2810D018F04DFE88E7207F51
:101E10000C2801D018F047FE01200CE0207F0D288F
:101E200001D018F040FE042005E0207F0E2801D0EC
:101E300018F039FE0520B87372E718F034FE6FE72A
:101E400070B50C46054601F01EF920B10078222835
:101E500004D2082070BD43F2020070BD052128465F
:101E60000BF065FD206008B1002070BD032070BD3F
:101E7000FFB585B007461720ADF80800089814464E
:101E80000D46032628B908A93846FFF7D9FF0028D0
:101E90003AD14DB100220321384600F04BFFA8B3E0
:101EA0000898007890BB06E02078092822D00F28F7
:101EB0002DD018F0F8FD002000900246019003ABF1
:101EC000BDF80810384600F02BFC08B118F0EBFD07
:101ED000089802A9801DC4E901072046039A07F06B
:101EE000FAFA40B3072824D2DFE800F01A182323B7
:101EF000211C1E00072600223146384600F01AFF3A
:101F00000028D8D143F2040009B0F0BD06E0002259
:101F10000321384600F00EFF0028CCD11120F3E752
:101F20000020F1E70820EFE743F20300ECE7072089
:101F3000EAE70320E8E703980090BDF808300422A0
:101F40003146384600F0B8FD0028DDD1002DDBD049
:101F500008990D70D8E710B588B01C46AAB10423C3
:101F60008DF800301388ADF80C305288ADF80E2093
:101F70008A788DF812200988ADF8101000236A467F
:101F80002146FFF775FF08B010BD1020FBE72DE9D3
:101F9000F041074600780C4612283FD2DFE800F0F7
:101FA0003E383816113B09090909090909090909C7
:101FB00009090CB918F077FD607840F008006070EE
:101FC0002EE0002CF8D118F06EFDF5E7B888052159
:101FD00086B230460BF0ABFC05460CB118F063FD41
:101FE0000DB918F060FD3146A81D07F06DFA06F036
:101FF000A9F8040007D0607840F00800607066809F
:1020000006F07EF80DE01321304602F09AFA19E04E
:1020100018F049FD04E018F046FD01E018F043FD1A
:1020200084B1607800070DD52078582220F00F0089
:10203000C01C20F0F00090302070394604F11800E8
:1020400018F0A9FC0020B0E5002100F8061B07F0FD
:1020500038BA0A460146901D07F03CBA70B50546ED
:1020600005210BF064FC040001D118F01CFD294689
:10207000A01DBDE8704007F027BA2DE9FE4F4FF0D4
:102080000009ADF80890ADF8049047880C46054665
:102090009346052138460BF04AFC060001D118F0A2
:1020A00002FD24B1A780A4F80690A4F80890297E28
:1020B00004F112003827C91E4FF001084FF0360A0C
:1020C00000900F2973D2DFE801F0EEED726308B2E1
:1020D0006C73852DBBCFEF9A9A003078012801D020
:1020E00018F0E1FCA88B0E2101EBC001ADF8041043
:1020F0003021ADF80810002C13D0A08100200DE095
:1021000004EBC00132790A747288CA8105EB80023F
:10211000401CD38B4B82128C8A8280B2A18981426F
:10212000EED8F1E03078012801D018F0BCFCE88B43
:102130000E2101EBC001ADF804103021ADF80810FC
:10214000297F091FC9B20091002CEAD0A081002785
:102150001AE000BF05EBC70A04EBC70808F10E023E
:10216000DAF8241000980DF07DFA18B188F8109074
:10217000A8F80E90BAF82010A8F81210BAF8221099
:102180007F1CA8F81410BFB2A089B842E2D8BBE007
:1021900002A8009001AB224629463046FFF778FCA2
:1021A000B2E03078072808D018F07DFC05E0A9E0FF
:1021B0003078072801D018F076FCE88BADF808A03D
:1021C0001230ADF80400002C39D0A98BA1817188A0
:1021D000E18124E03078082801D018F064FCA88B55
:1021E00000F10E01ADF804103721ADF80810002CF5
:1021F00025D0A081AA8B04F10E00296A4EE0E88B5D
:10220000123080B23921ADF80400ADF80810ECB3FB
:10221000A98BA181287E102807D00221A173E98B08
:102220002182EA8B296A009838E00121F6E702A8AA
:10223000009001AB224629463046FFF7A2FC63E03E
:102240003078092801D018F02EFC1420ADF80400D5
:10225000ADF8087024B3A98BA181A4F81290A4F85A
:10226000109084F80E804FE030780A2801D018F0E2
:102270001AFC288CADF808701430ADF804007CB15D
:102280000421A173A98BA181E98B00E037E02182B1
:10229000298C61822A8C04F11400696A18F036FBDB
:1022A00032E001E014E01CE030780B2801D018F097
:1022B000FAFB1420ADF80400ADF8087024B3052132
:1022C000A173A4F80C90A4F81090A4F812901BE04D
:1022D00002A8009001AB224629463046FFF7F4FCE5
:1022E00012E00D203A21ADF80400ADF8081034B129
:1022F000A4F80680A4F8089084F80C9004E0ABF8E9
:10230000000015E018F0CFFBBDF80400ABF80000AA
:1023100074B1BDF808002080BDF804006080287EFC
:10232000032805D0102803D0112801D086F800908A
:102330000020BDE8FE8F2DE9F84356880F46804601
:102340001546052130460BF0F2FA040001D118F0D1
:10235000AAFBA41D33462A4639464046009407F09E
:1023600037FABDE8F8832DE9F0438DB00D461446E9
:10237000814607A9FFF764FD002814D14FF6FF76C8
:1023800001274FF420588CB103208DF80000102055
:10239000ADF8140008A802460690204605A90DF0E5
:1023A00080F978B107200DB0BDE8F0830820ADF8C2
:1023B0000C508DF812708DF80000ADF80E60ADF87D
:1023C00010800CE00798A1780171218841808DF878
:1023D0001270ADF80C50ADF81080ADF80E606A4682
:1023E00001214846079BFFF743FDDCE708B50122C2
:1023F0008DF8022042F60202ADF800200A460223C0
:102400006946FFF7A8FD08BD08B501228DF8022036
:1024100042F60302ADF800200A4603236946FFF79F
:102420009AFD08BD00B587B079B102228DF8002071
:102430000A88ADF80C204988ADF80E1000236A46D2
:102440000421FFF715FD07B000BD1020FBE709B11F
:10245000062380E50720704770B588B00D46144606
:10246000064607A9FFF7ECFC00280ED17CB1062038
:10247000ADF80C508DF80000ADF80E40079B6A4691
:1024800007215C803046FFF7F3FC08B070BD0520E3
:102490008DF80000ADF80C50F0E700B587B059B1E9
:1024A00007238DF80030ADF80C20049100236A4614
:1024B0000821FFF7DDFCC6E71020C4E770B5002453
:1024C00088B0172391B10A78062A20D2DFE802F0FB
:1024D0001F04041503171523DB1E9DB2CB880BB117
:1024E0008E681EB1AB4203D90C20CEE71020CCE79A
:1024F000042A04D08B8853B901E00620C5E7012ADD
:1025000013D0022A05D0042A1CD0052A2AD007207D
:10251000BBE709228DF800204A88ADF80C20CA8854
:10252000ADF80E208968049123E00C228DF800207C
:102530004A88ADF80C20CA88ADF80E2089680924B5
:10254000049116E00D228DF800204A88ADF80C2089
:102550008A88ADF80E20CA88ADF8102089680A2450
:10256000059106E00E228DF8002049788DF80C10B8
:102570000B2400236A462146FFF77AFC85E700B565
:1025800087B00F228DF80020ADF80C1000236A46AA
:102590001946FFF76DFC56E700B587B071B102220E
:1025A0008DF800200A88ADF80C204988ADF80E108F
:1025B00000236A460521FFF75BFC44E7102042E751
:1025C0004FF0E0224FF400410020C2F88011224970
:1025D0000870224990020860704730B51E4D0446CD
:1025E0002878A04218BF002C03D0002818BF18F08C
:1025F0005AFA2878A04208BF30BD2C701849174AF3
:102600000020F4B1174DDFF860C0131F012C04D077
:10261000022C0CD018F047FA30BD08600220086088
:10262000CCF800504FF040701060186030BD08606A
:1026300003200860CCF800504FF4000010601860D0
:1026400030BD086008604FF06070106030BD00B5AC
:1026500018F029FA00BD00001600002008F501401E
:1026600000F50040D002002014F500402DE9F047AD
:102670008246DDE9087807F10B00C5B29946164697
:102680000C46504600F035FCA84207D2072E02D077
:102690001120BDE8F08743F20400FAE7607B1E28B2
:1026A00001D318F000FAA07800061BD4A8F10401A9
:1026B000C81E0022027028F8047C28F8029C5046AC
:1026C0000BF0E9FA5FEA000801D118F0ECF93F1DC0
:1026D000B9B2404600F088FC08B918F0E4F9504659
:1026E00008F0C4FF207B617B0844491CC0B26173C1
:1026F0001E2801D31E38C0B200EB40002044072E34
:102700008673C17B21F00F01C173057404D0608909
:10271000401B60810020BCE72089401B2081F9E735
:102720002DE9F04385B01D46DDE90C871646894644
:102730000BF0B1FA040001D118F0B5F909F1040069
:1027400082B26946204600F04DFCF8B1BDF80800A1
:10275000042801D218F0A7F91EB1BDF80800001F27
:10276000308015B10198C01D2860BDF8100008B177
:1027700018F099F90020B8F1000F01D0A8F8000076
:1027800007B13860002005B0BDE8F08343F20400D3
:10279000F9E72DE9F04F0F46054687B016465088F9
:1027A00003210BF0C4F8040001D118F07CF94FF0BC
:1027B00000098DF80890A078400601D118F073F94F
:1027C000042F53D3297841F30000401C06D16278CE
:1027D0006B789A424AD12278120747D04FF0010B0A
:1027E0004FF00208142939DA4FF6FF7A012933D065
:1027F000122902D0132931D11CE00C2F2ED1A1783F
:1028000001F07F01012929D0207820F00F00401C21
:102810002070687860708DF808B0A888ADF80C005A
:10282000E888ADF80E002889ADF810006889ADF889
:10283000120016E0062F11D1207820F00F00207032
:10284000718801200FF0E3F88DF80880ADF80CA036
:10285000A888ADF80E0004E0062F0AD09DF80810F5
:10286000B9B17088324602A901F054FA07B0BDE848
:10287000F08F207820F00F002070718801200FF079
:10288000C6F88DF80880A888ADF80C00ADF80EA049
:10289000E7E70028EAD0768827464C46CDF8009036
:1028A00005AB002206213046CDF80490FFF738FF33
:1028B00008B118F0F8F8059805231A4680F800B01A
:1028C00069784170A0F8028084800621CDE900106B
:1028D00039463046FFF7CAFE0028C7D018F0E3F8A3
:1028E000C4E72DE9FF470F468146014615463846A5
:1028F000FFF721FDC0B2082851D10026ADF80860CD
:10290000688803210BF013F8040001D118F0CBF80C
:1029100001230021207B627B0EE000BF00EB400C16
:10292000A4449CF80EC09C4501D1491CC9B2401C6E
:10293000C0B21E2800D10020521ED2B2EED211B970
:102940001720ADF8080000960196688803AB0022B6
:10295000BDF80810FFF7E4FE08B118F0A4F80095E0
:1029600002AA49463846039B04F001F9C0B2052883
:102970001CD2DFE800F0031B14161400BDF8080099
:1029800000280CD003990423CDE9000168880122B6
:102990002146FFF76BFE002801D018F084F8BDE84F
:1029A000FF87687840F010006870F8E718F07BF84F
:1029B000F5E70020F949024621F81020401C0828BC
:1029C000FAD37047817821F0FF018170017821F0FE
:1029D0000F010170012141700021416001734173B9
:1029E000704770B50D4603210AF0A1FF040001D124
:1029F00018F059F8A078012D65F30600A07002D0F8
:102A0000022D02D003E0EE2000E066202081CC20E1
:102A1000608170BD7047014601200EF0F8BF3EB5E1
:102A20008DB2032128460AF082FF040001D118F07C
:102A30003AF82078002220F00F00207002208DF854
:102A400000004FF6FF70ADF80400ADF806006946CF
:102A5000284601F05FF93EBD2DE9F04105460C46E0
:102A600000270078012190463E46B1EB101F01D0AF
:102A700018F019F8287E03280AD018F014F800BFBF
:102A8000A8F800600CB1278066800020BDE8F081C6
:102A9000EA8B702702F10A0086B254B16888A080E0
:102AA000A88B2081E28004F10A00296A17F02EFF2A
:102AB000E6E7A8F80060E8E72DE9FC410F461C4670
:102AC000164680460321089D0AF031FF010008D018
:102AD00033463A464046CDE90045FFF7C7FDBDE81D
:102AE000FC8143F20200FAE72DE9F04102468068DA
:102AF000938930F8031F1B1F45889942C6D1042DC6
:102B00001FD0052D29D0062D1FD0402DBED3061D68
:102B10000F461446284600F0F2F90828B6D020786F
:102B200020F00F00401C20F0F00010302070032037
:102B30002076A583E7832662607840F00800607005
:102B4000A4E7BDE8F041001DCBE6031D5088BDE8B9
:102B5000F0410A46194602F0B2BBBDE8F041001D43
:102B600017E6FEB50D46064603210AF0E0FE040016
:102B700010D0207800F00F00012809D0002000902C
:102B80000246019002AB0C213046FFF7C9FD20B18F
:102B90001120FEBD43F20200FEBD02981221052362
:102BA000017061781A46891C41700821418029888A
:102BB00081806988C180A9880181E98841810C21CF
:102BC000CDE9001021463046FFF750FD08B117F05F
:102BD0006AFFF0230022314601200EF07AFE2078B1
:102BE00020F00F00401C20706078801C6070002076
:102BF000FEBDFEB50D46064603210AF098FE040010
:102C000006D0207800F00F00012804D00820FEBD77
:102C100043F20200FEBD002000900246019002AB8C
:102C200006213046FFF77CFD08B11120FEBD029859
:102C30001321052301706178417002214180858054
:102C40000621CDE900101A4621463046FFF70EFD59
:102C500008B117F028FF207820F00F002070002026
:102C6000FEBD2DE9F0470D46824603210AF05FFEC6
:102C700004004FF0000801D117F015FF607BA84257
:102C80002CD217F010FF29E0207B00EB40010E1939
:102C9000401CC0B2B77B96F8109020731E2801D15B
:102CA00000202073607B401E6073F07BC00704D05F
:102CB0005046042F17D017F0F6FEF17B11F00E0FDF
:102CC00006D0C1F34201504604290FD017F0EBFEA5
:102CD000072F0ED0618901EB090060816D1EEDB2F6
:102CE000D2D24046D5E402F07FFBE6E702F044FB97
:102CF000EEE708F10100218900F0FF0801EB09006F
:102D00002081EBE710B503210AF011FE040001D188
:102D100017F0C9FE207B617B0844C0B220731E28D7
:102D200001D31E38207300206073A07840F080002B
:102D3000A07010BD2DE9F0410D461746064603214F
:102D40000AF0F5FD040003D03DB11FB1062002E0FA
:102D500001209BE60820A84201D817F0A4FE2A46CD
:102D60002146304600F0C5F82221B0FBF1F0C6B292
:102D700037B32EBB207B617B1EE000BF00EB40021F
:102D80002244937B072B03D0D37B13F00E0F07D085
:102D9000401CC0B21E280CD00CE0000050070020E0
:102DA00000EB40002044C07B65F34300D07339B989
:102DB00004E00020491EC9B20029DFD117F073FEDC
:102DC000304663E62DE9F0410D4603210AF0AFFDE0
:102DD000040001D117F067FE681E052801D317F023
:102DE00062FE1E23227B607B002111E002EB420683
:102DF0002644B77BAF4206D1F37B491C23F0010385
:102E0000F373C9B21346521CD2B21E2A00D100225B
:102E1000401EC0B2EAD21E2B06D203EB4300204470
:102E2000C27B42F00102C27308462FE610B5044689
:102E3000402801D2072010BD00F061F8082802D018
:102E40004FF4445010BD0021334802E0491C0829CA
:102E500003D230F81120002AF8D1082903D020F835
:102E60001140002010BD042010BD10B5402801D233
:102E7000072010BD00F043F8082805D0264A00219D
:102E800022F81010084610BD052010BDFEB51546ED
:102E90000C00064605D025B16188402903D20720E1
:102EA000FEBD1020FEBD208808B1172801D90C20D6
:102EB000FEBD084600F023F8082818D00020009036
:102EC00001900246218802AB3046FFF729FC00281A
:102ED000EED122882946029817F018FD029800903A
:102EE0002388628807213046FFF7E6FDFEBD0520F6
:102EF000FEBD072A01D048897047088970470146FE
:102F00000020054A02E0401C082803D232F81030A5
:102F10008B42F8D170470000500700200DF03BBDF8
:102F20000449002008604FF0E0210220C1F880022F
:102F300070470000FC1F00400E4A12680C498A428C
:102F40000AD118470B4A1268094B9A4204D101B5BD
:102F50000EF032FB03BC8E46074909680958084742
:102F600006480749054A064B70470000000000006C
:102F7000BEBAFECA8C00002004000020E010002031
:102F8000E010002070B50C46054606F0E9FD21462C
:102F90002846BDE8704007F0C3BD10B50EF08CFEAA
:102FA0000EF095F9FFF70CFB16F000FB0EF084FD18
:102FB000BDE810400EF010BE08B5DDF808C0009363
:102FC000634609F09BFF08BD134610B50A46194633
:102FD00009F08EFF80B210BD09F0BEBF0AF02AB919
:102FE0000AF03AB909F0BABF0AF022B800220AF092
:102FF000DDB80AF05EB80AF097B80AF03FB970473A
:1030000010FFFFFFDBE5B15100B001007900FFFFC9
:1030100030B5FB4D044610280BD0112C07D02846A4
:10302000122C817808D0132C0BD017F03CFDAC701B
:1030300030BD17F038FDFAE71129F8D017F033FD4D
:10304000F5E71129F3D017F02EFDF0E7EC4810B5A5
:10305000C17894B0A9B117218DF800104168CDF85E
:1030600002100089ADF8060009A9684608F0AAF91F
:103070000446112802D00CB117F015FD14B02046FB
:1030800010BD3221E8E702210AF051BC2DE9F041E0
:1030900094B01D4690460E460746FFF7F4FF040025
:1030A0000BD02078222804D3A07FC0F34010A84280
:1030B00006D1082014B0BDE8F08143F20200F9E720
:1030C00037208DF80000ADF802703DB101208DF879
:1030D00004008DF805608DF8068002E000208DF870
:1030E000040009A9684608F06DF9A07F65F3451052
:1030F000A0770020DEE730B50446A1F120000D46A0
:103100000A2854D2DFE800F005080E1F272D3B41A6
:10311000474D17F0C8FC4CE02078202849D117F023
:10312000C2FC46E0B6480178032942D080781328D3
:103130003FD0207824283CD025283AD0232838D0E6
:1031400017F0B1FC35E02078222832D0232830D87F
:1031500017F0A9FC2DE0207822282AD017F0A3FC34
:1031600027E02078222824D0242822D0262820D006
:1031700027281ED029281CD017F095FC19E02078AC
:10318000252816D017F08FFC13E02078252810D0C2
:1031900017F089FC0DE0207825280AD017F083FC71
:1031A00007E02078282804D017F07DFC01E017F014
:1031B0007AFC257030BD30B50B8840F67B444FF665
:1031C000FF72022801D0934204D09D1FA54224D251
:1031D000022802D04D88954203D04D88AD1FA542EC
:1031E0001BD24C88A34218D88B88B3F5FA7F14D22F
:1031F000022802D0C888904205D0C88840F677459A
:103200000A38A84209D2C888904208D0944206D011
:103210005B1C6343B3EB800F01DB072030BD002054
:1032200030BDF0B5774988423DD3784A764D126873
:10323000A84201D3904236D3047934B1082C02D885
:10324000067B082E05D90720F0BD037B002BFAD0A2
:10325000F6E734B103688B4225D3AB4201D39342E6
:1032600021D336B183688B421DD3AB4201D3934245
:1032700019D300230AE0076857F823708F4212D34E
:10328000AF4201D397420ED35B1CDBB29C42F2D813
:1032900000230CE0846854F823408C4203D3AC42F2
:1032A00003D3944201D21020F0BD5B1CDBB29E42DE
:1032B000F0D80020F0BD10B5028943F6FD73111F50
:1032C000994212D2418904290FD3B1F5804F0CD80D
:1032D00091420AD80178890705D5406818B1FFF7EF
:1032E000A0FF002800D1002010BD072010BDF0B5C0
:1032F0000024059D10B1A94203D851E009B900206E
:10330000F0BD0920F0BD055D8DB107197E78112E45
:103310003FD00FDC0A2E3CD2DFE806F03B16242417
:103320002A2A2C2C3333025D72BB641CE4B28C421B
:10333000F9D3E4E71C2E2CDAA6F11206042E28D2CB
:10334000DFE806F027271018022DDAD1BD781D70AE
:10335000072D01D26D0701D40A20F0BD157845F084
:10336000010515E0EE43F60707E0012D07D010E058
:103370000620F0BD2E07A6F18056002EF5D060463F
:10338000F0BD1578AE0701D50B20F0BD45F0020564
:103390001570055D641C2C44E4B28C4202D9B0E780
:1033A0004FF4485C8C42AED3A9E710B504784CB119
:1033B000012243F20223012C07D0022C0CD0032C53
:1033C00014D10FE000220A7012E00A7082790324FF
:1033D000B4EB921F0AD10BE00A708479B2EB941F10
:1033E00004D105E00A708279920901D0184610BD17
:1033F00050F8012F41F8012F80888880002010BDEF
:10340000A801002000B00100000000201C000020E6
:1034100008B538B1FEA06B4600680090487903EB10
:10342000901000781070086842F8010F888890802A
:1034300008BD30B50C46097895B0222902D2082083
:1034400015B030BD28218DF80010ADF80200132A08
:1034500003D03B2A01D00720F2E78DF8042009A908
:10346000684607F0AFFF050003D121212046FFF792
:1034700042FE2846E4E700B595B023218DF8001000
:10348000ADF802001088ADF804005088ADF80600D1
:10349000D088ADF80A009088ADF808000020ADF89B
:1034A0000C00ADF80E0009A9684607F08BFF15B0B7
:1034B00000BD70B50E46050003D0002109200EF0B6
:1034C000A6FAD44C0120022EE0701DD0032E01D0AC
:1034D00017F0E9FA0621201D0DF092FF607A20F026
:1034E000C0006072FFF7B2FD608A00280BD0002D8B
:1034F00009D083000122002109200EF0EAF90928F1
:1035000001D017F0D0FA70BD0321E01D0DF078FF57
:10351000607A20F0C00040F040006072E01C02F0D1
:103520004FF9DFE72DE9FF410220BA4E8DF8040084
:103530000027F08AADF80600B84652E001A80AF06C
:1035400054F9050006D0F08A90B3A6F81680ADF8BD
:10355000068044E0039C2078212840D0A07F01070A
:1035600027D504F122000090628EBDF808002146A4
:1035700004F1340301F074FB050004D0112827D0B6
:1035800017F091FA24E0A07F20F00800A077E07FF8
:10359000410861F3000094F8201061F3C700E07760
:1035A0002078282825D129212046FFF7A4FD20E0F6
:1035B0001DE0400713D5BDF80800214604F10E02B6
:1035C000FFF759FF050005D0112801D017F06BFA5D
:1035D00000250EE0A07F20F00400A07709E07F1C0A
:1035E000FFB202200AF04CF9401CB842A6D8052DC3
:1035F00007D0BDF80600F082052D04D0284604B09F
:1036000059E5A6F816800020F9E72DE9F0470400F7
:1036100001D117F048FA20787E4E20F00F00801C70
:1036200020F0F0007030207060680178091F1129C7
:103630000CD2DFE801F0F2090B54F10B0DF1F13976
:103640000B0B0B0BF27BF20017F02DFABDE8F087A5
:1036500087883846FFF717FD050001D117F023FAD8
:103660006078212140F008006070307D40F0040057
:1036700030752846FFF73FFD3846FFF7CCF938464E
:10368000FEF7ECFC384603F0F6F9394602200EF05E
:10369000BEF9A87F20F01000A877FFF743FF0028AD
:1036A000D4D017F000FAD1E785882846FFF7EBFC65
:1036B00008B917F0F8F960688078012801D017F090
:1036C000F2F9606881792846FFF7CBFA0028BDD06F
:1036D000617841F0080161706168C880B6E786884A
:1036E0003046FFF7D0FC050001D117F0DCF9607817
:1036F000314640F0080060706068C08828816068CA
:103700000089688160684089A88102200EF07FF9F5
:103710000020A875A87F00F00300022896D1FFF7CB
:1037200001FF002892D017F0BEF98FE780783C287F
:1037300003D0002502280BD000E00125002728B186
:103740003C2803D0022801D017F0ADF917B184E06E
:103750000127F4E7607840F008006070307D40F0A9
:1037600008003075F5BB60680221878838460AF08A
:10377000D5F80546032138460AF0D0F882460521DF
:1037800038460AF0CBF88146042138460AF0C6F8DC
:1037900080460DB917F087F9BAF1000F01D117F083
:1037A00082F9B9F1000F01D117F07DF9B8F1000FDE
:1037B00001D117F078F922212846FFF79CFC6068B8
:1037C0008079012838D04FF00208A87F68F3010003
:1037D000A8776068C08A28816068008B688160680B
:1037E000408B00E02BE0A8816068C079E8756068D4
:1037F0008168A9618089A8836068807B687060683F
:1038000050F80F1FC5F802108088E880A87F05E0F7
:103810000302FF01A80100202DE031E000F00301C8
:103820003846FFF7DEF8B8F1010F08D0B8F1020F03
:1038300013D017F038F909E74FF00108C5E73078E1
:10384000032801D017F02FF9002108460EF0DFF809
:10385000BDE8F047012000F0E7BFB078132801D0A1
:1038600017F021F9002107200EF0D1F8BDE8F0474C
:103870001120FFF7CDBB2046BDE8F04701F05BBC4F
:10388000607840F008006070E0E62DE9F0470546FA
:10389000007800270009DFF8ACA691460C463E46AA
:1038A00001287DD000234FF6FF71022879D0072828
:1038B0000BD00A2876D017F0F6F800BFA9F8006000
:1038C0000CB1278066800020C0E6686802780D2A67
:1038D0003BD006DC042A66D0072A40D00A2A7DD1D4
:1038E00006E0122A42D0132A4AD0142AF7D1BDE0AA
:1038F00011270726002C72D0B0F80480A4F80480A9
:1039000068688079A0719AF81410404621F004018B
:103910008AF8141004210AF014F8052140460AF030
:1039200010F8002140460AF00CF8012140460AF048
:1039300008F8032140460AF004F8022140460AF044
:1039400000F8404607F07CFEB8E701270926002C66
:10395000D1D08088A080686880792072AEE7122775
:103960000E268088214600F08CFFA7E71A2707263D
:10397000002CC0D04088A08068680079A0719DE7C5
:1039800081783C293AD010271E26002CB3D080889D
:10399000A0806868C08A20836868C08AE08203E0EB
:1039A0007BE0A5E073E033E06868A21D008B6083D4
:1039B0006868408BA0836868417F607D61F3000088
:1039C00060756968497F490861F3470060756968F7
:1039D000C8790831FFF71CFD696801E056E086E010
:1039E000887B04F10D020F31FFF712FD68688079C2
:1039F00010B10120207506E00220FBE719270726F9
:103A0000002C74D0A3719AF8141021F008018FE0F3
:103A10001B272E26002C6AD0A1806968A21D481D94
:103A20000B7901461846FFF7F3FC686890F82B0005
:103A300060736868C0780428A07B14D020F001006F
:103A4000A07369681F22C97861F34200A073696896
:103A5000C97A61F3C700A073696804F10F000C31E3
:103A600016F054FF2AE740F00100E9E71E270E2672
:103A7000ECB3A1806868E21D407AA0716968C81C37
:103A80008B7801461846FFF7C3FC17E74A462146E4
:103A90002846BDE8F04701F0CDBC287E012804D0BF
:103AA000022814D016F0FFFF08E71D270E26F4B1F8
:103AB0006888A080A88BE080E88B2081288C6081BA
:103AC000688CA0819AF8141021F0200130E01227B0
:103AD0000E26688800F0D5FE4CB1687800F007002B
:103AE0000328BFD19AF8141021F0020120E027E04A
:103AF000287E062821D2DFE800F0040E0E0303031F
:103B0000C4E719270726DCB1A180A3719AF8141025
:103B100021F001010CE0192707268CB1A180287E35
:103B2000012808D00320A0719AF8141021F0100188
:103B30008AF81410C2E60220F5E716F0B4FFBDE6DD
:103B4000A9F80060BFE610B5FE4894B0807813284D
:103B500002D0082014B052E422208DF8000009A9F8
:103B6000684607F02FFC0446002107200DF04FFFA8
:103B70002046EFE700B5F34895B08078122801D0D1
:103B8000082094E41E208DF8000000208DF802002B
:103B90008DF8030009A9684607F014FC0028F0D14D
:103BA000002107200DF033FF1120FFF731FA00202C
:103BB0007DE400B5E34895B00078022801D00328E1
:103BC00018D11B208DF82C0000208DF82E0069469E
:103BD0000BA807F0F7FB002804D19DF801001B2873
:103BE00001D0032063E4002108460DF010FF9DF88A
:103BF000020008B108205AE4012000F015FE002060
:103C000055E42DE9F0410027CE4C0A287FD2DFE8A9
:103C100000F0057E1C7E7E7E7E453C6CFFF7C9FF72
:103C2000002832D104F08EFA00282ED0017821F03D
:103C30000F01891C21F0F00120310170077604F09A
:103C40005FFA207D40F001001EE08EB23046FFF7A3
:103C50001AFA050001D116F026FF2878212814D081
:103C600004F070FA98B1017821F00F01891C21F05D
:103C7000F00110310170022101764680AF7504F029
:103C80003FFA207D40F002002075BDE8F081294612
:103C90003046BDE8F0411322FFF7CBBBA578122DCB
:103CA00004D0132D05D016F0FEFEEEE7FFF762FFFD
:103CB00001E0FFF748FF0028E7D104F043FA0028AD
:103CC000E3D0017821F00F01891C21F0F0012031AF
:103CD0000170122D07D00221017604F011FA207D27
:103CE00040F01000D0E70121F6E7607A0121B1EB46
:103CF000901F02D1022105E009E0800901D016F0F1
:103D0000D2FE0321BDE8F0410020FFF7D2BB16F040
:103D1000CAFEBAE72DE9F04114460D00074601D16D
:103D200016F0C1FE2878012804D0022823D016F00E
:103D3000BAFEAAE73846FFF7A6F9060001D116F049
:103D4000B2FE0220B075207820F00F00801C20F019
:103D5000F000103004F8010B207840F0080004F85F
:103D6000170B95E8070084E807007648017D41F0CD
:103D70002001017589E73846FFF785F9060001D172
:103D800016F091FEA9884FF6FF70814209D1EA88AA
:103D9000824206D131463846BDE8F0411322FFF792
:103DA00048BB814201D1E88898B1207820F00F000B
:103DB000801C20F0F000103004F8010B207840F057
:103DC000080004F8170B95E8070084E807000020B6
:103DD00006E078230022394602200DF07AFD01200A
:103DE000B07552E730B50C46574995B08C423DD37B
:103DF0005749564B0A689C4201D3944236D300235C
:103E000001212038062867D2DFE800F00326474B5F
:103E1000515F002108200DF0D3FD10B1112015B025
:103E200030BD24208DF80000D4F80200CDF8020047
:103E3000A0798DF8060009A9684607F0C3FA0500C5
:103E400033D108230022114618460DF042FD082800
:103E50002BD016F028FE28E0606848B1B0F5000FBE
:103E600004D3B0F1805F03D3904201D21020D6E793
:103E70003C208DF800002088ADF802006088ADF885
:103E8000040009A9684607F09DFA05000DD1606895
:103E900058B1BDF82810018007E0206801F0D0FC7F
:103EA00002E0204600F001FD05462846B7E73D2028
:103EB0000CE000BF8DF8021002E000BF8DF8023068
:103EC00009A9684607F07EFAEEE734208DF8000075
:103ED0002078C007F2D0EDE70720A0E730B54FF417
:103EE000000295B00C46914242D3194953019C42BD
:103EF000096801D38C423BD32038052841D2DFE842
:103F000000F0032D2D2F2D002088FFF7BCF820B1E5
:103F10000078222804D2082081E743F202007EE7DD
:103F200025208DF830002088ADF8320001A90CA8BA
:103F300007F048FA0028EFD1DDF80A10C4F80210A3
:103F400008E00000A801002000B0010000000020EF
:103F50001C0000209DF80E10A17160E706205EE7AE
:103F6000206848B1904203D3984203D3884201D2DB
:103F7000102054E701F058FCFD48408AA080002042
:103F80004DE707204BE7FA480A30704710B5182173
:103F9000F74816F032FD012000F046FC1120FFF733
:103FA00037F8F34C0020211D60744FF4617060827B
:103FB000E01C04F08CF9D4F80300C4F80A00B4F84B
:103FC0000700E081607A2074FFF740F808B116F02E
:103FD0006AFDFDF759FBBDE8104001F072B810B55D
:103FE00004463C2116F009FDA07F20F00300A077D5
:103FF000202020700020A07584F8210010BD70479B
:104000002DE9FC410646DB480D46814206D3DA48DD
:10401000854206D3D9480068854202D21020BDE807
:10402000FC81D34C16B1012E38D12CE0D4F803001A
:104030000090B4F80700ADF804008046677A8DF868
:104040000670E11C2846FFF7B0F90028E7D1FEF71B
:10405000FDFF30B10099C4F80310A4F8078067721F
:10406000DDE7287808B1012808D1D4F80300C4F8A6
:104070000A00B4F80700E081607A2074002109206A
:104080000DF0C5FC0FE0097841B1012906D00229E5
:1040900006D0032904D043F20220C0E70720BEE780
:1040A0000120FFF706FA66740020B8E700B5B0F506
:1040B000000F06D3B0F1805F05D3B049096888428C
:1040C00001D2102000BDAA490246CB78091D18462E
:1040D000FFF79EF9002000BD2DE9F0419AB00500E0
:1040E0004FF000008DF85C008DF858008DF8280026
:1040F0008DF86000A148144688469E499E4A006893
:104100001E4605D08D420AD3954201D3854206D37F
:1041100044B18C4203D3944204D3844202D210208F
:104120001AB0B2E555EA040018D01F270AAB17AA47
:10413000414628460097FFF7DAF80028F0D118AB7F
:1041400016AA314620460097FFF7D1F80028E7D19C
:104150009DF85800C00703D00A20E1E70720DFE7F9
:1041600001AF7DB11A208DF804008DF8068042461B
:104170002946F81C16F0CAFB0BA901A807F022F982
:104180000028CDD17CB120208DF804008DF8066088
:1041900032462146F81C16F0B9FB0BA901A807F01E
:1041A00011F90028BCD172499DF828004870002000
:1041B000B6E770B506460A200C460870154611464B
:1041C000204607F0FFF830B93821217020462946F3
:1041D00007F0F8F820B1082801D143F2032070BDA0
:1041E0002A462146304600F08AFB0446082801D1C1
:1041F00016F059FC204670BD2DE9F041044660A13F
:1042000096B0D1E900015B4A00279442CDE9140140
:1042100010D35A48584B01689C4201D38C4209D3B1
:104220002078012809D16068904203D3984204D3D2
:10423000884202D2102016B027E54D4D287801287B
:1042400001D00820F7E7072009F023FB18B92078F0
:1042500030B1012804D0287D10F00C0F07D101E007
:104260000420E8E7C10702D1A846800701D5112044
:10427000E1E7208A43F6E172A0F120019142217822
:1042800007D3012944D1002842D1618A00293FD1B6
:104290000FE0022901D0032901D1A02838D3012938
:1042A00007D098F80110C90703D0618A81B3B429F7
:1042B0002ED8217831B1012908D0022904D0032950
:1042C00026D115E0002516E0022514E008B9608A21
:1042D00060B104256068007868B101280AD002281E
:1042E00008D0032806D043F20220A4E70125F1E715
:1042F000032500E00127207A30B1012806D00228EA
:1043000007D0032870D106E0002605E0012603E06F
:104310006AE0022600E003260DB1022D13D196B10A
:10432000E06818B1FEF77DFF002884D198F80100FD
:10433000800702D043F201207DE7022D03D1022E37
:1043400052D0032E50D018208DF82C00208AADF8C2
:104350002E00208AADF830008DF8325098F8031006
:1043600000204FF0010879B101296ED10FE0000063
:10437000A801002000B00100000000201C00002067
:1043800007060504030201008DF8330001E08DF8F3
:1043900033808DF83470217801291ED0CDF8350096
:1043A000ADF839008DF83C60207DC0F34002014635
:1043B00062F35F01C0F3800041EA800014A9085C49
:1043C0008DF83B0080B169460BA806F0FBFF002882
:1043D0008BD15DB1022D09D011E0606850F8011F4A
:1043E000CDF835108088DBE7072024E73EB1E06890
:1043F00028B16A460BA9FFF7DCFE00289CD11B20E0
:104400008DF82C008DF82E8069460BA806F0DAFF97
:10441000002891D19DF801001B2816D1052D09D245
:10442000DFE805F0030305050300032000E0022098
:1044300000F0FAF9012D0AD0608A40B10022830011
:10444000114610460DF045FA08B10320F3E60020AE
:10445000F1E62DE9FC410C0007464FF0030609D0B8
:10446000F84884426BD3F848844203D3F748006885
:10447000844264D33846FEF706FE050004D028784F
:10448000222804D20820CAE543F20200C7E5A87F2B
:1044900000F0030C2CB121466046FEF78CFE0600AE
:1044A000F1D1EB48BCF1010F06D0BCF1020F18D0DE
:1044B00016F0F9FA3046B2E5AA7D2146012A02D06B
:1044C000007D800701D51120A9E529B96846FDF7CF
:1044D000A0F90028D7D169463846FEF742FB0646C8
:1044E000E8E7A97D022914D1007D800611D424B10A
:1044F000A87F40070BD4002100E001213846FEF7D9
:1045000078FB0600D6D1A875002CD3D002E0112686
:10451000D0E7A4B1224629463846FEF7ACFF06464E
:104520001128C7D1A87F4107C4D4216845F80E1FC0
:104530006168696040F0040028740026BAE7102022
:104540006DE570B50C460546FEF79DFD010005D0F2
:1045500022462846BDE87040FEF76BBF43F20200DA
:1045600070BD00B595B031218DF800108DF80200B6
:1045700009A9684606F026FF15B000BD0123FEF725
:1045800085BD00231A461946FEF780BD70B5044666
:10459000AC4894B0844206D3AB48844206D3AB48BF
:1045A0000068844202D2102014B070BD2046FEF78D
:1045B00082FE0028F8D1A6488178112901D0082070
:1045C000F2E7017DC90601D51120EDE71D218DF827
:1045D00000102178002501F001018DF802102189D9
:1045E000ADF804106189ADF8061021780126C1F3F9
:1045F00040018DF80910C07818B1012804D00320BB
:10460000D2E78DF8085001E08DF8086009A96846E6
:1046100006F0D8FE0028C7D12078800707D560684B
:1046200028B109AA6946FFF7C4FD0028BCD11E20A5
:104630008DF800008DF802608DF8035009A96846D6
:1046400006F0C0FE0028AFD1A08900F00CF90400EC
:10465000AAD11220FEF7DCFC2046A5E7F0B5050044
:104660007A4816460C467749774A006895B005D0D7
:104670008D420FD3954201D385420BD38C4209D38F
:10468000944201D3844205D38E4203D3964204D38D
:10469000864202D2102015B0F0BD6D4F387D10F06B
:1046A000180F01D1400701D51120F4E72046FEF78D
:1046B00002FE0028EFD12078C0F34001294302D048
:1046C000800702D50DB10720E5E731460220FEF74D
:1046D00072FD0028DFD1B878112803D0122801D04C
:1046E0000820D8E7062009F0D4F818B1B8781228C5
:1046F00002D005E00420CEE7FFF73CFA0028CAD13B
:104700002078800707D5606828B109AA6946FFF7B5
:1047100050FD0028BFD121208DF800002089ADF880
:1047200002006089ADF8040020784FF00101C0F369
:1047300040008DF80600207882074FF0000015D465
:104740002A7842B1012A09D0022A07D0032A05D0CB
:1047500043F202209FE78DF8070001E08DF8071073
:1047600055F8012F0292AA88ADF80C20FA781AB1F8
:10477000012A04D003208EE78DF80E0001E08DF8A9
:104780000E103188ADF810107188ADF81210B18894
:10479000ADF81410F188ADF81800ADF81610ADF8AA
:1047A0001A0009A9684606F00DFE00288CD1A089E0
:1047B00000F059F8040087D11320FEF729FC2046A9
:1047C00069E730B595B00C460546B1F5000F06D344
:1047D000B4F1805F06D31D480068844202D21020E5
:1047E00015B030BD2846FEF74EFC38B101782229BD
:1047F00002D3807F800604D40820F1E743F2020050
:10480000EEE713208DF80000ADF8025009A96846C4
:1048100006F0D8FD0028E3D19DF92A107F2901D0A8
:104820002170DDE70520DBE730B5094D040011D02C
:10483000012C05D0022C10D0032C0ED016F033F929
:104840002C7030BD00B00100000000201C000020D2
:10485000A801002016F027F9F2E728780128EFD008
:1048600016F021F9ECE710B548B18300002211469B
:1048700007200DF02EF8072801D0032010BD0020DE
:1048800010BD70B50C0006460ED0FEF7FCFB05000F
:1048900001D116F008F9A6802889E08028892081B6
:1048A00068896081A889A08170BD10B50446006840
:1048B00058B13749884206D33649884205D336492C
:1048C0000968884201D2102010BD00F0A0FFA08826
:1048D000324C6082607C01280FD1002109200DF04C
:1048E0006FF800B10120617A0122B2EB911F01D172
:1048F000022100E00321FEF7DCFD002010BD2DE9C0
:10490000F047002592460C460646A8464FF001099E
:104910000B2721E0306850F82500007820B10128ED
:1049200005D00720BDE8F08784F8028001E084F814
:104930000290306850F8250050F8011FC4F80310A9
:104940008088A4F8070027705146204606F03AFDFB
:104950000028E7D16D1CEDB23079A842DAD80025E5
:1049600039270FE0B068102250F82510A01C15F070
:10497000CDFF27705146204606F024FD0028D1D1F6
:104980006D1CEDB2307BA842ECD80020CAE70000D5
:1049900000B00100000000201C000020A801002041
:1049A000F749884206D3F749884205D3F649096892
:1049B000884201D2102070470178C1F38201042996
:1049C00007D84178072904D38278102A01D88A426F
:1049D00001D207207047C178490702D40079400707
:1049E00001D5062070470020704710B513785C0889
:1049F000C37F64F30003C37710784309087863F337
:104A00000410087013789B0863F343000870507813
:104A1000087310BD30B500240C70C37803F0010397
:104A20000B70C57805F002052B430B70C57805F0B7
:104A300004052B430B701470017901F00101117012
:104A4000037903F0020319431170007900F00400A8
:104A50000143117030BD70B514460D46064603F093
:104A600071FB80B10178142221F00F01891C21F023
:104A7000F001A03100F8181B214615F08CFFBDE8AD
:104A8000704003F03DBB29463046BDE8704013221C
:104A9000FEF7CFBC70B514460E46054603F052FB38
:104AA00070B1017821F00F01891C21F0F001203153
:104AB0000170458021880183BDE8704003F020BB70
:104AC00031462846BDE870401322FEF7B2BC10B54F
:104AD000AE4C94F8300000280DD104F120014FF6BF
:104AE000FF72A1F110000AF011FD08B115F0DBFF13
:104AF000012084F8300010BD2DE9FF5F0646DDE996
:104B00000E5B1C4617461421284615F098FF00211D
:104B1000DFF87482CBF80010F8074FF400094FF06B
:104B2000805A12D02068484549D3504503D3D8F85D
:104B30000010884243D31230286020681430686027
:104B40002068A8602168CBF80010B8072CD56068F1
:104B500038B1484533D3504503D3D8F800108842C4
:104B60002DD3019979B3FFF70EFA0168C6F85C11ED
:104B70008188A6F86011807986F86201FFF7A7FFA7
:104B8000DFF808B20BF1200BC5F80CB062685AB11F
:104B900096F85C0106F25D111032FEF739FC102226
:104BA0005946606815F0B2FE780715D5A0684845EB
:104BB00005D350450FD3D8F8001088420BD21020EF
:104BC00004B0BDE8F09FFFE70028F8D0E860606817
:104BD000C6F85801E8E728610020F1E730B505463E
:104BE00008780C4620F00F00401C20F0F001103136
:104BF00021700020607095F8210028B103280CD0A6
:104C000004280ED015F04FFF20780121B1EB101FC2
:104C100002D2E87FC008607030BD21F0F000203083
:104C200002E021F0F00030302070EDE710B510B157
:104C300090F8644044B1554890F8344000205CB18D
:104C400008601060186010BD00F164040C6000F191
:104C50009001BC301160F5E74C4C34340C60F0E747
:104C600030B595B00C462C2518998DF80050ADF84C
:104C70000200B3B11868019058680290ADF80C209A
:104C800010220DF10E0015F041FE09A9684606F04C
:104C900099FB002803D1A17F41F01001A17715B045
:104CA00030BD00200190E8E72DE9F04F0646008A6C
:104CB00095B080B20D468346FEF7E5F90446334FC2
:104CC0003078283FDFF8C4904FF000084FF02B0AEF
:104CD0000E2872D2DFE800F071F3070E4675809A55
:104CE000B0F4F1F0EFEE15B0324621465846BDE87B
:104CF000F04FB0E6A07F00F00300012806D00021AD
:104D0000584608F014FE050004D101E00121F7E740
:104D100015F0C9FE99F86010090602D5D9F86400AB
:104D20000EE08DF82CA069460BA806F04BFB08B1ED
:104D300015F0B9FE16490198B0FBF1F201FB120023
:104D4000A8617068A862B068E8622078252801D060
:104D500015F0A9FE324621465846FFF77CFE15B0F5
:104D6000BDE8F08FA07F00F00300012806D00021ED
:104D7000584608F0DCFD06000ED10BE00121F7E7F4
:104D800000B00100000000201C0000205C02002098
:104D900040420F0015F087FE2078252804D0307897
:104DA00040F001003070DAE702202870B068A86097
:104DB000B06818B185F80480D1E77FE1012028713F
:104DC000CDE78DF800A0FE49684606F0FBFA08B171
:104DD00015F069FE032016E02A208DF8000010224D
:104DE0000DF10200716815F091FD10220DF1120015
:104DF000B16815F08BFDF249684606F0E3FA08B198
:104E000015F051FE042028706F60A8E7B06808B95B
:104E100015F049FEE07F400701D515F044FEB0686B
:104E200000903379062204215846FDF745FE0028FC
:104E300095D015F038FE92E70CB915F034FE04F168
:104E4000220010220546716815F060FD28212046D9
:104E5000FEF751F9A07F00F0030002280CD10023D7
:104E60001A46214658460095FFF7FAFE112809D048
:104E700029212046FEF73FF9317AE07F61F3C70030
:104E8000E0776CE7A07F000701D515F00CFEA07F4E
:104E900040F00800A077A4F83280C4F83480C4F849
:104EA0003880E07F014660F34101E177307A84F891
:104EB000200054E7FEE073E069E04EE000E02AE005
:104EC000A07F00F00300012806D00021584608F01A
:104ED0002EFD040004D101E00121F7E715F0E3FD08
:104EE0008DF800A0B649684606F06CFA08B115F0D6
:104EF000DAFDB348808824F8390F1220287004F2B4
:104F00002310686034F809092882AD486C613C3090
:104F1000C5E9029023E70CB915F0C5FD20782128DA
:104F200089D93079012802D002280AD103E0E07F34
:104F300040F00400E07799F8601041F0010189F831
:104F40006010324621465846FFF785FD15B02046D1
:104F5000BDE8F04F2321FEF7CEB8012204215846C8
:104F6000FDF7E8FE00288CD0132028701721297146
:104F7000CDF8008002AB00225846CDF80480FDF742
:104F8000CFFB08B115F08FFD0298A860E7E6042179
:104F90005846FDF717FF00288BD114202870DEE655
:104FA000A07F00F00300012806D00021584608F039
:104FB000BEFC050004D101E00121F7E715F073FD07
:104FC00095F83800410639D5A17FC00701F00301EB
:104FD0000ED0D5F854215AB195F83730107C63F3D0
:104FE00047001074E37FD5F8542163F30000107478
:104FF00095F8380000070ED5D5F850215AB195F82C
:105000003730107C63F347001074E37FD5F85021EC
:1050100063F30000107495F83800820701D5022967
:1050200003D0C0060AD5012908D1D5F8582195F832
:10503000300005F131011032FEF7EAF905208DF854
:10504000000095F838008DF801005D48703802784E
:1050500022F00F02921C22F0F002203202704278FD
:1050600022F00702D21C4270A0F802B0BDF8001076
:10507000018303F0D1F92078252806D0212808D013
:1050800015F011FD2078222803D922212046FEF7B1
:1050900032F8A07F00F00300012809D00021584613
:1050A00008F04FFC00283FF47EAE15F0FCFC56E6FD
:1050B0000121F4E7716881F8008050E615F0F3FCF7
:1050C0004DE670B53E4C00252C3414F8600F20F0EE
:1050D0008000207065600AF0A6F939493C31A1F1E1
:1050E000100003F027F904F8305C70BD70B50D4670
:1050F000FDF7C9FF040001D115F0D5FC4FF4B271E2
:10510000284615F09CFCA07F00F0030001280AD07F
:105110005FF0020105F1E8000AF086F9002801D0ED
:1051200015F0C1FC70BD0121F4E70A46014602F109
:10513000E8000AF090B970B5054640689AB0017869
:1051400008290DD00B2903D00C2938D101218171F8
:10515000686886883046FDF796FF04003BD138E04A
:1051600046883046FDF78FFF040001D115F09BFC07
:105170002078212823D0282826D1686802210C30E5
:1051800000F042FF00B368680821001D00F03CFFFA
:10519000D0B12D208DF80000ADF80260102204F18E
:1051A000220101A815F0B2FB09A9684606F00AF928
:1051B00008B115F078FC29212046FDF79CFF01E09D
:1051C000300200201AB070BD687840F008006870A6
:1051D000F5E715F068FCA07F00F00301022902D179
:1051E00020F01000A077207821280BD06868817902
:1051F00009B1807890B1A07F00F00300022859D057
:1052000015F051FCA07F00F003000228D7D1FEF773
:1052100089F90028D3D015F046FCD0E7687840F033
:1052200008006870E07FC00701D0042000E0032080
:1052300084F821002078292817D02428E2D131468B
:1052400006200CF0E4FB22212046FDF754FFA07F4E
:1052500000F0030001282BD00021304608F071FB3C
:105260000028CFD015F01FFCCCE7A07F00F0030092
:10527000012806D00021304608F059FB050004D172
:1052800001E00121F7E715F00EFC25212046FDF78E
:1052900032FF11208DF8500014A905F1E8000AF042
:1052A000D1F80228AED00028ACD015F0FCFBA9E75D
:1052B0000121D2E7687840F008006870A2E72DE984
:1052C000F0418CB0164688460746FDF7DCFE040028
:1052D0004FD0207822284CD323284AD0E07F4007A3
:1052E00047D4A07F00F00300012806D000213846F3
:1052F00008F01DFB050002D00BE00121F7E7A07FBD
:1053000000F00300012804D10121384608F006FB13
:10531000054601AB02AA03A92846FFF787FC0398BC
:1053200008B915F0C0FB45B10398E8354561207810
:10533000222806D0242804D007E0039900204861E1
:1053400003E025212046FDF7D6FE03980D210170CC
:1053500047620671C0F808800299C1600199016135
:1053600004A90AF08FF8022803D0002801D015F014
:105370009AFB0CB0BDE8F08130B589B00546FDF769
:1053800082FE017822292DD9807F00F003000128B8
:1053900006D00021284608F0CAFA040004D101E032
:1053A0000121F7E715F07FFB13208DF80C0000209A
:1053B00017210090024601908DF8101002AB28468C
:1053C000FDF7AEF908B115F06EFB0298059003A940
:1053D00004F1E8000AF036F8022803D0002801D0D2
:1053E00015F061FB09B030BD10B586B00446FDF77D
:1053F0004AFE017822291BD9807F00F00300012892
:1054000006D00021204608F092FA040004D101E001
:105410000121F7E715F047FB14208DF800006946DD
:1054200004F1E8000AF00EF8002801D015F03BFB6B
:1054300006B010BD2DE9F0470546002700789046DC
:1054400000090C463E46BA46022875D0072802D00D
:105450000A280AD142E068680178082906D00B2999
:105460002BD00C2929D015F01EFB2AE114271A266F
:10547000002C79D04088A080FDF705FE5FEA000986
:1054800001D115F010FB99F81700A21D09F11801C0
:10549000FDF7BEFF68688089E08168684168216126
:1054A00080686061207E20F0060040F001002076D8
:1054B00099F81E0040F040013BE018270826002C18
:1054C000D7D08088A080FDF7DEFD050001D115F062
:1054D000EAFAA11D2846FFF781FBF2E00CB1288D06
:1054E000A080287E01287CD0022804D0032827D061
:1054F00015F0D9FAE5E01C270726002C34D0A08847
:10550000FDF7C1FD5FEA000901D115F0CCFA287F53
:1055100000F003000128A0790FD020F00100A07155
:10552000297F890861F34100A07199F81E0040F0BD
:10553000800189F81E10C4E0B7E040F00100EEE7FA
:1055400013270B26002C0FD0A088FDF79CFD814669
:10555000807F00F00300012807D00021A08808F018
:10556000E6F9050005D102E08EE00121F6E715F02D
:105570009AFA99F81E0000F00300012838D0E96A71
:10558000887800F003000128A07933D020F00100D2
:10559000A0718A78920862F34100A0710A7862F3E0
:1055A0008400A0714A7862F34510A07184F807A0C6
:1055B000C87820724A79607A530862F3000063F376
:1055C00041009208097962F382006072A07A4A0869
:1055D00061F3000062F34100890861F38200A07268
:1055E00000E00AE099F8000023286AD92621B1E0FA
:1055F000A96AC5E740F00100CAE7297F0122F948FE
:1056000002290DD017270C26F4B301290DD0032948
:1056100018D0042919D0052917D015F044FA20E034
:10562000192707268CB3A27104E0A271E17921F059
:105630000301E17110F8601F4A08520062F306018D
:1056400001700EE00220A07107E0687F052900F0DC
:105650000F0040F08000A0711DD0E07920F0030021
:10566000E071A088FDF70FFD05460078212828D0BD
:10567000232801D015F017FAA87F00F003000128B5
:1056800011D00021A08801E00AE01AE008F059F9E1
:10569000222128465FE0E07920F00300401CDFE78C
:1056A000A8F8006012E00121ECE70CB16888A08046
:1056B000287E03282AD004280BD005284ED015F0C8
:1056C000F2F9A8F800600CB1278066800020BDE8E0
:1056D000F08715270C26002CE2D0A088FDF7D3FC1C
:1056E000807F00F00300012806D00021A08808F088
:1056F0001EF9050004D101E00121F7E715F0D3F907
:105700000622A11DA86905F09CFEDAE716270726E8
:10571000002CC5D0A088FDF7B6FC8146807F00F044
:105720000300012806D00021A08808F000F9050038
:1057300004D101E00121F7E715F0B5F92878C0069A
:1057400001D5022000E00120A07199F80000232873
:10575000B7D927214846FDF7CEFCB2E717270C261C
:10576000002C9DD0A088FDF78EFC6D7E5FEA0009BD
:1057700001D115F098F9C4F806A0A4F80AA084F89D
:1057800006A0207A40F00300207299F81F1061F300
:1057900082002072680694D5E079EA0840F004009F
:1057A000E071E17AA07A62F3000165F300006A0813
:1057B00062F34100A072280960F34101E17280E7C1
:1057C00030B504468079012591B0B5EB901F01D02A
:1057D00015F069F9FFF77BF94FF6FF7009908148E2
:1057E0008DF8005020300190201D0290601C0C901C
:1057F0000BA9684609F046FE08B115F054F90C985B
:105800000188A4F801108078E07011B030BD10B5A7
:10581000744C30B10146102204F1200015F076F8E6
:10582000012084F8300010BD10B50446FFF74FF991
:105830006C4920461022BDE81040203115F066B8B2
:1058400070B5684C0025D0B16749884206D36749D6
:10585000884205D366490968884201D210250CE0C8
:10586000062105F0D5FD411C06D0606614F8600FD6
:1058700040F08000207000E00725284670BD14F835
:10588000600F20F08000F5E72DE9F0418EB00C00AC
:1058900080464FF0000709D0534884421BD3534839
:1058A000844203D352480068844214D34046FDF733
:1058B000EAFB050003D02878222814D103E043F244
:1058C00002000EB056E544B9A87F010603D500F0EA
:1058D0000300022801D01020F3E7A87FC10601D4FD
:1058E000010702D50CB10820EBE73E4991F86010A2
:1058F000C90701D01120E4E7E97F490701D50D2050
:10590000DFE700F00300022805D124B12046FFF7AD
:1059100047F80700D5D1A87F00F00300012806D082
:105920000021404608F003F8060002D00CE00121F7
:10593000F7E7A87F00F0030001280BD000214046C4
:1059400007F0ECFF060007D0A87F00F00300022854
:1059500004D009E00121F2E70420B2E724B1224695
:1059600031462846FFF741F80DAB1A4603A93046E9
:10597000FFF75CF9039808B915F095F803980E2124
:10598000017006F1E801C0F824808160A97F01F070
:10599000030101292FD06CB302210171311DC160B7
:1059A0003178C1F3420101743178C1F300114174BF
:1059B000217801F00102817C62F301018174EA7FA8
:1059C00062F382018174A178C17405AA04A92046FA
:1059D000FFF720F803989DF8141001759DF810103A
:1059E00041751FE05C02002000B0010000000020B3
:1059F0001C00002012E001210171217801F0010258
:105A0000017B62F3010101732278520862F3820183
:105A1000017324212846FDF76EFB0BE00321017181
:105A20000521017325212846FDF765FBA87F20F09D
:105A30008000A87707A9039809F024FD022802D066
:105A400008B115F030F838463BE72DE9FF4F934693
:105A5000F84A89468FB09A4607CA0BAB4FF0000848
:105A600083E80700CDF80080CDF804800F98FDF79B
:105A70000AFB050006D02878262806D0082013B097
:105A8000BDE8F08F43F20200F9E7A87F00F00307BA
:105A9000012F02D0022F09D00BE0B9F1000F08D17D
:105AA0005846FEF77DFF0028E9D102E0BBF1000F68
:105AB00016D14846B9F1850F1CD008DC90B1812879
:105AC00012D0822812D0B9F1830F09D110E08628B4
:105AD00012D0882812D0892812D0B9F18A0F11D09B
:105AE0000720CCE700260EE001260CE002260AE0A3
:105AF000032608E0052606E0062604E0082602E064
:105B0000092600E00A26A87F00F00300012806D03D
:105B100000210F9807F00BFF040004D101E00121E0
:105B2000F7E714F0C0FF012F0FD1B9F1000F0CD12E
:105B30005A4621462846FEF758FF9BF8020001907E
:105B40009BF8000000F0010000900020207101216E
:105B50008DF81410211D06910EB12671FAE0012F67
:105B60000CD0D4E90A610223894601220020A060FA
:105B700005F11700022A1AD0012119E0D4E90A968A
:105B800001230222032131702178C1F300117170C9
:105B9000B178DDF804C086F803C0DDF800C021F05C
:105BA00004016CF30101B17070713071DEE7002106
:105BB00004EB81010861681C022B01D0012100E087
:105BC000002104EB81010861B07800F00300012896
:105BD0005DD199F8020000F00300012857D199F82F
:105BE0000400019099F805000090012F1ED0307933
:105BF0008DF8080070798DF80C0000BF9DF8082022
:105C00000198009902409DF80C0000EA010B52EA4D
:105C10000B003CD088498A4506D388498A4515D36C
:105C2000874909688A4511D2102028E702AA03A9EA
:105C30005846FEF7EFFE9DF80800019908403071C4
:105C40009DF80C00009908407071D7E704F5A87121
:105C500004F13C00022FCDE9000135D05FF00001D6
:105C60000AF10C032046FEF747FF0028DDD104F5BA
:105C7000AA7104F15000012FCDE9000126D00021C6
:105C800053465A462046FEF737FF0028CDD199F8F3
:105C90000200400702D4E87FC0072FD00BA8012FD5
:105CA00016D099F8001030F811002178C1F34201A4
:105CB0004900C84010F0030080462AD0012816D0C1
:105CC000B8F1020F0FD114E00121C9E70121D7E794
:105CD0002178C1F3420130F8110099F80010490011
:105CE000C84000F00308B8F1030F05D006E0022019
:105CF00000E0012080460CE04FF00208012F08D19F
:105D0000E87FB17860F38201B1702078C0F342007F
:105D100030702078EF2220F00100207099F80110F7
:105D200001F0010142EA011108402070C00621D4AF
:105D3000B8F1020F1ED0B8F1010F1DD00020A061F4
:105D4000E0612062606204F11800A060E87F20F04A
:105D50000100E87705A904F1E80009F073FB18B128
:105D6000022801D014F09FFE25212846FDF7C3F933
:105D7000002084E6032008E00D2104F11B0014F04C
:105D80003CFE04F11800A06004208DF81000E87FAC
:105D900004AA40F00100E87729460F98FEF77AFE42
:105DA000D8E7F0B587B015460F0004460CD022485E
:105DB000854206D32148854206D3214800688542A2
:105DC00002D2102007B0F0BD2046FDF75CF90600B6
:105DD00004D03078272804D00820F3E743F20200EB
:105DE000F0E7B07F00F00300012806D00021204634
:105DF00007F09DFD040004D101E00121F7E714F054
:105E000052FE00202FB1022F08D0012F1AD00720F8
:105E1000D8E701218DF80410A06021E004F11803F7
:105E2000A3608DF8040010222946184614F06EFD78
:105E300016E0000084AC010000B00100000000206A
:105E40001C00002004F11801A1608DF80400A0617D
:105E5000E061206260620621284605F0D9FAA0615F
:105E60002078C10711D020F00100207002208DF8A9
:105E7000000004F1180002906946D03009F0E2FAFF
:105E8000022802D008B114F00EFE25213046FDF79D
:105E900032F9002096E7F8B515460E460746FDF79D
:105EA000F2F8040004D02078222804D00820F8BD9D
:105EB00043F20200F8BDA07F00F00300022802D0E8
:105EC00043F20500F8BD56498E420DD3554A564857
:105ED000964202D303689E4206D38D4204D3954274
:105EE00004D30068854201D21020F8BD00953288A5
:105EF000B31C21463846FEF7B3FE112810D0002807
:105F0000F3D12A7CE17F62F30001E1772A7C520819
:105F100062F3C701E177A17F21F08001A177F8BD8D
:105F2000A17F0907FBD4D6F802006063D6F806000B
:105F3000A063308860861022294604F1220014F004
:105F4000E5FC287CE17F60F34101E177287C400893
:105F500084F82000A07F40F00800A0770020DAE756
:105F600070B594B00D46064613B1072014B070BD4D
:105F7000FDF789F8040007D02078222802D3A07FFB
:105F8000400604D40820F1E743F20200EEE7A5B191
:105F90002D208DF80000ADF802601022294601A8DE
:105FA00014F0B4FC297CE07F61F30000E077297CE9
:105FB000490861F3C700E07704E02E208DF8000067
:105FC000ADF8026009A9684605F0FCF9A17F21F04F
:105FD0004001A177CAE710B50C46FDF754F858B157
:105FE000B4F5000F06D3B4F1805F08D30E490968F9
:105FF0008C4204D2102010BD43F2020010BD214695
:10600000FEF7ECFD002010BD05E000BF10F8012BED
:106010000AB100207047491E89B2F7D201207047AB
:1060200000B00100000000201C00002018B18178A1
:1060300001293CD101E010207047018842F602138B
:10604000C81A4FF48072994233D01CDC42F6010327
:10605000A1EB030099422CD00CDCF9B1B1F5C05F83
