:0200000270008C
:10800000807F0020E1C407001DC507001FC50700D1
:1080100021C5070023C5070025C507000000000093
:10802000000000000000000000000000E1870700E1
:1080300029C50700000000002BC507002DC507005B
:108040002FC507002FC507002FC507002FC5070044
:108050002FC507002FC507002FC507002FC5070034
:108060002FC507002FC507002FC507002FC5070024
:108070002FC507002FC507002FC507002FC5070014
:108080002FC50700318B07002FC507002FC507003C
:10809000F58B07002FC5070021C407002FC5070077
:1080A0002FC507002FC507002FC507002FC50700E4
:1080B0002FC507002FC507000000000000000000CA
:1080C0002FC507002FC507002FC507002FC50700C4
:1080D0002FC507002FC507002FC5070000000000AF
:1080E0000000000000000000000000000000000090
:1080F0000000000000000000000000000000000080
:10810000000000000000000000000000000000006F
:10811000000000000000000000000000000000005F
:1084000010B5054C237833B9044B13B10448AFF3CE
:1084100000800123237010BD782C00200000000094
:10842000C8C50700084B10B51BB108490848AFF391
:1084300000800848036803B910BD074B002BFBD030
:10844000BDE81040184700BF000000007C2C002051
:10845000C8C50700742C002000000000154B002B3D
:1084600008BF134B9D46A3F5803A00218B460F466B
:108470001348144A121A00F065F80F4B002B00D075
:1084800098470E4B002B00D0984700200021040095
:108490000D000D48002802D00C48AFF3008000F01A
:1084A0002BF82000290000F0B9F800F011F800BF07
:1084B00000000800807F0020000000000000000095
:1084C000782C00207834002000000000000000001C
:1084D00008B5074B044613B10021AFF30080054BEC
:1084E0001868836A03B19847204600F033F800BF4C
:1084F0000000000080C5070070B50E4B0E4CE41A5A
:10850000A41000251E46A54204D056F825309847F1
:108510000135F8E704F026F8084C094BE41AA410DA
:1085200000251E46A54204D056F82530984701354F
:10853000F8E770BD6C2C00206C2C0020702C002003
:108540006C2C002002440346934202D003F8011B26
:10855000FAE77047FEE700BF13DF704718DF704788
:1085600000B58BB00023022202930393049301927F
:1085700098BB4FF4F020FFF7EFFF58BB1B4A1C4B92
:108580001068009048221B49684603F0F9FEF0B9D4
:10859000012105AA084603F05BFFA8B99DF8203029
:1085A00005A843F001038DF8203003F065FF40B9C2
:1085B000114803F02BFF08B100F04EF90BB05DF845
:1085C00004FB00F049F9F3E700F046F9E6E700F0B4
:1085D00043F9DDE700F040F9D0E701A8FFF7BEFF5F
:1085E0000028C6D000F038F9C3E700BF84C50700F3
:1085F000B1C40700AC2F0020FD85070002F0A2BC2B
:1086000008B5054A1421082000F036F900B908BD64
:10861000BDE8084000F020B95C2E002070B54FF096
:1086200080430320D3F81C45B12C04BF0022C3F8BB
:108630001C25484A12684FF0A0430CBF01260026B3
:108640004FF40021B2F5F02FC3F84C07C3F808151A
:1086500002D0002000F000F94FF080531B69B3F501
:10866000805F02D0002000F0F7F83B4B3B4A052129
:10867000002000F05BFD002869D14FF0A045384B89
:10868000C5F8343700F0D4FF01F032F8002855D097
:108690004FF40023C5F80C3501F040F808B100F0A4
:1086A000DBF8B4F1B10018BF0120FFF759FFFFF765
:1086B000A7FF01F053F808B100F0CEF84FF0A04347
:1086C0004FF40022C3F808254FF0A043D3F810352B
:1086D0009B0406D52EB943F20803186800F0C6FEC5
:1086E00070B94FF0A0434FF40022C3F80C2500F0FE
:1086F000B9FFC0B94FF0A0434FF40022C3F80825DA
:1087000043F20804206800F0B1FE78B9BFF34F8F40
:108710001449154BCA6802F4E0621343CB60BFF3FF
:108720004F8F00BFFDE700F097F8E3E700F0E0FFB0
:108730000028EBD1206800F0B5FFE7E7B4F1B10005
:1087400018BF0120FFF70CFFFFF75AFFBCE700F04E
:1087500083F892E714100010A1930700942C0020D6
:108760000C00030000ED00E00400FA05F8B510B1BC
:1087700001230B60F8BD0C680D46CCB1174EB44216
:108780000DD0331B3B2B15D804F13C0306F13D0201
:10879000013C13F8010902F8010D9C42F9D10022B5
:1087A0003C210E4801F064F80023B0872B60F8BD2F
:1087B0000E23FBE704F1300CB64620686168A2681E
:1087C000E36877460FC710346445BE46F5D120688C
:1087D0006168A268AEE80700E1E700BF807F002083
:1087E0006FF00203064A9E4502D1EFF3098101E0D2
:1087F000EFF308818869A0F102000078104700BFFC
:108800006D87070068B1F8B5124D0446002228466E
:108810003C2101F02DF8AB8F8342064603D00B209C
:10882000F8BD0E207047AE4605F1300C77460FCFED
:10883000674520606160A260E360BE4604F11004F9
:10884000F4D1BEE80700013620606160A260AE8707
:108850000020F8BD807F002000B585B00023039084
:10886000194601AA44F20100ADF804300293AFF3B7
:10887000008005B05DF804FB12F0030301D007206F
:108880007047F0B4094D0A4F2B700A4D3A604C1CEA
:108890002B70094F094D0A4E3880E400A4B22244DF
:1088A000298032601846F0BC704700BFFF2F0020BF
:1088B000F42F0020FE2F0020FC2F0020003000208D
:1088C000F82F00202DE9F041284D2B888B4282B0F3
:1088D00003D2092002B0BDE8F081064602A84FF09D
:1088E000000800F8018D17460C4600F067FD204B8C
:1088F000204A2148197813780088DBB2834238BFB8
:108900000133C9B238BF5FFA83F841451CD092F8F1
:1089100000801378DBB283423ABF0133DBB200231D
:108920009DF80700137000F071FD144A5FFA88F893
:108930000FFA88F3126842F8337002EBC30706B1EE
:1089400044B90020B880C5E79DF8070000F05EFD3F
:108950000420BFE70A4B28881B68314608FB00301B
:10896000224603F0F4FDBC800020B3E7FC2F00207A
:10897000FE2F0020FF2F002000300020F42F0020C9
:10898000F82F00202DE9F843164C174D23782A784C
:108990009A4225D0154FDFF85C90DFF85C80144ECA
:1089A000207823783A88D9F80010B6F800E0DBB2D6
:1089B0009A4203F101038CBFDBB20023C0B22370E3
:1089C00003B2D8F8002001EBC30C00FB0E2051F8D5
:1089D0003330BCF80410984722782B789A42DFD1C4
:1089E000BDE8F883FE2F0020FF2F0020003000207C
:1089F000FC2F0020F42F0020F82F0020484B49487E
:108A000030B401214FF480344FF400352F22C0F8E8
:108A10008050C3F848431046C3F8084359600138F2
:108A200000BF00BF00BF00BF00BF00BF00BF00BF4E
:108A300000BF00BF00BF00BF00BF00BF00BF00BF3E
:108A400000BF00BF00BF00BF00BF00BF00BF00BF2E
:108A500000BF00BF00BF00BF00BF00BF00BF00BF1E
:108A600000BF00BF00BF00BF00BF00BF00BF00BF0E
:108A700000BF00BF00BF00BF00BF00BF00BF00BFFE
:108A800000BF00BF00BF00BF00BF00BF00BF00BFEE
:108A900000BF00BFC3D1244C99600023104623605F
:108AA000013800BF00BF00BF00BF00BF00BF00BF54
:108AB00000BF00BF00BF00BF00BF00BF00BF00BFBE
:108AC00000BF00BF00BF00BF00BF00BF00BF00BFAE
:108AD00000BF00BF00BF00BF00BF00BF00BF00BF9E
:108AE00000BF00BF00BF00BF00BF00BF00BF00BF8E
:108AF00000BF00BF00BF00BF00BF00BF00BF00BF7E
:108B000000BF00BF00BF00BF00BF00BF00BF00BF6D
:108B100000BF00BF00BFC3D1044A137030BC704710
:108B20000010014000E100E004300020243000206B
:108B30002DE9F843274A284B0025C2F84051C2F8D6
:108B40004451C2F84851C2F84C51C2F80051C2F821
:108B500004511B681BB32149D2F804250C68204F2F
:108B6000141B1A6824F07F44A242A84609D8197C35
:108B7000DE69A41A1544A1B91EB133461A68A2428F
:108B8000F5D9184B18491A780B789A421BD0174917
:108B9000174A41F823504FF48013C2F80031BDE862
:108BA000F883D3F8149083F810803A689B6948469C
:108BB00019462AB190470028DED0FFF74DFEDBE7CB
:108BC0001846C847D8E7531CDBB2022B08BF002366
:108BD0000B70DCE70010014008300020043000205A
:108BE0000C30002018300020193000201C300020EC
:108BF00000E100E02DE9F04FAB4AAC491378097869
:108C0000AB488BB000680590994200F02081013399
:108C1000DBB2022B08BF00231370A64A52F823C010
:108C2000059BA34A634423F07F4313600123019310
:108C3000A14BA24A1B7802931946A14B12681B68EC
:108C40000493A04B09921B7808938846984B08F12F
:108C5000FF385FFA88F84FF0000E1B680693B8F1F2
:108C6000FF0F1046F346CDF81CE0754638D0049C43
:108C70000FFA88F104EBC1060346184614F83110C8
:108C800096F801A0134602465145104620D001EB4C
:108C90004104706896F8029010F834700131C9B23E
:108CA000894508BF0021022F00EBC40000F0978027
:108CB000032FE9D1002AE7D0D36915741A46002B97
:108CC000FAD196F801A051454FF0010E1046DED1C1
:108CD00008F1FF385FFA88F8B8F1FF0F1A46C6D1DD
:108CE000079B0390002B40F0B780BBF1000F02D030
:108CF0006F4B06991960BEF1000F01D06F4B1A60DF
:108D0000019B002B40F00F81099A0399521A18BF5A
:108D1000012205921D46664BDFF8B081D3F800E0D2
:108D2000664BD3F80090674B4FF0000B1B7806930F
:108D30005F464FF0010C029B013BDBB2FF2B02931D
:108D400000F0E1801A46049B0E4603EBC20A45B3CD
:108D50006A68A9682B46ED69CEEB020020F07F40DF
:108D600040457ED8014419605F609F6083F810C061
:108D7000DF61002E00F0C1803068884280F08B8077
:108D8000344603E01068884274D21446E269091A36
:108D9000002AF7D1DA6119603246E3611646002DE8
:108DA000D6D19AF800309AF801209A423146C2D0C2
:108DB0005A1C9AF80240DAF80410D2B203EB4303CB
:108DC00094428AF8002008BF8AF8005001EBC300E3
:108DD00011F83330012B7BD032461646DFE7476867
:108DE000002A3FF451AF974215D0144600E00446E4
:108DF000E06900283FF448AF8742F8D1A0420CD088
:108E0000C7690068E76197B13A6802443A6096F82A
:108E100001A01A4638E710461446D36953B1C76912
:108E20000068E7611A464FF0010E002FECD196F86A
:108E300001A029E7244A4FF0010BC2F808B0DE4632
:108E40001A460693CDF81CB0CDF820B0D8E74FF005
:108E5000000CCDF804C0EBE61A4B9DF820101970F9
:108E600043E7C2EB0E0222F07F428A4209D2891AFE
:108E7000196079E7401A1060DA6119603246E361DF
:108E80008CE71F605F609F6083F810C0DF61002E79
:108E900033D030680021411A1A4631609946DE61AC
:108EA0004FF0010B16467AE71830002019300020E9
:108EB000043000201C30002010300020083000203A
:108EC000143000201A30002000100140FEFF7F0007
:108ED00043681A7C0192002A7FF47EAF82685A6050
:108EE000C16899600469DC6040699861069800284F
:108EF0003FF432AF019A5A602EE71A4699464FF076
:108F0000010B16464BE7BBF1000F40F0A380039B1B
:108F1000994231D1059B002B2ED17E4A002313703C
:108F20000BB0BDE8F08F7C49039B08680022154612
:108F300014461646BBB11968614500F2DF80D86857
:108F40001E60C1EB0C0C0C44D96938B1059ADD6187
:108F5000224422F07F4298605A601D460B46084624
:108F6000019A002BE7D10AB16B4B186000230393E1
:108F7000012305930399CEE6002900F0BC80674CDD
:108F8000674BD4F804551B68664ED1F800E0317881
:108F9000EA1A22F07F42033200295FD096452CBFA7
:108FA00003EB0E029A185D4922F07F43C1F8403569
:108FB000D1F80425521B5B1B22F07F4223F07F4334
:108FC00003329A42A9D9D1F80435C1F840352F208F
:108FD000013800BF00BF00BF00BF00BF00BF00BF1F
:108FE00000BF00BF00BF00BF00BF00BF00BF00BF89
:108FF00000BF00BF00BF00BF00BF00BF00BF00BF79
:1090000000BF00BF00BF00BF00BF00BF00BF00BF68
:1090100000BF00BF00BF00BF00BF00BF00BF00BF58
:1090200000BF00BF00BF00BF00BF00BF00BF00BF48
:1090300000BF00BF00BF00BF00BF00BF00BF00BF38
:1090400000BF00BF00BFC3D1374B4FF40032C3F89D
:10905000002162E7304BC3F8009058E732484FF4E4
:109060008031C4F844134FF40037C4F804130121CD
:10907000C0F8807107602F202160013800BF00BF59
:1090800000BF00BF00BF00BF00BF00BF00BF00BFE8
:1090900000BF00BF00BF00BF00BF00BF00BF00BFD8
:1090A00000BF00BF00BF00BF00BF00BF00BF00BFC8
:1090B00000BF00BF00BF00BF00BF00BF00BF00BFB8
:1090C00000BF00BF00BF00BF00BF00BF00BF00BFA8
:1090D00000BF00BF00BF00BF00BF00BF00BF00BF98
:1090E00000BF00BF00BF00BF00BF00BF00BF00BF88
:1090F000C3D1317052E7FFF781FC0EE70AB1064A8F
:109100001060CCEB010119600393012305930399CF
:1091100001E600BF1A300020083000200010014096
:10912000043000202430002000E100E02DE9F0416F
:1091300012F0030502D00720BDE8F081002A3DD0DF
:109140000E46144698460746FFF758FC06EB4603C2
:1091500004F11801DB00CA181344A670A672A674A5
:109160006361194E194B1A4861601A49E260C6F8EA
:10917000008005601C60184A184BDFF86CE0184E40
:109180002570032008704FF48010C021657025728F
:109190006572257465748EF800503570114CC3F8F3
:1091A000800183F814131860C2F8087583F811134E
:1091B000D2F8043523602846BDE8F081034B1A60DD
:1091C0000720BDE8F08100BF0C30002014300020E3
:1091D00008300020103000200010014000E100E0C5
:1091E000193000200430002018300020074B1B6885
:1091F00023B12AB120B10368187C18B10820704748
:109200000720704759745A61704700BF143000201E
:10921000304B1B6823B118B1042903D807207047CD
:1092200008207047F0B54469002C4DD0447C012CD7
:109230000CBF0E460026EFF30584C4F3080494B176
:10924000103C65B2002D38DB05F1604404F5614443
:1092500094F800436409E4B2022C39D0062C0CBF08
:109260000824102400E0102423445C7893F802E0E2
:109270001F78651CEDB2AE4508BF0025AF4225D072
:1092800004EB4404D3F804E0E4001EEB04071DD013
:109290004FF0010C0EF804C0DFF844E078600E4C8B
:1092A000DEF80405B8604FF4801EF9603E617A6113
:1092B0005D70C4F800E10020F0BD084D04F00F041B
:1092C00025442C7E6409C6E70820F0BD0420F0BDCB
:1092D0000024C9E71430002000E100E0FCEC00E0CD
:1092E00000100140254B1B6843B338B342692AB3D1
:1092F0000022F0B40274EFF30582C2F30802FAB957
:10930000102213445A789D781C78511CC9B28D42A2
:1093100008BF00218C4226D002EB42025C68D200DA
:10932000A71820D0164D0226A6544FF4801278605C
:1093300059700020C5F80021F0BC70470820704724
:10934000103A51B2002912DB01F1604202F561428C
:1093500092F800235209D2B2022A06D0062A0CBF84
:1093600008221022CDE70420E6E70022C9E70549DC
:1093700002F00F0211440A7E5209ECE7143000207B
:1093800000E100E0FCEC00E0082910B5044602D042
:109390000020FFF761FA23686068BDE810401847B5
:1093A00000B583B08DE80300034A08216846FFF743
:1093B00089FA03B05DF804FB89930700F0B4EFF37A
:1093C000108472B60E4B9A68B2B90E4901259D60A1
:1093D000D1F880700C4D2E463D401D60C1F8806074
:1093E000D1F884505D604FF0FF33C1F884300270D3
:1093F00004B962B6F0BC704701230370F8E700BF00
:109400005034002000E100E0FC06FFBC094B9A68E4
:1094100072B168B910B4EFF3108272B606491C68D5
:109420000C605C684C60986002B962B65DF8044BF1
:10943000704700BF5034002000E100E048DF704773
:1094400011DF704713DF7047074B1878012801D0F0
:1094500032B97047012904BF02211970002AF8D0DF
:109460001046FFF7F9B900BF25300020036801332B
:1094700016D000B583B001A800F0D6F9019B1A7888
:10948000012A03D0002003B05DF804FB588848B9D6
:109490000346C01AB0FA80F0400903B05DF804FB3F
:1094A0000020704743F2080299681068002200F01B
:1094B000DFF9019B5B88ECE784B02DE9F04182B0D5
:1094C00008AC84E80F009DF82040BDF82260DDF86C
:1094D00024800A9F0B9D01A800F0A6F9A4B1012CDD
:1094E0004BD0032C66D0022C2BD0052C7AD0042C28
:1094F00000F08880062C02D14A4B04221A7002B078
:10950000BDE8F04104B07047474B464C5E800122F5
:10951000FF2646489D601C211E711A70227001F0C2
:1095200045FE38BB00231C223F49404801F00CFE99
:109530000028E4D0FFF790F902B0BDE8F04104B094
:109540007047019A384B1178A52952D050889268FB
:10955000197058809A60334D344800220126FF2448
:109560001C212E701C71DA601A615A6101F01EFE16
:109570000028D7D0FFF770F9D4E72B4BDFF8A4E031
:109580005E8008EB07022A444FF0A50C9A60FF2684
:109590000C9A2648C3F80C801C211F615D6183F87A
:1095A00000C01E719A618EF8004001F0FFFD002896
:1095B000B8D0DFE7019A1C4B167850889168194C97
:1095C0001E705880AA26012299601848C3F80C80A2
:1095D0001C211F615D611E71227001F0E7FD0028F2
:1095E000A0D0C7E701F042FB48B90E4B03221A7026
:1095F00085E70022FF2119705A809A60ABE7FFF7D8
:109600002BF9F2E7084B019C08480022FF219A60E1
:10961000247919701C215A801C7101F0C7FD0028A3
:1096200080D0A7E7253000203030002028300020EF
:1096300000B585B00023094A02930393019201F01B
:10964000F7FC38B9064B4FF4FE2201A819465A60C0
:1096500001F066FD05B05DF804FB00BF499407000A
:109660002830002038B500F049FA00B138BD01F0CB
:1096700039FA0B4D044605E0FFF784F92B78023BDD
:10968000022B0BD9FFF7DAFE0028F5D0FFF7E4F83C
:10969000FFF778F92B78023B022BF3D8204638BD30
:1096A0002530002010B5FFF7CBFEE0B90F4C206845
:1096B0000023012101FA03F2024203F1010318BF62
:1096C000C4F88020202BF5D143F208031868FFF777
:1096D000B9FE08B1FFF7C0F843F20803BDE8104037
:1096E000186800F0A7B8FFF7B7F8DFE700E100E07F
:1096F00000B583B001A800F097F8019B1A78A52A5D
:1097000008D01879A0F1AA00B0FA80F0400903B09F
:109710005DF804FB012003B05DF804FB10B500F018
:10972000A1FC10B900F082FCB8B1642001F082FB0A
:1097300000F0C6FB70B900F095FC40B900F05CFC8D
:10974000044600B910BDFFF787F8204610BDFFF7AB
:1097500083F8F3E7FFF780F8EDE710BD70B582B04E
:1097600001A800F061F8019B1F4D1A78A52A34D09A
:1097700059889B682A706980AB601C4C1C48002388
:109780000126FF221C2126702A71EB602B616B6180
:1097900001F00CFDF0B900231C221349144801F01C
:1097A000D3FC40B1FFF758F805E0FFF7EBF823785A
:1097B000023B022B0BD9FFF741FE0028F5D0FFF743
:1097C0004BF8FFF7DFF82378023B022BF3D8002099
:1097D00002B070BDFFF740F8DDE70023FF222A70DA
:1097E0006B80AB60C9E700BF30300020253000201F
:1097F0002830002010B582B0044601A800F014F80B
:10980000019B1A7822705A8862809A68A2601A793D
:109810002271DA68E2601A6922615A6962619B69A1
:10982000A36102B010BD00BF014B0360704700BFD1
:1098300000F00700F0B40346186880F30888586801
:10984000FF2464B2EFF30585002D01D1A646004741
:109850002546064621273FBAF0B4002400250026FD
:109860000027F0B4F92040B2004700BFF0BC7047B9
:10987000B2B1138891B1014410F8012B5BBA9BB2CD
:109880005340C3F30312534083EA03331AB2530124
:1098900003F4FF53534088429BB2EDD11846704702
:1098A0004FF6FF73E6E700BF18DF704730B50129B8
:1098B00083B0144620D0032902D0BCB903B030BD18
:1098C000144D2A78022AF8D1134A52688DE80A000A
:1098D0009047124A009929701568002DEDD0019B20
:1098E00008461A462146A847002CE7D0204603B078
:1098F000BDE83040FEF7B0BF064A1278052ADCD139
:10990000064A1568002DD8D01A4621460420A847DB
:10991000D3E700BF54300020943000204C300020AA
:1099200030B589B00523079A8DF80C30009203AB4F
:10993000034C0FCB01252570FFF7BEFD09B030BDEC
:109940006030002010B50B4B0B4A181D148807C857
:1099500088B003230692079A8DF80C30ADF80E40BC
:1099600004900591009203AB0FCBFFF7A5FD0020FB
:1099700008B010BD843000205230002000B50D4BDF
:109980000D4A89B00121181D8DF80C101288ADF810
:109990000E200BC843F2080212680092069304904E
:1099A000059103AB0FCBFFF787FD002009B05DF8F1
:1099B00004FB00BF843000205230002010B588B076
:1099C0000022042103920492059206928DF80C1055
:1099D00003AB14460FCB0094FFF76EFD08B010BD2B
:1099E00070B50B4B0B4A1B88D26888B000250395D5
:1099F00004950595069203ACADF80E3094E80F007F
:109A000000952561FFF758FD284608B070BD00BFDE
:109A1000523000208430002008B5084A084909481F
:109A2000094B1060096802221A7001F0BFFB00B9EF
:109A300008BDBDE80840FEF70FBF00BFE0300020C2
:109A4000E830002058300020543000202DE9F04349
:109A500085B0054696086846032201950291039653
:109A60000092FFF721FF00283AD0B1F5805F0C4645
:109A70002DD9C3EB0508CF1A4FEA930968468DE844
:109A800004010297CDF80C90FFF70EFFF8B1B7F57F
:109A9000805F06D91A46F91AC3EB0800FFF7D6FF14
:109AA000F0B901236846CDF804800297CDF80C90F8
:109AB0000093FFF7F9FE98B903236846CDF80480B8
:109AC0000297CDF80C900093FFF7EEFE40B901230A
:109AD00068460195029403960093FFF7E5FE10B1E6
:109AE00005B0BDE8F0830323684601950294039610
:109AF0000093FFF7D9FE05B0BDE8F08330B5194DEE
:109B000019491A4A1A4B85B00024019101A8294627
:109B10000294039414701C8001F002FB18B1154BE1
:109B20001C7005B030BD43F2080301461B68124AA1
:109B300012486B60FFF75AFB70B900224FF47011A6
:109B40000F48FFF765FB50B90E490A4B0020012270
:109B500008601A7005B030BDFEF77EFEEDE7FEF737
:109B60007BFEF1E758300020AD9807005030002010
:109B700052300020543000202199070088C507008A
:109B800064300020E4300020014B1860704700BFB3
:109B90004C300020F8B543682A4C0FCB84E80F0006
:109BA00023785F0704D59E0702D006242046F8BD1F
:109BB000626824499507F8D188688407F5D1C96897
:109BC00011F00304F1D102441F4D0A44B0F5E04FF7
:109BD0002A6001D90C24E9E743F208010968C1F5BC
:109BE000F0218A42F6D8194A194E1A4986E8060029
:109BF000DA0707D5184BB360184B1B78012B07D039
:109C00000824D3E79B074CBF154B164BB360F3E713
:109C1000154B1B78002BF3D11448FFF763FB08B1F9
:109C2000FEF71AFE00224FF470111048FFF7F0FA09
:109C3000074618B9336828689847B7E7FEF70CFE5F
:109C40003C46B3E784300020E8300020BD9907008F
:109C500094300020199A07007D99070054300020A5
:109C600045990700E199070060300020643000202A
:109C7000C8B183689B0701D010207047244B1B7824
:109C8000052B12D12DE9F041224D4368224F2A685D
:109C900039689E0032448A4209D94FF0FF332B6065
:109CA0000C20BDE8F0810E207047082070471B4B48
:109CB0001B7813B10820BDE8F08104461848FFF76F
:109CC00011FB08BB00224FF470111548FFF7A0FAF2
:109CD0008046A0B9134AA16810682B680D4C324623
:109CE00001F032FA48B9236838683344236083426C
:109CF00014BF09200020BDE8F081BDE8F081FEF727
:109D0000ABFD4046BDE8F081FEF7A6FDDAE700BFF7
:109D100054300020E4300020E83000206030002083
:109D200064300020E030002070B50B4B1C6814B18B
:109D30000824204670BD094D2B78042BF8D1084E1D
:109D40000848317800F012FA10B134700446F0E798
:109D500005232B70EDE700BFE430002054300020D5
:109D600050300020A0300020F8B51C4A1378032B97
:109D700004D0042B04D008242046F8BD042313701B
:109D8000174B1C68002CF6D1164B1B78002BF2D118
:109D900005461548FFF7A6FAA8B900224FF470113E
:109DA0001148FFF735FA064648B9104E6A6833780D
:109DB00092009F18402F09D909242046F8BDFEF7CC
:109DC0004BFD3446D8E7FEF747FDE6E70848A968AB
:109DD000184402F0BCFB3770CEE700BF54300020BF
:109DE000E43000206030002064300020503000203B
:109DF000A030002070B5184C2378052B02D0082520
:109E0000284670BD154B164E1A6833689A42F6D133
:109E1000144B1B7806222270002BF0D11248FFF75A
:109E200061FAB0B900224FF470110F48FFF7F0F952
:109E3000054658B90D4B31681B68586800F0DCF9CD
:109E400005460028DCD107232370D9E7FEF704FD7F
:109E5000D6E7FEF701FDE5E754300020E4300020AE
:109E6000E83000206030002064300020E030002026
:109E7000094B1B78072B01D00820704710B5074805
:109E8000FFF730FA20B9064BBDE810409B68184731
:109E9000FEF7E2FCF7E700BF5430002064300020FA
:109EA0009430002000B589B00623079A8DF80C3055
:109EB000009203AB0FCBFFF7FFFA09B05DF804FB8C
:109EC0002DE9F0478CB005A8FFF794FC089A002A0A
:109ED0007FD00B9D02F58053AB427ED943F208033D
:109EE000A5F5805819688A424FEA580301AF16D980
:109EF00003F58054012138460294039401910491A2
:109F0000FFF7D2FC002865D14FF480543846019108
:109F1000049102940394FFF7C7FC00285AD15E0015
:109F200054193544641BA40806F5805603223846AC
:109F30000494029503960192FFF7B6FC002848D0DE
:109F4000B6F5805F33D94FEAD808C3EB050AC3EBF7
:109F500006093846CDF810800192CDF808A0CDF85A
:109F60000C90FFF7A1FC10B3B9F5805F07D91A4632
:109F7000C3EB0901C3EB0A00FFF768FD50BB0123E7
:109F80003846CDF808A0CDF80C90CDF8108001939C
:109F9000FFF78AFCF0B903233846CDF808A0CDF8C6
:109FA0000C90CDF810800193FFF77EFC90B901234F
:109FB00038460295039604940193FFF775FC48B95F
:109FC000032338460295039604940193FFF76CFC33
:109FD00000E000200CB0BDE8F087920801214FF4AA
:109FE000805301A80492029501910393FFF75CFC52
:109FF0000CB0BDE8F08700BF00B58DB005A8FFF735
:10A00000F9FB099858B1089A62B10B9B1A4483086E
:10A01000002101A8039302920191FFF745FC0DB0C6
:10A020005DF804FB43F208031A68F0E710B58CB042
:10A0300005A8FFF7DFFB099870B1089A72B10B9B76
:10A040001A44830803244FF4F02101A804930392D7
:10A0500001940291FFF728FC0CB010BD43F20803F5
:10A060001A68EEE72DE9F0438DB005A8FFF7C2FBB3
:10A07000089A02B30B9902F580538B421FD943F221
:10A0800008031B689A4203D90E200DB0BDE8F08387
:10A09000A1F580577B085E008D195418641BA40835
:10A0A00006F58056032201A80494029503960192B6
:10A0B000FFF7FAFB88B900200DB0BDE8F0839208E5
:10A0C0004FF48053032401A8049203910194029356
:10A0D000FFF7EAFB0DB0BDE8F083B6F5805F32D93B
:10A0E000FF08C3EB0509C3EB060801A8049701921A
:10A0F000CDF80890CDF80C80FFF7D6FB18B3B8F573
:10A10000805F08D91A46C3EB0801C3EB0900FFF7CB
:10A110009DFC0028B9D1012301A8CDF80890CDF805
:10A120000C8004970193FFF7BFFB0028ADD10323F8
:10A1300001A8CDF80890CDF80C8004970193FFF7A3
:10A14000B3FB0028A1D1012301A802950396049432
:10A150000193FFF7A9FB002897D1032301A80295DB
:10A16000039604940193FFF79FFB8EE70B2901D818
:10A170000920704770B5048900EB44040A34021BBF
:10A180000A44D2B2012A02D943189C4201D90920BB
:10A1900070BD05462146164802F0D9F9154B1B88BB
:10A1A0004FF6FF72934204D02A889A4201D00B20C6
:10A1B00070BD104B5B884FF6FF72934202D06A88E5
:10A1C0009A42F4D12846002330F8084F4FF6FE7526
:10A1D00043F20C0602E031888A4207D0A34203F121
:10A1E0000103E4D030F8022FAA42F4D1002070BD60
:10A1F000EC3000208010001008B50022FFF738FB7B
:10A20000044A5178137843EA0123984214BF0B2083
:10A21000002008BDEC30002070DF704771DF704710
:10A2200073DF704774DF704776DF70477ADF7047FF
:10A230007CDF70477FDF704786DF7047A7DF70479E
:10A24000A8DF7047A9DF7047AADF704767DF704754
:10A25000FEF702BB0C2908B596BF064B06225A5CD6
:10A26000032101F0A9FD00B908BDBDE80840FEF7D3
:10A27000F3BA00BFA4C5070000B5032883B00FD010
:10A2800004280AD1E9B11A4B18884FF6FF73984297
:10A2900003D01321FFF7C8FF70B903B05DF804FBCA
:10A2A0000C2998BF134B144894BF5A5C0622012115
:10A2B00001F082FD0028F0D003B05DF804EBFEF75A
:10A2C000CBBA1046019200F045FD019A58B90B4BEC
:10A2D0001B689A42E1D101220321074801F06CFD7D
:10A2E0000028DAD0E8E7FEF7B7FA019AEFE700BFF7
:10A2F000602C0020A4C5070008310020F8300020A1
:10A30000FEF7AABA2DE9F0415A4B5B4C1E780025A6
:10A310009AB025606560A560E56025616561002EE5
:10A320007FD0564E049506F10708404604A9102236
:10A3300005950695079502F0FBF8514B0746002856
:10A3400042D09B79029602AA01A901268DF80E300F
:10A35000089241F2305338220A910CA82946ADF8F0
:10A360000C30CDF804808DF824608DF82C60FEF759
:10A37000E9F829460422022503AB0CA8ADF83860A1
:10A380008DF830508DF833200F9301F05FFA08B14B
:10A39000FEF762FA0023022008A9282223706382B4
:10A3A0002072E16022823448FFF73AFF002835D15D
:10A3B0004FF0A041334B4FF400300122C1F80C059F
:10A3C0001A701AB0BDE8F0819B798DF822303946B9
:10A3D00041F2305338220CA8ADF820300525FEF7A5
:10A3E000B1F839460122022708AB0CA88DF830706D
:10A3F0008DF83350ADF838200F9301F027FA08B1EB
:10A40000FEF72AFA002301221B486660227023729D
:10A4100023826382FFF704FF0028C9D0FEF71CFAED
:10A42000C6E7174B9B798DF82230314641F2305305
:10A4300038220CA8ADF820300625FEF783F8314607
:10A440000122022608AB0CA88DF830608DF833503D
:10A45000ADF838200F9301F0F9F938B9002328221C
:10A46000237063602372638222829CE7FEF7F4F913
:10A47000F4E700BFF6300020843100204031002096
:10A4800008310020F730002070B50446B0B001F06C
:10A49000DFFA2146964801F0BDFC2388023B532B8E
:10A4A00067D8DFE813F08300660066006600660088
:10A4B000660066006600660066006600660066006C
:10A4C00066008B009D006600C00003016600660008
:10A4D0006600660066005400E800660066006600DC
:10A4E000660066006600660066006600660066003C
:10A4F000660066006600660066006600660066002C
:10A50000660066006600660066006600660066001B
:10A51000660066006600660066006600660066000B
:10A5200066006600660066006600660066006600FB
:10A5300066006600660066006600660066006600EB
:10A540006600660068005400660066001501694BED
:10A550001C884FF6FF75AC4200F00581664B1B78F6
:10A56000002B40F0D58020461A461946FFF76AFEB8
:10A57000C0B930B070BDA379002BFAD0A27B043AE9
:10A58000022AF6D8022B5B4A18BF01238DF840300F
:10A5900010884FF4C17310A9ADF84430FFF750FE96
:10A5A0000028E6D0FEF758F930B070BD514B0021BD
:10A5B0001888FFF74BFE0028DBD0F3E74FF0A043ED
:10A5C0004FF480224FF40031C3F80C25C3F808156E
:10A5D000484A4A4BA188118000221A7030B070BDE1
:10A5E00030AA8023464822F89C3D4FF0A0434FF408
:10A5F000802132253F4C0560C3F8081520880123CF
:10A6000010A9FFF721FE002840F0AF803D4B1B78DA
:10A6100023B93A4B1B78002B00F0A2804FF6FF7352
:10A62000238030B070BD384C324E94E8030023468E
:10A63000079053F8070FADF820100D0C9A68596871
:10A64000DB688DF82250183403AD0FC50FCC09AD6F
:10A650000FC594E8070003AB85E8070009AC159324
:10A6600030882A4A149410AB8521FFF7E3FD0028B7
:10A670003FF47FAF96E7237A002B7FF47AAF204A2E
:10A680001E4914680B70013C1460002C2DD110ADD4
:10A690000523109400941194129413948DF8403073
:10A6A00095E80F002C61FEF707FF62E7164A258A3E
:10A6B000518DA08802F118038D420CBF194600216C
:10A6C00007320023FFF7B8FD00283FF452AF69E7D7
:10A6D000A379002B7FF44DAF064B13211888FFF7A9
:10A6E000A3FD00283FF445AF5CE7FFF70BFE40E712
:10A6F00008310020602C0020F6300020F7300020C8
:10A70000642C00209C310020403100203831002092
:10A710000123082216492046FFF794FD00287FF404
:10A7200041AF0246014602232046FFF78BFD002879
:10A730007FF438AF2A4620460C21FFF77FFD43F215
:10A74000020398423FF415AF08283FF412AF43F2DA
:10A75000040398423FF40DAF00283FF40AAF21E70D
:10A76000FFF7D0FD5AE708201CE7FEF775F84DE724
:10A7700074310020F0B50B7889B00C460546092BE2
:10A7800020D8DFE803F02A32474B59718E88972191
:10A79000092840F08F819E4A9E481368217A0078EC
:10A7A0001944116070B19C4C2388013B9BB22380FB
:10A7B00043B9284601F0CCFA002840F08981974B34
:10A7C0001B88238009B0F0BD914B196801F08AFA0B
:10A7D0000028F7D0FEF740F8F4E74968904A914B1B
:10A7E0000978117001221A70ECE74B688D4A1B78CA
:10A7F0000221012B1170E5D1FFF796FA0C2800F227
:10A80000DE80894B1A5C2846022101F0D5FA002827
:10A81000D8D0DFE7834B03221A70D3E7FFF7EAFAB9
:10A820000C2896BF814B06221A5C0421284601F0B1
:10A83000C3FA0028C6D0CDE77D4B7E4A18884FF674
:10A84000FF7301219842117069D01321FFF7ECFCCE
:10A85000002861D101F0F6F808B1FDF7FDFFFFF720
:10A8600007FB0028AED012E0714B724A18884FF6F1
:10A87000FF7301219842117063D01321FFF7D4FCBC
:10A88000002846D101F0DEF808B1FDF7E5FFFFF73B
:10A8900009FB09B0F0BD5F49604A00230B701380CB
:10A8A00090E75E49A3885C485A4A0B8001210380E7
:10A8B000117087E75B4B1978022954D003291DD00A
:10A8C00001297FF47FAF564B267A1A7864680023FB
:10A8D00004A804930C2E8DF810204FF0030205936A
:10A8E0000693079302900393019200F0AD802846EF
:10A8F00001F062FA00283FF465AF6BE7207A830726
:10A900005FD028460A4601F057FA00283FF45AAFB4
:10A9100060E7FDF7A1FFB5E7FDF79EFF9AE7464C1C
:10A920002378002B96D0FFF77DFC002840F0A5800F
:10A930004FF0A0424FF400310023C2F808152370F5
:10A9400088E73D4C2378002B9CD0FFF76BFC002858
:10A9500040F096804FF0A0424FF400310023C2F83F
:10A96000081523708EE7237A13F0030216D060686F
:10A97000C2F104070026591C012FC654C9B208D0E1
:10A9800060684654032F03F10203DBB204BF606822
:10A99000C654C2F103028B18DBB2237262680692BE
:10A9A0009B08012204A805930492FFF7DDF9002813
:10A9B0003FF408AF0C2802D8204B1A5C23E706228C
:10A9C00021E71F4E0190314600F096F998B9019A9F
:10A9D0006168306801F0BBFD019800F0F9F950B9E9
:10A9E00001A9304600F004FA00284CD00146284660
:10A9F000FFF730FCE6E60C2896BF124B06221A5CE5
:10AA00000321284601F0D8F900283FF4DBAEE1E647
:10AA1000803100207E310020FC3000207C3100207D
:10AA20003D31002004310020A4C507008CC507007B
:10AA3000602C00209C310020F7300020A4C50700C6
:10AA400000310020A4C507002368059363680693BE
:10AA5000A368079301A8FFF79DF800283FF4B2AE62
:10AA60000C2896BF1C4B06221A5C0121284601F0D7
:10AA7000A3F900287FF4AEAEA4E6FDF7EDFE57E79C
:10AA8000FDF7EAFE66E7019B326806929B08042206
:10AA900004A805930492FFF7EBF8074600287FF41B
:10AAA00077AE0E4A217A13680D48346804600B446F
:10AAB000136087E6306800F04DF9014620B9394649
:10AAC0002846FFF7C7FB7DE62846FFF7C3FBF6E7FE
:10AAD000FDF7C2FE73E600BFA4C507008031002069
:10AAE000F8300020F0B54FF0A043534F534E544878
:10AAF000002103224FF400354FF480243970317067
:10AB000089B0C3F84427C3F84827C3F80855C3F8E9
:10AB1000084501F071FC08B109B0F0BD4948FFF7E4
:10AB200033F800F0D5F80028F6D14748FDF76AFE63
:10AB3000002867D1454B01221A7001AC9DF8003006
:10AB40004349012262F3030308A862F3071300F8E4
:10AB5000203D0722FFF76CFB002866D100256560C9
:10AB60000C2118224FF4C8732046ADF80410ADF83C
:10AB70000620ADF80A30FFF759FB08B1FDF76CFE6F
:10AB80000023019308266360A360324D324A3348A4
:10AB9000ADF8046021460295039200F0BFFF08B1B2
:10ABA000FDF75AFE0023019340F6CD466360A36093
:10ABB000E36023616361A3614FF480450321284A68
:10ABC0000296204603958DF81010079200F000FFC2
:10ABD00008B1FDF741FE234A234913780C7803F0AE
:10ABE000F003032161F306136FF3C713072010214D
:10ABF0001370507091700CB100208DE7FFF782FB4D
:10AC0000204689E701AC2046FFF708FB80B99DF894
:10AC100005302146013300208DF80530FFF7FCFA9E
:10AC200000288BD0FDF718FE88E7FDF715FE95E7A5
:10AC3000FDF712FEEBE700BF9C310020043100203D
:10AC400089A4070079A2070040310020F6300020D7
:10AC50009CC5070075A7070051A207000831002016
:10AC600001A3070038310020F730002010B5154B44
:10AC7000154A18884FF6FF730121984211700AD0C7
:10AC80001321FFF7D1FAB0B900F0DCFE08B1FDF7EF
:10AC9000E3FD002010BD0D4C2378002BF4D0FFF70E
:10ACA000C1FA58B94FF0A0424FF400310023C2F866
:10ACB00008152370E8E7FDF7CFFDE5E7FDF7CCFDCC
:10ACC000F0E700BF602C00209C310020F73000200E
:10ACD000064B0749074A1A6000200822087098604E
:10ACE000D8601861586198615A607047C03200207E
:10ACF000DC320020A031002059B1F0B5144A54686C
:10AD000000230B600CB90420F0BD202803D90C20CF
:10AD1000F0BD0E2070471769D068966915684FF02E
:10AD2000010E0EFA07FE46EA0E0600F1010E07EBD1
:10AD3000C7000137013C07F0070705EB80055460A9
:10AD400017619661C2F80CE018460D60F0BD00BFB7
:10AD5000C0320020F0B51D4EB7680FB90420F0BD19
:10AD600074693568C7EB040E0EF0070E724603E0F7
:10AD700001F00702944225D002EBC20305EB8303E6
:10AD8000984202F10101F3D1B36901219140594088
:10AD9000B1610020012303FA0EFE1EEA010F10D15B
:10ADA0001A4402F0070203FA02F20A407368074CE1
:10ADB00003D11F446760A260F0BD013F0133A7606B
:10ADC0006360F0BDB1691020E4E700BFC03200202D
:10ADD000064A13691268013B03F0070303EBC30340
:10ADE00002EB830318620020704700BFC0320020CE
:10ADF00028B121B10E4BDA681AB9042070470E2031
:10AE00007047F0B45C691E689D6804EBC40706EBEC
:10AE100087060134066004F007040135013A306A00
:10AE2000DA605C619D600860F0BC0020704700BF84
:10AE3000C032002082B00190019B002B43D0019BC7
:10AE4000013B019340F2E730013800BF00BF00BF73
:10AE500000BF00BF00BF00BF00BF00BF00BF00BFFA
:10AE600000BF00BF00BF00BF00BF00BF00BF00BFEA
:10AE700000BF00BF00BF00BF00BF00BF00BF00BFDA
:10AE800000BF00BF00BF00BF00BF00BF00BF00BFCA
:10AE900000BF00BF00BF00BF00BF00BF00BF00BFBA
:10AEA00000BF00BF00BF00BF00BF00BF00BF00BFAA
:10AEB00000BF00BF00BF00BF00BF00BF00BFC3D1C5
:10AEC000019B002BBBD102B0704700BF29DF704748
:10AED00028DF704770B5194C237803EB430304EB6C
:10AEE000C3031A795D69012A13D0032A01D00F2008
:10AEF00070BD4FF08053124A1B6910689BB2B5FBBE
:10AF0000F3F52844FFF7E4FF0028F1D10123A370F3
:10AF100070BD0B499A680868DE6899690303D21A04
:10AF2000B2F5805F3544194403EB050034BF920845
:10AF30004FF48062FFF7CAFFE6E700BFE03200206F
:10AF4000E4330020F0B5374CA37883B0B3B10022CE
:10AF50000228A27014D0032810D12078324D00EBC3
:10AF60004000C00022181046146993691179926854
:10AF70000092103055F824400D22A04703B0F0BDD8
:10AF800023782A4E5800C51804EBC5053168AF6810
:10AF90000131B7EB013F31603FD8326018445A1C91
:10AFA000D2B2C000251861781F4E092A88BFA3F1CC
:10AFB0000902227001392A696170AB692979009709
:10AFC000284656F82260174F00221030B0476278AA
:10AFD0000023032129612B71AB606B61AB61EB60D6
:10AFE000002ACBD0BB78002BC8D1FFF773FF0246F5
:10AFF0000028C3D01128C1D023780B4E03EB4303A4
:10B00000DB00E51828462F69AC68AB692979009404
:10B01000103056F82740A047B0E76378002BADD03A
:10B02000E3E700BFE0320020D4330020E433002007
:10B0300030B4374B374C3848384D0022032102607A
:10B040001A705A709A701A719A605A619A61DA602D
:10B050001A771A62DA621A635A6283F834209A63A2
:10B060005A649A64DA6383F84C201A65DA651A66C2
:10B070005A6583F864209A665A671961996219645F
:10B080009965104619679A67DA6683F87C20C3F8D9
:10B090008020C3F88810C3F88C20C3F89020C3F830
:10B0A000842083F89420C3F89820C3F8A010C3F834
:10B0B000A420C3F8A820C3F89C2083F8AC20C3F8D0
:10B0C000B020C3F8B810C3F8BC20C3F8C020C3F840
:10B0D000B42083F8C420C3F8C820C3F8D010C3F844
:10B0E000D420C3F8D820C3F8CC2083F8DC20C3F8E0
:10B0F000E020C3F8E810C3F8EC20C3F8F020C3F850
:10B10000E4202A6022606260A26030BC704700BF09
:10B11000E0320020D4330020E4330020E03300206C
:10B12000074A1368032B08D00B600649006841F8F2
:10B13000230001331360002070470420704700BFD4
:10B14000E0330020D4330020F8B5CC180C43A4071A
:10B1500001D01020F8BD144D6E780A2E1BD02C782B
:10B160003444E4B2092C84BF0A3CE4B204EB440446
:10B1700005EBC40401272771A16103C8AF78A26061
:10B1800004F11002E36082E80300074C2FB10020B5
:10B1900001366E70F8BD0420F8BDFFF79BFE112844
:10B1A0006678F5D13846F3E7E0320020F8B5154C63
:10B1B00062780A2A1DD02378A7781344DBB2092BC2
:10B1C00084BF0A3BDBB203EB430304EBC3030E462D
:10B1D0000025032119719D6103C89E6003F11006CB
:10B1E00086E80300DD60074E2FB128460132627009
:10B1F000F8BD0420F8BDFFF76DFE11287278F5D177
:10B200003846F3E7E032002071DF704772DF7047A5
:10B2100079DF70477DDF704765DF70472DE9F04FBC
:10B2200083B004880C9FBDF83490B7F800A0002CC0
:10B230004CD09846002316468B4605461C4603E034
:10B240002A880134A24224DD6A6852F82400019061
:10B2500000220DF1030101A8FFF7DEFF10BB9DF8EE
:10B260000320B242ECD103B33A8893194B4518DC62
:10B2700042440DF1030101A80123FFF7CDFF88B976
:10B280003A889DF803100A443A802A880134A24281
:10B29000DADCDBB13B88013BCAEB03039BB2FF2B3B
:10B2A00012D90C2003B0BDE8F08F3B885A1C334400
:10B2B00002334B4592B2F4DC3A8008F802B03A8887
:10B2C000013292B23A80D3E708F80A30002003B086
:10B2D000BDE8F08F2DE9F047002314881380436BFD
:10B2E00084B0BBB1022C03D80C2004B0BDE8F087B9
:10B2F00002261D780E70138801339BB2112613802D
:10B30000CE54138801339BB21380CD54138801337C
:10B310009BB21380056B002D6FD003F11206A6427D
:10B32000E2D81126CE54138801339BB21026138025
:10B33000CE54138801339BB21380EE7BCE54138816
:10B3400001339BB21380AE7BCE54138801339BB282
:10B3500013806E7BCE54138801339BB213802E7BF7
:10B36000CE54138801339BB21380EE7ACE541388E7
:10B3700001339BB21380AE7ACE54138801339BB253
:10B3800013806E7ACE54138801339BB213802E7AC9
:10B39000CE54138801339BB21380EE79CE541388B8
:10B3A00001339BB21380AE79CE54138801339BB224
:10B3B00013806E79CE54138801339BB213802E799B
:10B3C000CE54138801339BB21380EE78CE54138889
:10B3D00001339BB21380AE78CE54138801339BB2F5
:10B3E00013806E78CE54138801339BB213802D786E
:10B3F000CD54138801339BB2138090F82E50002D4A
:10B4000040F00781154690F82D200E460746002A89
:10B4100040F01781BA78002A40F03F81FA78A2B153
:10B42000D91CA1423FF660AF0221F1542B880133B1
:10B430009BB201212B80F1542B880B449BB22B80B3
:10B44000F2542B880B449BB22B807A68AAB1D91C8A
:10B45000A1423FF649AF022192F90020F1542B8816
:10B4600001339BB20A212B80F1542B8801339BB20C
:10B470002B80F2542B8801332B803B89002B40F02A
:10B4800090813B8A002B40F0A7813B8B002B40F042
:10B49000BC81396A002944D02B889A1DA2423FF60C
:10B4A00023AF0A88052A40F295816FF4486802EBC1
:10B4B000080080B24FF27D3E704540F28B81488893
:10B4C000052840F287816FF4486C84441FFA8CFC95
:10B4D000F44540F27F814FF6FF7E724504D07045FF
:10B4E00002D0824200F276810522F2542B88013389
:10B4F0009BB212222B80F2542B8801339BB22B80FB
:10B500000A88F2543344120A5A702B8802339BB2D1
:10B510002B804A88F2543344120A5A702B88023323
:10B520002B80D7F82480B8F1000F31D0B8F8042070
:10B530002988131D0B44A3423FF6D6AE931CFE2B65
:10B540003FF6D2AE033272542B8801339BB2FF22F6
:10B550002B80F2542B8801339BB22B80B8F800204B
:10B56000F2543344120A5A702888023080B228807C
:10B57000B8F8042062B1D8F80810002900F02A8138
:10B58000304400F0E4FFB8F804302A8813442B80DC
:10B5900097F82C30002B40F0A280387800283FF438
:10B5A000A4AE3B88012B00F015812B8803F1020E1D
:10B5B000A6453FF699AE012805D17A7802321A44A1
:10B5C0009442FFF491AE023CE31A04A99BB221F825
:10B5D000083D06EB0E00FFF71DFE00287FF485AE48
:10B5E0003A78022A00F02A81012A00F0D5801A4612
:10B5F0000821FE2A3FF678AE2B88541CF4542B8881
:10B6000001339BB22B80F1542B8801331A442A80DA
:10B610006BE6DE1CA6423FF667AE0226CE541388C8
:10B6200001339BB21C261380CE54138801339BB286
:10B63000013D1380032D00F2CD80DFE805F0A7A4C3
:10B640009DAA0933A3423FF64FAE02A8FFF7DCFDE7
:10B6500000287FF44AAE2B889DF808200821F15479
:10B660002B8801339BB21B212B80F1542B8804A91A
:10B6700001339BB251F8070D2B80F0503344898879
:10B6800099802B8806339BB22B8002B10122F254A1
:10B690002B8801339BB22B80BCE60433A3423FF6D8
:10B6A00023AE02A8FFF7B4FD00287FF41EAE2B885E
:10B6B000BDF808200321F1542B8801339BB21921D6
:10B6C0002B80F1542B8801339BB2F1182B80F2545C
:10B6D000120A4A702B8802339BB22B809EE6D7F861
:10B6E0002880B8F1000F75D0B8F804200232FE2A85
:10B6F0003FF6FAAD2B884FF000094FF0160A08E02C
:10B70000BA6A02EB8808B8F804200232FE2A3FF633
:10B71000EBAD0132F2542B8801339BB22B8006F83B
:10B7200003A02B8801339BB22B80B8F80020F25481
:10B730003344120A5A702B8802339BB22B80B8F81C
:10B740000410F0180A4661B1D8F808301946002BE9
:10B7500040D000F0FCFEB8F804302A8813449BB2B5
:10B760002B8009F1010997F82C205FFA89F94A45E5
:10B7700009EB4908C4D810E70225CD5413880133DA
:10B780009BB213803EE60125CD54F7E70025CD544A
:10B79000F4E70325CD54F1E77A789342BFF428AF5C
:10B7A00025E707F10808022201940095404611465A
:10B7B0003346FFF733FD00287FF497AD01940095E1
:10B7C0004046334610220621FFF728FD00287FF46B
:10B7D0008CAD56E6072088E507F110080194009526
:10B7E0004046334602220321FFF718FD00287FF46C
:10B7F0007CAD019400954046334610220721FFF7A7
:10B800000DFD00287FF471AD3FE607F118080194A3
:10B8100000954046334602221421FFF7FFFC002822
:10B820007FF463AD01940095404633461022152104
:10B83000FFF7F4FC00287FF458AD2AE6BDF8082095
:10B840009342FFF4D4AE0921D3E600BF30B593B0E4
:10B850001F230D46ADF80430ADF8063010B3C378A1
:10B860005B0702D4072013B030BD02A901AAFFF77D
:10B8700031FD0028F7D102ACC5B1EB78002BF1D136
:10B8800028460AA90DF10602FFF724FD0028EAD197
:10B890009DF806300AAA20469DF80410FFF7B6FC72
:10B8A00013B030BDADF804000446E5E72B46ADF813
:10B8B00006502A46EFE700BF75DF704776DF704716
:10B8C0007ADF70477BDF7047184B18884FF6FF739D
:10B8D00098422AD010B5164A164C1378217B0133B2
:10B8E000DBB2994282B013700CD2237C002111701C
:10B8F0008BB9636923B102A8002200F8042D984790
:10B9000002B010BD0C49FFF7D7FF0028F8D0A3699B
:10B91000002BF4D1F4E73B21FFF7D0FF0028E8D05B
:10B92000A369002BE5D09847E3E770473434002043
:10B93000F4330020F83300203834002070B51E4B5B
:10B940001E4A5B881188994282B00FD852889A4269
:10B950000CD31B4B5B6923B102A8012200F8042D14
:10B960009847184C0023237002B070BD154C227804
:10B9700062B1134B5B69002BF4D002A8002200F8DF
:10B98000042D98470023237002B070BD0C4D0E4863
:10B9900069680678AB680D48002E18BF1946FDF798
:10B9A00037FC0028DED0AB69002BDBD098470023A2
:10B9B000237002B070BD00BFEC330020383400208B
:10B9C000F8330020E8330020F43300201434002042
:10B9D000F8B505460FCD144C144F0FC4064695E834
:10B9E0000700002384E807003B70B6B13068104BB5
:10B9F000716803C3A3F10800FFF762FF90B90D4D12
:10BA00000D4C0E4A0E4800234FF6FF762E80237011
:10BA10001946BDE8F840FDF7E9BB0548FFF752FFBE
:10BA20000028ECD0F8BD00BFF8330020E833002038
:10BA30003834002034340020F4330020C9B8070023
:10BA4000B4C507000148FDF74DBC00BF1434002009
:10BA500070B50388112B27D012D9122B07D0502B89
:10BA600045D1234CC288E3899A4230D070BD08305A
:10BA700003C8204B83E80300BDE87040FFF75EBFBA
:10BA8000102B33D11C491A4C1A4B1C4DE48900F180
:10BA900018028088088092E80300002283E80300EF
:10BAA0002A70002CE8D070BD1349144B14484FF68F
:10BAB000FF7400220C801A70FDF714FC0028D5D00A
:10BAC0000B4B9B69002BD1D0BDE870401847038A0F
:10BAD000022BCBD1837CDB07CED40948FDF702FCD7
:10BAE0000028C3D0A369002BEED1BFE770BD70BDA5
:10BAF000F8330020EC33002034340020F4330020ED
:10BB000014340020A0DF7047A2DF7047A5DF704724
:10BB1000A6DF7047A8DF704763DF7047F8B1F1B167
:10BB20004B68E3B12DE9F0416C4B94B09A6807463D
:10BB30000E4618685968DB6804AC0FC44FF6FF75F1
:10BB400014AB41F230523D800DF10A0104A823F8F4
:10BB5000482DFFF7E1FF20B114B0BDE8F0810E20C1
:10BB6000704719463A1D0120FFF7CCFF0028F3D19A
:10BB70004FF001080346040A68F34203C5B268F3B4
:10BB80000304DBB29DF80AE00D9068F3071443EA62
:10BB9000080345F00405ADF804000B9087F806E0B3
:10BBA0008DF8063041F2325C8DF805408DF8345046
:10BBB00001AC03AD0A900C908DF80EE00E904FF0A2
:10BBC000140E0F90109011901290139008AA0DA9C6
:10BBD00007F10803B888ADF80CC009940895ADF8D2
:10BBE0002CE0FFF791FF0028B6D10346020A68F364
:10BBF0004203C1B268F30302DBB268F3071243F0F9
:10BC0000110341F018010D90ADF804000B900E9057
:10BC10000F9010901190129013900A900C9041F296
:10BC2000315097F806C08DF805204FF0170E8DF8AB
:10BC300006308DF83410ADF80C0007F1100308AA97
:10BC40000DA9B888089509948DF80EC0ADF82CE0C0
:10BC5000FFF75AFF00287FF47FAF034668F34203E3
:10BC6000208086460D900A900B90DBB20E900F90CC
:10BC70001090119012901390C0B243EA080340F064
:10BC8000020068F3030E68F3071E089597F806C0D4
:10BC9000099441F2345502248DF806308DF83400B1
:10BCA00008AA0DA907F12003B8880C968DF804E0C6
:10BCB0008DF80EC0ADF80C50ADF82840ADF82C4012
:10BCC000FFF722FF00287FF447AF7368BB62B368B9
:10BCD00003B1FB62024B01221A703DE7B8C50700B1
:10BCE0004034002048B102884FF6FF739A4202D0D8
:10BCF000154B1B781BB9082070470E207047F0B514
:10BD0000124B068AD970102287B021FA02F51A70F8
:10BD10000F0A01220724090E1F715D7199715C7071
:10BD20009A70059302A900230DF10605008802937D
:10BD3000ADF806400393ADF808608DF80A2004952D
:10BD4000FFF7E6FE07B0F0BD403400204434002089
:10BD500048B102884FF6FF739A4202D0144B1B7809
:10BD60001BB9082070470E20704770B5114B068A2A
:10BD7000597086B00C0A0A0C1125090E1D709C70B2
:10BD8000DA70197105930DF10602002302A9052549
:10BD90000124008802930393ADF80860ADF80650C3
:10BDA0008DF80A400492FFF7B3FE06B070BD00BFE5
:10BDB000403400204434002060B170B504884FF650
:10BDC000FF739C4286B002D0104B1B7823B9082029
:10BDD00006B070BD0E2070470D4B068A59701021B9
:10BDE0009A70197005930325002301240DF10602B2
:10BDF00002A9008802930393ADF80860ADF80650DD
:10BE00008DF80A400492FFF783FEE1E740340020FA
:10BE100044340020E8B1E1B1F0B5856A89B085B15C
:10BE20000A88112A26D00ED9502A04460B4611D072
:10BE3000512A06D18A79022A03D10989028A9142BC
:10BE40001DD009B0F0BD102AFBD18A88028009B04C
:10BE5000F0BD70470289C9889142F2D108211A8A3F
:10BE60008DF8101003F1120105918DF8182004A926
:10BE7000A847E6E74FF6FF72028009B0F0BD9A7B53
:10BE8000043A022ADDD99DF816101A8A5E8AADF8A6
:10BE90001820022041F00101002701AA8DF8161098
:10BEA00003F1140501978DF81000ADF80400A18A84
:10BEB0002088ADF81A600795CDF808D0FFF726FE68
:10BEC000024688B1E36A03B1984740F2FD1304A922
:10BED0002088ADF81430FFF71DFE0028B1D0E36ACA
:10BEE000002BAED09847ACE79DF80010C907ECD501
:10BEF00004A92088ADF81420FFF70CFE0028EED12D
:10BF0000197D4A1E072A4FD8DFE802F03122204C63
:10BF1000414A18045A8A022A51D9997D5B7DA26A46
:10BF200043EA0123002B0CBF072006208DF80400F4
:10BF300001A9ADF808302046904782E709238DF823
:10BF4000043001A9A36A204698477AE70223F6E75E
:10BF5000598A012291428DF804202AD9153302937F
:10BF60008DF80C2001A9A36A2046984769E75A8AF0
:10BF70000021012A8DF8041027D9153301220293DC
:10BF800001A98DF80C20A36A2046984759E704239D
:10BF90000DEB03018DF804302046A36A984750E763
:10BFA0000523CCE70323CAE703222046FFF704FF5B
:10BFB00093E7062202212046FFF7FEFE8DE70322CB
:10BFC00008212046FFF7F8FE87E7062201212046D8
:10BFD000FFF7F2FE81E700BFF0B4984B1B78062B09
:10BFE0001BD0974AD2F8883043F47003C2F88830E7
:10BFF000BFF34F8FBFF36F8F4FF01023D3F80022A2
:10C00000002AC0F2E980D3F80432002BC0F2E480A9
:10C010008C4B8D4A1A60F0BC70478C4B1B681D0717
:10C02000DFD18B4B1B6803F0F003302B02D1894B1F
:10C03000894A1A60864B1B6803F0F002302A00F030
:10C04000BA8003F0E003402B00F0B580804B1B6802
:10C0500003F0F003302B00F09E807D4B1B6803F053
:10C06000F002302A00F0838003F0E003402B7ED002
:10C07000774B1B6803F0F003302B6AD0744B1B68BE
:10C0800003F0F003302B4DD0714B1B6803F0F0032D
:10C09000502BA6D14FF08052704BD2F80414C3F845
:10C0A0002015D2F80814C3F82415D2F80C14C3F8DC
:10C0B0002815D2F81014C3F82C15D2F81414C3F8AC
:10C0C0003015D2F81814C3F83415D2F81C14C3F87C
:10C0D0004015D2F82014C3F84415D2F82414C3F83C
:10C0E0004815D2F82814C3F84C15D2F82C14C3F80C
:10C0F0005015D2F83014C3F85415D2F83414C3F8DC
:10C100006015D2F83814C3F86415D2F83C14C3F89B
:10C110006815D2F84014C3F86C15D2F84424C3F85B
:10C1200070255EE7454B4E491B784E4D4E484F4AB1
:10C1300005270F60012600243F21062B2E60046096
:10C1400011607FF44EAF414B1B681B077FF449AF72
:10C150009AE73A4B464A1B780321062B11607FF47D
:10C1600040AF3A4B1B681A077FF43BAF86E7334B6F
:10C170001B784FF080420021062BC2F80C11C2F848
:10C180001011C2F838157FF42CAF304B1B6819071B
:10C190007FF427AF6CE7374A2849D368097823F042
:10C1A00080730629D3607FF41CAF284B1B681807E7
:10C1B0007FF417AF51E7304A204B12681B782F49A4
:10C1C000C2F34232062B0A607FF40BAF1F4B1B6891
:10C1D0001C077FF406AF39E7294B0122C3F8042579
:10C1E000D3F80024002AFBD04FF010231522244955
:10C1F000C3F80022D1F80034002BFBD04FF01023FD
:10C2000015221F49C3F80422D1F800241C4B002A30
:10C21000FAD00022C3F80425D3F80024002AFBD06A
:10C22000BFF34F8F0649174BCA6802F4E06213430D
:10C23000CB60BFF34F8F00BFFDE700BFE00F00F002
:10C2400000ED00E0682C00200090D003E40F00F027
:10C25000E80F00F074C007400DF0ADBA00C0004018
:10C2600010560040885600401856004014560040B2
:10C27000A0050040F0ED00E0440200103C05004045
:10C2800000E001400400FA0552DF704710DF7047FC
:10C2900060DF704761DF704708B5AFF3008008BD0D
:10C2A0002DE9F0432E4F2F4E3C682F4DDFF8BC8018
:10C2B000B4FA84F44FF0000983B06409B9F1000FB7
:10C2C00012D0002C3DD102A9338821F8043D2B68FF
:10C2D0001846FFF7DFFF052833D020B3FCF7BCFA80
:10C2E0000024B9F1000FECD101A8FFF7CDFF05281C
:10C2F0000AD0E0B1FCF7B0FA34B301A8FFF7C4FFED
:10C3000005284FF00104F4D1DCB92B683288ADF870
:10C31000042001A91846FFF7BDFF052811D04FF0F2
:10C3200001090028DAD118463B689847D8E70198F8
:10C3300000F0C6F8D8F80030002BDDD001989847FF
:10C34000DAE703B0BDE8F0832B683288ADF804204B
:10C3500001A91846FFF79EFF0528BED1CDE700BF13
:10C36000643400204C3400205C3400206034002011
:10C37000024B1B780BB1FFF793BF70474B34002083
:10C3800011B111F0030F01D007207047F8B5134F1A
:10C39000134E144D32800C4613492B603C60FFF75E
:10C3A00075FF034600B1F8BD104A11490120107015
:10C3B00091F81623C2F34112824206D90D4A9068C1
:10C3C00030B94FF480030B60F8BD42F20200F8BDB3
:10C3D000116841F4800111601846F8BD5C340020FA
:10C3E0004C3400206834002099C207004B340020F0
:10C3F00000E100E050340020034618B1024A00205A
:10C40000136070470E20704764340020034618B153
:10C41000024A0020136070470E20704760340020ED
:10C4200008B5094B1B6833B1984700B908BDBDE892
:10C430000840FCF711BA054B1B78002BF6D0BDE87D
:10C440000840FFF72DBF00BF683400204B340020A8
:10C450000023D36030B4147B936063F300040125A0
:10C46000136053601361117250721473158000B120
:10C470009572002030BC704700B583B0054B019326
:10C4800002A9019B41F8083DFFF702FF03B05DF8E8
:10C4900004FB00BF002C002009B9FFF769BF08B5F5
:10C4A0000020FCF7D9F9BDE80840FFF761BF00BFE5
:10C4B00000210846014AFCF705BA00BF99C40700ED
:10C4C00058B910B5054C636833B10CCB00206260DD
:10C4D00098476368002BF8D110BD70476C3400207A
:10C4E0000A490B4A0B4B9B1A03DD043BC858D0503A
:10C4F000FBDC0849084A0020521A02DD043A885041
:10C50000FCDCFFF769FDFBF7A9FF0000D4C50700BD
:10C51000002C0020782C002078340020FEE7FEE775
:10C52000FEE7FEE7FEE7FEE7FEE7FEE7FEE7FEE7E3
:10C5300010B501390244904207D010F8013B11F8C0
:10C54000014FA342F7D0181B10BD002010BD10B53D
:10C55000431E0A44914204D011F8014B03F8014FE5
:10C56000F8E710BDF8B500BFF8BC08BC9E467047A0
:10C57000F8B500BFF8BC08BC9E46704743000000F9
:10C58000002C002000100200643000200106060686
:10C5900006060306020606050400000044667554FC
:10C5A0006172670001060606060603060206060615
:10C5B000040000001434002023D1BCEA5F78231566
:0CC5C000DEEF121200000000000000007E
:08C5CC0090BEFF7F010000009A
:10C5D4000000000000000000000000000000000057
:10C5E4000000000000000000000000000000000047
:10C5F4007CC50700000000000000000000000000EF
:10C604000000000000000000000000000000000026
:10C614000000000000000000000000000000000016
:10C624000000000000000000000000000000000006
:10C63400FFFF0000320000000090D00325840700B3
:08C64400018407000000000062
:020000020000FC
:020000041000EA
:041014000080070051
:0410180000E00700ED
:040000037000C4E1E4
:00000001FF
