:0200000270008C
:10800000807F0020A1C50700DDC50700DFC5070090
:10801000E1C50700E3C50700E5C507000000000053
:10802000000000000000000000000000E1870700E1
:10803000E9C5070000000000EBC50700EDC507001B
:10804000EFC50700EFC50700EFC50700EFC5070044
:10805000EFC50700EFC50700EFC50700EFC5070034
:10806000EFC50700EFC50700EFC50700EFC5070024
:10807000EFC50700EFC50700EFC50700EFC5070014
:10808000EFC50700318B0700EFC50700EFC50700FC
:10809000F58B0700EFC5070001C50700EFC5070016
:1080A000EFC50700EFC50700EFC50700EFC50700E4
:1080B000EFC50700EFC5070000000000000000004A
:1080C000EFC50700EFC50700EFC50700EFC50700C4
:1080D000EFC50700EFC50700EFC50700000000006F
:1080E0000000000000000000000000000000000090
:1080F0000000000000000000000000000000000080
:10810000000000000000000000000000000000006F
:10811000000000000000000000000000000000005F
:1084000010B5054C237833B9044B13B10448AFF3CE
:1084100000800123237010BD782C00200000000094
:1084200088C60700084B10B51BB108490848AFF3D0
:1084300000800848036803B910BD074B002BFBD030
:10844000BDE81040184700BF000000007C2C002051
:1084500088C60700742C002000000000154B002B7C
:1084600008BF134B9D46A3F5803A00218B460F466B
:108470001348144A121A00F065F80F4B002B00D075
:1084800098470E4B002B00D0984700200021040095
:108490000D000D48002802D00C48AFF3008000F01A
:1084A0002BF82000290000F0B9F800F011F800BF07
:1084B00000000800807F0020000000000000000095
:1084C000782C00208834002000000000000000000C
:1084D00008B5074B044613B10021AFF30080054BEC
:1084E0001868836A03B19847204600F033F800BF4C
:1084F0000000000040C6070070B50E4B0E4CE41A99
:10850000A41000251E46A54204D056F825309847F1
:108510000135F8E704F086F8084C094BE41AA4107A
:1085200000251E46A54204D056F82530984701354F
:10853000F8E770BD6C2C00206C2C0020702C002003
:108540006C2C002002440346934202D003F8011B26
:10855000FAE77047FEE700BF13DF704718DF704788
:1085600000B58BB00023022202930393049301927F
:1085700098BB4FF4F020FFF7EFFF58BB1B4A1C4B92
:108580001068009048221B49684603F069FFF0B963
:10859000012105AA084603F0CBFFA8B99DF82030B9
:1085A00005A843F001038DF8203003F0D5FF40B952
:1085B000114803F09BFF08B100F04EF90BB05DF8D5
:1085C00004FB00F049F9F3E700F046F9E6E700F0B4
:1085D00043F9DDE700F040F9D0E701A8FFF7BEFF5F
:1085E0000028C6D000F038F9C3E700BF44C6070032
:1085F00091C50700AC2F0020FD85070002F014BDD7
:1086000008B5054A1421082000F036F900B908BD64
:10861000BDE8084000F020B95C2E002070B54FF096
:1086200080430320D3F81C45B12C04BF0022C3F8BB
:108630001C25484A12684FF0A0430CBF01260026B3
:108640004FF40021B2F5F02FC3F84C07C3F80C1516
:1086500002D0002000F000F94FF080531B69B3F501
:10866000805F02D0002000F0F7F83B4B3B4A052129
:10867000002000F05BFD002869D14FF0A045384B89
:10868000C5F8343700F0D4FF01F030F8002855D099
:108690004FF40023C5F80C3501F03EF808B100F0A6
:1086A000DBF8B4F1B10018BF0120FFF759FFFFF765
:1086B000A7FF01F051F808B100F0CEF84FF0A04349
:1086C0004FF40022C3F808254FF0A043D3F810352B
:1086D0009B0406D52EB943F20803186800F0C6FEC5
:1086E00070B94FF0A0434FF40022C3F80C2500F0FE
:1086F000B7FFC0B94FF0A0434FF40022C3F80825DC
:1087000043F20804206800F0B1FE78B9BFF34F8F40
:108710001449154BCA6802F4E0621343CB60BFF3FF
:108720004F8F00BFFDE700F097F8E3E700F0DEFFB2
:108730000028EBD1206800F0B3FFE7E7B4F1B10007
:1087400018BF0120FFF70CFFFFF75AFFBCE700F04E
:1087500083F892E714100010A1930700942C0020D6
:108760000C00030000ED00E00400FA05F8B510B1BC
:1087700001230B60F8BD0C680D46CCB1174EB44216
:108780000DD0331B3B2B15D804F13C0306F13D0201
:10879000013C13F8010902F8010D9C42F9D10022B5
:1087A0003C210E4801F062F80023B0872B60F8BD31
:1087B0000E23FBE704F1300CB64620686168A2681E
:1087C000E36877460FC710346445BE46F5D120688C
:1087D0006168A268AEE80700E1E700BF807F002083
:1087E0006FF00203064A9E4502D1EFF3098101E0D2
:1087F000EFF308818869A0F102000078104700BFFC
:108800006D87070068B1F8B5124D0446002228466E
:108810003C2101F02BF8AB8F8342064603D00B209E
:10882000F8BD0E207047AE4605F1300C77460FCFED
:10883000674520606160A260E360BE4604F11004F9
:10884000F4D1BEE80700013620606160A260AE8707
:108850000020F8BD807F002000B585B00023039084
:10886000194601AA44F20100ADF804300293AFF3B7
:10887000008005B05DF804FB12F0030301D007206F
:108880007047F0B4094D0A4F2B700A4D3A604C1CEA
:108890002B70094F094D0A4E3880E400A4B22244DF
:1088A000298032601846F0BC704700BFFF2F0020BF
:1088B000F42F0020FE2F0020FC2F0020003000208D
:1088C000F82F00202DE9F041284D2B888B4282B0F3
:1088D00003D2092002B0BDE8F081064602A84FF09D
:1088E000000800F8018D17460C4600F067FD204B8C
:1088F000204A2148197813780088DBB2834238BFB8
:108900000133C9B238BF5FFA83F841451CD092F8F1
:1089100000801378DBB283423ABF0133DBB200231D
:108920009DF80700137000F071FD144A5FFA88F893
:108930000FFA88F3126842F8337002EBC30706B1EE
:1089400044B90020B880C5E79DF8070000F05EFD3F
:108950000420BFE70A4B28881B68314608FB00301B
:10896000224603F054FEBC800020B3E7FC2F002019
:10897000FE2F0020FF2F002000300020F42F0020C9
:10898000F82F00202DE9F843164C174D23782A784C
:108990009A4225D0154FDFF85C90DFF85C80144ECA
:1089A000207823783A88D9F80010B6F800E0DBB2D6
:1089B0009A4203F101038CBFDBB20023C0B22370E3
:1089C00003B2D8F8002001EBC30C00FB0E2051F8D5
:1089D0003330BCF80410984722782B789A42DFD1C4
:1089E000BDE8F883FE2F0020FF2F0020003000207C
:1089F000FC2F0020F42F0020F82F0020484B49487E
:108A000030B401214FF480344FF400352F22C0F8E8
:108A10008050C3F848431046C3F8084359600138F2
:108A200000BF00BF00BF00BF00BF00BF00BF00BF4E
:108A300000BF00BF00BF00BF00BF00BF00BF00BF3E
:108A400000BF00BF00BF00BF00BF00BF00BF00BF2E
:108A500000BF00BF00BF00BF00BF00BF00BF00BF1E
:108A600000BF00BF00BF00BF00BF00BF00BF00BF0E
:108A700000BF00BF00BF00BF00BF00BF00BF00BFFE
:108A800000BF00BF00BF00BF00BF00BF00BF00BFEE
:108A900000BF00BFC3D1244C99600023104623605F
:108AA000013800BF00BF00BF00BF00BF00BF00BF54
:108AB00000BF00BF00BF00BF00BF00BF00BF00BFBE
:108AC00000BF00BF00BF00BF00BF00BF00BF00BFAE
:108AD00000BF00BF00BF00BF00BF00BF00BF00BF9E
:108AE00000BF00BF00BF00BF00BF00BF00BF00BF8E
:108AF00000BF00BF00BF00BF00BF00BF00BF00BF7E
:108B000000BF00BF00BF00BF00BF00BF00BF00BF6D
:108B100000BF00BF00BFC3D1044A137030BC704710
:108B20000010014000E100E004300020243000206B
:108B30002DE9F843274A284B0025C2F84051C2F8D6
:108B40004451C2F84851C2F84C51C2F80051C2F821
:108B500004511B681BB32149D2F804250C68204F2F
:108B6000141B1A6824F07F44A242A84609D8197C35
:108B7000DE69A41A1544A1B91EB133461A68A2428F
:108B8000F5D9184B18491A780B789A421BD0174917
:108B9000174A41F823504FF48013C2F80031BDE862
:108BA000F883D3F8149083F810803A689B6948469C
:108BB00019462AB190470028DED0FFF74DFEDBE7CB
:108BC0001846C847D8E7531CDBB2022B08BF002366
:108BD0000B70DCE70010014008300020043000205A
:108BE0000C30002018300020193000201C300020EC
:108BF00000E100E02DE9F04FAB4AAC491378097869
:108C0000AB488BB000680590994200F02081013399
:108C1000DBB2022B08BF00231370A64A52F823C010
:108C2000059BA34A634423F07F4313600123019310
:108C3000A14BA24A1B7802931946A14B12681B68EC
:108C40000493A04B09921B7808938846984B08F12F
:108C5000FF385FFA88F84FF0000E1B680693B8F1F2
:108C6000FF0F1046F346CDF81CE0754638D0049C43
:108C70000FFA88F104EBC1060346184614F83110C8
:108C800096F801A0134602465145104620D001EB4C
:108C90004104706896F8029010F834700131C9B23E
:108CA000894508BF0021022F00EBC40000F0978027
:108CB000032FE9D1002AE7D0D36915741A46002B97
:108CC000FAD196F801A051454FF0010E1046DED1C1
:108CD00008F1FF385FFA88F8B8F1FF0F1A46C6D1DD
:108CE000079B0390002B40F0B780BBF1000F02D030
:108CF0006F4B06991960BEF1000F01D06F4B1A60DF
:108D0000019B002B40F00F81099A0399521A18BF5A
:108D1000012205921D46664BDFF8B081D3F800E0D2
:108D2000664BD3F80090674B4FF0000B1B7806930F
:108D30005F464FF0010C029B013BDBB2FF2B02931D
:108D400000F0E1801A46049B0E4603EBC20A45B3CD
:108D50006A68A9682B46ED69CEEB020020F07F40DF
:108D600040457ED8014419605F609F6083F810C061
:108D7000DF61002E00F0C1803068884280F08B8077
:108D8000344603E01068884274D21446E269091A36
:108D9000002AF7D1DA6119603246E3611646002DE8
:108DA000D6D19AF800309AF801209A423146C2D0C2
:108DB0005A1C9AF80240DAF80410D2B203EB4303CB
:108DC00094428AF8002008BF8AF8005001EBC300E3
:108DD00011F83330012B7BD032461646DFE7476867
:108DE000002A3FF451AF974215D0144600E00446E4
:108DF000E06900283FF448AF8742F8D1A0420CD088
:108E0000C7690068E76197B13A6802443A6096F82A
:108E100001A01A4638E710461446D36953B1C76912
:108E20000068E7611A464FF0010E002FECD196F86A
:108E300001A029E7244A4FF0010BC2F808B0DE4632
:108E40001A460693CDF81CB0CDF820B0D8E74FF005
:108E5000000CCDF804C0EBE61A4B9DF820101970F9
:108E600043E7C2EB0E0222F07F428A4209D2891AFE
:108E7000196079E7401A1060DA6119603246E361DF
:108E80008CE71F605F609F6083F810C0DF61002E79
:108E900033D030680021411A1A4631609946DE61AC
:108EA0004FF0010B16467AE71830002019300020E9
:108EB000043000201C30002010300020083000203A
:108EC000143000201A30002000100140FEFF7F0007
:108ED00043681A7C0192002A7FF47EAF82685A6050
:108EE000C16899600469DC6040699861069800284F
:108EF0003FF432AF019A5A602EE71A4699464FF076
:108F0000010B16464BE7BBF1000F40F0A380039B1B
:108F1000994231D1059B002B2ED17E4A002313703C
:108F20000BB0BDE8F08F7C49039B08680022154612
:108F300014461646BBB11968614500F2DF80D86857
:108F40001E60C1EB0C0C0C44D96938B1059ADD6187
:108F5000224422F07F4298605A601D460B46084624
:108F6000019A002BE7D10AB16B4B186000230393E1
:108F7000012305930399CEE6002900F0BC80674CDD
:108F8000674BD4F804551B68664ED1F800E0317881
:108F9000EA1A22F07F42033200295FD096452CBFA7
:108FA00003EB0E029A185D4922F07F43C1F8403569
:108FB000D1F80425521B5B1B22F07F4223F07F4334
:108FC00003329A42A9D9D1F80435C1F840352F208F
:108FD000013800BF00BF00BF00BF00BF00BF00BF1F
:108FE00000BF00BF00BF00BF00BF00BF00BF00BF89
:108FF00000BF00BF00BF00BF00BF00BF00BF00BF79
:1090000000BF00BF00BF00BF00BF00BF00BF00BF68
:1090100000BF00BF00BF00BF00BF00BF00BF00BF58
:1090200000BF00BF00BF00BF00BF00BF00BF00BF48
:1090300000BF00BF00BF00BF00BF00BF00BF00BF38
:1090400000BF00BF00BFC3D1374B4FF40032C3F89D
:10905000002162E7304BC3F8009058E732484FF4E4
:109060008031C4F844134FF40037C4F804130121CD
:10907000C0F8807107602F202160013800BF00BF59
:1090800000BF00BF00BF00BF00BF00BF00BF00BFE8
:1090900000BF00BF00BF00BF00BF00BF00BF00BFD8
:1090A00000BF00BF00BF00BF00BF00BF00BF00BFC8
:1090B00000BF00BF00BF00BF00BF00BF00BF00BFB8
:1090C00000BF00BF00BF00BF00BF00BF00BF00BFA8
:1090D00000BF00BF00BF00BF00BF00BF00BF00BF98
:1090E00000BF00BF00BF00BF00BF00BF00BF00BF88
:1090F000C3D1317052E7FFF781FC0EE70AB1064A8F
:109100001060CCEB010119600393012305930399CF
:1091100001E600BF1A300020083000200010014096
:10912000043000202430002000E100E02DE9F0416F
:1091300012F0030502D00720BDE8F081002A3DD0DF
:109140000E46144698460746FFF758FC06EB4603C2
:1091500004F11801DB00CA181344A670A672A674A5
:109160006361194E194B1A4861601A49E260C6F8EA
:10917000008005601C60184A184BDFF86CE0184E40
:109180002570032008704FF48010C021657025728F
:109190006572257465748EF800503570114CC3F8F3
:1091A000800183F814131860C2F8087583F811134E
:1091B000D2F8043523602846BDE8F081034B1A60DD
:1091C0000720BDE8F08100BF0C30002014300020E3
:1091D00008300020103000200010014000E100E0C5
:1091E000193000200430002018300020074B1B6885
:1091F00023B12AB120B10368187C18B10820704748
:109200000720704759745A61704700BF143000201E
:10921000304B1B6823B118B1042903D807207047CD
:1092200008207047F0B54469002C4DD0447C012CD7
:109230000CBF0E460026EFF30584C4F3080494B176
:10924000103C65B2002D38DB05F1604404F5614443
:1092500094F800436409E4B2022C39D0062C0CBF08
:109260000824102400E0102423445C7893F802E0E2
:109270001F78651CEDB2AE4508BF0025AF4225D072
:1092800004EB4404D3F804E0E4001EEB04071DD013
:109290004FF0010C0EF804C0DFF844E078600E4C8B
:1092A000DEF80405B8604FF4801EF9603E617A6113
:1092B0005D70C4F800E10020F0BD084D04F00F041B
:1092C00025442C7E6409C6E70820F0BD0420F0BDCB
:1092D0000024C9E71430002000E100E0FCEC00E0CD
:1092E00000100140254B1B6843B338B342692AB3D1
:1092F0000022F0B40274EFF30582C2F30802FAB957
:10930000102213445A789D781C78511CC9B28D42A2
:1093100008BF00218C4226D002EB42025C68D200DA
:10932000A71820D0164D0226A6544FF4801278605C
:1093300059700020C5F80021F0BC70470820704724
:10934000103A51B2002912DB01F1604202F561428C
:1093500092F800235209D2B2022A06D0062A0CBF84
:1093600008221022CDE70420E6E70022C9E70549DC
:1093700002F00F0211440A7E5209ECE7143000207B
:1093800000E100E0FCEC00E0082910B5044602D042
:109390000020FFF761FA23686068BDE810401847B5
:1093A00000B583B08DE80300034A08216846FFF743
:1093B00089FA03B05DF804FB89930700F0B4EFF37A
:1093C000108472B60E4B9A68B2B90E4901259D60A1
:1093D000D1F880700C4D2E463D401D60C1F8806074
:1093E000D1F884505D604FF0FF33C1F884300270D3
:1093F00004B962B6F0BC704701230370F8E700BF00
:109400006C34002000E100E0FC06FFBC094B9A68C8
:1094100072B168B910B4EFF3108272B606491C68D5
:109420000C605C684C60986002B962B65DF8044BF1
:10943000704700BF6C34002000E100E048DF704757
:1094400011DF704713DF7047074B1878012801D0F0
:1094500032B97047012904BF02211970002AF8D0DF
:109460001046FFF7F9B900BF25300020036801332B
:1094700016D000B583B001A800F0D4F9019B1A788A
:10948000012A03D0002003B05DF804FB588848B9D6
:109490000346C01AB0FA80F0400903B05DF804FB3F
:1094A0000020704743F2080299681068002200F01B
:1094B000DDF9019B5B88ECE784B02DE9F04182B0D7
:1094C00008AC84E80F009DF82040BDF82260DDF86C
:1094D00024800A9F0B9D01A800F0A4F9A4B1012CDF
:1094E0004BD0032C66D0022C2BD0052C7AD0042C28
:1094F00000F08880062C02D14A4B04221A7002B078
:10950000BDE8F04104B07047474B464C5E800122F5
:10951000FF2646489D601C211E711A70227001F0C2
:10952000B9FE38BB00231C223F49404801F080FEB1
:109530000028E4D0FFF790F902B0BDE8F04104B094
:109540007047019A384B1178A52952D050889268FB
:10955000197058809A60334D344800220126FF2448
:109560001C212E701C71DA601A615A6101F092FEA2
:109570000028D7D0FFF770F9D4E72B4BDFF8A4E031
:109580005E8008EB07022A444FF0A50C9A60FF2684
:109590000C9A2648C3F80C801C211F615D6183F87A
:1095A00000C01E719A618EF8004001F073FE002821
:1095B000B8D0DFE7019A1C4B167850889168194C97
:1095C0001E705880AA26012299601848C3F80C80A2
:1095D0001C211F615D611E71227001F05BFE00287D
:1095E000A0D0C7E701F0B4FB48B90E4B03221A70B4
:1095F00085E70022FF2119705A809A60ABE7FFF7D8
:109600002BF9F2E7084B019C08480022FF219A60E1
:10961000247919701C215A801C7101F03BFE00282E
:1096200080D0A7E7253000203030002028300020EF
:1096300000B583B00022084B0192009301F06CFD4D
:1096400038B9064B4FF4FE22684619465A6001F0BD
:10965000DBFD03B05DF804FB4994070028300020CF
:1096600038B500F081FA00B138BD01F0ADFA0B4D0C
:10967000044605E0FFF786F92B78023B022B0BD955
:10968000FFF7DCFE0028F5D0FFF7E6F8FFF77AF9E0
:109690002B78023B022BF3D8204638BD2530002022
:1096A00010B5FFF7CDFEE0B90F4C20680023012173
:1096B00001FA03F2024203F1010318BFC4F880204B
:1096C000202BF5D143F208031868FFF7BBFE08B161
:1096D000FFF7C2F843F20803BDE81040186800F035
:1096E000A7B8FFF7B9F8DFE700E100E000B583B005
:1096F00001A800F097F8019B1A78A52A08D01879DC
:10970000A0F1AA00B0FA80F0400903B05DF804FBB4
:10971000012003B05DF804FB10B500F015FD10B991
:1097200000F0ECFCB8B1642001F0F6FB00F026FC80
:1097300070B900F009FD40B900F0BCFC044600B966
:1097400010BDFFF789F8204610BDFFF785F8F3E755
:10975000FFF782F8EDE710BD70B582B001A800F008
:1097600061F8019B1F4D1A78A52A34D059889B684F
:109770002A706980AB601C4C1C4800230126FF2224
:109780001C2126702A71EB602B616B6101F082FD58
:10979000F0B900231C221349144801F049FD40B1DF
:1097A000FFF75AF805E0FFF7EDF82378023B022BAC
:1097B0000BD9FFF743FE0028F5D0FFF74DF8FFF770
:1097C000E1F82378023B022BF3D8002002B070BDF1
:1097D000FFF742F8DDE70023FF222A706B80AB60C1
:1097E000C9E700BF3030002025300020283000209D
:1097F00010B582B0044601A800F014F8019B1A7855
:1098000022705A8862809A68A2601A792271DA6896
:10981000E2601A6922615A6962619B69A36102B0C0
:1098200010BD00BF014B0360704700BF00F0070090
:10983000F0B40346186880F308885868FF2464B2BF
:10984000EFF30585002D01D1A646004725460646C3
:1098500021273FBAF0B40024002500260027F0B4E9
:10986000F92040B2004700BFF0BC7047B2B1138886
:1098700091B1014410F8012B5BBA9BB25340C3F382
:109880000312534083EA03331AB2530103F4FF5324
:10989000534088429BB2EDD1184670474FF6FF7394
:1098A000E6E700BF18DF7047704700BF30B50129F9
:1098B00083B0144620D0032902D0BCB903B030BD18
:1098C000144D2A78022AF8D1134A52688DE80A000A
:1098D0009047124A009929701568002DEDD0019B20
:1098E00008461A462146A847002CE7D0204603B078
:1098F000BDE83040FEF7B0BF064A1278052ADCD139
:10990000064A1568002DD8D01A4621460420A847DB
:10991000D3E700BF543000209C3000204C300020A2
:1099200030B589B00523079A8DF80C30009203AB4F
:10993000034C0FCB01252570FFF7BEFD09B030BDEC
:109940006030002010B50B4B0B4A181D148807C857
:1099500088B003230692079A8DF80C30ADF80E40BC
:1099600004900591009203AB0FCBFFF7A5FD0020FB
:1099700008B010BD8C3000205230002000B50D4BD7
:109980000D4A89B00121181D8DF80C101288ADF810
:109990000E200BC843F2080212680092069304904E
:1099A000059103AB0FCBFFF787FD002009B05DF8F1
:1099B00004FB00BF8C3000205230002010B588B06E
:1099C0000022042103920492059206928DF80C1055
:1099D00003AB14460FCB0094FFF76EFD08B010BD2B
:1099E00008B50D4B0D4A0E481860022143F20803DA
:1099F00011701968494221F4FF5121F01F0101F54E
:109A0000F021490801F4704101F044FC00B908BD9F
:109A1000BDE80840FEF720BF283100205430002068
:109A20006430002008B5084A08490948094B10600D
:109A3000098802221A7001F02DFC00B908BDBDE8AA
:109A40000840FEF709BF00BF283100203031002058
:109A5000583000205430002030B5134C1348A189F1
:109A600089B001F017FCE0B9114BA28959680F4881
:109A70000D4D002301F0DCFB044678B90D4BEA687C
:109A80001B88039003AD0490059000900692ADF8FA
:109A90000E3095E80F002C61FFF70EFD204609B04F
:109AA00030BDFEF7D9FEDFE78C30002058300020B3
:109AB00064300020523000202DE9F04385B0054687
:109AC0009608684603220195029103960092FFF7DB
:109AD000E9FE00283AD0B1F5805F0C462DD9C3EBE2
:109AE0000508CF1A4FEA930968468DE804010297EA
:109AF000CDF80C90FFF7D6FEF8B1B7F5805F06D928
:109B00001A46F91AC3EB0800FFF7D6FFF0B9012394
:109B10006846CDF804800297CDF80C900093FFF7CB
:109B2000C1FE98B903236846CDF804800297CDF8AA
:109B30000C900093FFF7B6FE40B9012368460195EB
:109B4000029403960093FFF7ADFE10B105B0BDE897
:109B5000F083032368460195029403960093FFF770
:109B6000A1FE05B0BDE8F08370B5214D214B224A1E
:109B7000224982B000240091684629461C80019445
:109B8000147001F041FB034618B11D4A147002B075
:109B900070BD43F208021B4E1168696095E803002E
:109BA00086E8030015681848184A694221F4FF51F5
:109BB00021F01F0101F5F02405EB540419467460EF
:109BC000FFF714FB70B900224FF470111048FFF733
:109BD0001FFB50B90F490A4B0020012208601A7080
:109BE00002B070BDFEF738FEEDE7FEF735FEF1E797
:109BF000583000205230002050300020AD9807002F
:109C0000543000206430002048C607002199070026
:109C10006C3000202C310020014B1860704700BFD1
:109C20004C300020F8B54368334C0FCB84E80F006C
:109C300023785F0704D59E0702D006242046F8BD8E
:109C400062682D499507F8D188688407F5D1C968FD
:109C500011F00304F1D10244284D0A44B0F5E04F5D
:109C60002A6001D90C24E9E7D90712D543F2080389
:109C70001B68C3F5F0239A42F4D8214E2149224AA9
:109C8000224B86E80E00224B1B78012B19D00824AA
:109C9000D4E743F208010968494221F4FF5121F059
:109CA0001F0101F5F021B2EB510FDBD89B07144ED9
:109CB0001849194A4CBF194B194BB36086E8060086
:109CC000E1E7184B1B78002BE1D11748FFF70AFB9F
:109CD00008B1FEF7C1FD00224FF470111248FFF7E2
:109CE00097FA074618B9336828689847A6E7FEF739
:109CF000B3FD3C46A2E700BF8C300020303100208D
:109D00009C300020259A0700BD9907007D99070027
:109D100054300020E1990700A998070045990700F1
:109D2000599A0700603000206C300020C8B1836869
:109D30009B0701D010207047244B1B78052B12D1B4
:109D40002DE9F041224D4368224F2A6839689E0070
:109D500032448A4209D94FF0FF332B600C20BDE812
:109D6000F0810E207047082070471B4B1B7813B101
:109D70000820BDE8F08104461848FFF7B3FA08BB95
:109D800000224FF470111548FFF742FA8046A0B93F
:109D9000134AA16810682B880D4CB2B201F048FA42
:109DA00048B92368386833442360834214BF0920CC
:109DB0000020BDE8F081BDE8F081FEF74DFD404692
:109DC000BDE8F081FEF748FDDAE700BF543000201F
:109DD0002C31002030310020603000206C30002019
:109DE0002831002070B50B4B1C6814B108242046A4
:109DF00070BD094D2B78042BF8D1084E08483178F6
:109E000000F026FA10B134700446F0E705232B70F9
:109E1000EDE700BF2C3100205430002050300020EE
:109E2000A8300020F8B51C4A1378032B04D0042B6B
:109E300004D008242046F8BD04231370174B1C6877
:109E4000002CF6D1164B1B78002BF2D10546154895
:109E5000FFF748FAA8B900224FF470111148FFF734
:109E6000D7F9064648B9104E6A68337892009F18B1
:109E7000802F09D909242046F8BDFEF7EDFC3446B1
:109E8000D8E7FEF7E9FCE6E70848A968184402F0BD
:109E9000BEFB3770CEE700BF543000202C310020CD
:109EA000603000206C30002050300020A8300020AE
:109EB00070B5184C2378052B02D00825284670BDB4
:109EC000154B164E1A6833689A42F6D1144B1B781C
:109ED00006222270002BF0D11248FFF703FAB0B926
:109EE00000224FF470110F48FFF792F9054658B958
:109EF0000D4B31681B68586800F0F0F905460028E2
:109F0000DCD107232370D9E7FEF7A6FCD6E7FEF7DE
:109F1000A3FCE5E7543000202C3100203031002034
:109F2000603000206C30002028310020094B1B7865
:109F3000072B01D00820704710B50748FFF7D2F96A
:109F400020B9064BBDE810409B681847FEF784FC1B
:109F5000F7E700BF543000206C3000209C30002018
:109F600000B589B00623079A8DF80C30009203AB38
:109F70000FCBFFF7A1FA09B05DF804FB2DE9F0471C
:109F80008CB005A8FFF734FC089A002A7FD00B9DFF
:109F900002F58053AB427ED943F20803A5F5805801
:109FA00019688A424FEA580301AF16D903F5805465
:109FB000012138460294039401910491FFF772FC49
:109FC000002865D14FF480543846019104910294E1
:109FD0000394FFF767FC00285AD15E0054193544FA
:109FE000641BA40806F580560322384604940295A3
:109FF00003960192FFF756FC002848D0B6F5805F23
:10A0000033D94FEAD808C3EB050AC3EB0609384633
:10A01000CDF810800192CDF808A0CDF80C90FFF794
:10A0200041FC10B3B9F5805F07D91A46C3EB0901AB
:10A03000C3EB0A00FFF740FD50BB01233846CDF8C3
:10A0400008A0CDF80C90CDF810800193FFF72AFC02
:10A05000F0B903233846CDF808A0CDF80C90CDF820
:10A0600010800193FFF71EFC90B90123384602953A
:10A07000039604940193FFF715FC48B9032338466F
:10A080000295039604940193FFF70CFC00E0002076
:10A090000CB0BDE8F087920801214FF4805301A86D
:10A0A0000492029501910393FFF7FCFB0CB0BDE80D
:10A0B000F08700BF00B58DB005A8FFF799FB0998A0
:10A0C00058B1089A62B10B9B1A448308002101A879
:10A0D000039302920191FFF7E5FB0DB05DF804FBDD
:10A0E00043F208031B685A4222F4FF5222F01F0277
:10A0F00002F5F02203EB5202E7E700BF10B58CB087
:10A1000005A8FFF775FB099870B1089A72B10B9B0F
:10A110001A44830803244FF4F02101A80493039206
:10A1200001940291FFF7BEFB0CB010BD43F208038F
:10A130001B685A4222F4FF5222F01F0202F5F0225D
:10A1400003EB5202E5E700BF2DE9F0438DB005A80F
:10A15000FFF74EFB089A02B30B9902F580538B422E
:10A160001FD943F208031B689A4203D90E200DB091
:10A17000BDE8F083A1F580577B085E008D19541867
:10A18000641BA40806F58056032201A804940295D6
:10A1900003960192FFF786FB88B900200DB0BDE859
:10A1A000F08392084FF48053032401A80492039192
:10A1B00001940293FFF776FB0DB0BDE8F083B6F58E
:10A1C000805F32D9FF08C3EB0509C3EB060801A87D
:10A1D00004970192CDF80890CDF80C80FFF762FB50
:10A1E00018B3B8F5805F08D91A46C3EB0801C3EB72
:10A1F0000900FFF761FC0028B9D1012301A8CDF8BF
:10A200000890CDF80C8004970193FFF74BFB0028D2
:10A21000ADD1032301A8CDF80890CDF80C800497A8
:10A220000193FFF73FFB0028A1D1012301A802956C
:10A23000039604940193FFF735FB002897D103237D
:10A2400001A80295039604940193FFF72BFB8EE778
:10A250000B2901D80920704770B5048900EB44042C
:10A260000A34021B0A44D2B2012A02D943189C4282
:10A2700001D9092070BD05462146164802F0C7F9EC
:10A28000154B1B884FF6FF72934204D02A889A42DE
:10A2900001D00B2070BD104B5B884FF6FF729342CC
:10A2A00002D06A889A42F4D12846002330F8084F39
:10A2B0004FF6FE7543F20C0602E031888A4207D061
:10A2C000A34203F10103E4D030F8022FAA42F4D1F3
:10A2D000002070BD343100208010001008B500222D
:10A2E000FFF7C4FA044A5178137843EA01239842ED
:10A2F00014BF0B20002008BD3431002070DF7047F0
:10A3000071DF704773DF704774DF704776DF704727
:10A310007ADF70477CDF70477FDF704786DF7047EA
:10A32000A7DF7047A8DF7047A9DF7047AADF704733
:10A3300067DF7047FEF790BA0C2908B596BF064B49
:10A3400006225A5C032101F0ABFD00B908BDBDE84F
:10A350000840FEF781BA00BF64C6070000B50328B5
:10A3600083B00FD004280AD1E9B11A4B18884FF6F0
:10A37000FF73984203D01321FFF7C8FF70B903B0F1
:10A380005DF804FB0C2998BF134B144894BF5A5C2A
:10A390000622012101F084FD0028F0D003B05DF811
:10A3A00004EBFEF759BA1046019200F045FD019A00
:10A3B00058B90B4B1B689A42E1D10122032107488F
:10A3C00001F06EFD0028DAD0E8E7FEF745FA019AC1
:10A3D000EFE700BF602C002064C60700503100206A
:10A3E00040310020FEF738BA2DE9F0415A4B5B4C62
:10A3F0001E7800259AB025606560A560E56025613E
:10A400006561002E7FD0564E049506F10708404640
:10A4100004A9102205950695079502F0E9F8514B1D
:10A420000746002842D09B79029602AA01A901267C
:10A430008DF80E30089241F2305338220A910CA860
:10A440002946ADF80C30CDF804808DF824608DF8E5
:10A450002C60FEF777F829460422022503AB0CA8EE
:10A46000ADF838608DF830508DF833200F9301F03F
:10A4700061FA08B1FEF7F0F90023022008A92822AA
:10A48000237063822072E16022823448FFF73AFF32
:10A49000002835D14FF0A041334B4FF4003001225A
:10A4A000C1F80C051A701AB0BDE8F0819B798DF8DF
:10A4B0002230394641F2305338220CA8ADF8203012
:10A4C0000525FEF73FF839460122022708AB0CA804
:10A4D0008DF830708DF83350ADF838200F9301F0BF
:10A4E00029FA08B1FEF7B8F9002301221B4866607B
:10A4F0002270237223826382FFF704FF0028C9D0F1
:10A50000FEF7AAF9C6E7174B9B798DF82230314642
:10A5100041F2305338220CA8ADF820300625FEF762
:10A5200011F831460122022608AB0CA88DF83060E4
:10A530008DF83350ADF838200F9301F0FBF938B99E
:10A5400000232822237063602372638222829CE7A7
:10A55000FEF782F9F4E700BF3E310020CC31002045
:10A5600088310020503100203F31002070B5044672
:10A57000B0B001F0E1FA2146964801F0BFFC238813
:10A58000023B532B67D8DFE813F0830066006600B8
:10A59000660066006600660066006600660066008B
:10A5A0006600660066008B009D006600C000030127
:10A5B000660066006600660066005400E8006600FB
:10A5C000660066006600660066006600660066005B
:10A5D000660066006600660066006600660066004B
:10A5E000660066006600660066006600660066003B
:10A5F000660066006600660066006600660066002B
:10A60000660066006600660066006600660066001A
:10A61000660066006600660066006600660066000A
:10A62000660066006600660068005400660066000A
:10A630001501694B1C884FF6FF75AC4200F005818F
:10A64000664B1B78002B40F0D58020461A461946F1
:10A65000FFF76AFEC0B930B070BDA379002BFAD005
:10A66000A27B043A022AF6D8022B5B4A18BF0123C8
:10A670008DF8403010884FF4C17310A9ADF8443004
:10A68000FFF750FE0028E6D0FEF7E6F830B070BDC8
:10A69000514B00211888FFF74BFE0028DBD0F3E771
:10A6A0004FF0A0434FF480224FF40031C3F80C2543
:10A6B000C3F80815484A4A4BA188118000221A7035
:10A6C00030B070BD30AA8023464822F89C3D4FF040
:10A6D000A0434FF4802132253F4C0560C3F8081594
:10A6E0002088012310A9FFF721FE002840F0AF8049
:10A6F0003D4B1B7823B93A4B1B78002B00F0A2800E
:10A700004FF6FF73238030B070BD384C324E94E862
:10A7100003002346079053F8070FADF820100D0CE7
:10A720009A685968DB688DF82250183403AD0FC55C
:10A730000FCC09AD0FC594E8070003AB85E807000F
:10A7400009AC159330882A4A149410AB8521FFF781
:10A75000E3FD00283FF47FAF96E7237A002B7FF4D8
:10A760007AAF204A1E4914680B70013C1460002C1B
:10A770002DD110AD052310940094119412941394CC
:10A780008DF8403095E80F002C61FEF795FE62E7EA
:10A79000164A258A518DA08802F118038D420CBFFC
:10A7A0001946002107320023FFF7B8FD00283FF4C7
:10A7B00052AF69E7A379002B7FF44DAF064B13210D
:10A7C0001888FFF7A3FD00283FF445AF5CE7FFF7CB
:10A7D0000BFE40E750310020602C00203E3100206D
:10A7E0003F310020642C0020E4310020883100201B
:10A7F000803100200123082216492046FFF794FDEE
:10A8000000287FF441AF0246014602232046FFF7AD
:10A810008BFD00287FF438AF2A4620460C21FFF735
:10A820007FFD43F2020398423FF415AF08283FF43E
:10A8300012AF43F2040398423FF40DAF00283FF4F7
:10A840000AAF21E7FFF7D0FD5AE708201CE7FEF723
:10A8500003F84DE7BC310020F0B50B7889B00C4609
:10A860000546092B20D8DFE803F02A32474B5971FF
:10A870008E889721092840F08F819E4A9E48136850
:10A88000217A00781944116070B19C4C2388013BF7
:10A890009BB2238043B9284601F0CEFA002840F04D
:10A8A0008981974B1B88238009B0F0BD914B1968B3
:10A8B00001F08CFA0028F7D0FDF7CEFFF4E74968E5
:10A8C000904A914B0978117001221A70ECE74B689D
:10A8D0008D4A1B780221012B1170E5D1FFF782FA16
:10A8E0000C2800F2DE80894B1A5C2846022101F018
:10A8F000D7FA0028D8D0DFE7834B03221A70D3E7BA
:10A90000FFF7D6FA0C2896BF814B06221A5C042169
:10A91000284601F0C5FA0028C6D0CDE77D4B7E4A17
:10A9200018884FF6FF7301219842117069D01321E6
:10A93000FFF7ECFC002861D101F0F8F808B1FDF751
:10A940008BFFFFF7F3FA0028AED012E0714B724A8A
:10A9500018884FF6FF7301219842117063D01321BC
:10A96000FFF7D4FC002846D101F0E0F808B1FDF76C
:10A9700073FFFFF7F5FA09B0F0BD5F49604A0023A5
:10A980000B70138090E75E49A3885C485A4A0B809D
:10A9900001210380117087E75B4B1978022954D09D
:10A9A00003291DD001297FF47FAF564B267A1A78F0
:10A9B0006468002304A804930C2E8DF810204FF037
:10A9C000030205930693079302900393019200F00C
:10A9D000AD80284601F064FA00283FF465AF6BE7CC
:10A9E000207A83075FD028460A4601F059FA0028EA
:10A9F0003FF45AAF60E7FDF72FFFB5E7FDF72CFFF7
:10AA00009AE7464C2378002B96D0FFF77DFC002870
:10AA100040F0A5804FF0A0424FF400310023C2F86F
:10AA20000815237088E73D4C2378002B9CD0FFF756
:10AA30006BFC002840F096804FF0A0424FF40031AC
:10AA40000023C2F8081523708EE7237A13F003025F
:10AA500016D06068C2F104070026591C012FC654A5
:10AA6000C9B208D060684654032F03F10203DBB279
:10AA700004BF6068C654C2F103028B18DBB22372B4
:10AA8000626806929B08012204A805930492FFF7CE
:10AA9000C9F900283FF408AF0C2802D8204B1A5CF3
:10AAA00023E7062221E71F4E0190314600F096F978
:10AAB00098B9019A6168306801F0A9FD019800F029
:10AAC000F9F950B901A9304600F004FA00284CD039
:10AAD00001462846FFF730FCE6E60C2896BF124BED
:10AAE00006221A5C0321284601F0DAF900283FF417
:10AAF000DBAEE1E6C8310020C63100204431002041
:10AB0000C4310020853100204C31002064C607008C
:10AB10004CC60700602C0020E43100203F310020AB
:10AB200064C607004831002064C607002368059307
:10AB300063680693A368079301A8FFF773F80028DA
:10AB40003FF4B2AE0C2896BF1C4B06221A5C0121C2
:10AB5000284601F0A5F900287FF4AEAEA4E6FDF783
:10AB60007BFE57E7FDF778FE66E7019B32680692A9
:10AB70009B08042204A805930492FFF7D7F8074620
:10AB800000287FF477AE0E4A217A13680D483468A6
:10AB900004600B44136087E6306800F04DF901460D
:10ABA00020B939462846FFF7C7FB7DE62846FFF760
:10ABB000C3FBF6E7FDF750FE73E600BF64C607006F
:10ABC000C831002040310020F0B54FF0A043534F72
:10ABD000534E5448002103224FF400354FF4802493
:10ABE0003970317089B0C3F84427C3F84827C3F8D7
:10ABF0000855C3F8084501F06FFC08B109B0F0BD75
:10AC00004948FFF709F800F0D5F80028F6D1474881
:10AC1000FDF7F8FD002867D1454B01221A7001AC01
:10AC20009DF800304349012262F3030308A862F350
:10AC3000071300F8203D0722FFF76CFB002866D1C0
:10AC4000002565600C2118224FF4C8732046ADF82A
:10AC50000410ADF80620ADF80A30FFF759FB08B133
:10AC6000FDF7FAFD0023019308266360A360324DCF
:10AC7000324A3348ADF8046021460295039200F051
:10AC8000C1FF08B1FDF7E8FD0023019340F6CD4672
:10AC90006360A360E36023616361A3614FF4804557
:10ACA0000321284A0296204603958DF8101007923A
:10ACB00000F002FF08B1FDF7CFFD234A23491378C6
:10ACC0000C7803F0F003032161F306136FF3C7134D
:10ACD000072010211370507091700CB100208DE787
:10ACE000FFF782FB204689E701AC2046FFF708FB0F
:10ACF00080B99DF805302146013300208DF80530DC
:10AD0000FFF7FCFA00288BD0FDF7A6FD88E7FDF7DA
:10AD1000A3FD95E7FDF7A0FDEBE700BFE4310020C0
:10AD20004C3100206DA507005DA30700883100208D
:10AD30003E3100205CC6070059A8070035A3070074
:10AD400050310020E5A30700803100203F31002072
:10AD500010B5154B154A18884FF6FF73012198421C
:10AD600011700AD01321FFF7D1FAB0B900F0DEFE5E
:10AD700008B1FDF771FD002010BD0D4C2378002BAC
:10AD8000F4D0FFF7C1FA58B94FF0A0424FF40031A8
:10AD90000023C2F808152370E8E7FDF75DFDE5E73D
:10ADA000FDF75AFDF0E700BF602C0020E4310020E1
:10ADB0003F310020064B0749074A1A60002008224D
:10ADC00008709860D8601861586198615A6070473F
:10ADD0000833002024330020E831002059B1F0B5B9
:10ADE000144A546800230B600CB90420F0BD2028DD
:10ADF00003D90C20F0BD0E2070471769D068966902
:10AE000015684FF0010E0EFA07FE46EA0E0600F135
:10AE1000010E07EBC7000137013C07F0070705EB00
:10AE20008005546017619661C2F80CE018460D6009
:10AE3000F0BD00BF08330020F0B51D4EB7680FB954
:10AE40000420F0BD74693568C7EB040E0EF0070EE0
:10AE5000724603E001F00702944225D002EBC203E0
:10AE600005EB8303984202F10101F3D1B36901219B
:10AE700091405940B1610020012303FA0EFE1EEA01
:10AE8000010F10D11A4402F0070203FA02F20A403D
:10AE90007368074C03D11F446760A260F0BD013F97
:10AEA0000133A7606360F0BDB1691020E4E700BF23
:10AEB00008330020064A13691268013B03F00703B8
:10AEC00003EBC30302EB830318620020704700BF4B
:10AED0000833002028B121B10E4BDA681AB90420DA
:10AEE00070470E207047F0B45C691E689D6804EBE3
:10AEF000C40706EB87060134066004F00704013539
:10AF0000013A306ADA605C619D600860F0BC002044
:10AF1000704700BF0833002082B00190019B002BD6
:10AF200043D0019B013B019340F2E730013800BF61
:10AF300000BF00BF00BF00BF00BF00BF00BF00BF19
:10AF400000BF00BF00BF00BF00BF00BF00BF00BF09
:10AF500000BF00BF00BF00BF00BF00BF00BF00BFF9
:10AF600000BF00BF00BF00BF00BF00BF00BF00BFE9
:10AF700000BF00BF00BF00BF00BF00BF00BF00BFD9
:10AF800000BF00BF00BF00BF00BF00BF00BF00BFC9
:10AF900000BF00BF00BF00BF00BF00BF00BF00BFB9
:10AFA00000BFC3D1019B002BBBD102B0704700BFD3
:10AFB00029DF704728DF704770B5194C237803EB01
:10AFC000830304EB83031A791D69012A13D0032A32
:10AFD00001D00F2070BD4FF08053124A1B691088BA
:10AFE0009BB2B5FBF3F52844FFF7E4FF0028F1D14D
:10AFF0000123A37070BD0B49DA8808881E8959693E
:10B000000303D21AB2F5805F3544194403EB0500FF
:10B0100034BF92084FF48062FFF7CAFFE6E700BF33
:10B020002833002002340020F0B5384CA37883B0D8
:10B03000B3B100210228A17014D0032810D12078C8
:10B04000334D00EB8000800022181046D46853690D
:10B050001179D28800920C3055F824400D22A04777
:10B0600003B0F0BD23782B4E9800C518328804EB4E
:10B0700085050132EF8892B2B7EB023F328040DCA7
:10B08000657831805A1C1844D2B28000691E092AA2
:10B0900004EB000588BFA3F1090222701C4EEA6888
:10B0A00061706B6929790097284656F82260174F1E
:10B0B00000220C30B047627800230321E9602B7135
:10B0C000EB802B616B612B81002AC9D0BB78002BF0
:10B0D000C6D1FFF771FF02460028C1D01128BFD0AA
:10B0E00023780B4E03EB83039B00E518EF68E88899
:10B0F0006B692979009056F8274005F10C00A047AC
:10B10000AEE76378002BABD0E3E700BF2833002025
:10B11000F43300200234002030B4374B374C384829
:10B12000384D0022032102801A705A709A701A71E9
:10B13000DA801A615A611A811A765A835A629A62BF
:10B140009A8383F82C20DA859A63DA631A8683F867
:10B150004020A3F84220DA641A65A3F8442083F85B
:10B160005420A3F856201A66D9601962596399646D
:10B170001046D9655A66A3F8582083F86820A3F8CA
:10B180006A2019675A679A67A3F86C2083F87C20B5
:10B19000A3F87E20C3F88410C3F88820C3F88C205D
:10B1A000A3F8802083F89020A3F89220C3F8981089
:10B1B000C3F89C20C3F8A020A3F8942083F8A4200F
:10B1C000A3F8A620C3F8AC10C3F8B020C3F8B4208D
:10B1D000A3F8A82083F8B820A3F8BA20C3F8C010B9
:10B1E000C3F8C420C3F8C820A3F8BC202A8022607A
:10B1F0006260A26030BC704728330020F433002026
:10B200000234002000340020074A1388032B08D0A2
:10B210000B600649006841F82300013313800020C9
:10B2200070470420704700BF00340020F433002032
:10B23000F8B5CC180C43A40701D01020F8BD144D6C
:10B240006E780A2E1BD02C783444E4B2092C84BFCB
:10B250000A3CE4B204EB840405EB84040127277163
:10B26000616103C8AF78E28004F10C02238182E8B7
:10B270000300074C2FB1002001366E70F8BD04208A
:10B28000F8BDFFF799FE11286678F5D13846F3E747
:10B2900028330020F8B5154C62780A2A1DD023788F
:10B2A000A7781344DBB2092B84BF0A3BDBB203EB64
:10B2B000830304EB83030E460025032119715D61AE
:10B2C00003C8DE8003F10C0686E803001D81074EEB
:10B2D0002FB1284601326270F8BD0420F8BDFFF797
:10B2E0006BFE11287278F5D13846F3E72833002039
:10B2F00071DF704772DF704779DF70477DDF70471D
:10B3000065DF70472DE9F04F83B004880C9FBDF8CE
:10B310003490B7F800A0002C4CD098460023164675
:10B320008B4605461C4603E02A880134A24224DDF0
:10B330006A6852F82400019000220DF1030101A86F
:10B34000FFF7DEFF10BB9DF80320B242ECD103B340
:10B350003A8893194B4518DC42440DF1030101A8CA
:10B360000123FFF7CDFF88B93A889DF803100A44FE
:10B370003A802A880134A242DADCDBB13B88013B07
:10B38000CAEB03039BB2FF2B12D90C2003B0BDE81C
:10B39000F08F3B885A1C334402334B4592B2F4DCA5
:10B3A0003A8008F802B03A88013292B23A80D3E784
:10B3B00008F80A30002003B0BDE8F08F2DE9F0470F
:10B3C000002314881380436B84B0BBB1022C03D8D4
:10B3D0000C2004B0BDE8F08702261D780E7013889B
:10B3E00001339BB211261380CE54138801339BB2D4
:10B3F0001380CD54138801339BB21380056B002D4D
:10B400006FD003F11206A642E2D81126CE5413885B
:10B4100001339BB210261380CE54138801339BB2A4
:10B420001380EE7BCE54138801339BB21380AE7B26
:10B43000CE54138801339BB213806E7BCE54138895
:10B4400001339BB213802E7BCE54138801339BB201
:10B450001380EE7ACE54138801339BB21380AE7AF8
:10B46000CE54138801339BB213806E7ACE54138866
:10B4700001339BB213802E7ACE54138801339BB2D2
:10B480001380EE79CE54138801339BB21380AE79CA
:10B49000CE54138801339BB213806E79CE54138837
:10B4A00001339BB213802E79CE54138801339BB2A3
:10B4B0001380EE78CE54138801339BB21380AE789C
:10B4C000CE54138801339BB213806E78CE54138808
:10B4D00001339BB213802D78CD54138801339BB276
:10B4E000138090F82E50002D40F00781154690F8FB
:10B4F0002D200E460746002A40F01781BA78002A10
:10B5000040F03F81FA78A2B1D91CA1423FF660AF6A
:10B510000221F1542B8801339BB201212B80F1547D
:10B520002B880B449BB22B80F2542B880B449BB28C
:10B530002B807A68AAB1D91CA1423FF649AF0221FB
:10B5400092F90020F1542B8801339BB20A212B8001
:10B55000F1542B8801339BB22B80F2542B8801339A
:10B560002B803B89002B40F090813B8A002B40F0E0
:10B57000A7813B8B002B40F0BC81396A002944D065
:10B580002B889A1DA2423FF623AF0A88052A40F273
:10B5900095816FF4486802EB080080B24FF27D3E5F
:10B5A000704540F28B814888052840F287816FF40E
:10B5B000486C84441FFA8CFCF44540F27F814FF6BE
:10B5C000FF7E724504D0704502D0824200F276813F
:10B5D0000522F2542B8801339BB212222B80F254A5
:10B5E0002B8801339BB22B800A88F2543344120A11
:10B5F0005A702B8802339BB22B804A88F254334412
:10B60000120A5A702B8802332B80D7F82480B8F1A5
:10B61000000F31D0B8F804202988131D0B44A34231
:10B620003FF6D6AE931CFE2B3FF6D2AE03327254D9
:10B630002B8801339BB2FF222B80F2542B880133DD
:10B640009BB22B80B8F80020F2543344120A5A708F
:10B650002888023080B22880B8F8042062B1D8F877
:10B660000810002900F02A81304400F0D0FFB8F81B
:10B6700004302A8813442B8097F82C30002B40F09C
:10B68000A280387800283FF4A4AE3B88012B00F05C
:10B6900015812B8803F1020EA6453FF699AE0128CD
:10B6A00005D17A7802321A449442FFF491AE023CFA
:10B6B000E31A04A99BB221F8083D06EB0E00FFF740
:10B6C0001DFE00287FF485AE3A78022A00F02A8118
:10B6D000012A00F0D5801A460821FE2A3FF678AEEE
:10B6E0002B88541CF4542B8801339BB22B80F154CB
:10B6F0002B8801331A442A806BE6DE1CA6423FF6F3
:10B7000067AE0226CE54138801339BB21C261380E9
:10B71000CE54138801339BB2013D1380032D00F2F8
:10B72000CD80DFE805F0A7A49DAA0933A3423FF628
:10B730004FAE02A8FFF7DCFD00287FF44AAE2B884D
:10B740009DF808200821F1542B8801339BB21B215E
:10B750002B80F1542B8804A901339BB251F8070DBB
:10B760002B80F0503344898899802B8806339BB214
:10B770002B8002B10122F2542B8801339BB22B8023
:10B78000BCE60433A3423FF623AE02A8FFF7B4FDA4
:10B7900000287FF41EAE2B88BDF808200321F15449
:10B7A0002B8801339BB219212B80F1542B88013354
:10B7B0009BB2F1182B80F254120A4A702B88023384
:10B7C0009BB22B809EE6D7F82880B8F1000F75D089
:10B7D000B8F804200232FE2A3FF6FAAD2B884FF06B
:10B7E00000094FF0160A08E0BA6A02EB8808B8F8B8
:10B7F00004200232FE2A3FF6EBAD0132F2542B88D0
:10B8000001339BB22B8006F803A02B8801339BB237
:10B810002B80B8F80020F2543344120A5A702B8857
:10B8200002339BB22B80B8F80410F0180A4661B1BD
:10B83000D8F808301946002B40D000F0E8FEB8F8E0
:10B8400004302A8813449BB22B8009F1010997F830
:10B850002C205FFA89F94A4509EB4908C4D810E75A
:10B860000225CD54138801339BB213803EE6012597
:10B87000CD54F7E70025CD54F4E70325CD54F1E787
:10B880007A789342BFF428AF25E707F1080802222F
:10B8900001940095404611463346FFF733FD0028DA
:10B8A0007FF497AD0194009540463346102206215F
:10B8B000FFF728FD00287FF48CAD56E6072088E5C9
:10B8C00007F11008019400954046334602220321F7
:10B8D000FFF718FD00287FF47CAD019400954046E9
:10B8E000334610220721FFF70DFD00287FF471ADCC
:10B8F0003FE607F1180801940095404633460222BE
:10B900001421FFF7FFFC00287FF463AD019400953C
:10B910004046334610221521FFF7F4FC00287FF43F
:10B9200058AD2AE6BDF808209342FFF4D4AE0921B1
:10B93000D3E600BF30B593B01F230D46ADF80430F9
:10B94000ADF8063010B3C3785B0702D4072013B0FC
:10B9500030BD02A901AAFFF731FD0028F7D102ACE2
:10B96000C5B1EB78002BF1D128460AA90DF10602EA
:10B97000FFF724FD0028EAD19DF806300AAA2046E8
:10B980009DF80410FFF7B6FC13B030BDADF804000D
:10B990000446E5E72B46ADF806502A46EFE700BF20
:10B9A00075DF704776DF70477ADF70477BDF70475F
:10B9B000184B18884FF6FF7398422AD010B5164AD4
:10B9C000164C1378217B0133DBB2994282B013709D
:10B9D0000CD2237C002111708BB9636923B102A8BA
:10B9E000002200F8042D984702B010BD0C49FFF763
:10B9F000D7FF0028F8D0A369002BF4D1F4E73B214E
:10BA0000FFF7D0FF0028E8D0A369002BE5D09847C6
:10BA1000E3E7704750340020103400201434002035
:10BA20005434002070B51E4B1E4A5B881188994221
:10BA300082B00FD852889A420CD31B4B5B6923B15A
:10BA400002A8012200F8042D9847184C0023237007
:10BA500002B070BD154C227862B1134B5B69002BAC
:10BA6000F4D002A8002200F8042D98470023237088
:10BA700002B070BD0C4D0E4869680678AB680D4881
:10BA8000002E18BF1946FDF7C3FB0028DED0AB69B6
:10BA9000002BDBD098470023237002B070BD00BF9D
:10BAA00008340020543400201434002004340020D2
:10BAB0001034002030340020F8B505460FCD144C6A
:10BAC000144F0FC4064695E80700002384E80700DA
:10BAD0003B70B6B13068104B716803C3A3F1080026
:10BAE000FFF762FF90B90D4D0D4C0E4A0E48002332
:10BAF0004FF6FF762E8023701946BDE8F840FDF71B
:10BB000075BB0548FFF752FF0028ECD0F8BD00BF19
:10BB10001434002004340020543400205034002019
:10BB200010340020B1B9070074C607000148FDF7C2
:10BB3000D9BB00BF3034002070B50388112B27D04B
:10BB400012D9122B07D0502B45D1234CC288E38940
:10BB50009A4230D070BD083003C8204B83E8030000
:10BB6000BDE87040FFF75EBF102B33D11C491A4C63
:10BB70001A4B1C4DE48900F118028088088092E875
:10BB80000300002283E803002A70002CE8D070BD77
:10BB90001349144B14484FF6FF7400220C801A709E
:10BBA000FDF7A0FB0028D5D00B4B9B69002BD1D013
:10BBB000BDE870401847038A022BCBD1837CDB079A
:10BBC000CED40948FDF78EFB0028C3D0A369002B13
:10BBD000EED1BFE770BD70BD1434002008340020E2
:10BBE000503400201034002030340020A0DF704793
:10BBF000A2DF7047A5DF7047A6DF7047A8DF704758
:10BC000063DF7047F8B1F1B14B68E3B12DE9F04162
:10BC10006C4B94B09A6807460E4618685968DB6802
:10BC200004AC0FC44FF6FF7514AB41F230523D80A7
:10BC30000DF10A0104A823F8482DFFF7E1FF20B118
:10BC400014B0BDE8F0810E20704719463A1D01205E
:10BC5000FFF7CCFF0028F3D14FF001080346040A98
:10BC600068F34203C5B268F30304DBB29DF80AE04F
:10BC70000D9068F3071443EA080345F00405ADF896
:10BC800004000B9087F806E08DF8063041F2325C34
:10BC90008DF805408DF8345001AC03AD0A900C903E
:10BCA0008DF80EE00E904FF0140E0F901090119042
:10BCB0001290139008AA0DA907F10803B888ADF8EF
:10BCC0000CC009940895ADF82CE0FFF791FF00280F
:10BCD000B6D10346020A68F34203C1B268F3030215
:10BCE000DBB268F3071243F0110341F018010D9025
:10BCF000ADF804000B900E900F90109011901290E0
:10BD000013900A900C9041F2315097F806C08DF8CC
:10BD100005204FF0170E8DF806308DF83410ADF871
:10BD20000C0007F1100308AA0DA9B888089509941A
:10BD30008DF80EC0ADF82CE0FFF75AFF00287FF415
:10BD40007FAF034668F34203208086460D900A9039
:10BD50000B90DBB20E900F901090119012901390F8
:10BD6000C0B243EA080340F0020068F3030E68F330
:10BD7000071E089597F806C0099441F2345502242D
:10BD80008DF806308DF8340008AA0DA907F12003BC
:10BD9000B8880C968DF804E08DF80EC0ADF80C5004
:10BDA000ADF82840ADF82C40FFF722FF00287FF4C3
:10BDB00047AF7368BB62B36803B1FB62024B0122F9
:10BDC0001A703DE778C607005C34002048B102884D
:10BDD0004FF6FF739A4202D0154B1B781BB908200F
:10BDE00070470E207047F0B5124B068AD9701022AA
:10BDF00087B021FA02F51A700F0A01220724090EF2
:10BE00001F715D7199715C709A70059302A900238E
:10BE10000DF1060500880293ADF806400393ADF8D6
:10BE200008608DF80A200495FFF7E6FE07B0F0BD24
:10BE30005C3400206034002048B102884FF6FF7364
:10BE40009A4202D0144B1B781BB9082070470E2071
:10BE5000704770B5114B068A597086B00C0A0A0CEF
:10BE60001125090E1D709C70DA70197105930DF182
:10BE70000602002302A905250124008802930393EA
:10BE8000ADF80860ADF806508DF80A400492FFF74F
:10BE9000B3FE06B070BD00BF5C34002060340020EB
:10BEA00060B170B504884FF6FF739C4286B002D033
:10BEB000104B1B7823B9082006B070BD0E207047C8
:10BEC0000D4B068A597010219A701970059303253D
:10BED000002301240DF1060202A9008802930393B6
:10BEE000ADF80860ADF806508DF80A400492FFF7EF
:10BEF00083FEE1E75C34002060340020E8B1E1B16A
:10BF0000F0B5856A89B085B10A88112A26D00ED984
:10BF1000502A04460B4611D0512A06D18A79022AAA
:10BF200003D10989028A91421DD009B0F0BD102ABF
:10BF3000FBD18A88028009B0F0BD70470289C988A8
:10BF40009142F2D108211A8A8DF8101003F11201E2
:10BF500005918DF8182004A9A847E6E74FF6FF726F
:10BF6000028009B0F0BD9A7B043A022ADDD99DF81F
:10BF700016101A8A5E8AADF81820022041F00101DD
:10BF8000002701AA8DF8161003F1140501978DF80A
:10BF90001000ADF80400A18A2088ADF81A6007955A
:10BFA000CDF808D0FFF726FE024688B1E36A03B158
:10BFB000984740F2FD1304A92088ADF81430FFF72C
:10BFC0001DFE0028B1D0E36A002BAED09847ACE745
:10BFD0009DF80010C907ECD504A92088ADF81420FD
:10BFE000FFF70CFE0028EED1197D4A1E072A4FD814
:10BFF000DFE802F03122204C414A18045A8A022A12
:10C0000051D9997D5B7DA26A43EA0123002B0CBFC5
:10C01000072006208DF8040001A9ADF8083020465D
:10C02000904782E709238DF8043001A9A36A2046CE
:10C0300098477AE70223F6E7598A012291428DF860
:10C0400004202AD9153302938DF80C2001A9A36A84
:10C050002046984769E75A8A0021012A8DF8041082
:10C0600027D915330122029301A98DF80C20A36A68
:10C070002046984759E704230DEB03018DF804305F
:10C080002046A36A984750E70523CCE70323CAE775
:10C0900003222046FFF704FF93E7062202212046F1
:10C0A000FFF7FEFE8DE7032208212046FFF7F8FE8A
:10C0B00087E7062201212046FFF7F2FE81E700BF55
:10C0C000F0B4984B1B78062B1BD0974AD2F88830D7
:10C0D00043F47003C2F88830BFF34F8FBFF36F8F04
:10C0E0004FF01023D3F80022002AC0F2E980D3F8E1
:10C0F0000432002BC0F2E4808C4B8D4A1A60F0BCF5
:10C1000070478C4B1B681D07DFD18B4B1B6803F0FE
:10C11000F003302B02D1894B894A1A60864B1B6889
:10C1200003F0F002302A00F0BA8003F0E003402B65
:10C1300000F0B580804B1B6803F0F003302B00F05B
:10C140009E807D4B1B6803F0F002302A00F0838054
:10C1500003F0E003402B7ED0774B1B6803F0F00325
:10C16000302B6AD0744B1B6803F0F003302B4DD09A
:10C17000714B1B6803F0F003502BA6D14FF0805297
:10C18000704BD2F80414C3F82015D2F80814C3F881
:10C190002415D2F80C14C3F82815D2F81014C3F8DB
:10C1A0002C15D2F81414C3F83015D2F81814C3F8AB
:10C1B0003415D2F81C14C3F84015D2F82014C3F873
:10C1C0004415D2F82414C3F84815D2F82814C3F83B
:10C1D0004C15D2F82C14C3F85015D2F83014C3F80B
:10C1E0005415D2F83414C3F86015D2F83814C3F8D3
:10C1F0006415D2F83C14C3F86815D2F84014C3F89B
:10C200006C15D2F84424C3F870255EE7454B4E49BF
:10C210001B784E4D4E484F4A05270F6001260024DB
:10C220003F21062B2E60046011607FF44EAF414B1E
:10C230001B681B077FF449AF9AE73A4B464A1B78C5
:10C240000321062B11607FF440AF3A4B1B681A079D
:10C250007FF43BAF86E7334B1B784FF080420021E1
:10C26000062BC2F80C11C2F81011C2F838157FF471
:10C270002CAF304B1B6819077FF427AF6CE7374AA8
:10C280002849D368097823F080730629D3607FF4A6
:10C290001CAF284B1B6818077FF417AF51E7304AD3
:10C2A000204B12681B782F49C2F34232062B0A60DA
:10C2B0007FF40BAF1F4B1B681C077FF406AF39E7F9
:10C2C000294B0122C3F80425D3F80024002AFBD00F
:10C2D0004FF0102315222449C3F80022D1F800346E
:10C2E000002BFBD04FF0102315221F49C3F8042266
:10C2F000D1F800241C4B002AFAD00022C3F80425F0
:10C30000D3F80024002AFBD0BFF34F8F0649174B08
:10C31000CA6802F4E0621343CB60BFF34F8F00BFE3
:10C32000FDE700BFE00F00F000ED00E0682C00200A
:10C330000090D003E40F00F0E80F00F074C0074055
:10C340000DF0ADBA00C000401056004088560040C5
:10C350001856004014560040A0050040F0ED00E0E3
:10C36000440200103C05004000E001400400FA05D2
:10C3700052DF704710DF704760DF704761DF704742
:10C3800008B5AFF3008008BD2DE9F043DFF8B890A1
:10C39000DFF8B880D9F80050D8F80040284F294E6F
:10C3A000B5FA85F5B4FA84F46D0983B064098DB1EA
:10C3B000002C37D133683A88ADF80420184601A91B
:10C3C000FFF7DCFF05282DD010B3FCF745FA002459
:10C3D000002DEDD101A8FFF7CBFF05280AD0E0B171
:10C3E000FCF73AFA0CB301A8FFF7C2FF05284FF09B
:10C3F0000104F4D1B4B933683A88ADF80420184682
:10C4000001A9FFF7BBFF05280CD001250028DCD1CE
:10C410001846D8F800309847D9E7D9F80030019885
:10C420009847DFE703B0BDE8F08333683A88ADF89A
:10C430000420184601A9FFF7A1FF0528C4D1D2E7BF
:10C4400068340020783400207C34002080340020C0
:10C45000024B1B780BB1FFF797BF70476734002082
:10C4600011B111F0030F01D007207047F8B5134F39
:10C47000134E144D32800C4613492B603C60FFF77D
:10C4800079FF034600B1F8BD104A11490120107030
:10C4900091F81623C2F34112824206D90D4A9068E0
:10C4A00030B94FF480030B60F8BD42F20200F8BDD2
:10C4B000116841F4800111601846F8BD78340020FD
:10C4C000683400208434002081C3070067340020D2
:10C4D00000E100E06C340020034618B1024A00205D
:10C4E000136070470E20704780340020034618B157
:10C4F000024A0020136070470E2070477C340020F1
:10C5000008B5094B1B6833B1984700B908BDBDE8B1
:10C510000840FCF7A1B9054B1B78002BF6D0BDE80D
:10C520000840FFF731BF00BF84340020673400208B
:10C530000023D36030B4147B936063F300040125BF
:10C54000136053601361117250721473158000B13F
:10C550009572002030BC704700B583B0054B019345
:10C5600002A9019B41F8083DFFF706FF03B05DF803
:10C5700004FB00BF002C002009B9FFF769BF08B514
:10C580000020FCF769F9BDE80840FFF761BF00BF74
:10C5900000210846014AFCF795B900BF79C507009C
:10C5A0000A490B4A0B4B9B1A03DD043BC858D05079
:10C5B000FBDC0849084A0020521A02DD043A885080
:10C5C000FCDCFFF77DFDFBF749FF000094C6070088
:10C5D000002C0020782C002088340020FEE7FEE7A5
:10C5E000FEE7FEE7FEE7FEE7FEE7FEE7FEE7FEE723
:10C5F00010B501390244904207D010F8013B11F800
:10C60000014FA342F7D0181B10BD002010BD10B57C
:10C61000431E0A44914204D011F8014B03F8014F24
:10C62000F8E710BDF8B500BFF8BC08BC9E467047DF
:10C63000F8B500BFF8BC08BC9E4670474300000038
:10C64000002C0020001002006C30002001060606BD
:10C65000060603060206060504000000446675543B
:10C660006172670001060606060603060206060654
:10C67000040000003034002023D1BCEA5F78231589
:0CC68000DEEF12120000000000000000BD
:08C68C00D0BDFF7F010000009A
:10C694000000000000000000000000000000000096
:10C6A4000000000000000000000000000000000086
:10C6B4003CC607000000000000000000000000006D
:10C6C4000000000000000000000000000000000066
:10C6D4000000000000000000000000000000000056
:10C6E4000000000000000000000000000000000046
:10C6F400FFFF0000320000000090D00325840700F3
:08C704000184070000000000A1
:020000020000FC
:020000041000EA
:041014000080070051
:0410180000E00700ED
:040000037000C5A123
:00000001FF
