:0200000270008C
:10A00000807F0020B9DA0700F5DA0700F7DA0700E9
:10A01000F9DA0700FBDA0700FDDA070000000000AC
:10A02000000000000000000000000000ADA70700D5
:10A0300001DB07000000000003DB070005DB070071
:10A0400007DB070007DB070007DB070007DB07006C
:10A0500007DB070007DB070007DB070007DB07005C
:10A0600007DB070007DB070007DB070007DB07004C
:10A0700007DB070007DB070007DB070007DB07003C
:10A0800007DB07003DAB070007DB070007DB070026
:10A09000FDAB070007DB070011DA070007DB07004D
:10A0A00007DB070007DB070007DB070007DB07000C
:10A0B00007DB070007DB07000000000000000000CE
:10A0C00007DB070007DB070007DB070007DB0700EC
:10A0D00007DB070007DB070007DB070000000000C5
:10A0E0000000000000000000000000000000000070
:10A0F0000000000000000000000000000000000060
:10A10000000000000000000000000000000000004F
:10A11000000000000000000000000000000000003F
:10A4000010B5054C237833B9044B13B10448AFF3AE
:10A4100000800123237010BD782C00200000000074
:10A4200080DB0700084B10B51BB108490848AFF3A3
:10A4300000800848036803B910BD074B002BFBD010
:10A44000BDE81040184700BF000000007C2C002031
:10A4500080DB0700742C002000000000154B002B4F
:10A4600008BF134B9D46A3F5803A00218B460F464B
:10A470001348144A121A00F065F80F4B002B00D055
:10A4800098470E4B002B00D0984700200021040075
:10A490000D000D48002802D00C48AFF3008000F0FA
:10A4A0002BF82000290000F0B3F800F011F800BFED
:10A4B00000000800807F0020000000000000000075
:10A4C000782C002070340020000000000000000004
:10A4D00008B5074B044613B10021AFF30080054BCC
:10A4E0001868836A03B19847204600F033F800BF2C
:10A4F0000000000058DB070070B50E4B0E4CE41A4C
:10A50000A41000251E46A54204D056F825309847D1
:10A510000135F8E703F012FB084C094BE41AA410CC
:10A5200000251E46A54204D056F82530984701352F
:10A53000F8E770BD6C2C00206C2C0020702C0020E3
:10A540006C2C002002440346934202D003F8011B06
:10A55000FAE77047FEE700BF13DF704718DF704768
:10A5600010B58AB004461022002101A8FFF7EAFFC7
:10A57000022301932CB101A8FFF7F0FF08B100F00E
:10A5800047F94FF4F420FFF7E7FF08B100F040F976
:10A59000134B144918680090134B4822684603F087
:10A5A000E9F908B100F034F9012105AA084603F0E1
:10A5B00041FA08B100F02CF99DF8203005A843F0CD
:10A5C00001038DF8203003F049FA08B100F020F9BA
:10A5D000064803F013FA08B100F01AF90AB010BDEA
:10A5E0005CDB0700AC2F00208DDA0700F1A5070027
:10A5F00002F044B908B5054A1421082000F016F904
:10A6000018B1BDE8084000F003B908BD5C2E002079
:10A6100070B54FF08043D3F81C45B12C04BF002225
:10A62000C3F81C254FF0A0434FF00302C3F84C279A
:10A630004FF40022C3F80825404B1B680CBF0126CD
:10A640000026B3F5F42F02D0002000F0E1F84FF01F
:10A6500080531B69B3F5805F02D0002000F0D8F86A
:10A66000374B384A0521002000F0F8FC08B100F013
:10A67000CFF84FF0A045344BC5F8343700F0F4FE66
:10A6800000F03AFFE0B14FF40023C5F80C3500F0BC
:10A6900045FF08B100F0BCF8B4F1B10018BF0120CB
:10A6A000FFF75EFFFFF7A6FF00F057FF08B100F0CD
:10A6B000AFF84FF0A0434FF40022C3F8082507E09D
:10A6C000B4F1B10018BF0120FFF74AFFFFF792FF76
:10A6D0004FF0A043D3F810359B0400D55EB14FF086
:10A6E000A0444FF40025C4F80C5500F0D5FE48B145
:10A6F00000F08EF806E043F20803186800F016FE3A
:10A7000010B9ECE7C4F8085543F20804206800F0DB
:10A710000DFE28B100F0F0FE10B9206800F0C8FE70
:10A72000BFF34F8F09490A4BCA6802F4E062134332
:10A73000CB60BFF34F8F00BFFDE700BF14100010C8
:10A740001DB20700942C00200C00030000ED00E077
:10A750000400FA0570B50D4618BB0B68FBB1124C2E
:10A76000A34214D0E21A3B2A03F13C0208D8581E37
:10A7700090420CD012F80169D11A21444E70F7E7CB
:10A78000214653F8040B41F8040B9342F9D10022FF
:10A790003C21054800F034FF0023A08702E00E238F
:10A7A00000E001232B6070BD807F0020074A6FF01E
:10A7B00002039E4502D1EFF3098101E0EFF3088126
:10A7C0008869A0F102000078104700BF55A7070074
:10A7D00038B50546A8B10D4C00223C21204600F0BA
:10A7E0000FFFA38F83420ED1234604F13C0253F89E
:10A7F000041B45F8041B9342F9D10130A0870020C7
:10A8000038BD0E2038BD0B2038BD00BF807F002032
:10A810001FB50021039001AA44F20100ADF8041015
:10A820000291AFF3008005B05DF804FB10B512F0A3
:10A83000030411D1094B1A604B1CDB009BB21A4474
:10A84000074B1A60074B1C70074B1C70074B188096
:10A85000074B1980204610BD072010BDF42F0020A3
:10A86000F82F0020FF2F0020FE2F0020FC2F0020BB
:10A87000003000202DE9F743284D2B888B420646F7
:10A880000C46174644D302A84FF0000800F8018D8B
:10A8900000F0D2FC224B234A18781178CBB222491F
:10A8A00009888B4238BF0133C0B238BF5FFA83F8E2
:10A8B00040450AD092F800801378DBB2994286BFF7
:10A8C0000133DBB20023137001E04FF6FF789DF8EF
:10A8D000070000F0D7FC4FF6FF7398451AD0134BD2
:10A8E0001B6803EBC80943F838706EB164B1104BB4
:10A8F00028881B682246314608FB003003F013F914
:10A90000A9F80440002006E00020A9F8040002E0B5
:10A91000092000E0042003B0BDE8F083FC2F0020F4
:10A92000FE2F0020FF2F002000300020F42F0020F9
:10A93000F82F0020F8B5124C124E254622783378B5
:10A940009A421CD010492278237809880F48DBB23C
:10A95000994286BF0133DBB200232B700C4B078872
:10A960001B680C48D2B211B203EBC10E006853F859
:10A970003130BEF8041002FB07009847DEE7F8BD4F
:10A98000FE2F0020FF2F002000300020FC2F002091
:10A99000F42F0020F82F0020494B4FF40032C3F869
:10A9A000802003F1C04303F53C534FF48032C3F8D9
:10A9B00048230121C3F808232F225960104601388B
:10A9C00000BF00BF00BF00BF00BF00BF00BF00BF8F
:10A9D00000BF00BF00BF00BF00BF00BF00BF00BF7F
:10A9E00000BF00BF00BF00BF00BF00BF00BF00BF6F
:10A9F00000BF00BF00BF00BF00BF00BF00BF00BF5F
:10AA000000BF00BF00BF00BF00BF00BF00BF00BF4E
:10AA100000BF00BF00BF00BF00BF00BF00BF00BF3E
:10AA200000BF00BF00BF00BF00BF00BF00BF00BF2E
:10AA300000BF00BFC3D19960224900230B601046BC
:10AA4000013800BF00BF00BF00BF00BF00BF00BF94
:10AA500000BF00BF00BF00BF00BF00BF00BF00BFFE
:10AA600000BF00BF00BF00BF00BF00BF00BF00BFEE
:10AA700000BF00BF00BF00BF00BF00BF00BF00BFDE
:10AA800000BF00BF00BF00BF00BF00BF00BF00BFCE
:10AA900000BF00BF00BF00BF00BF00BF00BF00BFBE
:10AAA00000BF00BF00BF00BF00BF00BF00BF00BFAE
:10AAB00000BF00BF00BFC3D1034A1370704700BF7F
:10AAC00000E100E004300020243000204378827848
:10AAD0000133DBB29A4208BF002302789A421FBFBB
:10AAE0000B70437803EB4302436814BF03EBC200CF
:10AAF00000207047EFF30583C3F30803BBB1103B9D
:10AB00005AB2002AABBF02F1604303F00F0303F512
:10AB10006143094AACBF93F80033D35C5B09DBB2F5
:10AB2000022B06D0062B0CBF01200220704702200A
:10AB300070470020704700BF14ED00E02DE9F041A0
:10AB40002649274B0022C1F84021C1F84421C1F811
:10AB50004821C1F84C21C1F80021C1F804211B682B
:10AB6000002B38D01F48D1F804150468DFF888801E
:10AB70000C1B24F07F44154617461A68A24215D8CC
:10AB8000A41A15441A7CDE696AB1D8F800201F7433
:10AB900032B199695869904728B1FFF739FE02E050
:10ABA0005A69986990470EB13346E6E70E4B0F4A53
:10ABB000197813788B4205D10133DBB2022B08BF21
:10ABC0000023137012780A4B43F82250094B4FF4BC
:10ABD0008012C3F80021BDE8F08100BF00100140E1
:10ABE00008300020043000201830002019300020E8
:10ABF0001C30002000E100E00C3000202DE9F04F77
:10AC00008F49904A90480B68007887B00393137877
:10AC1000984210D00133DBB2022B08BF002313701F
:10AC200012788A4B53F82250039B2B4423F07F4326
:10AC30000B60012701E000252F46854B1B6802931E
:10AC4000844B02981C78844B1B6801930B68059316
:10AC5000824B002193F80080049126468946013EEC
:10AC6000F6B2FF2E33D033B2019A02EBC30E12F8C4
:10AC7000332003469EF801C094451846EFD002EBFE
:10AC8000420CDEF804009EF802B000EBCC0A013260
:10AC900010F83C00D2B2934508BF0022022802D02F
:10ACA0000328E7D10BE0DAF804A018469C460028F8
:10ACB000E0D0824500F0A2818446C069F7E7002B0E
:10ACC000D8D04FF000011974DB690121F7E7B9F121
:10ACD000000F02D0614B83F80080049B13B1584BE6
:10ACE000059A1A605A4A01B1106013683FB9029977
:10ACF000B3EB010E18BF4FF0010E384623E00021E0
:10AD000008468E468C46D3B11E68AE4204D901B1C6
:10AD10001360751B1D6014E0AD1BB644DE68C3F8FC
:10AD200000C0D3F81C803EB10399D861714421F072
:10AD30007F4159609E60184643463946E3E701B1BA
:10AD400013604FF0010E3E4BD2F80090D3F800A0F4
:10AD5000424B4FF0000C1B7802934946E046013C01
:10AD6000E4B2FF2C7ED0019B0A4603EBC40610B16F
:10AD70000346C06924E0337875789D421146EED0D1
:10AD800003EB430796F802B075680133DBB29B45CD
:10AD9000337008BF307015F83730012B05EBC70151
:10ADA00048D14B681D7C002D44D18F685F60CF680F
:10ADB0009F600F69DF6049699961029901B15D6027
:10ADC0005968274FCAEB010525F07F45BD429F68B2
:10ADD00002D83D441D6009E0C1EB0A0121F07F412A
:10ADE000B9423ABF791A1960C3F800804FF00101E7
:10ADF000C3F80480C3F808801974C3F81C80DAB162
:10AE00001D6811688D4203D84D1B1560DA6113E08F
:10AE1000934611460F68AF4205D2ED1BCF698B46B2
:10AE20002FB13946F6E77F1B0F600F4659461D606C
:10AE3000DF61CB61134601E04FF0010C1A4696E743
:10AE40000430002018300020193000201C30002071
:10AE50000830002010300020143000201A3000206C
:10AE6000FEFF7F00774BBCF1000F00D019601B681C
:10AE7000994503D1BEF1000F00F0BA80002B00F01D
:10AE8000B5801F687049714BD1F804451B68704D3F
:10AE9000E21A287822F07F42033200284BD14FF487
:10AEA0008030C1F84403C1F804036A484FF4003607
:10AEB000C0F88061066001260E602F20013800BFB7
:10AEC00000BF00BF00BF00BF00BF00BF00BF00BF8A
:10AED00000BF00BF00BF00BF00BF00BF00BF00BF7A
:10AEE00000BF00BF00BF00BF00BF00BF00BF00BF6A
:10AEF00000BF00BF00BF00BF00BF00BF00BF00BF5A
:10AF000000BF00BF00BF00BF00BF00BF00BF00BF49
:10AF100000BF00BF00BF00BF00BF00BF00BF00BF39
:10AF200000BF00BF00BF00BF00BF00BF00BF00BF29
:10AF300000BFC3D12E7097422CBFDA199A1822F0A5
:10AF40007F43C1F84035D1F804253F48121B22F059
:10AF50007F421B1B033223F07F439A4248D9D0F82B
:10AF60000435C0F840352F20013800BF00BF00BFB6
:10AF700000BF00BF00BF00BF00BF00BF00BF00BFD9
:10AF800000BF00BF00BF00BF00BF00BF00BF00BFC9
:10AF900000BF00BF00BF00BF00BF00BF00BF00BFB9
:10AFA00000BF00BF00BF00BF00BF00BF00BF00BFA9
:10AFB00000BF00BF00BF00BF00BF00BF00BF00BF99
:10AFC00000BF00BF00BF00BF00BF00BF00BF00BF89
:10AFD00000BF00BF00BF00BF00BF00BF00BFC3D1A4
:10AFE0001C4B4FF40032C3F8002101E0FFF7D4FC02
:10AFF000194B00221A7007B0BDE8F08F604511D1DF
:10B00000D3F81CA0BAF1000F02D05346012109E089
:10B010000D4901238B60194604915346CDF814A0C5
:10B0200089468846D0F81CB0D0F800A0CCF81CB0F7
:10B03000BBF1000F3FF41EAEDBF800005044CBF82C
:10B04000000017E608300020001001400430002006
:10B050002430002000E100E01A3000202DE9F84300
:10B0600012F0030507468846144699463BD11F4E09
:10B070000AB9326037E0FFF78FFC1D4A1D4BC2F85A
:10B08000009003221A70346004F1180208EB48069D
:10B09000F600114662602570657084F802800834FD
:10B0A0008C424FF000033244F4D1134A1360134A28
:10B0B0001370134A1370134A4FF48011C020C2F862
:10B0C000801182F81403116001F18041A1F56F2114
:10B0D000C1F8087582F811030B4AD1F80415116004
:10B0E0001846BDE8F8830720BDE8F8831430002037
:10B0F0000C300020103000200830002018300020D4
:10B100001930002000E100E004300020074B1B68EC
:10B110004BB132B128B10368187C20B959745A6117
:10B120007047072070470820704700BF1430002088
:10B130002DE9F3411B4B1C6805460E4617466CB3C0
:10B1400060B3042928D9436943B3437C012B0CBF66
:10B1500088464FF00008FFF7CDFC04EBC0040DF16A
:10B1600007012046FFF7B2FCA0B1012303700E4B8C
:10B170004560D3F8043583609DF80730C660C0F899
:10B18000108047616370094B4FF48012C3F80021AF
:10B19000002004E0042002E0072000E0082002B0C4
:10B1A000BDE8F081143000200010014000E100E013
:10B1B00073B5124B1D680646EDB1E0B14369D3B1DA
:10B1C00000240474FFF796FC05EBC0050DF10701A0
:10B1D0002846FFF77BFC60B1022303709DF807301F
:10B1E00046606B70064B4FF48012C3F80021204676
:10B1F00002E0042000E0082002B070BD14300020FE
:10B2000000E100E0082910B5044602D00020FFF755
:10B21000FFFA23686068BDE81040184707B5054A83
:10B220008DE8030008216846FFF724FB03B05DF8B2
:10B2300004FB00BF05B2070070B5EFF3108572B6CE
:10B240000D4A9468012394B993600C4B0C49D3F8D0
:10B250008060314011600A49C3F88010D3F884102F
:10B2600051604FF0FF32C3F88420047000E0037097
:10B2700005B962B670BD00BF4834002000E100E0AF
:10B28000FC06FFBC10B5084B9A685AB150B9EFF3F1
:10B29000108272B605491C680C605C684C6098604E
:10B2A00002B962B610BD00BF4834002000E100E0E2
:10B2B00048DF704711DF704713DF7047064B18787F
:10B2C000012803D1012904BF0221197012B11046CF
:10B2D000FFF79EBA704700BF2530002010B5064C1E
:10B2E000FFF7E6FF08B1FFF793FAFFF723FB237898
:10B2F000023B022BF4D810BD2530002008B51C21DC
:10B30000084801F059FB08B1FFF782FA00231C221C
:10B310000549044801F040FB18B1BDE80840FFF7BB
:10B3200077BA08BD283000203030002007B5036808
:10B33000013301D1002014E001A800F03DF9019B88
:10B340001A78012AF6D1588830B1996843F2080377
:10B350000022186800F054F9019B5B881B1A5842C0
:10B36000584103B05DF804FB84B02DE9F34108AC0B
:10B3700084E80F009DF82040BDF82280099F0A9EB6
:10B380000B9D01A800F018F944B9354B0122FF21AB
:10B39000A3F802809D601A7019713EE0012C13D150
:10B3A0002F4BBA192A449A60A5221A70FF221A71EB
:10B3B0000C9AA3F80280DF601E615D619A61294BDF
:10B3C0001C70FFF79BFF45E0032C0DD1019A244B25
:10B3D00011781970518892689A60AA2259801A715E
:10B3E000DF601E615D6117E0022C19D1019A1C4BD0
:10B3F0001178A52905D100225A809A60FF221A707F
:10B4000004E019705188926859809A60FF221A717D
:10B410000022DA601A615A610122124B1A70D0E7D9
:10B42000052C06D100F06AFF08B1FFF7F1F90322FD
:10B430000EE0042C09D10A4B00229A605A80FF22A8
:10B440001A70019A12791A71BBE7062C02D10422F4
:10B45000044B1A7002B0BDE8F04104B0704700BF61
:10B4600030300020253000201FB5002302930393C5
:10B47000074B019301F056FA30B906494FF4FE2309
:10B4800001A84B6001F074FA05B05DF804FB00BF41
:10B49000BDB207002830002010B500F0E7F928B948
:10B4A00000F07CFE0446FFF719FF204610BD0000A7
:10B4B00010B5FFF7FFFE08B1FFF7AAF90D4A1068B3
:10B4C0000023012404FA03F1014203F1010318BF30
:10B4D000C2F88010202BF5D143F208031868FFF75B
:10B4E000EBFE1C4608B1FFF793F92068BDE8104059
:10B4F00000F068B800E100E007B501A800F05CF8D2
:10B50000019B1A78A52A05D01879A0F1AA03584200
:10B51000584100E0012003B05DF804FB10B500F0D5
:10B5200091FB40B1642001F0E9F800F011FB38B163
:10B53000FFF76EF904E000F068FB0028F2D110BDBF
:10B5400000F080FB08B1FFF763F900F044FB04460C
:10B5500008B1FFF75DF9204610BD10B588B003AC07
:10B56000142200212046FEF7EDFF02238DF80C3057
:10B570000023009394E80F00FFF7F6FEFFF7AEFEFE
:10B58000002008B010BD13B5044601A800F014F85F
:10B59000019B1A7822705A8862809A68A2601A7990
:10B5A0002271DA68E2601A6922615A6962619B69F4
:10B5B000A36102B010BD0000014B0360704700BFE3
:10B5C00000F00700F0B50346186880F30888586853
:10B5D000FF2464B2EFF30585002D01D1A646004794
:10B5E0002546064621273FBAF0B400240025002650
:10B5F0000027F0B4F92040B2004700BFF0BD00BF03
:10B600000AB1138801E04FF6FF730144884210D05D
:10B6100010F8012B5BBA9BB25340C3F303125340A3
:10B6200083EA03331AB2530103F4FF5353409BB22E
:10B63000ECE71846704718DF704700000129F8B59D
:10B640000D4614461F4602D003290CD01AE0114BB8
:10B650001B78052B16D1104B1B689BB13A4621462F
:10B66000042098470EE00B4E3378022B0AD10B4B87
:10B670005B689847084B35701E681EB13A462146F4
:10B680002846B04724B12046BDE8F840FFF7C0B8CF
:10B69000F8BD00BF543000204C3000209430002012
:10B6A00000B5084B89B001221A7005238DF80C30C3
:10B6B000079B009303AB0FCBFFF756FE09B05DF875
:10B6C00004FB00BF6030002000B589B003238DF873
:10B6D0000C300A4B1B88ADF80E30094B5A680492A7
:10B6E0009A68DB680693079B0093059203AB0FCB28
:10B6F000FFF73AFE002009B05DF804FB523000204D
:10B700008430002000B589B001238DF80C300B4B3C
:10B710001B88ADF80E3043F208031A68084B5968CD
:10B7200004919968DB6806930591009203AB0FCBF7
:10B73000FFF71AFE002009B05DF804FB523000202C
:10B740008430002010B588B003AC142200212046BC
:10B75000FEF7F8FE04238DF80C300023009394E8E4
:10B760000F00FFF701FE08B010BD000010B588B053
:10B7700003AC142200212046FEF7E4FE074B1B8891
:10B78000ADF80E30064BDB6806930023009394E877
:10B790000F00FFF7E9FD002008B010BD5230002077
:10B7A0008430002008B5084B08481860084B022276
:10B7B0001A70084B196801F0FFF818B1BDE808408D
:10B7C000FFF726B808BD00BFE03000205830002049
:10B7D00054300020E830002010B50C4B1B7883B9A2
:10B7E0000B48FFF7E5FC08B1FFF712F800224FF411
:10B7F00070110748FFF79CFC044620B1FFF708F8DA
:10B8000001E0082010BD204610BD00BF60300020C0
:10B81000643000207FB505460C4696080321684633
:10B820008DE8220002940396FFF705FFD8B1B4F526
:10B83000805F11D8012368468DE8280002940396A2
:10B84000FFF7F9FE78B9032368468DE828000294D3
:10B850000396FFF7F0FE06E01A46E11AE81AFFF732
:10B86000D9FF0028E6D004B070BD00007FB5174BAB
:10B870000193174B174E184D00241C70174B029460
:10B88000314601A803941C8001F072F808B12C70B5
:10B8900019E043F2080301461B68114A114873601E
:10B8A000FFF734FC08B1FEF7B3FF00224FF470112C
:10B8B0000D48FFF73DFC08B1FEF7AAFF0B4B002037
:10B8C000186001232B7004B070BD00BF3DB60700A7
:10B8D00050300020583000205430002052300020DA
:10B8E000A1B6070060DB070064300020E4300020D0
:10B8F000014B1860704700BF4C30002070B54368A2
:10B90000214C0FCB84E80F002078420701D5830734
:10B9100032D163681C4A9E072ED191688D072BD1C6
:10B92000D268940728D10B441344184AB1F5A04FAC
:10B930001360164622D843F208021268C2F5F422B8
:10B9400093421BD8124D134B2B60C207124B6B60F6
:10B9500001D5124B03E083074CBF114B114BAB6079
:10B96000114B1B78012B0BD1FFF736FF044648B96A
:10B970002B683068984705E0062070BD0C2070BD2C
:10B98000082070BD204670BD84300020E8300020C3
:10B9900094300020A5B7070045B7070005B707009A
:10B9A000C9B607006DB7070054300020F8B5064649
:10B9B00040B383689B0727D1154B1B78052B25D1F6
:10B9C000144C4268144F236895003A682B44934204
:10B9D00004D94FF0FF3323600C20F8BDFFF7FCFEC5
:10B9E000A8B90E482368B16800682A4600F0D4FF61
:10B9F00068B920682A1838682260824214BF09207A
:10BA00000020F8BD0E20F8BD1020F8BD0820F8BDBC
:10BA100054300020E4300020E8300020E0300020E6
:10BA200070B50B4B1C687CB90A4E3378042B0BD1D4
:10BA3000094D0A48297800F031F910B9052333700F
:10BA400003E02C70044600E00824204670BD00BFCF
:10BA5000E43000205430002050300020A03000207E
:10BA6000F8B5124B1A78032A074602D0042A02D0EE
:10BA700015E004221A700E4B1C6884B9FFF7ACFE67
:10BA800078B90C4D7A682B7892009E18402E0AD80F
:10BA90000948B968184402F046F82E7004E00824FA
:10BAA00002E0044600E009242046F8BD543000209E
:10BAB000E430002050300020A030002038B50D4C7C
:10BAC0002378052B14D10C4B0C4D1A682B689A4225
:10BAD0000ED106232370FFF77FFE50B9084B29686B
:10BAE0001B68586800F01CF918B90723237038BD8B
:10BAF000082038BD54300020E4300020E830002019
:10BB0000E030002010B5084B1B78072B0AD10748FE
:10BB1000FFF74EFB08B1FEF77BFE054BBDE810407A
:10BB20009B681847082010BD543000206430002066
:10BB30009430002000B589B006238DF80C30079BA7
:10BB4000009303AB0FCBFFF70FFC09B05DF804FBCC
:10BB500010B58CB005A8FFF716FD089A002A37D05B
:10BB60000B9C02F58053A34226D943F20801A4F5A9
:10BB7000805309688A424FEA530307D85800121AC3
:10BB800000F580512044FFF745FE20E003F580508A
:10BB900001210290039001A801910491FFF74BFD50
:10BBA000A8B94FF480500290039001A8019104912C
:10BBB000FFF741FD58B9E1E70123019392084FF4E3
:10BBC000805301A8029403930492FFF734FD0246C8
:10BBD00010460CB010BD00B58DB005A8FFF7D3FC22
:10BBE000099878B1089A1AB943F208031B6801E072
:10BBF0000B9B134480080022039001A8019202933A
:10BC0000FFF719FD0DB05DF804FB00B58DB005A878
:10BC1000FFF7B9FC099890B1089A1AB943F20803E2
:10BC20001B6801E00B9B13440322800801920490DF
:10BC30004FF4F42201A802920393FFF7FCFC0DB02D
:10BC40005DF804FB30B58DB005A8FFF79CFC0898A3
:10BC500008B30B9C00F58053A3420FD943F20803AD
:10BC60001B68984216D8A4F580535B085D00421B00
:10BC700005F580516019FFF7CDFD0CE00323800826
:10BC8000019304904FF4805301A802930394FFF7AB
:10BC9000D2FC00E00E200DB030BD00000B2970B5C5
:10BCA000044633D9038900EB43030A33C21A0A441A
:10BCB000D2B2012A2AD901448B4227D81946164804
:10BCC00001F031FF154B1A884FF6FF718A4202D0FE
:10BCD000218891421CD15B884FF6FF72934202D0BB
:10BCE00062889A4214D134F8081F00234FF6FE7080
:10BCF00043F20C058B420BD234F8022F824209D05A
:10BD00002E88B24203F10103F4D103E0092070BD93
:10BD10000B2070BD002070BDEC30002080100010A2
:10BD200008B50022FFF76CFC044A5178137843EA07
:10BD30000123984214BF0B20002008BDEC300020E6
:10BD40000068704770DF704771DF704773DF7047BE
:10BD500074DF704776DF70477ADF70477CDF7047AB
:10BD60007FDF704786DF7047A7DF7047A8DF704727
:10BD7000A9DF7047AADF704767DF70470C2813D828
:10BD8000DFE800F014121212121209120712120D3B
:10BD90000B000220704703207047042070470429DD
:10BDA0000CBF052006207047062070470120704711
:10BDB000FEF72EBD10B5044608460321FFF7DEFF4F
:10BDC00003210246204601F04FFB18B1BDE81040A8
:10BDD000FEF71EBD10BD000010B5114B90B09B7951
:10BDE0008DF80630044641F230530021382202A873
:10BDF000ADF80430FEF7A6FB02238DF808300123CE
:10BE0000ADF81030002101AB02A88DF80B4005936E
:10BE100001F079F808B1FEF7FBFC10B010BD00BFCF
:10BE200008310020032810B50B46144619D0042809
:10BE300025D149B1124B18884FF6FF7398421ED096
:10BE40001321FFF787FF15E0104600F0EFFB08B164
:10BE5000FEF7DEFC0B4B1B689C4210D10122032134
:10BE600005E001211846FFF789FF01210246064837
:10BE700001F0FAFA18B1BDE81040FEF7C9BC10BDD8
:10BE8000602C0020F8300020083100202DE9F04718
:10BE90002D4B1E788AB09A46002E52D12B4C182278
:10BEA00031462046FEF74EFB294B1D788DB3DFF857
:10BEB000A4801022314602A808F10709FEF742FBD0
:10BEC000102202A9484601F01FFE0127054640B98D
:10BED0000520FFF781FF2770C4F8048025722582B2
:10BEE0001FE001AB04200693CDF80090CDF804804C
:10BEF0008DF81C708DF82470CDF820D0FFF76CFF02
:10BF00000223237206ABE360282326702382668215
:10BF100008E00620FFF760FF282325706560257282
:10BF2000238265820948FFF711FF08B1FEF770FC14
:10BF30004FF0A0434FF40032C3F80C2501238AF8D8
:10BF400000300AB0BDE8F087F730002084310020CF
:10BF5000F63000203E310020F0B50446B1B001F0CB
:10BF6000B9F82146824801F0B1FA2388142B00F079
:10BF7000BC801ED8102B2CD008D8022B40F0F680A5
:10BF80007C4B00211888FFF7F7FEE9E0112B31D038
:10BF9000132B40F0EB80784B03AC9A7918689988A2
:10BFA0008DF822200790DA1DADF8201017332646B1
:10BFB0003FE0512B00F0838005D81A2B00F0A480BD
:10BFC0001B2B60D0D2E0522B00F09E80552B51D01D
:10BFD000CCE04FF0A0434FF48022C3F80C254FF47F
:10BFE0000032C3F80825634BA2881A80634B0022F5
:10BFF0001A70BBE030AA802322F89C3D604B5D4C58
:10C00000322119604FF0A0434FF48021C3F8081586
:10C010002088012310A9FFF7ADFE08B1FEF7F8FB59
:10C02000584B1B780BB9FFF731FF4FF6FF73238096
:10C030009CE010685168254603C508329A422C4698
:10C04000F7D1514B09AA03F118071546186859682A
:10C05000144603C40833BB422246F7D11868206057
:10C0600044484A4A0088159610AB85211495FFF77D
:10C0700077FE75E0A379002B78D13E4B1321188809
:10C08000FFF768FE6CE0237A002B6FD13B4A1370F8
:10C090003B4B19680139196071B910AC1422204664
:10C0A000FEF750FA05238DF84030149B009394E876
:10C0B0000F00FFF759F959E0FFF7E8FE56E0A379C2
:10C0C000002B53D0A27B043A022A4FD8022B18BF70
:10C0D00001238DF840304FF4C173ADF84430254B47
:10C0E00010A91888FFF742FE3AE0234A258A518DAD
:10C0F00002F1180000238D420CBF01461946073299
:10C10000A088FFF72FFE2BE01A4B1C884FF6FF7517
:10C11000AC4229D01E4B1B78EBB1012308221D49EC
:10C120002046FFF725FEE0B90246014602232046DD
:10C13000FFF71EFEA8B92A460C212046FFF714FE81
:10C1400043F20203984211D008280FD043F20403AF
:10C15000984205D10AE01A4619462046FFF708FE24
:10C1600020B1FEF755FB01E00820FAE731B0F0BD41
:10C1700008310020602C00203E310020F7300020E4
:10C18000642C00209C3100205631002038310020E2
:10C19000F630002072310020FEF73ABB4B4A4C4883
:10C1A000002310B513704B4A13704FF0A0430322C5
:10C1B000C3F84427C3F848274FF40032C3F80825D2
:10C1C0004FF4802288B0C3F8082501F00DFC002848
:10C1D0007AD14148FFF78CFB00F0ECF9002873D1CD
:10C1E0003E48FEF7F5FA18B93D4B01221A7011E0EE
:10C1F00001A8FFF7A9FD08B1FEF70AFB9DF805307D
:10C2000001A9013300208DF80530FFF79BFD08B12F
:10C21000FEF7FEFA9DF800303249012262F3030373
:10C2200008A862F3071300F8203D0722FFF796FDE8
:10C2300008B1FEF7EDFA0C22ADF804201822002315
:10C24000ADF8062001A84FF4C8720293ADF80A2099
:10C25000FFF782FD1C4608B1FEF7DAFA08230194C5
:10C26000ADF80430204B029301A9204B20480393E2
:10C2700000F090FF08B1FEF7CBFA1C22002101A8C4
:10C28000FEF760F940F6CD4302934FF480430393E9
:10C2900003238DF8103001A8164B079300F0DEFE43
:10C2A00008B1FEF7B5FA144A1378032103F0F0033E
:10C2B00061F306136FF3C713137007235370102332
:10C2C0009370FFF7E3FD002008B010BD9C31002003
:10C2D00059BF07000431002025BE07003E31002071
:10C2E000F630002064DB07005DC30700B1BD070026
:10C2F0000831002099C107003831002010B5144BD7
:10C3000001221A70134B18884FF6FF73984206D01B
:10C310001321FFF71FFD98B1FEF77AFA10E00E4BDC
:10C320001A781C4662B1FFF713FD08B1FEF770FAE8
:10C330004FF0A0434FF40032C3F8082500232370C8
:10C3400000F0C2FE08B1FEF763FA002010BD00BF86
:10C350009C310020602C0020F7300020F0B50B78D5
:10C3600089B005460C46092B00F21181DFE813F075
:10C3700026002D0040000A0012001F00FA000201F2
:10C3800044000801FFF79AFB0421FFF7F7FC0421A2
:10C39000024629E0FFF7B2FF08B1FEF739FAFFF7CE
:10C3A000B1FB002800F0F380FFF7C4FBEFE0FFF7DC
:10C3B000A5FF0028F8D0FEF72BFAF5E7754B012210
:10C3C0001A704B681A78744B14E0724B02261E7078
:10C3D0004B681B78012B40F0DA80FFF721FB3146D8
:10C3E000FFF7CCFC02463146284601F03DF8CBE091
:10C3F000684B03221A70CAE0664B1E78022E2BD0BF
:10C40000032E51D0012E40F0C28004AF1022002133
:10C410003846FEF797F8604B02971B788DF810307E
:10C4200000230393237A03220C2B0192DBD1636850
:10C430001846FFF785FC0590181DFFF781FC069054
:10C4400003F10800FFF77CFC079001A8FFF756FAFC
:10C45000002800F09C80C2E70B7A13F0030111D092
:10C460000022C1F1040696469818C0B267680132EE
:10C47000964207F800E0F7D10133C1F1030151FA08
:10C4800083F323720123049363680693237A04A839
:10C490009B080593FFF7E4FA002878D00221FFF704
:10C4A0006DFC022102469FE7087A830702D03246DC
:10C4B000314699E7394E0190314600F08FF8014638
:10C4C00000284BD16168019A306801F02CFB01987B
:10C4D00000F0E6F80146002840D101A9304600F0FE
:10C4E000EDF80146002839D104230493019B9B08F1
:10C4F000059304A833680693FFF758FA074640B936
:10C50000274A217A13680B441360264B32681A605D
:10C510003DE0092819D1224A217A13681944224B97
:10C5200011601B78002B32D0204A1388013B9BB24C
:10C53000138014465BBB284600F060FF08B1FEF78D
:10C5400067F91B4B1B88238021E0306800F06EF8F0
:10C55000014610B12846FFF72DFC39462846FFF763
:10C5600029FC14E0104B01221A70114A8B881380A9
:10C570000E4A03E00C4A002313700D4A138006E0B4
:10C58000074B196800F002FF08B1FEF741F909B046
:10C59000F0BD00BF043100203D31002000310020FB
:10C5A00080310020F83000207C310020FC30002059
:10C5B0007A310020064B074A00201870064B1A609B
:10C5C00008225A609860D860186158619861704775
:10C5D000DC320020A0310020C032002030B5E1B1B3
:10C5E000114B5C6800220A60CCB1202819D8D868A9
:10C5F0001D680130013CD86018695C60242404FB8C
:10C6000000540C609C69012181400130214300F0FD
:10C61000070018619961104630BD0E2030BD04201E
:10C6200030BD0C2030BD00BFC0320020F0B51B4B28
:10C63000996889B35D691E686C1A04F00704224684
:10C64000242707FB026E704510D19D6901209040A0
:10C650006840986100205E68D3F818E04FF0010C44
:10C66000624400250E4402F007020AE0013202F0A3
:10C6700007029542E5D11020EDE749B10139144692
:10C6800001250CFA04F414EA0E0FA6EB0107F4D00E
:10C690001DB199605F60F0BD0420F0BDC032002084
:10C6A00005490B69013B03F007020B68242101FBDC
:10C6B0000233186200207047C032002030B5B0B19C
:10C6C000A9B10D4BDA68A2B1013ADA609A681D6827
:10C6D00001329A605A69242404FB02540132046036
:10C6E00002F00702206A5A610860002030BD0E2067
:10C6F00030BD042030BD00BFC032002082B00190A8
:10C70000019B002B41D0019B013B019340F2E7309C
:10C71000013800BF00BF00BF00BF00BF00BF00BFA7
:10C7200000BF00BF00BF00BF00BF00BF00BF00BF11
:10C7300000BF00BF00BF00BF00BF00BF00BF00BF01
:10C7400000BF00BF00BF00BF00BF00BF00BF00BFF1
:10C7500000BF00BF00BF00BF00BF00BF00BF00BFE1
:10C7600000BF00BF00BF00BF00BF00BF00BF00BFD1
:10C7700000BF00BF00BF00BF00BF00BF00BF00BFC1
:10C7800000BF00BF00BFC3D1BAE702B0704729DFC6
:10C79000704728DF7047000037B50B460C465A68D3
:10C7A00014F80C1BDD680092044A5B6952F82550AE
:10C7B00002462046A84703B030BD00BFD433002056
:10C7C00038B5174C2378182202FB03431A795869AD
:10C7D000012A0DD0032A21D14FF080531B699BB24F
:10C7E000B0FBF3F00F4B1B681844FFF7D2FF11E0CA
:10C7F0000C4A996915689A68DB682D03521BB2F5DB
:10C80000805F18442944284434BF92084FF4806262
:10C81000FFF7BDFF18B90123A37038BD0F2038BD45
:10C82000E0320020E433002070B5134D6E780A2EFC
:10C830001FD02C783444E4B2092C84BF0A3CE4B203
:10C84000182606FB0454A261207103C9A360049B4F
:10C85000E360AB7804F1100282E803000BB1002022
:10C8600003E0FFF7ADFF1128F9D06B7801336B704F
:10C8700070BD042070BD00BFE032002038B5274BEA
:10C880009A781D46002A47D0002402289C7002D0C6
:10C89000032831D038BD1B782149182000FB0350F4
:10C8A0000A6880680132B0EB023F0A6019D86A78E2
:10C8B0000C60013A6A705A1CD2B2182404FB03546B
:10C8C000092A88BFA3F10902211D00202A70FFF761
:10C8D00063FF002303222371A36022616361A361CC
:10C8E000E3606B780D4CBBB1A378ABB9FFF768FF81
:10C8F00090B1112807D138BD1A78182101FB0231F7
:10C9000004310D2004E02378182101FB0341043198
:10C91000BDE83840FFF740BF38BD00BFE03200201F
:10C92000E43300200E4B002210B51A600D4B032497
:10C930001A705A709A7003F1F0011A719A601C61B2
:10C940005A619A61DA6018338B424FF00000F4D1DB
:10C95000054B1860054B18605860986010BD00BF0B
:10C96000E4330020E0320020E0330020D433002004
:10C97000074A1368032B1FBF0B60591C1160054A3F
:10C980001DBF016842F8231000200420704700BF3B
:10C99000E0330020D433002013B5CC180C43A40797
:10C9A00007D1009313460A4601460120FFF73CFFDA
:10C9B00000E0102002B010BD07B500220B46009227
:10C9C00001460320FFF730FF03B05DF804FB71DF81
:10C9D000704772DF704779DF70477DDF704765DF32
:10C9E00070472DE9F74F0C9DBDF834B02F88002417
:10C9F00080468A4691462646B8F80020964233DAA9
:10CA0000D8F8042052F82600019000220DF103010D
:10CA100001A8FFF7E4FF002833D19DF803204A4521
:10CA200020D12A88002C14BF0021022102EB09002A
:10CA30000144594524DC3CB9013292B22A8003F802
:10CA400002A02A8801322A802A880DF103011A44A3
:10CA500001A8FFF7C4FFA0B92A889DF803100A4473
:10CA60002A8001240136C7E744B12A88013AD21B43
:10CA700092B2FF2A04D8DA55002002E0204600E0F6
:10CA80000C2003B0BDE8F08F2DE9F341089CBDF800
:10CA9000245017468DE8300002220646FFF7A1FF1A
:10CAA00048B91022394630460995089402B0BDE8CD
:10CAB000F041FFF796BF02B0BDE8F0812DE9F04FDD
:10CAC000002316881380436B85B007460D46144635
:10CAD0009BB1022E40F213821A7802230B70238836
:10CAE00001339BB211212380E954238801339BB287
:10CAF0002380EA542388013323803A6B22B997F8C4
:10CB00002E20002A41D01CE0238803F11201B142FB
:10CB100000F2F5811121E954238801339BB21021E1
:10CB20002380E9542388013323805318218813F884
:10CB3000010D68542188934201F101012180F5D152
:10CB4000DDE72388D91CB14200F2D9810221E954E2
:10CB5000238801339BB21C202380E85423880133AF
:10CB60009BB2013A2380032A00F2C781DFE802F07A
:10CB700002040608002204E0012202E0E95401E078
:10CB80000322EA5423880133238097F82D301BB900
:10CB9000BB78002B4DD02BE023880933B34200F241
:10CBA000AE8102A8FFF713FF002840F0A981238877
:10CBB0000822EA54238801339BB21B222380EA54C3
:10CBC000238804AA01339BB252F8070D2380E91889
:10CBD000E85093888B8023889DF8082006339BB209
:10CBE000238002B10122EA54238801332380CFE756
:10CBF00023880433B34200F2828102A8FFF7EBFEE0
:10CC0000002840F07D8123880322EA5423880133E1
:10CC10009BB219222380EA542388BDF808200133EF
:10CC20009BB2E9182380EA54120A4A70238802331F
:10CC30002380FA78A2B12388D91CB14200F25F8127
:10CC40000221E954238801339BB201212380E95456
:10CC500023880B449BB22380EA5423880B4423800F
:10CC60007A68B2B12388D91CB14200F2488102210E
:10CC700092F90020E954238801339BB20A212380D2
:10CC8000E954238801339BB22380EA54238801337B
:10CC900023803B8913B93B8AC3B10BE08DE8500078
:10CCA0002B460622022107F10800FFF7EDFE0028BF
:10CCB000F1D025E18DE850002B460722032107F132
:10CCC0001000FFF7E1FE002840F01A813B8B5BB1BA
:10CCD0008DE850002B461522142107F11800FFF7AC
:10CCE000D3FE002840F00C813A6A002A46D0B4F8FE
:10CCF00000E00EF10603B34200F20181118805291C
:10CD000040F2FB806FF4486C01EB0C039BB24FF2D6
:10CD10007D3C634540F2F1805388052B40F2ED8065
:10CD20006FF44860181880B2604540F2E6804FF614
:10CD3000FF70814204D0834202D0994200F2DD802C
:10CD4000052305F80E30238801339BB2122123807E
:10CD5000E954238801339BB223801188E954E818F1
:10CD6000090A4170238802339BB223805288EA5417
:10CD7000E918120A4A70238802332380D7F82480E6
:10CD8000B8F1000F31D0B8F8043021881A1D0A44D8
:10CD9000B24200F2B4809A1CFE2A00F2B080033343
:10CDA0006B54238801339BB2FF222380EA542388EB
:10CDB00001339BB22380B8F80020EA54E918120A24
:10CDC0004A702088023080B22080B8F8042062B116
:10CDD000D8F80810002900F09080284400F0A3FE45
:10CDE0002288B8F804301344238097F82C3023B9F4
:10CDF0003878002800F0848040E0BB6A002B7CD0AB
:10CE00004FF000094FF00C0A4FF0160B97F82C303A
:10CE10005FFA89F29342EBD9B96A0AFB02F201EB9D
:10CE20000208B8F80430981CFE2868D8208803331C
:10CE30002B54238801339BB2238005F803B0238849
:10CE400001339BB223808A5AEA54E918120A4A70C5
:10CE50002088023080B22080B8F804205AB1D8F877
:10CE60000810002949D0284400F05DFE2288B8F857
:10CE700004301344238009F10109C7E73B88012BE3
:10CE80003BD0228802F1020EB64538D8012804D1E1
:10CE90007B78023313449E4231D3023EB61A04A972
:10CEA000B6B221F8086D05EB0E00FFF796FD38BB12
:10CEB0003B78022B04D1BDF80830B3420CD907E00F
:10CEC000012B05D17B789E4202D3ADF8083001E0FA
:10CED000ADF80860082100E00921BDF80820FE2A0D
:10CEE0000DD823880132EA54238801339BB2238072
:10CEF000E95423881A44228002E0072000E00C2035
:10CF000005B0BDE8F08F30B593B01F230D46ADF8E6
:10CF10000430ADF8063020B1C3785B0714D4072085
:10CF200022E0ADF8040004461DB1EB78002BF6D1E9
:10CF300011E0ADF806502A469DF806309DF8041021
:10CF40002046FFF746FD0FE001AA02A9FFF7B6FD54
:10CF500050B902ACE8E70DF106020AA92846FFF72E
:10CF6000ADFD08B90AAAE7E713B030BD75DF704719
:10CF700076DF70477ADF70477BDF704737B5154B38
:10CF800018884FF6FF73984222D0134A134D137836
:10CF9000297B0133DBB2994213702C4606D310492A
:10CFA000FFF7E4FFA0B1AB698BB911E00023137068
:10CFB0002B7C33B13B21FFF7DBFF10B1AB6903B131
:10CFC0009847636923B102A8002200F8042D98470E
:10CFD00003B030BD30340020F2330020F4330020A1
:10CFE0003234002037B5174B174A5B881188174C2D
:10CFF000174D99420DD852889A420AD3636923B1DA
:10D0000002A8012200F8042D984700232B7003B0DA
:10D0100030BD2A782AB16369002BF6D002A800221D
:10D02000F0E70C4861680078A368002818BF19462B
:10D030000948FEF77DF80028E7D0A369002BE3D16B
:10D04000E3E700BFEA33002032340020F43300204D
:10D05000E8330020F23300201034002070B505467C
:10D0600006460FCD114C0FC495E80700104B84E81D
:10D07000070000221A7032680E489AB113680360E4
:10D0800053684360FFF776FF78B90B4B0B484FF6B8
:10D09000FF721A800A4B0B4A00211970BDE87040DC
:10D0A000FEF734B8FFF768FFEEE770BDF4330020F9
:10D0B000E833002032340020303400206CDB0700DD
:10D0C000F23300207DCF07000148FEF771B800BFA2
:10D0D0001034002010B50388112B18D002D8102B63
:10D0E00005D010BD122B34D0502B1ED010BD1E4BBE
:10D0F00082881A8000F1180303CB1C4A1C4B106075
:10D10000516000221A701B4BDB8963BB27E0164B72
:10D1100019484FF6FF721A80154B00221A70FEF75D
:10D1200047F800B3134B9B690FE0124CC288E389A8
:10D130009A4218D1038A022B15D1837CDB070ED4C7
:10D140000D48FEF735F870B1A36963B1BDE8104032
:10D15000184700F1080303CB044A10605160BDE892
:10D160001040FFF73FBF10BD30340020EA330020ED
:10D17000F2330020F433002010340020A0DF704789
:10D18000A2DF7047A5DF7047A6DF7047A8DF7047B2
:10D1900063DF70472DE9F0470F4694B0054600283D
:10D1A00000F0E980002900F0E6804B68002B00F0D9
:10D1B000E2804FF6FF730380724B04AA03F1100E56
:10D1C000164618685968144603C408337345224646
:10D1D000F7D114AB41F230520DF10A01304623F879
:10D1E000482DFFF7D5FF002840F0C7802A1D1946BB
:10D1F0000120FFF7C3FF0446002840F0BF809DF8E0
:10D200000A60AE7101461C220DA8FDF79BF99DF83E
:10D2100034308DF80E6043F004038DF8343041F261
:10D2200032530126ADF80C30230A66F3030366F38C
:10D230000713ADF804408DF80530234666F342032A
:10D240004FF01409DBB2334321464A4608A88DF853
:10D2500006300DF10408FDF775F90DF10C0A05F122
:10D26000080308AA0DA9A888CDF820A0CDF824802D
:10D27000ADF82C90FFF784FF044600287ED10146CC
:10D280001C220DA8FDF75EF99DF83430ADF804407E
:10D2900043F018038DF83430AB798DF80E3041F23D
:10D2A0003153ADF80C30230A66F3030366F307131A
:10D2B0008DF80530234666F34203DBB243F01103D9
:10D2C00021464A4608A88DF80630FDF73BF917239A
:10D2D000ADF82C3008AA05F110030DA9A888CDF8E7
:10D2E00020A0CDF82480FFF74BFF0446002845D14D
:10D2F00001461C220DA8FDF725F99DF83430A8F849
:10D30000004043F002038DF83430AB798DF80E30D5
:10D3100041F23453ADF80C30234666F3030366F351
:10D3200007138DF80430234666F34203DBB2334320
:10D3300021464A4608A88DF80630FDF703F9022376
:10D34000ADF82830ADF82C3008AA05F120030DA95E
:10D35000A888CDF820A0CDF824800C97FFF710FF07
:10D36000044658B97B68AB62BB6803B1EB62064BFD
:10D3700001221A7002E00E2400E00446204614B098
:10D38000BDE8F08770DB07003A34002070B5054631
:10D3900086B050B302884FF6FF739A4227D0154BE0
:10D3A0001B7823B3144C1022080AE170207121FA73
:10D3B00002F0090E072301266071A17102A8002165
:10D3C0006370ADF806302270A670FDF7BBF82B8AAB
:10D3D000ADF8083002A90DF1060328888DF80A601F
:10D3E00004930594FFF7D0FE02E00E2000E0082031
:10D3F00006B070BD3A3400203B34002030B50546FD
:10D4000087B040B302884FF6FF739A4225D0144B81
:10D410001B7813B3134C112323700B0A6170A37094
:10D420000B0C090EE370217105231022002102A8C4
:10D43000ADF80630FDF786F82B8AADF808300123E9
:10D440008DF80A3002A90DF106032888049305948B
:10D45000FFF79AFE02E00E2000E0082007B030BD82
:10D460003A3400203B34002030B5044687B018B36E
:10D4700000884FF6FF73984220D0124B1B78EBB117
:10D48000114D102369700321ADF80610AA70002118
:10D490001A4602A82B70FDF755F8238AADF808301C
:10D4A00001238DF80A3002A90DF1060320880493A8
:10D4B0000595FFF769FE02E00E2000E0082007B0A6
:10D4C00030BD00BF3A3400203B34002030B50B465D
:10D4D00089B00446002800F0BB80002900F0B88025
:10D4E000856A002D00F0B4800A88112A1BD004D868
:10D4F000102A40F0AD808B8817E0502A02D0512AC4
:10D5000015D0A5E0C9880289914240F0A180082287
:10D510008DF81020123333F8022C8DF81820059363
:10D5200004A9A84794E04FF6FF73238090E08A791E
:10D53000022A40F08D800989028A914240F0888059
:10D540009A7B043A022A40F283809DF81620CDF897
:10D5500008D042F001028DF816201A8AADF8182082
:10D560005A8AADF81A2003F1140202210792002210
:10D5700001928DF81010ADF8041001AA818A00887C
:10D58000FFF700FE024618B1E36A2BB1984703E0AB
:10D590009DF80010C90708D440F2FD1304A92088A3
:10D5A000ADF81430FFF7F2FD4EE0ADF8140004A919
:10D5B0002088FFF7EBFD002846D1197D481E07287B
:10D5C0003ED8DFE800F0040E1C1E20223B248DF81C
:10D5D00004205A8A012A02D80622012131E00122C0
:10D5E00008E0598A012291428DF8042002D80622CF
:10D5F000022126E015338DF80C20029319E0022356
:10D6000015E0032313E0042311E005230FE05A8AF9
:10D61000022A02D80322082113E09A7D5B7D43EAA7
:10D620000223ADF808300BB9072300E006238DF87C
:10D630000430A36A01A92046984709E00923F6E7C8
:10D6400003222046FFF710FF10B1E36A03B19847A9
:10D6500009B030BD0C4B1B78062B10D10B4B1B684F
:10D660001A070CD10A4B186800F0F003302B08D0D1
:10D6700000F0E000A0F140035842584170470020FC
:10D6800070470120704700BFE00F00F0E40F00F08A
:10D69000E80F00F0094B1B78062B0CD1084B1B68D8
:10D6A0001A0708D1074B186800F0F000A0F130030A
:10D6B0005842584170470020704700BFE00F00F00B
:10D6C000E40F00F0E80F00F008B5FFF7E3FF10B13A
:10D6D000684B694A1A60FFF7BDFF28B1674B684A7B
:10D6E0001B68C3F342331360FFF7D4FF20B1654AD0
:10D6F000D36823F08073D360FFF7ACFF40B14FF0E5
:10D7000080430022C3F80C21C3F81021C3F8382548
:10D71000FFF7C0FF10B15C4B03221A60FFF7BAFF9E
:10D7200040B15A4B05221A6001229A6700229A6082
:10D730003F225A60564B1B78062B09D1554B1B686C
:10D740001B0705D1544B1B6803F0F003502B48D046
:10D75000524AD2F8883043F47003C2F88830BFF3DD
:10D760004F8FBFF36F8F4FF01023D3F80022002AA2
:10D7700003DBD3F80432002B2FDA494B0122C3F824
:10D780000425D3F80024002AFBD04FF010221521E5
:10D79000C2F80012D3F80024002AFBD04FF0102367
:10D7A00015223F49C3F80422D1F800243C4B002A3B
:10D7B000FAD00022C3F80425D3F80024002AFBD0B5
:10D7C000BFF34F8F3549374BCA6802F4E062134309
:10D7D000CB60BFF34F8F00BFFDE7334B334A1A6076
:10D7E00008BD4FF08052324BD2F80414C3F8201514
:10D7F000D2F80814C3F82415D2F80C14C3F828156D
:10D80000D2F81014C3F82C15D2F81414C3F830153C
:10D81000D2F81814C3F83415D2F81C14C3F8401504
:10D82000D2F82014C3F84415D2F82414C3F84815CC
:10D83000D2F82814C3F84C15D2F82C14C3F850159C
:10D84000D2F83014C3F85415D2F83414C3F8601564
:10D85000D2F83814C3F86415D2F83C14C3F868152C
:10D86000D2F84014C3F86C15D2F84424C3F87025DC
:10D870006EE700BF74C007400DF0ADBA440200105F
:10D880003C050040F0ED00E0A005004010560040CF
:10D89000E00F00F0E40F00F0E80F00F000ED00E012
:10D8A00000E001400400FA05682C00200090D0033D
:10D8B00000C0004052DF704710DF704760DF7047E4
:10D8C00061DF704708B5AFF3008008BD2DE9F7436D
:10D8D000234B1B78002B3FD0224E234F3468DFF8B8
:10D8E0008C80DFF88C90B4FA84F4640900258DBB39
:10D8F00001A8FFF7DFFF05280CD010B1FCF788FF67
:10D9000009E0019800F0CAF8D9F800301BB101987D
:10D91000984700E00125D4B902A93B8821F8043DCD
:10D92000D8F800301846FFF7CBFF0528044608D08A
:10D9300018B1FCF76DFF002404E0326818469047E8
:10D9400000E00124002DD3D0002CD0D004E0002D25
:10D95000CED001E0002CDFD003B0BDE8F08300BFE3
:10D96000423400205C340020443400205434002031
:10D970005834002010B5C1B18C0716D1134C21606A
:10D9800013490A80134A14491360FFF795FFA8B999
:10D99000124B134901221A7091F81633C3F3411345
:10D9A000934204D842F202030DE007230BE00D4A34
:10D9B00093682BB1136843F480031360034602E0BD
:10D9C0004FF480020A60184610BD00BF5434002096
:10D9D0004434002060340020C5D8070042340020C1
:10D9E00000E100E04834002018B1034B186000202B
:10D9F00070470E20704700BF5C34002018B1034B05
:10DA00001860002070470E20704700BF5834002077
:10DA100008B5074B1B682BB1984738B1BDE80840E3
:10DA2000FCF7F6BEBDE80840FFF750BF08BD00BFD9
:10DA30006034002070B5144605460E4614220021BD
:10DA40002046FCF77FFD01234FF000022380227364
:10DA50002672657205B1A372002070BD07B5054B33
:10DA6000019302A9019B41F8083DFFF727FF03B08E
:10DA70005DF804FB002C002008B511B10020FCF774
:10DA8000C7FEBDE80840FFF721BF00000021024AA1
:10DA90000846FCF7EFBE00BF79DA070010B540B9C1
:10DAA000044C63682BB11A6862605B680020984779
:10DAB000F7E710BD643400200A490B4A0B4B9B1A50
:10DAC00003DD043BC858D050FBDC0849084A00205D
:10DAD000521A02DD043A8850FCDCFFF7F5FDFCF732
:10DAE000BDFC00008CDB0700002C0020782C0020FF
:10DAF00070340020FEE7FEE7FEE7FEE7FEE7FEE704
:10DB0000FEE7FEE7FEE7FEE710B50139024490426A
:10DB100007D010F8013B11F8014FA342F7D0181BB2
:10DB200010BD002010BD10B5431E0A44914204D020
:10DB300011F8014B03F8014FF8E710BDF8B500BF2D
:10DB4000F8BC08BC9E467047F8B500BFF8BC08BCDE
:10DB50009E46704743000000002C00200010020089
:10DB600064300020446675546172670010340020F0
:10DB700023D1BCEA5F782315DEEF1212000000000B
:04DB800000000000A1
:08DB8400D8C8FF7F010000007A
:10DB8C000000000000000000000000000000000089
:10DB9C000000000000000000000000000000000079
:10DBAC0054DB070000000000000000000000000033
:10DBBC000000000000000000000000000000000059
:10DBCC000000000000000000000000000000000049
:10DBDC000000000000000000000000000000000039
:10DBEC00FFFF0000320000000090D00325A40700C6
:08DBFC0001A407000000000075
:020000020000FC
:020000041000EA
:0410140000A0070031
:0410180000E00700ED
:040000037000DAB9F6
:00000001FF
