:020000040003F7
:10C00000C03B0020D1EE0300EBEE0300EDEE030099
:10C010000000000000000000000000000000000020
:10C02000000000000000000000000000D5C0030078
:10C030000000000000000000F1EE0300F3EE03003A
:10C04000F5EE0300F5EE0300F5EE0300F5EE030058
:10C05000F5EE030000000000F5EE0300F5EE03002E
:10C06000F5EE0300F5EE0300F5EE0300F5EE030038
:10C07000F5EE0300F5EE0300F5EE0300F5EE030028
:10C08000F5EE0300A1D60300F5EE0300F5EE030084
:10C09000BDD60300F5EE03004DEE0300F5EE030000
:10C0A000F5EE0300F5EE03000000000000000000C4
:10C0B0000000000000000000000000000000000080
:10C0C0000348854602F0BEFF0048004781C20300D6
:10C0D000C03B00200648704502D1EFF3098101E022
:10C0E000EFF30881886902380078024A104700009F
:10C0F000FDFFFFFF6DC10300401E00BF00BF00BF7A
:10C1000000BF00BF00BF00BF00BF00BF00BF00BF37
:10C1100000BFF1D170470000401E00BF00BF00BF4C
:10C1200000BF00BF00BF00BF00BF00BF00BF00BF17
:10C1300000BFF1D170470000056885F308884068AA
:10C14000FF2464B2EFF30585002D01D1A646004718
:10C150002546064621273FBAF0B4002400250026D4
:10C160000027F0B4F92040B20047000010B50C469B
:10C17000002802D00120086010BD2168002911D0DC
:10C180001E48421A814212D03C2A0DD201223C3074
:10C190003C310B7803701346521C401E491E3C2B49
:10C1A000F7D904E00E200BE03C2202F00FFF002242
:10C1B0003C21124801F01CFE1049891E0880002015
:10C1C000206010BD70B505000BD000223C210B484B
:10C1D00001F00EFE094CA41E2188884203D00B20DA
:10C1E00070BD0E2070BD3C220449284602F0EEFED0
:10C1F0002088401C2080002070BD0000827F00202D
:10C2000010B500F0D3FF10BD10B5744A8AB01ECA35
:10C21000089405AC0EC4002805D005A818DF002836
:10C2200001D001F07AF80F20800313DF002801D03D
:10C2300001F073F86A4B48226A49082002F0E2FDD7
:10C24000002801D001F069F801216A46084602F091
:10C250000BFE002801D001F060F801206946087348
:10C26000684602F015FE002801D001F056F85E483D
:10C2700002F0E4FD002801D001F04FF80AB010BD33
:10C280001CB55A48C1690026B12953D00024152590
:10C29000182701220096002311462846019600F037
:10C2A00080F86D1CBD42F4D90F20514D4005A860A7
:10C2B00050480F2140698903884202D0002001F0D4
:10C2C0002CF801200007006901218902884202D070
:10C2D000002001F022F8484B484A0521002001F0D7
:10C2E000F1F9002801D001F018F8032300221420EE
:10C2F00011460096019300F054F801F0CBFC01F0D8
:10C300000BFD0127FE05002817D0EE6001F013FD9C
:10C31000002801D001F001F820467840FFF774FFB3
:10C3200000F04FF801F027FD002801D000F0F5FFE4
:10C33000AE6008E00124C661A9E720467840FFF717
:10C3400063FF00F03EF82869000DC007C00F04D05D
:10C35000002020432A4C07D101E00120F9E7A06822
:10C3600001F0F5FB002807D1EE6001F0A5FC0028E4
:10C3700001D000F0D2FFAE60A06801F0E8FB002819
:10C3800006D001F0C9FC002802D1A06801F0A0FC91
:10C39000BFF34F8F1C491B48C860BFF34F8F00BFCE
:10C3A000FDE730B552000A439900039C0A4321027D
:10C3B000049D0A4329040A4314498000401802607E
:10C3C00030BD084A10B548321421082000F0B4FFEF
:10C3D000002801D000F0A1FF10BD0000A0F0030074
:10C3E000BFEE0300942E002001C2030000050040B0
:10C3F0000005005000100010FBDA0300CC2C0020D8
:10C40000003000000400FA0500ED00E000070050D5
:10C41000FFB583B0074600200C9C8646268805465B
:10C420003AE07868A90042181188684681805188EE
:10C43000C1800022694601A865DF002839D168461D
:10C4400001780598814226D17046002801D000224B
:10C4500000E002222088891842180D998A4227D8C4
:10C46000714600290AD1401C80B22080069A0499A6
:10C4700011542088401C208001208646218806987F
:10C480000A18694601A865DF002812D1694620888C
:10C490000978401820806D1C3888A842C1DC70469D
:10C4A00000280AD02088801B401E80B2FF2802D9B5
:10C4B0000C2007B0F0BD069988550020F9E7FFB5BC
:10C4C00083B016460C9D0D9C1F46022200950194D8
:10C4D0000398FFF79DFF0028EBD13B461022314621
:10C4E000009501940398FFF793FFE2E7F7B584B056
:10C4F0000025168807461580406B1446002813D087
:10C5000003780598032E51D302210170218811224E
:10C51000491C89B2218042542188491C89B221805A
:10C5200043542088401C2080386B00281DD00546CD
:10C530002088059902461232B24237D811220A5495
:10C5400020881022401C80B220800A542088401C81
:10C5500020800F202A5C2388401ECA54228840B2C3
:10C56000521C22800028F5DA00253846203002903F
:10C57000807B002806D033462246059900F0F9F862
:10C58000050096D10298407B002806D0324621460D
:10C59000059800F018F905008BD1B878002822D052
:10C5A000059886462088001DB04201D90C2080E7FE
:10C5B000684679DF0028FAD121880320724650545A
:10C5C00020881921401C80B2208011542088714697
:10C5D000401C80B2208041186846008800F0C4F8F2
:10C5E000218840182080F878002817D0218803235C
:10C5F0000A46FB56C91C0598B142D7D8022181547E
:10C6000021880122491C89B2218042542188491C79
:10C6100089B2218043542088401C208078680028FB
:10C6200017D021880023C3560A46C91C0598B14279
:10C63000BCD80221815421880A22491C89B2218058
:10C6400042542188491C89B2218043542088401CCF
:10C650002080388900280AD00094384601960622A6
:10C6600002210830059BFFF72AFF05009FD1388A79
:10C6700000280AD000943846019607220321103082
:10C68000059BFFF71CFF050091D1388B00280AD0CD
:10C69000009438460196152214211830059BFFF7A7
:10C6A0000EFF050087D1386A002806D0334622469F
:10C6B000059900F006F90500D8D1786A002806D05F
:10C6C00033462246059900F03DF90500CED1029887
:10C6D000007B002807D0334622463846059900F0F3
:10C6E00065F90500C2D13878002807D033462246C4
:10C6F0003846059900F096F80500B7D12846D8E6E7
:10C70000F0B50C4693B01F216A461180072600271A
:10C710009180002809D0C17849070DD502A9FFF7FB
:10C72000E5FE002809D102AD01E000251780002CAC
:10C730000ED0E078002802D0304613B0F0BD01AA38
:10C740000AA92046FFF7D2FE0028F6D10AAA02E085
:10C7500068460022878068468088C3B268460088A1
:10C76000C1B2284672DFE8E70870000A487002206C
:10C77000704730B51588EC1C9C4201D90C2030BDA7
:10C7800002244C5513881C255B1C9BB21380CD548E
:10C7900013885B1C9BB21380012807D0022807D0A6
:10C7A000032807D0042807D0072030BD002004E06C
:10C7B000012002E0CC5401E00320C8541088401C42
:10C7C0001080002030BD7CB5054608880C46093035
:10C7D000904201D90C207CBD684671DF0028FAD157
:10C7E00021880820685420881B21401C80B22080AA
:10C7F0002954208800A9401C80B2208040190622BC
:10C80000013102F0E3FB20886946801D80B2208060
:10C810000978002900D0012129542088401C20805B
:10C8200000207CBDF8B50F46017814460546012965
:10C8300002D16878002806D02088821C9A422DD820
:10C84000012902D006E00720F8BD69784118891C4B
:10C85000994223D8181A801E86B26846068021881D
:10C86000B81C081869467DDF0028EDD12878022819
:10C8700005D169460988B14201D809210AE0082199
:10C88000012805D16878B04202D86A46108001E0DC
:10C890006846068068460088FE2801D90C20F8BD4D
:10C8A0002288401CB8542088401C80B22080395413
:10C8B00020886946401C208009884018208000207C
:10C8C000F8BDF8B50646108814468446801D0D460E
:10C8D000984201D90C20F8BD32880720062AFAD3E5
:10C8E0001927FF01554BBA4201D99A42F3D17188F9
:10C8F0000629F0D3B94201D99942ECD19A4203D02A
:10C90000994201D08A42E6D8052160462954208800
:10C910001221401C80B2208029542088401C80B203
:10C92000208041193088FFF71FFF2188401880B20E
:10C93000208041197088FFF717FF21884018208058
:10C940000020F8BD70B5144682880E460546208842
:10C95000111D4118921C994201D8FE2A01D90C20C0
:10C9600070BD521C32542088FF21401C80B22080B0
:10C9700031542088401C80B2208081192888FFF71C
:10C98000F3FE2188401880B22080AA88002A09D0AE
:10C99000A968002908D0801902F018FB2088A9880E
:10C9A00040182080002070BD072070BDFFB50746ED
:10C9B000806A81B0144600283DD0002538462030DA
:10C9C000009033E00C20B96A68430E18B088801CD0
:10C9D000FE2802D90C2005B0F0BD22880299401C27
:10C9E000885420881622401C80B2208002990A5464
:10C9F0002088401C80B22080029941183088FFF7BF
:10CA0000B3FE2188401880B22080B288002A0AD064
:10CA1000B16800290FD0029BC01802F0D7FA208815
:10CA2000B188401820806D1C0098EDB2007BA842B0
:10CA3000C8D80020CFE70720CDE70000FFFF0000A7
:10CA400038B56749674A488890420FD04A78664CA3
:10CA5000521CD2B24A70237B934208D3091D75DF62
:10CA6000002803D0A169002900D0884738BD0025DF
:10CA70004D70217C002907D03B2176DF002803D0B0
:10CA8000A169002900D0884761690029EED0684675
:10CA90000570884738BD70B5054601461C225248CE
:10CAA00002F094FA4E4C002626702968002906D020
:10CAB0000822201D02F08AFA201D7ADF02E0484891
:10CAC000001D7BDF002807D1401E60806670474A4A
:10CAD0000021474800F036FE70BD10B5444800689C
:10CAE00000F0A2FE10BDF8B53D480C3000F06BF828
:10CAF00000263B4D3C4C002807D0616900291CD022
:10CB000001206A461070684616E02878002805D093
:10CB10006169002911D0684606700DE06878002828
:10CB20000DD0A16832480022006800F044FE0028C1
:10CB300003D0A169002900D088472E70F8BD616834
:10CB4000F0E7F8B5284C02880027254DE689102A21
:10CB500017D02749112A21D0122A2DD0502A0FD1BF
:10CB6000C288801DB2420BD1028B022A08D1C27E3C
:10CB7000837E10021843C007C00F13D0FFF7B3FF26
:10CB8000F8BD8188698001461548082216310C30AD
:10CB900002F01CFA6F70002EF0D0F8BD0020C043E8
:10CBA00068806F70086800F03FFE0028F5D0A1692A
:10CBB0000029F2D08847F8BD811D094808220C30B1
:10CBC00002F004FADAE741880548001D0288914224
:10CBD00004D34088814201D801207047002070476B
:10CBE000002C0020FFFF00004C30002041CA030051
:10CBF000B0F0030030B585B0002822D00388FE4C89
:10CC0000A34220D0FD4B1B78002B1CD0FB4B1025E2
:10CC10005B1C1D705970002401259A70032269461F
:10CC20000A820094019402940394028A0A808D700F
:10CC30008C8004A90291039300886946A6DF05B0A1
:10CC400030BD0E20FBE70820F9E7F0B58BB00C46AD
:10CC5000054602216846017301268674E28A8282B3
:10CC6000228BC28220461A30002706900897684619
:10CC70000184478407A80990A98A288808AAA5DF03
:10CC8000002804D0E96A002919D0884717E06846CF
:10CC9000808BC007C00F12D068460782288803A97E
:10CCA000A8DF002812D1A17E20461B300B0002F025
:10CCB000DBF909420F1C22242729402B4200FF20C8
:10CCC000FE3069460882288803A9A8DF0BB0F0BDB2
:10CCD0006A4617700BE006221BE069460E7201904F
:10CCE000AA6A284690470020F0E76A461670228B11
:10CCF000022AF2D2EFE7022000E00320694614E0A6
:10CD00000420FBE70520F9E7218B032905D2032244
:10CD100008212846FFF76EFFD8E74178027808021D
:10CD200010436946888002D006200870D8E70720A3
:10CD3000FBE70920E2E70322EBE730B585B00D46BB
:10CD4000040038D0002D36D06868002833D0002089
:10CD5000C043AB4B20800FCB049301AB07C3A94862
:10CD60006946088001A8811E63DF002822D1221DA8
:10CD700069460120A0DF00281CD168468078A07198
:10CD8000204600F0CEF8002814D1204600F059F9D2
:10CD900000280FD12946204600F004F9002809D1C7
:10CDA0006868A062A868002800D0E062934901206A
:10CDB0000870002043E70E2041E73EB5002828D048
:10CDC000002926D0826A002A23D00A88102A21D07E
:10CDD000112A30D0502A1FD0512A1AD10A460446AF
:10CDE000891D0878022814D14888238A984210D1D6
:10CDF000907A04280DD006280BD0052809D02046AB
:10CE0000891CFFF722FF002803D0E16A002900D027
:10CE100088473EBD898810E0CB8802899342F8D1CB
:10CE200008226B461A708A7F1A7220310191826A39
:10CE3000694690473EBD0021C94301803EBDF0B523
:10CE400085B00A4605002DD028886B4988422BD032
:10CE50006A480078002827D0684C1020641C207095
:10CE6000072060700127A770032168460182002611
:10CE7000E11C104600F04CF801466846008A09188B
:10CE8000684601820096019602960396298A0180DF
:10CE90008770868004A80394029028886946A6DFDC
:10CEA00005B0F0BD0E20FBE70820F9E7F0B585B02E
:10CEB0000A46050028D028884F49884226D04F4886
:10CEC0000078002822D04D4C1120641C20700127CE
:10CED000684607820026611C104600F019F80146DA
:10CEE0006846008A091868460182009601960296F3
:10CEF0000396298A01808770868004A80394029093
:10CF000028886946A6DFCBE70E20C9E70820C7E7D7
:10CF10000870020A4A70020C8A70000EC870042061
:10CF2000704730B58FB005461C21684602F067F89F
:10CF30006946087804210843694608700024019472
:10CF40000394049405940694A87908A988702D4840
:10CF50006946801C0884601C00070794000F0C774A
:10CF6000103048778A7FF9200240F720921C024057
:10CF7000EF200240012002438A77142109A802F021
:10CF80003EF808A8099007A80A9069468C851420E5
:10CF9000CC8508860D942B46A888083309AAA2DF01
:10CFA0000FB030BDF0B58FB00F4605461C21684666
:10CFB00002F025F86846017802263143017000240A
:10CFC00001940394049405940694A97908A88170A7
:10CFD0000C496846091D0184601C0107090F684659
:10CFE0001031079401770020014668464177817F20
:10CFF000F9200140F72007E0FFFF0000142C00207B
:10D00000B4F0030030150000891C0140EF200140FE
:10D010000120014368468177142109A801F0EFFF40
:10D0200008A8099007A80A9068468685C4850686E0
:10D030000D972B46A888203309AA6946A2DF0FB0B6
:10D04000F0BD30B58FB005461C21684601F0D7FF12
:10D050006946087808210843102210436946087081
:10D06000002401940394049405940694A87908A9D3
:10D070008870144869460884601C00070794000FF4
:10D080000C7710304877887FF9210840F721801C01
:10D09000084010430121084369468877142109A8F4
:10D0A00001F0ADFF08A8099007A80A9069468C8591
:10D0B0001720CC8508860D942B46A888103309AA22
:10D0C000A2DF6DE73115000031B5054C04E0401ECC
:10D0D00000902046FFF710F800980028F7D138BDDF
:10D0E000E703000018225043854A0021801801718F
:10D0F00081604161022281610261C160704770B547
:10D100007F4C182221780F2051430A197D49167946
:10D110005369121D4D68012E0FD0032E0CD1012032
:10D120000007006981B2184601F03AFF401928DF74
:10D13000002801D10121A17070BDA8025568516974
:10D140002D1A091892681818101801229202954297
:10D1500002D2AA0829DFEBE7FF22013229DFE7E745
:10D16000F8B5674C069E65780A2D1DD027787D1985
:10D17000EDB20A2D01D30A3DEDB218277D432D19DA
:10D180002871AA6103C9EE60AB6069612861A1786A
:10D190000020002904D1FFF7B2FF112800D10020A0
:10D1A0006178491C6170F8BD0420F8BDF8B5544C95
:10D1B0000022A17801293ED10023A3700646214612
:10D1C00008781827054678434118022E03D0032E0D
:10D1D00031D10D202CE04B484668761C46608968AA
:10D1E000B6028E4214D343606078401E6070681CA3
:10D1F000C0B220700A2801D30A3820701820684372
:10D2000001191046091D00F06BF82846FFF76AFF68
:10D21000607800280FD0A07800280CD1FFF76FFFAE
:10D22000002808D0112806D0217818225143091966
:10D23000091D00F055F8F8BD70B50024314E304896
:10D24000746004704470847025462846FFF74AFFD6
:10D250006D1C0A2DF9D32B4934600020083174600D
:10D260008200401C8C500228FAD3002070BD10B5FB
:10D27000244B1A68022A09D00A601C46910008341F
:10D2800000686050521C00201A6010BD042010BDC0
:10D29000F8B507461D4616460C46084600F01AF833
:10D2A00000280CD0601900F015F8002807D033468C
:10D2B0002246394601200095FFF752FFF8BD1020A5
:10D2C000F8BD08B50B460022014603200092FFF787
:10D2D00047FF08BD800701D000207047012070473C
:10D2E00038B50C46E268074B920008339D58097820
:10D2F00062680092024620460C306369A84738BD38
:10D30000683000201C2C0020BFF34F8F08490748CD
:10D31000C860BFF34F8F00BFFDE70EB5002102903C
:10D3200000916A4601910348FFF7EEFF0400FA05F9
:10D3300000ED00E00140000030B5CB0008339DB2A5
:10D3400093070024002B01D0072030BD554B9A6075
:10D350005219DA605C701C7058809980002030BDD2
:10D36000F7B5504C82B060880F4681426AD80020E1
:10D37000694608704D494C4E4868C005C00D18D02C
:10D38000103840B2002807DA0207120F083A920854
:10D3900092005118C96904E08108454A890089183A
:10D3A00009688007C00EC1400806850F012D01D114
:10D3B00008E00425684636DF02280AD0002801D09C
:10D3C000FFF7ABFF22786078A188884203DA401C1F
:10D3D00002E072B6F6E70020C0B2904207D066784D
:10D3E0006078884201DA401C00E000206070012D66
:10D3F00009D062B66846007837DF022803D00028DB
:10D4000001D0FFF78AFF2848864219D0A068F500AE
:10D4100004994151029900290CD0002F0AD060884C
:10D420003A464643E068301801F0D0FDA06828185D
:10D43000878002E0002128188180002005B0F0BD1F
:10D440000420FBE70920F9E70EB504E0684681886F
:10D45000029A0098904702AA01A9684600F003F8D2
:10D460000028F3D00EBD70B50E4B05241D785E78F4
:10D47000AE4215D01D781C789E88B44201DA641C37
:10D4800000E000241C705C88DE686C43A419046012
:10D490009B68E800C418A4880C8018580024106009
:10D4A000204670BD2C2C0020FFFF000000ED00E0A6
:10D4B00000E400E08307FF22DB0E9A408907090E93
:10D4C000994000280BDA0007000F08388308F94854
:10D4D0009B001818C36993430B43C36170478308CB
:10D4E000F5489B001B181868904308431860704764
:10D4F00070B50124F14960040860F149401088606A
:10D50000EF4940398860EF4D6C602F20FEF704FE34
:10D51000AC60ED4D00242F202C61FEF7FDFDEC707A
:10D5200070BDF8B5E849C8680A690C780F79896850
:10D530008646944600913EE00099E20055182A780C
:10D5400036E0182353436968521CC918AB78D2B22D
:10D55000934200D100220B78022B02D0032B27D15B
:10D5600023E04E680346014603E0B14204D00B4677
:10D57000C96900291CD0F8E7002919D08B4208D1CD
:10D58000C069002805D1CF4F0126BE600026B446F1
:10D5900001270E68C969D961002909D00B689B1958
:10D5A0000B6005E00174C06900E000210028F9D19A
:10D5B00069789142C5D12146641EE4B20029BBD1ED
:10D5C000C14962460A61C8600F71704501D00120EF
:10D5D000F8BD0020F8BDF8B50446BB480026C16878
:10D5E000009107784EE0B848F90080680D1843E0D4
:10D5F000002C02D02046E4691FE02878182141431E
:10D600006A68401CC0B251182870AA78904200D1B4
:10D610002E700A784868012A30D1027C002A2DD168
:10D620008A684260CA6882600A69C2604969816129
:10D63000A5490979002900D04660A34943680A69D1
:10D640009C46991A0902A14B090A994202D28268A2
:10D65000891807E06146511A09028268090A8A425C
:10D6600002D9511A016000E006604660012186601F
:10D670000174C66100F0FFF8002CB9D128786978F0
:10D680008842BAD138467F1EFFB20028ABD18E48FF
:10D69000C1680098814201D00120F8BD0020F8BD8A
:10D6A00010B58B490020086048608860C8608849D0
:10D6B00040390860486000F016F910BD10B500F060
:10D6C0004DF910BDFFB59007002581B014460E46F8
:10D6D000002833D17C4F002C32D0FFF709FF04988B
:10D6E00078610320387033461821224600204B43CE
:10D6F000BC601834C10089180D704D708E704C607C
:10D700001C19401C0328F5DBFD607D700124714865
:10D71000BD702405046003211420FFF7CBFE674889
:10D72000803804606C4C0198A06003211120FFF741
:10D73000C1FE60683861002005B0F0BD0720FBE73E
:10D74000BD60FBE7604B9B68002B07D0002A07D029
:10D75000002805D00068037C002B03D00820704708
:10D760000720704741744261002070475149486862
:10D77000C005C00D19D0103840B2002807DA0207E2
:10D78000120F083A920892005118C96904E0810802
:10D79000494A8900891809688007C00EC1400806F7
:10D7A000800F012803D0032803D0022070470020F7
:10D7B000704701207047FEB50D46434917468968FA
:10D7C000044600292AD0002C28D0052D01D207209C
:10D7D000FEBD6069002821D0607C012820D0002691
:10D7E000FFF7C4FFC00038490190896840186946B6
:10D7F00000F0F4F8002815D001210170364944608A
:10D8000049680830E2C03049019889684118684683
:10D810000078487000F062F80020FEBD0820FEBDD0
:10D820002E46DDE70420FEBDF8B5274D0446A96865
:10D8300000291CD0002C1AD06069002817D00026BF
:10D840002674FFF793FFC700A8686946381800F0F0
:10D85000C5F800280DD0022101704460A86839186D
:10D8600068460078487000F039F83046F8BD082066
:10D87000F8BD0420F8BD10B5134BD968002906D0B7
:10D8800002680C68A24204D8A21A0A60C161D8607A
:10D8900010BD0B4604E00B46C969121B002904D0D9
:10D8A0000C689442F7D3A41A0C600260C161D8617D
:10D8B00010BD000000ED00E000E400E080E100E0C9
:10D8C00040130140001001403C2C0020FFFF7F006E
:10D8D0004011014080E200E00015014001207B4939
:10D8E000000508607047F8B5794DEC68002C34D01D
:10D8F0007848002740682969401A0602360A2068DD
:10D90000B04218D8361AC7192246107CE46900289C
:10D910000FD0002010746B69002B07D091695069FB
:10D920009847002805D0FFF7F8FC02E0516990699C
:10D930008847002CE3D16978A878814206D1401C41
:10D94000C0B2A870022801D10020A870604900066A
:10D95000800D18310F50FFF7C1FFF8BDFEB55C4CCC
:10D9600000252769E0680290684600F04AF80190B7
:10D97000FFF7D7FD06460198002822D00023009823
:10D98000E16817E00E680A46864202D9301A08603C
:10D9900012E0801BF31800261660D668D169B446E1
:10D9A000002E07D0FE183602360A5660664696608C
:10D9B000D56115460029E5D12846E160FFF70BFE49
:10D9C00006E02846FFF707FE002801D1002E02D00E
:10D9D000029800F033F800202071FEBD4278837871
:10D9E000521CD2B2934200D100220378934201D15B
:10D9F000002070470A704168407818225043081888
:10DA0000704710B5324900234A788C78A24212D070
:10DA1000521CD2B24A70022A00D14B704A782C4B69
:10DA2000920018339A580260086910180002000A20
:10DA3000086101203CE70360002039E7F8B524487D
:10DA4000C16800293ED00E6822494C680769C07839
:10DA5000E11B0D022D0AED1C002815D101201E4AE4
:10DA6000000450601C4A403A506018494000803120
:10DA700008601A4908601A49012008602F20FEF743
:10DA80004BFB13490120C870B54200D23546E81956
:10DA90000002104B000A403318600E4A5168001B08
:10DAA000091B0902090A0002000AC91C814208D99F
:10DAB000506818602F20FEF72FFB01200349400417
:10DAC0000860F8BDFFF714FDF8BD000000E200E0BB
:10DAD0003C2C0020001501404013014000E100E013
:10DAE0000010014010B50446082902D00020FFF7BD
:10DAF00014FC21686068884710BD1CB50191009036
:10DB0000024A08216846FFF72BFC1CBDE5DA03003A
:10DB100010B5AE480378012B03D1012901D10221B0
:10DB20000170100001D0FFF7F8FB10BD10B5A74C35
:10DB300048DF002801D0FFF7F0FBFFF785FC2078D5
:10DB4000022803D0032801D00428F1D110BD38B534
:10DB50000068401C19D00024684600F03FF9009886
:10DB60000178012910D1418800290AD08168032059
:10DB700000038068002200F03BF900994988814247
:10DB800001D1012400E00024204638BD10B5044630
:10DB90008E481C21001DFFF794FB002801D0FFF7E1
:10DBA000BCFB8A4800231C222146001DFFF770FBA6
:10DBB000002801D0FFF7B1FB10BD0FB4F8B56846DF
:10DBC00000F00CF96846027E418B01237F4CFF2553
:10DBD0007F48002A12D0012A16D0032A2AD0002119
:10DBE000022A36D0052A46D0042A4CD0062A01D172
:10DBF00004202070F8BC08BC04B018474180099983
:10DC000081600370057110E04180089A07998918B6
:10DC1000099A89188160A521017005710799C16071
:10DC20000899426101610A99816123706848FFF790
:10DC3000ADFFDFE700990A7802704A884280896860
:10DC40008160AA2101710799C16008990161099950
:10DC50000BE0009A1678A52E09D0067056884680EB
:10DC6000926882600571C16001614161DDE74180B8
:10DC700081600570F6E700F0DBF9002801D0FFF7BE
:10DC80004CFB0320B5E7418081600570009909795C
:10DC90000171CBE70EB54F4A6B4607CA07C3FFF7C2
:10DCA000CBFA002807D14949FF208002091D4860AE
:10DCB0006846FFF7DCFA0EBD10B500F050FE0028F4
:10DCC00005D100F083FB0446FFF730FF204610BD6E
:10DCD00070B511DF002801D0FFF71FFB3E4900207F
:10DCE0000A683D4B012180330C468440144204D025
:10DCF000C506ED0E0C46AC401C60401C2028F3D33A
:10DD000003242403A06813DF002801D0FFF705FBDC
:10DD1000A06800F069F870BD08B5684600F05EF8CC
:10DD200000980178A52904D00079AA2801D0002004
:10DD300008BD012008BD10B500F0E5FF002803D1A3
:10DD400000F0C3FF002815D06420FFF7BDF900F0F4
:10DD500066FF002801D0FFF7E0FA00F0D4FF0028AA
:10DD600001D0FFF7DAFA00F094FF041E01D0FFF7AC
:10DD7000D4FA204610BD00B5164987B014220C31E4
:10DD800001A801F023F90598009001A80FC8FFF73A
:10DD900014FFFFF7CBFE002007B000BD38B50446E6
:10DDA000684600F01BF80098017821704188618076
:10DDB0008168A16001792171C168E1600169216117
:10DDC000416961618069A06138BD00005C2C002060
:10DDD0005C310020C4F0030000E100E00149016073
:10DDE0007047000000FC030010B5FEF7A5F910BD58
:10DDF00010B50446002A02D01088002210E00A481C
:10DE0000FBE7030A00020343A05C584003061B0F14
:10DE100043401803584083B21806C00C5840521CA7
:10DE20008A42EED310BD0000FFFF000070B5002550
:10DE30000C290ED304464318008941000919581AC9
:10DE40000A38C2B21E48022A027002D30A318B423B
:10DE500001D2092070BD1B4801F0B8F81A481B49CF
:10DE600002888A4202D02388934218D1408888428F
:10DE700002D06188814212D1144A0323521E2089A4
:10DE80001B03A8420BD9690009194989914204D0A2
:10DE90009E896D1CB6B2B142F3D1002070BD0B203B
:10DEA00070BD10B50022FFF7A3FF064A5178127823
:10DEB00009021143884201D00B2010BD002010BD83
:10DEC000682C00207831002080100010FFFF000037
:10DED00008280CD004DC002807D006280FD108E061
:10DEE0000B280AD00C280AD105E001207047022037
:10DEF00070470320704704207047042901D0062092
:10DF000070470520704770B515460A4603281FD094
:10DF100004281CD1FB4C002906D0E088FA4988422D
:10DF200015D0132176DF0EE0284600F0EDFB002827
:10DF300001D0FFF7F2F9A069A84208D1012203211C
:10DF4000F248FEF757FE002801D0FFF7E6F970BD52
:10DF500001211046FFF7BCFF02460121F0E7F0B5B2
:10DF60000546087A0E4685B081070AD0032211467D
:10DF70002846FEF73FFE002801D0FFF7CEF905B096
:10DF8000F0BDE0490090143100F097FB010011D181
:10DF9000DC4C7168009A606901F018F8009800F094
:10DFA000E6FB010006D120466946143000F0EBFB89
:10DFB000010003D0284600F0CFFAE0E704200190EA
:10DFC0000098800802906069039001A800F043FD6A
:10DFD00007000BD0092F10D0606900F095FB0100FD
:10DFE00002D0284600F0B8FA3946E3E7307A2169D2
:10DFF000401820616069A061C1E7307A2169411849
:10E00000216160780028BAD06089401E0004000CAD
:10E010006081B4D12846FEF749FF002801D0FFF700
:10E020007CF920896081AAE710B5FFF776F910BD69
:10E0300010B5B44C01202070E088B349884206D066
:10E04000132176DF00280FD0FFF767F90CE0A078E6
:10E05000002809D074DF002801D0FFF75EF91520F1
:10E0600000F048FA0020A070FEF737FD002801D02C
:10E07000FFF753F9002010BD70B50D78044601205C
:10E08000A04A2B0000F0F0FF0A252A3D06111C5182
:10E0900056405A1000F053FD0421FFF719FF0246C5
:10E0A000042128E0FFF739F970BDFFF7C1FF002810
:10E0B00001D0FFF732F900F05DFD002806D170BDF8
:10E0C000FFF7B6FF002801D0FFF727F900F065FD44
:10E0D00070BD107148680078507170BD02201071D9
:10E0E000486800780128F8D100F0E9FC0221FFF728
:10E0F000EFFE024602212046FEF77CFD0028D1D12A
:10E1000070BD0320107170BD12792046012A06D01F
:10E11000022A07D0032AF6D1FFF721FF70BD00F0D5
:10E120002CFA70BD00F064FA70BD507088881081C0
:10E13000508170BD00205070108170BD2046116963
:10E14000FEF77DFEDAE710B50446704890B081799D
:10E15000684681706E490180382101A800F04FFFA8
:10E1600002216846017100218171C4710121818100
:10E170000490002101A8FEF7C3FA002801D0FFF7A0
:10E18000CCF810B010BDF0B55E4C8BB0A078002874
:10E190003CD15E481821183800F031FF20465B4C16
:10E1A000C078183C00250126002839D0274648377A
:10E1B00000950195029510226946F81D039500F01F
:10E1C00029FF002824D0F81D089009976846067595
:10E1D00009A804906846067708A806900420FFF76F
:10E1E000B2FF25700220207204A8E060282020825F
:10E1F00046486582183873DF002801D0FFF78DF894
:10E20000012044494005C8603E4886700BB0F0BD0F
:10E210000520FFF798FF2670676025722582E7E7E3
:10E220000620FFF790FF257065602572DEE7F0B5E8
:10E230000546344C008800270122E688A7B017283D
:10E2400010D024DC112843D00EDC02287DD0102809
:10E2500008D130498004C860152000F04BF9A88827
:10E26000E080A77027B0F0BD284C3034274618371F
:10E27000132851D01428F5D1E889628D00219042ED
:10E2800000D139460023A888E21D82DF1BE0512817
:10E290006CD00EDC18287DD01928E3D1A87900288D
:10E2A000E0D1A770E068401EE0604FD0FFF76BFF41
:10E2B000D8E7522876D05528D4D1A8790028D1D1D2
:10E2C0001321304676DF0028CCD0FFF726F8C9E7C7
:10E2D0008020694688803220E060162000F00AF92C
:10E2E000012301AA06A9E088AADF002801D0FFF7D0
:10E2F00014F82078002801D1FFF745FF0020C04323
:10E30000E080AFE76C2C0020FFFF00009C31002074
:10E3100030150000000500500722D14910A800F078
:10E3200055FE1022E11D0CA800F050FE1C223946BB
:10E3300012A800F04BFE0CA80A9012A8099006AB98
:10E34000C84A852130467FDFBDE70BE01422C6496D
:10E3500006A800F03BFE0A9806AC00900FCCFFF731
:10E360002CFC7FE70021304667DFACE7A979002964
:10E370009ED0A87A042803D0062801D0052897D17A
:10E3800002290BD068460272FF20833069468881DB
:10E3900002A900E006E03046A8DF94E702206946C3
:10E3A0000872F1E700F0ABF88DE710B50446FEF710
:10E3B000C8FBAB4821463038FEF7FFFC2046FFF78C
:10E3C00036FF10BD10B5FEF7A8FF10BD30B5A54D46
:10E3D00087B000241C3D2C702C71152000F084F8AF
:10E3E000162000F081F8152000F084F8162000F0C7
:10E3F00081F89E4800F01AFD002870D19C4800F07A
:10E40000E0FA00F04BF9002869D19548FDF7DAFEF3
:10E41000002866D0684671DF002801D0FEF77DFF36
:10E4200069464878401C4870002070DF002801D001
:10E43000FEF773FF11206946087207228DA102A81A
:10E440007CDF002801D0FEF768FF00940C216846AD
:10E450000194018018214180FF2184809131C18085
:10E460007ADF002801D0FEF758FF082069460094A3
:10E470000880824801908248029079483038FEF73F
:10E480005CFC002801D0FEF748FF1C21684600F024
:10E49000B6FD7C4801900120800302900094032186
:10E4A00068460173C48104747748069005946846F1
:10E4B000FEF7F1FA002801D0FEF72FFF6949E122AB
:10E4C0000878400840001040DF220C3010400870EF
:10E4D0000720487010208870FFF755FE002007B015
:10E4E00030BD0120E870A5E7684A0321800080184C
:10E4F000016070470121814065488160704770B5B7
:10E50000584C644D1C3CE088A84201D1082070BDE5
:10E51000E17800291BD05249012308223431A9DFB8
:10E520000028F4D1022300221146E088A9DF002848
:10E53000EDD12A460C21E088A7DF5749884204D054
:10E54000082802D0891C8842E1D1002070BD002338
:10E550001A461946A9DF70BD10B50A4604460321C4
:10E560001046FFF7B5FC024603212046FEF742FBAA
:10E57000002801D0FEF7D1FE10BD30B5054687B0AA
:10E580000020009001900290039036486A461C38A3
:10E5900040791070344A0C3A1068926804906846CA
:10E5A00006920590087A0C2804D0032219E0FEF7A1
:10E5B000B4FE94E74C68204600F047F80190201D17
:10E5C00000F043F802902046083000F03EF8039037
:10E5D00004A800F0F9F9002881D00121FFF778FCA8
:10E5E000024601212846FEF705FB0028DFD176E729
:10E5F000FEB50446087A82070ED08207920F0423E4
:10E600009B1A0022154604E04E683554401CC0B2E7
:10E61000521C9A42F8D30872012000904868029078
:10E62000087A80080190684600F060FA00280BD054
:10E630000221FFF74DFC024602212046FEF7DAFADE
:10E64000002801D0FEF769FEFEBD10B5044600F0BB
:10E65000EEFC0002E178000A0906084310BD000044
:10E66000CC310020882C0020F0F00300ABE3030045
:10E6700007DF0300446675546172670079E00300A8
:10E68000C5E30300CD0C000029E0030000070050A3
:10E6900000050050FFFF0000023000004B48002141
:10E6A00001704C484A4A02608160C16001610822E1
:10E6B0004161426081610846704710B500291DD054
:10E6C00000220A60434A5368002B1BD0202817D829
:10E6D0005B1E5360D0682423401CD060106914680E
:10E6E0004343E3180B60012383409169401C1943A5
:10E6F0004007400F91611061002010BD0E2010BD39
:10E700000C2010BD042010BDF0B5324A06469168B9
:10E7100000292AD057691020791A4907490F14682F
:10E720000B4624254D436519B54206D10124956950
:10E730008C4065400020956104E0491C4907490F61
:10E740008F42EED1491C4E07760F956901210C4688
:10E750009C4025420AD19368002B07D05B1E936032
:10E7600053685B1C53603346F1E70420F0BD194A3F
:10E770002423117C1268491E4907490F594320314F
:10E7800050500020704770B500281AD0002918D0CA
:10E79000104AD368002B16D05B1ED36093682426E2
:10E7A0005B1C9360536915681C467343EE18203355
:10E7B0000660E858641C08606007400F5061002044
:10E7C00070BD0E2070BD042070BD00008D2C002097
:10E7D000083200202833002070B5FF4C1E466078B8
:10E7E0001546012902D0032916D108E0052813D1C6
:10E7F0006369002B10D03246294604200BE0022822
:10E800000AD1F64840688047032060706369002B96
:10E8100002D0324629469847280001D0FEF77DFDF8
:10E8200070BD00B5EC4987B001200870052069462D
:10E8300008710598009001A80FC8FFF7BEF907B04E
:10E8400000BD10B5E4480078002801D0082010BDB4
:10E85000E34C2068FEF7E8FF002801D0FEF75DFDDD
:10E860000F21002289042068FEF7A5FF041E01D0B5
:10E87000FEF753FD204610BDD74910B5D6481831D4
:10E88000016102214170C1681830FEF71AFD0028AD
:10E8900001D0FEF742FD10BD00B5D14987B014226A
:10E8A000091D01A800F092FB0598009001A80FC86F
:10E8B000FFF783F9C3E700B587B00121684601710E
:10E8C000C54881886846C1800320000380680590A0
:10E8D000C24850384168029181680391C068049031
:10E8E000059800900A46049B02990198FFF765F984
:10E8F0000020A4E710B586B0142101A800F07FFB2A
:10E90000002468460471B44881886846C180B348D1
:10E910005038C06804900598009001A80FC8FFF710
:10E920004CF9204606B010BD00B587B003216846FB
:10E930000171A94881886846C180A848503841685B
:10E94000029181680391C0680490059800900A467E
:10E95000049B02990198FFF730F900206FE7FEB59C
:10E960009F4E6B463046183007C807C39A4C0025A7
:10E97000A5702146A58018316846FEF778FC00286E
:10E9800001D06570FEBD03209349000380681831F3
:10E990004860944A00219248FEF7D4FE002801D036
:10E9A000FEF7BBFC0F21002289043068FEF703FF4D
:10E9B000002801D0FEF7B1FC0120A56060700020A6
:10E9C000FEBD85494861704770B542688348146848
:10E9D000536891685038D26804604360C2608160B7
:10E9E0000078440701D5840705D19C0703D18C0723
:10E9F00001D1940701D0062070BD5B189A18764D9E
:10EA00000F239B02EA60994206D803210903896813
:10EA10001B01591A914201D20C2070BD6F4C7249F2
:10EA2000216072496160C10701D0714804E080072C
:10EA300001D5704800E07048A0606878012802D0D5
:10EA40000826304670BDFFF7FCFE0600FAD12168AB
:10EA5000E8688847F5E770B5050004D0287A800794
:10EA600003D0102070BD0E2070BD5B4C6078032871
:10EA700003D0042801D0052801D0082070BD6868A3
:10EA8000E1688600A0688019884204D90020C0434C
:10EA9000A0600C2070BDFFF7D4FE0028FAD1A96851
:10EAA0003246A3682069FEF7F3FB0028F2D1A16883
:10EAB0008919A160E2689142ECD0092070BD10B5BF
:10EAC000454C0820A168002900D010BD61780429B8
:10EAD000FBD14248A1784038FFF7A8F9002802D0BE
:10EAE0000021A17010BD0521617010BDF8B53A4C30
:10EAF00007466078032804D0042804D00825284657
:10EB0000F8BD04206070A068002801D00820F8BD7E
:10EB1000FFF797FE0500FAD178688600A078811982
:10EB2000402901D90920F8BD2C4AB968403A10188B
:10EB3000324600F04BFAA0788019A070DFE710B5DC
:10EB4000254C6078052813D1E168A06888420FD170
:10EB500006206070FFF775FE002808D12069E16883
:10EB60004068FFF79EF9002801D10721617010BDB0
:10EB7000082010BD10B518484078072801D008209B
:10EB800010BD17480068FEF74FFE002801D0FEF7C1
:10EB9000C4FB12488068804710BD00B587B00620CE
:10EBA000694608710598009001A80FC8FFF705F89D
:10EBB00045E6F8B51C4617460D46064600F0CFF868
:10EBC00000282BD00120000385421BD9291B234696
:10EBD000301B1A4612E00000942C0020B4330020B1
:10EBE00004F1030023E8030079E8030099E8030037
:10EBF000B7E8030029E90300F5E80300FFF7D9FFB0
:10EC000000280BD13A462946304600F0B3F80028D8
:10EC100004D13A462946304600F0A1F8F8BDF0B5D7
:10EC200089B06846FFF7BAF8039800282AD0012176
:10EC30000903069A4018904226D9501A45081046F2
:10EC4000039A0C46871802466800161800190790A8
:10EC5000032000038068039988420DD26119084699
:10EC6000042200F087F800280CD12146042208462F
:10EC700000F080F8002805D1BA1B2B4630460799D2
:10EC8000FFF797FF09B0F0BD039A069800F072F8FD
:10EC9000F8E700B58BB004A8FFF780F808980028C3
:10ECA0000DD0079800280CD007990A9840180190B9
:10ECB00000210898009180080290684618DF0BB088
:10ECC00000BD032000038068F1E700B58BB004A805
:10ECD000FFF764F808980028F1D0079800280ED0B4
:10ECE00007990A984018032100910F210290890387
:10ECF0000898019180080390684618DFDFE7032039
:10ED000000038068EFE730B58FB06846FFF746F83C
:10ED10000398002814D001210903069A4018904254
:10ED200014D9501A43081046039A5C00821800193F
:10ED3000611803242403A468039DAC4202D20E2070
:10ED40000FB030BD121AFFF734FFF9E703200BAB09
:10ED500007C3039880080E900BA818DFF0E71FB5D3
:10ED6000032301909008039000930291684618DFF6
:10ED700004B010BD1FB501230190900803900093CB
:10ED80000291684618DFF3E710B5FEF7BDFA10BD33
:10ED9000F8B5434C2078002833D02069002807D0EC
:10EDA0000026E068002805D00025002E04D011E0E0
:10EDB0000126F6E70125F8E7684652DF052804D06A
:10EDC000002804D0FEF7A9FA04E0012602E0216938
:10EDD00000988847002D10D1608869460880A06897
:10EDE00061DF052804D0002804D0FEF796FA04E07D
:10EDF000012502E0E168A0688847002EDCD0002DE4
:10EE0000D3D0F8BD70B5002901D08C0701D0072000
:10EE100070BD234C0125A16062802249636010DF30
:10EE20000028F5D1257016202EDF70BD002803D0F4
:10EE30001B49C860002070470E207047002803D08F
:10EE400017490861002070470E20704710B514481C
:10EE50004068002805D08047002801D0FEF75DFA01
:10EE600010BDFFF795FF10BD70B50E460546144660
:10EE70001421104600F0C3F80120002120802161F8
:10EE8000217326726572002D00D0A072002070BD23
:10EE90001CB5054901910091694660DF1CBD000069
:10EEA000B42C002089ED0300002C002010B50029AF
:10EEB00002D00020FEF731FAFFF76AFF10BD10B54F
:10EEC0000021024A0846FEF74BFA10BDADEE0300E2
:10EED0000321094802680A430260084802680A439D
:10EEE00002600748804707480047FEE7FEE7FEE765
:10EEF000FEE7FEE7FEE70000240500405405004061
:10EF000009EF0300C1C0030010B500F01DF8002890
:10EF100005D01F491D484860C8131E4988611E4816
:10EF2000018CC9B201290ED1818C09070BD1018D49
:10EF30000906090F042906D1808D0006000F02D1B1
:10EF400016490120886010BD1348018CC9B20129FF
:10EF500017D1818C090714D1018D09060A0F03D13D
:10EF6000828D1206120F0ED0090F012903D1828D56
:10EF70001206120F07D0032903D1808D0006000F5F
:10EF800001D000207047012070470000DFFF07C05C
:10EF900000050040006C0040C00F00F0000600407B
:10EFA00030B50B46014600202022012409E00D4621
:10EFB000D5409D4205D31D469540491B25469540A9
:10EFC00040191546521E002DF1DC30BD03460B439F
:10EFD0009B0703D009E008C9121F08C0042AFAD20F
:10EFE00003E00B780370401C491C521EF9D2704795
:10EFF000D2B201E00270401C491EFBD270470022D1
:10F00000F6E710B513460A4604461946FFF7F0FF27
:10F01000204610BD30B504460020034600E05B1CCE
:10F02000934203D2E05CCD5C401BF8D030BD03219D
:10F03000001D401E037812021A43491EF9D51046DE
:10F0400070470000064C0125064E05E0E36807CC3A
:10F050002B430C3C98471034B442F7D3FDF734F8F7
:10F0600028F1030048F1030030B47446641E25788B
:10F07000641CAB4200D21D46635D5B00E31830BCEC
:10F08000184702E008C8121F08C1002AFAD17047C9
:10F090007047002001E001C1121F002AFBD1704718
:10F0A000020000000000000000000000000000005E
:10F0B0002C30002023D1BCEA5F782315DEEF12123A
:10F0C0000000000011DB0300000000000000000051
:10F0D000020000000000000000000000000000002E
:10F0E000000000000300000000000000000000001D
:10F0F000050000000000000000000000000000000B
:10F100000000000044330020040000000000000064
:10F11000000000000000000000000000D9E703002C
:10F12000000000000000000048F10300002C002057
:10F13000CC00000082F0030014F20300CC2C00206D
:10F14000F40E000092F00300000000000000000038
:10F1500000000000000000000000000000000000AF
:10F16000000000000000000000000000000000009F
:10F17000000000000000000000000000000000008F
:10F18000000000000000000000000000000000007F
:10F19000000000000000000000000000000000006F
:10F1A000000000000000000000000000000000005F
:10F1B00000000000000000000000FFFF0000000051
:10F1C000320000000000000000000000000000000D
:10F1D000000000000000000000000000000000002F
:10F1E000000000000000000000000000000000001F
:10F1F000000000000000000000000000000000000F
:10F2000000000000000000000000000000000000FE
:04F210000024F400E2
:020000041000EA
:0410140000C0030015
:040000050003C0C173
:00000001FF
